:020000040800F2
:10400000E02200209D410008B1A50008B99E0008EB
:10401000ADA50008454A0008FDD6000800000000D4
:10402000000000000000000000000000B5A800082B
:10403000994B000800000000C1A50008B9A80008BD
:10404000B7410008B7410008B7410008B741000870
:10405000B7410008B7410008B7410008B741000860
:10406000B7410008B7410008B7410008454B0008B8
:10407000B7410008B7410008514B0008B74100089C
:104080005D4B0008B7410008B7410008B741000880
:10409000B7410008B7410008B7410008B741000820
:1040A000B7410008B7410008B7410008B741000810
:1040B000B7410008B7410008B7410008B741000800
:1040C000B7410008B7410008B7410008B7410008F0
:1040D000B741000801B30008B7410008B741000824
:1040E000B7410008B7410008B7410008B7410008D0
:1040F000E9A90008B7410008B7410008B741000826
:10410000B7410008B7410008B7410008C5A500083D
:10411000B7410008B7410008B7410008B74100089F
:10412000694B0008B7410008754B0008B74100080B
:10413000B74100080000000000000000B74100087F
:10414000494A0008B7410008B7410008B5A5000872
:10415000814B0008B74100088D4B0008B7410008AB
:10416000B7410008B7410008B7410008B74100084F
:10417000B7410008B741000800000000000000003F
:10418000B7410008B7410008DFF80CD000F01AFB77
:104190000048004785230108E022002006488047A8
:1041A00006480047FEE7FEE7FEE7FEE7FEE7FEE71C
:1041B000FEE7FEE7FEE7FEE76DA90008894100087B
:1041C0002DE9F05F0546002092469B46884606464C
:1041D000814640241BE0284641464746224600F0DF
:1041E00011FA53465A46C01A914110D31146184647
:1041F000224600F0F8F92D1A67EB01084F462246D7
:104200000120002100F0EFF917EB00094E41201EBC
:10421000A4F10104DFDC484631462A464346BDE8A6
:10422000F09F40EA01039B0703D009E008C9121F71
:1042300008C0042AFAD203E011F8013B00F8013B60
:10424000521EF9D27047D2B201E000F8012B491E8C
:10425000FBD270470022F6E710B513460A46044623
:104260001946FFF7F0FF204610BD421C10F8011B55
:104270000029FBD1801A70472DE9FE4F804681EA64
:104280000300C00F0C46009021F0004123F00045D0
:10429000B8EB0200A94105D24046214690461C4693
:1042A0000B46024623F00040104347D0270DC7F3CA
:1042B0000A00C3F30A510290401A019040286BDAB9
:1042C000C3F3130040F4801B0098924620B10023F2
:1042D000D2EB030A63EB0B0B01985946C0F1400285
:1042E000504600F080F906460D4650465946019A60
:1042F00000F098F910EB08006141002487EA1152A0
:1043000084EAE7731A4340D0009A62B3019A012A03
:104310004FEA075215DC001B61EB02014FF000422F
:1043200002EA0752CDE90042001C41F580113246F5
:104330002B4600F0F8F903B0BDE8F08F4046214667
:10434000F9E7001B61EB0201001C41F58013001826
:104350005B412018A2F5001747EB030140EAD57036
:10436000B6196D4111E06D084FEA360645EAC07591
:104370004FEA0752001B61EB0201001C41F580115E
:1043800049084FEA30000019514132462B4603B02C
:10439000BDE8F04F00F0B8B90098012240000023BA
:1043A000D0EB020263EBE073009821464FEAE07421
:1043B000B8EB000061EB0401E9E783F000435BE741
:1043C00081F0004158E72DE9FE4F81EA030404F033
:1043D000004421F0004100944FF0000B23F0004313
:1043E00050EA01045ED052EA03045BD0C3F30A54DE
:1043F000C1F30A552C44A4F2F3340194A0FB0254F7
:10440000C1F3130141F48011C3F3130343F4801388
:1044100001FB024400FB034E840A970A44EA8154DC
:1044200047EA8357A4FB076802958D0A05FB0785B9
:104430004FEA932C04FB0C542705029D4FEA0658C3
:1044400047EA1637B5EB08056EEB070C870E920EA0
:1044500047EA811742EA8312A7FB0201B6EB0B0180
:1044600064EB00042B0D43EA0C335E1844EB1C5044
:10447000DA465146E7FB0201C5F313044FEA0B335A
:1044800043EA14534FEA0432019C43EA0603A4F1C1
:104490000C040294009CCDE900B400F044F903B090
:1044A000BDE8F08F00200146F9E72DE9F04D81EAE3
:1044B000030404F0004B21F0004514464FF0000ABD
:1044C00023F0004150EA050220D054EA01021DD039
:1044D000C5F30A570246C5F31303C1F31300C1F332
:1044E0000A5640F4801543F48013A7EB0608101B0E
:1044F000D64608F2FD3873EB050002D308F1010837
:1045000001E092185B41B8F1000F03DA0020014688
:10451000BDE8F08D00204FF48011064684460EE081
:10452000171B73EB050705D3121B63EB050306434B
:104530004CEA010C49084FEA300092185B4150EAFE
:104540000107EDD152EA030012D082EA040083EAA7
:104550000501084305D0101BAB4106D20122002300
:1045600006E000224FF0004302E06FF0010253101A
:104570001AEB06004CEB085110EB0A0041EB0B0163
:10458000BDE8F04D00F0C0B800F0004230F000404F
:104590000AD0C10D01F56071C0F3160042EA015165
:1045A000C20840071143704700200146704701F0E0
:1045B000004330B421F0004150EA010206D00A0D58
:1045C000A2F56072C1F31301002A02DC30BC0020A6
:1045D0007047440F44EAC104C100E01830BC00EB4E
:1045E000C25000F031B8202A04DB203A00FA02F170
:1045F000002070479140C2F1200320FA03F31943D1
:1046000090407047202A04DB203A21FA02F0002172
:10461000704721FA02F3D040C2F1200291400843D2
:1046200019467047202A06DBCB17203A41FA02F0E0
:1046300043EAE07306E041FA02F3D040C2F12002FF
:1046400091400843194670470029A8BF7047401C95
:10465000490008BF20F00100704710B4B0FA80FC98
:1046600000FA0CF050EA010404BF10BC704749B1D5
:10467000CCF1200421FA04F411FA0CF118BF012145
:1046800021430843A3EB0C01CB1D4FEA00614FEA25
:10469000102042BF002010BC704700EBC3501044F4
:1046A0000029A4BF10BC7047401C490008BF20F07F
:1046B000010010BC7047F0B400F0004221F000414E
:1046C00020F00040CE0DC30DC1F3160141F40001EE
:1046D000C0F316004C42154640F40000761E09E077
:1046E00010EB440002D582F0004240428842F7D8E5
:1046F00040005B1EB342F9DA18B1F0BC0021FFF7AD
:10470000ACBF2846F0BC704710B5141E73F100040E
:1047100008DA401C41F1000192185B411A4301D1B3
:1047200020F0010010BD2DE9F04D92469B4611B1DD
:10473000B1FA81F202E0B0FA80F220329046FFF73F
:1047400052FF04460F4640EA0A0041EA0B01534675
:104750005A46084313D0114653EA010019D0C8F154
:1047600040025046FFF74EFF05460E46504659465A
:104770004246FFF738FF084305D0012004E02046F9
:104780003946BDE8F08D0020054346EAE0762C432B
:1047900037430A986305E40AA0EB08000022FD0AEB
:1047A00044EA47540A3002D500200146E9E70105F2
:1047B00010196941DDE9084500196941BDE8F04D6E
:1047C000A2E700001CB50948009009480190054681
:1047D000009C06E0E06840F0010394E80700984779
:1047E0001034AC42F6D3FFF7D3FC000020340108AC
:1047F0004034010830B58C1810F8012B12F00F036B
:1048000001D110F8013B120906D110F8012B03E089
:1048100010F8015B01F8015B5B1EF9D101E001F8C2
:10482000013B521EFBD1A142E6D3002030BD000067
:104830000146806B036C026C13F0500F07D0D20658
:1048400048BF00F069BB806BC26C0846104742F459
:104850000071016401688A6812F0405F01D000F0C5
:10486000E5BA027E002AFAD1CA6A12F4700F02D0A9
:104870008A685205F3D44A6822F020024A60016C2B
:1048800021F480710164016CC90448BF00F0CEBA04
:10489000016C41F00101016400F0C8BA806B402155
:1048A0000164416C41F00401416400F035BB00003B
:1048B000806B00F02FBB00002DE9F04F81B041F676
:1048C000904CC2F2000C41F64C2E0CF15C01002021
:1048D0004FF00108C2F2000E00EB400A0EEB0A098D
:1048E00099F901404FF04B0BB4F1FF3FC8BF4FF0B7
:1048F000230B66064FF04B0658BF2326A7064FF042
:104900004B0758BF2327E2064FF04B0258BF232224
:1049100020074FF04B0058BF232063074FF04B0395
:1049200058BF2323A5074FF04B0558BF2325E407A5
:104930004FF04B0408BF232441E91572A1F14C024A
:1049400029C21EF80A004FF04B0A42B2B2F1FF3FF3
:1049500041E917B641F8404CC8BF4FF0230A43065F
:104960004FF04B0358BF232384064FF04B0458BF2E
:104970002324C5064FF04B0558BF232506074FF0EB
:104980004B0658BF232647074FF04B0758BF232736
:1049900082074FF04B0258BF2322C0074FF04B0055
:1049A00008BF232041F8242C99F8022041F8200C5C
:1049B00050B241E90FA3A1F13403B0F1FF3F4FF032
:1049C0004B09F0C3C8BF4FF0230953064FF04B0308
:1049D00058BF232394064FF04B0458BF2324D50619
:1049E0004FF04B0558BF232516074FF04B0658BF15
:1049F000232657074FF04B0758BF232790074FF048
:104A00004B0058BF2320D2074FF04B0208BF232290
:104A100041E90793A1F1140341F8040C41F8602B1C
:104A200001205FEAC8724FF00008F0C37FF454AF72
:104A30000CF1C0004FF4C871FFF70CFC01B0BDE8E9
:104A4000F08F0000FEE7000041F21810C2F20000F3
:104A500000F0ECBD002070470020704710B540F614
:104A6000AC54C2F2000440F6CA01C2F20001204672
:104A7000002206F011FE40F2CA61C2F20001204697
:104A800006F0FCFD002010BDB0B504460DF0B2FCF0
:104A900040F6AC55C2F200052846214606F0EEFD70
:104AA000284606F0C5FD0020B0BD0000002070477C
:104AB00040F6AC52C2F20002D2F8BC22D2F8143254
:104AC000002B1CBF0120704710B540F6AC54C2F259
:104AD00000040A460146204606F0DEFD2046BDE8F9
:104AE000104006F051BE0000B0B541F6BC14C2F251
:104AF000000420460021002504F002FD2046042188
:104B000004F0FEFC2046082104F0FAFC20460021B7
:104B100003F0E0FE2046042103F0DCFE20460821DD
:104B200003F0D8FE40F20040C4F202004FF40061EE
:104B3000002201F083FC41F6BC30C2F20000057196
:104B4000B0BD000041F20020C2F2000001F076B8D2
:104B500041F2C020C2F2000001F070B841F26020C2
:104B6000C2F2000001F06AB841F24010C2F2000047
:104B700001F064B841F2A010C2F2000001F05EB88A
:104B800041F22030C2F2000001F058B841F280300A
:104B9000C2F2000001F052B87047000010B541F6B3
:104BA000BC14C2F200042046002104F001FB2046A0
:104BB000042104F0FDFA2046082104F0F9FA204609
:104BC000002103F00DFE2046042103F009FE2046DB
:104BD000082103F005FE40F20040C4F202004FF449
:104BE00000610122012401F029FC41F6BC30C2F22F
:104BF0000000047110BD000072B602200DF03AB83A
:104C00002DE9F04140F24428044643F60C46C2F236
:104C100000080020C4F20206C8F81C0001F014FCD1
:104C20003168C90342D43068C0071CBF012030601E
:104C3000306810F0F20F40D03068C00607D5D8F8C1
:104C40001C0040F01000C8F81C00102030603068D4
:104C5000800607D5D8F81C0040F00800C8F81C00F2
:104C6000202030603068400607D5D8F81C0040F09E
:104C70000400C8F81C00402030603068000607D5EA
:104C8000D8F81C0040F00200C8F81C0080203060FA
:104C90003068800707D5D8F81C0040F02000C8F81D
:104CA0001C00022030600120BDE8F0810546671C31
:104CB00006D0B4B90320BDE8F0810020BDE8F08142
:104CC0003068C003AFD567B93068C003ABD547B90A
:104CD0003068C003A7D527B93068C003A3D5002F1B
:104CE000EED001F0B1FB401BA042E9D90320BDE8A2
:104CF000F081000070B581B00022009290F83C2055
:104D0000012A02D1022001B070BDD1F800E00122D9
:104D1000BEF10A0F1FFA8EFC80F83C2009D34FEA3F
:104D20004C02036812FA8EF2A2F11E0403F10C0287
:104D300004E003680EEB4E0403F110020725166829
:104D4000A54026EA050515608D68166805FA04F485
:104D5000344314604968062906D801EB81014A1FD3
:104D6000194651F8345F0EE00C2901EB810105D89A
:104D7000A1F12302194651F8305F04E0A1F141028C
:104D8000194651F82C5F1F24944025EA04040C6056
:104D90000CFA02F20C6842F2043CC4F2010C224309
:104DA000ACF54174A3420A603AD1BEF1120F06D1AC
:104DB000DCF8001041F48001CCF8001030E02EF057
:104DC000010110292CD1DCF80010BEF1100F41F4C4
:104DD0000001CCF8001023D140F22001C2F2000102
:104DE00009684DF68362C4F21B32A1FB0212910CDA
:104DF00001EB810149000091009989B100990139C5
:104E00000091009961B1009901390091009939B17F
:104E1000009901390091009911B100990139EAE72F
:104E2000002180F83C10002001B070BD006842F203
:104E30000001C4F20101884200D0704740F64A5098
:104E4000C2F2000001780029F7D140F64051C2F2C9
:104E500000010A889FED2D2A00EE102A40F69C5290
:104E6000C2F20002B8EE400A92ED001A20EE020AE9
:104E700030EE010A4B8882ED000A40F6A05201EEA6
:104E8000103AC2F20002B8EE411A92ED003A898857
:104E900021EE021A31EE031A03EE101A40F6A45165
:104EA00082ED001AC2F2000140F69852B8EE433A81
:104EB00091ED004AC2F2000223EE022A137832EE8C
:104EC000042A81ED002A591CCBB2642B117018BF43
:104ED00070479FED0F3A40F64C5180EE030A81EE89
:104EE000031A82EE032AC2F2000181ED000A40F6A5
:104EF0005051C2F2000181ED001A40F65451C2F245
:104F0000000181ED002A0121017070474108043D34
:104F10000000C8427047000070470000002804BF2E
:104F20000120704710B5016C39B9044600F0A0F8B3
:104F300020460021616484F83C10016CC9063AD413
:104F4000016C41F202129143023142F204320164D7
:104F5000C4F20102116821F440311160136890E835
:104F600012102343D0F810E013604A68012422F4A1
:104F700080724A604A68C0F6007442EA0E224A60B3
:104F80004A6822F040724A604A6842EA0C024A606B
:104F90008A6822F400628A60C2688B681A438A6059
:104FA000826A8B68A24223F070638B608B6804D1A5
:104FB00023F040520AE0012152E01A438A608A68D5
:104FC00022F040528A60C26A8B681A438A608A68FB
:104FD00022F002028A608A68037E90F8204042EA4A
:104FE00043028A604A6884B142F400624A604A68B7
:104FF0004EF2000322F460424A60426ACFF6FF7329
:105000004C6803EB4232224301E022F400624A6022
:10501000CA6A40F2000C22F47002CA62C369426993
:10502000CFF6F07CCC6A0CEB03532343CB628B6846
:1050300023F400738B6090F830308C6844EA43238B
:105040008B608B6823F480638B608B6843EA8222D9
:105050008A6000214164026C012363F3010202644F
:10506000002280F83C20BDE8104008467047000050
:1050700070B586B00446006842F20011C4F2010126
:1050800000268842CDE90466CDE90266019646D045
:1050900042F20001C4F20101884240F0828043F6EE
:1050A00030000096C4F20200416941F48071416110
:1050B000416901F48071009100990096016841F006
:1050C00001010160006801A900F001000090009852
:1050D000072001900320CDE902060020C4F202005F
:1050E00001F0D4F841F2401546F21040C2F200053A
:1050F000C4F202004FF48061C5E9000605F110001A
:105100004FF400624FF400534FF4807C80E80E109F
:105110004FF40030C5E90266C5E9080638E043F6F9
:1051200030000096C4F20200416941F4007141610F
:10513000416901F40071009100990096016841F005
:1051400001010160006801A900F0010000900098D1
:10515000782001900320CDE902060020C4F202006D
:1051600001F094F846F21040C4F2020041F2A0159A
:105170003030C2F200054FF480624FF0007185E8D4
:105180004300C5E90362C5E90566C5E907666E62C5
:10519000284600F031FE002818BFFFF72DFDA5635B
:1051A000AC6306B070BD0000B0B582B000230193BF
:1051B00090F83C30012B02D1022002B0B0BD8E46E7
:1051C0000123016880F83C308B689446DB0726D1C8
:1051D0008B684DF6836443F001038B6040F220033B
:1051E000C2F200031B68C4F21B34A3FB0434A30CFB
:1051F00003EB43030193019B8BB1019B013B0193A3
:10520000019B63B1019B013B0193019B3BB1019B5E
:10521000013B0193019B13B1019B013BEAE78B68C2
:10522000DB0503D58B6823F480738B608C68036C7B
:10523000E4070BD143F01001016400F144010020A8
:1052400001220B681A430A6002B0B0BD40F201743B
:10525000A34303F5807303644B685B0504D5036CBB
:10526000012464F30D330364046C0023E4044FF061
:10527000000444BF446C24F00604446480F83C30CD
:10528000836B44F6310444F6B102C0F60004C0F664
:105290000002C3E90F4244F69D02C0F60002DA6440
:1052A0006FF022020A604A6842F2043442F08062DF
:1052B0004A608A68054642F480728A604C3118461A
:1052C00072466346C4F2010400F03AFE226829687F
:1052D000D20605D0A4F54172914225D002B0B0BDEE
:1052E00042F20002C4F20102914215D042F20022C1
:1052F000C4F2010291420CD042F20012C4F2010247
:105300009142EBD12268D20606D0A4F58272914276
:10531000E4D12268D206E1D451F8082F12F0405FA0
:10532000DCD14FF080428CE74FF60451CFF6FF718D
:10533000615811F0405FD1D1A4F53F714FF0804228
:105340007FE7000090F82020013A012A04D8006885
:1053500000F11402002004E000F1240201204FF4C7
:1053600080211368194311607047000010B590F850
:1053700020E0D0F800C0AEF1010EBEF1010FDCF864
:1053800008E011D81EF0E05F14D0CEF301640120D4
:10539000A04018608B689BB1D1F804E0C86840EA6F
:1053A000CE0040EA030E0FE000F1240301204FF489
:1053B000802121E000F1240301204FF400111BE0C3
:1053C0000868CB6843EA405E0CF5C07000EB04133C
:1053D000240140F804E00C69184640F8044F097DA8
:1053E000012903D1016841F48071016050680121F5
:1053F000D8601068986000201A681143196010BDC9
:1054000090F82020013A012A30D8B0B546F2006069
:10541000C4F20000026842F001020260026822F455
:105420007C520260D1F814E0CC694A6A0368012C0E
:1054300043EA022202600EF01F024FF0010303FA5A
:1054400002F2C3696FEA020C23EA0203C36113D0BC
:105450002CBBC36803EA0C03C360CB688C8844EAA6
:10546000034300EBCE0423640B4611E0416A41F490
:105470008021416201207047C3681343C3600B68F9
:105480008C8844EA034300EBCE04236401F10C034F
:105490008C681B8843EA044300EBCE0463644368D2
:1054A0008D6943EA0204D1F810E0096A002D08BFB3
:1054B00003EA0C0444604369BEF1000F43EA0204AE
:1054C00008BF03EA0C040129446102D1C1691143F8
:1054D000C161016821F0010101600020B0BD000040
:1054E00070470000B0B590F82040013C012C7AD8FC
:1054F000D0F800C000290CBFDCF80C40DCF81040EC
:10550000A40776D00CF5D8754FEA011C55F80C406D
:1055100014F00404946055F80CE005EB011C19BF6D
:105520004FEADE0555604FEA5E551560DCF8005025
:10553000E64605F00205D5605EF8044F24075ABF21
:10554000DEF8004004F00F0408241461DEF8004087
:105550000029C4F307249461DEF800504FEA154592
:105560005561DCF808201A70026802EB0112D2F8CB
:10557000B8214FEA12225A70026802EB0112D2F8E7
:10558000B8214FEA12429A70026802EB0112D2F877
:10559000B8214FEA1262DA70026802EB0112D2F807
:1055A000BC211A71026802EB0112D2F8BC214FEA49
:1055B00012225A71026802EB0112D2F8BC214FEAA2
:1055C00012429A71026802EB0112D2F8BC214FEA32
:1055D0001262DA7100680CBF00F10C0100F11001D9
:1055E000002020220AE000F1240101204FF4802253
:1055F00004E000F1240101204FF400120B681A436B
:105600000A60B0BD90F820100139012984BF002044
:1056100070470068816882688068C1F38061C2F366
:10562000C0621144C0F30070084470472DE9F04F88
:1056300081B0044600684669D0F804908768D0F8C5
:105640000CB0D0F810A0D0F81880F10703D10025D5
:1056500030071CD423E0F90710D00121BA0781607C
:1056600009D4780700F1AA80380700F1B0802046FD
:1056700000F084FA02E0204600F082FA0025F805E6
:1056800000F18480F80300F1AA80300707D51BF0F1
:10569000100004D0206845F400751021C160700727
:1056A00008D51BF0080005D020680821C1602046FD
:1056B00000F0BAF9B00706D52068C068800702D0AC
:1056C000204600F0B3F9700607D51AF0100004D098
:1056D000206845F4806510210161B00608D51AF0F4
:1056E000080005D0206808210161204600F0E2F999
:1056F000F00606D520680069800702D0204600F039
:10570000DBF9B00308D519F0100005D0206810218E
:105710004160204600F0D2F9F00308D519F00800E6
:1057200005D0206808214160204600F033FA30049B
:1057300040F18F805FEA497040F1888006F4807004
:1057400008EA102028435FEA8871014648BF41F00B
:105750000201B20558BF01465FEA48700D4648BFD6
:1057600045F00405700558BF0D4630056ED518F09C
:1057700070006BD010380009052862D8DFE800F00F
:10578000035C5659535F45F008055AE020684FF412
:105790008071BA0581600AD4780512D4380519D40D
:1057A000204600F0EFF9F8037FF56FAF17E02046D1
:1057B00000F0EAF9F8037FF568AF10E04FF40065F8
:1057C0005DE705F50055F8037FF55FAF07E04FF49F
:1057D000805554E705F58045F8037FF556AF2068FE
:1057E0004FF48031BA0381600AD478030FD43803B0
:1057F00013D4204600F0CAF930073FF548AF4EE712
:10580000204600F0C5F930073FF541AF47E705F501
:10581000004530073FF53BAF41E705F580353007E0
:105820003FF535AF3BE745F080050AE045F0200540
:1058300007E045F0400504E045F0100501E045F4BF
:1058400080752068816921F07001816120680421E0
:1058500041604DB1606A40EA05012046616201B0D5
:10586000BDE8F04FFFF73CBE01B0BDE8F08F00008F
:10587000002804BF01207047B0B5044690F820000E
:1058800010B9204600F06EF82068016841F001016F
:10589000016000F0D9FD054620684168C90705D1BF
:1058A00000F0D2FD401B0B28F6D310E0016821F078
:1058B0000201016000F0C8FD054600BF2068416894
:1058C00089070DD500F0C0FD401B0B28F6D3606A98
:1058D000052140F400306062012084F82010B0BD42
:1058E000217E0268012922F0800208BF8032026016
:1058F000617E0268012922F0400208BF4032026046
:10590000A17E0268012922F0200208BF2032026035
:10591000E17E0268012922F0100218BF10320260F5
:10592000217F0268012922F0080208BF08320260C4
:10593000617F0268012922F0040208BF043202607C
:10594000D4E901C2D4E9033561691A432A431143FA
:10595000ACF101021143C16100200121606284F8B1
:105960002010B0BD2DE9F04387B040F20044C4F2EE
:1059700002040068A4F5CE3100268842CDE9056610
:10598000CDE90366029602D007B0BDE8F08343F686
:1059900040000196C4F20200016802AD41F080614E
:1059A000016001684FF0020801F0806101910199E6
:1059B000019601684FF0030941F000710160016830
:1059C000092701F0007101910199019650F8101C0E
:1059D00041F0020140F8101C50F8100C294600F06C
:1059E000020001900198202002900120049020469E
:1059F000CDF80C80CDF81490069700F047FC4020BD
:105A0000CDE9020820462946CDE90469069700F051
:105A10003DFC40200021002200F0B4FD402000F0B9
:105A20009FFD07B0BDE8F08370470000F0B589B076
:105A300007AC6A4600212346FFF754FD40F2FC16EE
:105A4000C2F2000610B13079053024E000983168C8
:105A500088421DD17079B0B106F10805B11D284604
:105A60000BF0A0FE049848B1002700BFE1192846BA
:105A70000BF098FE049801378742F7D3F11D2846B2
:105A80000BF090FE04E09DF8101007A808F028FC29
:105A9000307968B10138C1B230710320312988BF33
:105AA000022040F65851C2F20001087009B0F0BD62
:105AB0000320F6E7704700007047000070470000C1
:105AC000B0B5044690F8200001281DD1022084F8CA
:105AD00020002068016821F00101016000F0B4FCA1
:105AE000054600BF20684068C00713D000F0ACFC3A
:105AF000401B0B28F6D3606A40F40030606205203A
:105B000084F820000120B0BD606A40F4002060628B
:105B10000120B0BD00206062B0BD0000B0B50446F9
:105B200090F82000022819D12068016841F0010195
:105B3000016000F089FC054620684168C90713D15F
:105B400000F082FC401B0B28F6D3606A40F4003062
:105B50006062052084F820000120B0BD606A40F436
:105B6000801060620120B0BD016821F00201016077
:105B7000012084F820000020B0BD00007047000024
:105B80007047000070470000704700007047000039
:105B9000704700007047000070B5866D044600F045
:105BA00053FC94F83510022925D105462068216C54
:105BB000026822F016020260426922F0800242610D
:105BC00009B9A16C19B1016821F0080101600168EF
:105BD00021F00101016000BF20680068C0070ED0FD
:105BE00000F032FC401B0628F6D32020606503201D
:105BF00084F835000CE080206065012008E0E06D4D
:105C00003F2101FA00F0B060012084F83500002047
:105C1000002184F8341070BD90F83510022909D1A4
:105C2000052180F835100068016821F0010101604C
:105C3000002070478021416501207047F0B581B098
:105C40000021009140F22001C2F200010B68D0E96E
:105C5000166148F2B51537680822C1F64E358A40FC
:105C60003A42A3FB05350CD003681C68640708D5CD
:105C70001C6824F004041C60B260426D42F0010212
:105C8000426501228A403A4208D003685B691B06DC
:105C900004D5B260426D42F00202426504228A409D
:105CA0003A4208D003681B689B0704D5B260426D76
:105CB00042F00402426510228A403A4216D001683E
:105CC0000B681B0712D5B2600B680A685B0306D429
:105CD000D20506D40A6822F008020A6001E0110326
:105CE00040D4016C11B1044688472046C26D202182
:105CF00001FA02F33B4242D001680F68FF063ED52D
:105D0000B36090F835700B68052F1BD123F0160394
:105D10000B604B6923F080034B61036C0BB9836C00
:105D20001BB10B6823F008030B603F219140B16069
:105D3000012180F83510016D0022002980F83420FF
:105D400053D156E00A685B0310D4D20512D40A6816
:105D500022F010020A60012180F83510002180F83D
:105D6000341007E0816C0029BDD1BFE7110301D4D5
:105D7000416C00E0C16B11B1044688472046416D7B
:105D8000B9B3416DC9072ED0052180F835100168DF
:105D9000AA0A0B6823F001030B60009B01339342B6
:105DA00000931AD80B68DB0717D0009B013393428E
:105DB000009312D80B68DB070FD0009B013393428E
:105DC00000930AD80B68DB0707D0009B013393428E
:105DD000009302D80B68DB07DFD1012180F8351072
:105DE000002180F83410C16C19B101B0BDE8F04059
:105DF000084701B0F0BD00002DE9F041044600F075
:105E000023FBC4B10546022084F835000020216838
:105E100084F83400086820F00100086021680868F0
:105E2000C0070BD000F010FB401B0528F6D9032556
:105E30002023032064E00120BDE8F081086848F2D7
:105E40003F02CFF21002D4E9013500EA020C04F15E
:105E50000C0898E8C10143EA0C032B431843D4E92A
:105E6000072E304338431043626A40EA0E00042A8A
:105E700040EA08031CD1206BD4E90A2E40EA0E0048
:105E8000184308604869BEF1000F20F0030040EAA3
:105E9000020040F0040C11D0B8F5005F35D0B8F125
:105EA000000F42D1022A43D0012A38D032B93FE054
:105EB0000B60486920F0070040EA020C01F0F8008E
:105EC0004AF6AB221038CAF6AA22A0FB02231A090E
:105ED00042F61043C1F814C0C0F601039A5C40F2C8
:105EE000FF335F284FF03F0021EA030100FA02F080
:105EF00088BF0431C4E91612886000230125002000
:105F0000636584F83550BDE8F081032AD6D80125B1
:105F100040230120DFE802F0020C0203F0E7AEF1BB
:105F2000C070B0FA80F0400904E0032A04D3C5D160
:105F3000CEF300600028C1D0012540230120DFE717
:105F400090F834C0BCF1010F04BF0220704770B557
:105F50004FF0010C80F834C0D0F858E090F835C00C
:105F6000BCF1010F37D14FF0020C80F835C04FF073
:105F7000000CC0F854C0D0F800C08468056CC06D37
:105F8000DCF80060402C26F48026CCF80060CCF8C9
:105F900004300B4604BF13460A463F2101FA00F0C5
:105FA000CCF80830CCF80C20CEF80800DCF8000063
:105FB00040F01600CCF800002DB1DCF8000040F0F5
:105FC0000800CCF80000DCF8000040F00100CCF83C
:105FD0000000002070BD002180F83410022070BD48
:105FE000B0B5044600F030FA054640F26820C2F22F
:105FF00000000078611C18BF044400BF00F024FAC0
:10600000401BA042FAD3B0BD2DE9F04381B040F26D
:106010004428C2F2000898F81820012A03D102206F
:1060200001B0BDE8F0830546012088F818004CF265
:1060300050308946FEF7E4FD002840F094804FF090
:10604000FF30C9F80000286843F610470128C4F261
:10605000020718D128693968000221F440713960BB
:10606000396880B241F0040139603968084340F46E
:10607000803038604CF25030FEF7C2FD396821F0B4
:106080000401396037E0D5E90260304486422ED2FF
:10609000F000841C28694FF44072C1B203293968AA
:1060A0004FEA002021F440713960396838BF82B26C
:1060B00041EA02003860386820F0780038603868BB
:1060C00020433860386840F4803038604CF25030FB
:1060D000FEF796FD396821F07A01396048B9D5E9B3
:1060E000020101360844864204F10804D2D300209C
:1060F00001E0C9F8006057F8101C890517D557F85A
:10610000101C21F4007147F8101C57F8101C41F4C2
:10611000006147F8101C57F8101C21F4006147F883
:10612000101C57F8101C41F4007147F8101C57F868
:10613000101C490517D557F8101C21F4806147F849
:10614000101C57F8101C41F4805147F8101C57F8E8
:10615000101C21F4805147F8101C57F8101C41F412
:10616000806147F8101C002188F8181001B0BDE8C4
:10617000F083000043F61041C4F20201086840F0C9
:10618000004200200A6070472DE9F04140F24424AB
:10619000C2F20004277E012F04BF0220BDE8F08177
:1061A0000546012020764CF2503098460F461646A0
:1061B000FEF726FD00284CD12A46022D43F6104555
:1061C000C4F202051ED0012A314638460CD03ABB33
:1061D0002A6822F440722A602A682A602A6842F0FB
:1061E00001022A6001702CE02A6822F440722A60C1
:1061F0002A6842F480722A602A6842F001022A600A
:1062000001801EE0286820F440702860286840F46F
:1062100000702860286840F0010028603E6010E0AF
:106220002A6822F440722A602A6842F440722A6086
:106230002A6842F001022A600160BFF36F8FC0F844
:1062400004804CF25030FEF7DBFC296821F001019C
:10625000296000212176BDE8F081000043F604406A
:10626000C4F20200C168B1F1FF3FC4BF0020704713
:1062700040F22311C4F26751016048F6AB11CCF62D
:10628000EF510160C068C00F704700002DE9F04F6A
:1062900083B000F1200200F13E4741F60045009234
:1062A00007F1FF77C4F2020508224FEAB726A84299
:1062B00008BF072200254FF000084FF00009072E05
:1062C00038BF4FEAB72201920AE000BF09F1010985
:1062D00008F10208B9F1100F05F1040500F0A280E1
:1062E0000F68012202FA09FE17EA0E0AEED0D1F871
:1062F00004C003220CF003077E1E02FA08F4012EEC
:106300006FEA040B12D88468CE6804EA0B0406FA1C
:1063100008F634438460446824EA0E06CCF3001483
:1063200004FA09F42643466004E000BF032F01D1BC
:1063300003271EE0C6688C6806EA0B0604FA08F418
:106340002643022FC66014D16FF00302009E02EABA
:10635000590756F807C005F01C040F220B69A2402C
:106360002CEA0202A3401A43F251D1F804C00CF007
:106370000307026807FA08F302EA0B021A431CF447
:10638000403F0260A2D0002243F644030292C4F2CE
:1063900002031A6843F6004442F480421A601A6805
:1063A000C4F2010402F480420292029A29F003022C
:1063B0004FF6084C2244CFF6FF7C52F80C3005F023
:1063C0000C070F26BE40B343019E06FA07F73B4376
:1063D00042F80C30A2684B6842EA0A0743F60C4CBC
:1063E000DE0258BF22EA0A07A760C4F2010CDCF8FB
:1063F00000209E0242EA0A0758BF22EA0A07CCF8A8
:10640000007062689E0342EA0A0758BF22EA0A0740
:1064100067602268DB0342EA0A0758BF22EA0A07DC
:10642000276053E703B0BDE8F08F0000426902EA3D
:106430000103914341EA034181617047002A08BF8B
:10644000090481617047000041F68040C2F20000FB
:106450000068704780B582B0FFF7F6FF4EF2140176
:10646000CEF200010A6849680132511A019101997E
:106470004FF47A735943B1FBF2F100FB031002B001
:1064800080BD000040F2682041F68041C2F2000069
:10649000C2F2000100780A681044086070470000EA
:1064A00080B543F60040C4F20200016841F4007177
:1064B0000160016841F480610160016841F480710C
:1064C0000160032000F08AF80F2000F005F800F0CA
:1064D0002BF8002080BD0000B0B540F26822C2F267
:1064E000000240F220011278C2F200014FF47A73E8
:1064F0000968B3FBF2F20446B1FBF2F1084602F080
:10650000D3F80F2C4FF001050CD858B94FF0FF30DD
:1065100021460022002500F035F840F26C20C2F23E
:10652000000004602846B0BD82B0002043F6400160
:106530000190C4F202014A6842F480424A604A680B
:1065400002F480420192019A0090086840F0805065
:106550000860086800F080500090009802B0704712
:10656000002848BF704700F01F01012202FA01F124
:106570001C2202EAD0004EF20012CEF2000281503C
:106580007047000010B54EF60C5CCEF2000CDCF843
:106590000030C3F3022E8EF00704042C28BF04241D
:1065A000BEF103034FF0FF3E0EFA04F438BF0023A0
:1065B000A14399400EFA03F39A43114300F00F02EE
:1065C00000F160430901043A03F564436244002882
:1065D00048BF02F10C03197010BD00004EF60C51BB
:1065E000CEF200010A684FF6FF031A4060F30A2258
:1065F00042F0806040F0FD70086070477047000016
:1066000002680020516270472DE9F041D0F8008007
:10661000D8F82430A9B1D8F82870B1F1010C03EBF7
:10662000174151D05FFA8CF7012F3C4608F5827371
:1066300098BF0124042F04F0030E09D20027002480
:1066400029E043EA02410020C8F82810BDE8F081A3
:1066500004F0FC0508F1F406002400BF56F8107F92
:1066600044F0020001EB174144F00107FFB253F878
:106670002770C0B253F8200001EB174101EB104026
:1066800044F00301C9B253F821100434E7B2AF4219
:1066900000EB1141E2D1BEF1000F15D053F82700F5
:1066A000BEF1010F01EB10410ED0601CC0B253F8D7
:1066B0002000BEF1020F01EB104105D0A01CC0B2BA
:1066C00053F8200001EB104141EA024008EB8C0135
:1066D000C1F804010020BDE8F0810000D0F8E0041A
:1066E00005F07EBB01EBC102D0F8E03400EB820084
:1066F000026A184605F0DCBA01EBC102D0F8E034BA
:1067000000EB8200D0F86022184605F02BBB000099
:10671000D0F8E00405F066BB10B501F00F0E0A4694
:106720004FFA81FC0EEBCE0100EB810303F51571EE
:10673000BCF1000F48BF03F1140190F89434D20962
:10674000012B4A7081F800E004BF022010BD0268EE
:10675000012380F894340446104606F007F900201F
:1067600084F8940410BD0000037901F00F029A42EE
:1067700084BF0120704710B502EBC20300EB830316
:106780004FFA81FC8E4603F51571BCF1000F48BF2E
:1067900003F114014FEADE134B7090F894344FF07C
:1067A000000C012B81F802C00A7004BF022010BD4A
:1067B0000268012380F894340446104606F0C6FBB4
:1067C000002084F8940410BD01F00F0101EBC10119
:1067D00000EB8100D0F868027047000010B54FFA56
:1067E00081FE01F00F0CBEF1000F6FF3DF220CEB06
:1067F000CC010DD400EB810E00240EF515718EF83E
:1068000055428EF854C2CEF85C228EF8583209E018
:1068100000EB810101F814CF01244C708A600B71E8
:10682000A1F81AC0022B04BF00224A7190F89424E8
:10683000012A04BF022010BD0268012380F89434AD
:106840000446104605F014FF002084F8940410BD9F
:1068500010B501F00F0E0EEBCE0100EB81044FF0EE
:10686000000CC4F868C284F855C290F806C004F55C
:106870001571C4F86022C4F86432BCF1010F84F8C9
:1068800054E208BFCA610068624606F0A5FB00201A
:1068900010BD0000B0B5027901F00F0494424FF032
:1068A00001022CD801EBC10300EB83034FFA81FCFA
:1068B00003F5157304EBC405C90900EB8505BCF1AC
:1068C000000F48BF05F11403597090F894149A70A2
:1068D00001291C7004BF0220B0BD0168054680F884
:1068E00094240846194606F059FB2CB92868A97962
:1068F00005F29C4206F0FCFA002285F8942410462A
:10690000B0BD000001F00F0C0CEBCC0100EB8101DD
:1069100001F814CF4FF0000C0B618379C1F814C05B
:106920004FF0010CCA60012B81F801C008BFCA6199
:1069300080B500681A4606F04FFB002080BD0000BD
:106940002DE9F04F87B005688246284606F04EFDD7
:1069500010B107B0BDE8F08FDAF8000006F074FD62
:106960000028F6D0D5F80808C0F30D21DAF80000A9
:10697000CAF8D41406F068FD0146DAF80000890769
:1069800003D5416901F00201416105F500610491FF
:1069900006F05AFD0146DAF80000C906059534D51F
:1069A000816921F0100181612C6A04F00F0000EB75
:1069B000C0000AEB8001C4F34340062801F51575B9
:1069C00011D002281AD147F6F07014EA000615D04B
:1069D000E96834090598224606F03AFDE86800EBBC
:1069E0001610E86007E005980AF29C41082206F0BC
:1069F0002FFDC4F30A14686920446861DAF80000C6
:106A0000816941F010018161059D06F01DFD0003C3
:106A100040F1F080DAF8000006F0F4FC002800F005
:106A2000E98006460AF29C404FF4306800244FF09B
:106A3000000B06901AE000BF05EB08000221816000
:106A4000B80642BF05EB080020218160B80442BFB0
:106A500005EB08004FF4005181600BF1010B760843
:106A600008F1200804F1240400F0C480F007F4D0F9
:106A7000DAF800005FFA8BF9494606F0DDFC0746BC
:106A8000C0075FD005EB080001218160DAF8000043
:106A900008EB0001036C8A689AF80650012D25D195
:106AA000150732D4950600F19D8043F20B05C4F61C
:106AB0005475AB42059D02D312F400422FD10AEB6C
:106AC0000402D2F8743209696FF3DF41A3EB0101CC
:106AD000C2F8681294BBD2F86432002B00F08880B0
:106AE000D2F860020844C2F8600227E043F20B05C6
:106AF000C4F65475FF35AB4217D1059D10040ED472
:106B0000900644BF2020886018E043F20B00C4F6D2
:106B10005470059D834215D312F4004012D04FF4F7
:106B20000040886038070FD43CE0059D34B9DAF89E
:106B3000641219B90021069A06F0DAF9504649465E
:106B4000FFF7DAFD38072DD505EB08000821816035
:106B5000DAF8000043F20B02056C40448168C4F689
:106B6000547295420AD311F4004107D04FF400410A
:106B70008160504600F0FAFC059D09E0504600F0A7
:106B8000F5FC43F20B00C4F654708542059D09D311
:106B90009AF80600012805D1DAF80000069A0121CA
:106BA00006F0A6F9F80642BF05EB08001021816047
:106BB000B8077FF545AF6869000604D504994868B1
:106BC00040F4806048600AEB040090F857120129F5
:106BD0007FF432AF002180F857125046494600F04A
:106BE00017FB29E720208860059D3807ACD4D9E73A
:106BF0000121A0E7DAF80000CDF818A006F024FC87
:106C0000400340F1D3800698006806F0F3FB0028AB
:106C100000F0CC800646069805F5106900F11401D5
:106C200000F29C40002703910190CDF8089004E009
:106C3000760807F1010700F0B980F007F8D0069850
:106C40005FFA87FA0068514606F0E4FB0446C00785
:106C500026D0049A07F00F00516B012303FA00F0CD
:106C600021EA0000506309EB4710836006988079A1
:106C7000012811D1039907EBC70001EB8000D0E98F
:106C800002121144C1603FB9006928B90698019AFF
:106C90000068012106F02CF906985146FFF722FD05
:106CA000200742BF09EB471008218160E00642BF80
:106CB00009EB471010218160600642BF09EB4710C5
:106CC00040218160A00716D52846394606F020FBF2
:106CD000039907EBC70001EB800010F8031F01299F
:106CE00005D1002101700698514600F08DFA09EB9C
:106CF00047100221816020069AD5039907EBC7004F
:106D000001EB8008D8E90420824291D30699D8F893
:106D100008300C68111A994238BF0B4604EB471132
:106D2000D1F818C903F1030E1FFA8CF3B3EB9E0FD1
:106D30002DD301F5106900BFD8F81020824224D964
:106D4000101A069AD8E902B19579584538BF83469A
:106D50001FFA8BF3204652460095059D06F098FCDD
:106D6000D8F80C00D8F814105844C8F80C0001EBFF
:106D70000B00C8F81400D9F818100BF1030289B2FF
:106D8000B1EB920FD8D2D8F81020DDF808908242EB
:106D90003FF64EAF07F00F00D4F83418012202FA84
:106DA00000F021EA0000C4F8340841E7DDF818904B
:106DB000D9F8000006F048FB002802D4D9F80000FA
:106DC00019E00499486820F00100486099F8CC0463
:106DD000012807D1002089F8CC0448460021FFF79C
:106DE0000DFC02E0484600F0A5FBD9F8000041691F
:106DF00001F00041416106F027FB000502D4D9F8FB
:106E000000000CE004988068C00702D0484600F0FB
:106E1000D5FBD9F80000416901F40061416106F039
:106E200013FBC00402D4D9F80000F2E004994868CA
:106E300020F001004860D9F80000102106F068FA3F
:106E400099F80400010600F0B880C1B2042900F0EE
:106E5000030001D2002166E06FF0600202EA4112F5
:106E600000234FF67F370021EE18C6F80879D6F8D0
:106E70000059803325F40015C6F80059C6F8087B80
:106E8000D6F8005B9A4225F40015C6F8005BD6F8E8
:106E9000005B01F1040145F00065C6F8005BC6F82F
:106EA0002879D6F8205925F40015C6F82059C6F8D7
:106EB000287BD6F8205B25F40015C6F8205BD6F8B1
:106EC000205B45F00065C6F8205BC6F84879D6F827
:106ED000405925F40015C6F84059C6F8487BD6F845
:106EE000405B25F40015C6F8405BD6F8405B45F0E2
:106EF0000065C6F8405BC6F86879D6F8605925F495
:106F00000015C6F86059C6F8687BD6F8605B25F4B2
:106F10000015C6F8605BD6F8605B45F00065C6F802
:106F2000605B059DA0D1002847D005F5106202EBFB
:106F300041134FF67F374E019F609559059B25F40D
:106F4000001503F53063955103EB4115AF609D5972
:106F5000012825F400159D519D5945F000659D516E
:106F60002BD04E1C02EB46147501A760545903EB5D
:106F7000461624F400145451B7605F59022827F4D0
:106F800000175F515F5947F000675F5115D0881CAB
:106F900002EB40174FF67F364101BE60575803EBB6
:106FA000401027F4001757508660585820F40010FE
:106FB0005850585840F000605850049F8421F86998
:106FC000442240F00110F86199F80F0000284FF0BA
:106FD0000B0008BF142108BF42F22B007B5808BFEA
:106FE000102218437850B85840F00B00B850386859
:106FF00009F29C4220F4FE603860D9F8000099F84C
:10700000061005F075FFD9F80000416901F48051C0
:10701000416106F019FA0146D9F8000089041AD531
:1070200005F066FBD9F8000006F0D2F9D9F8004067
:1070300089F8070000F08CFB99F8072001462046EC
:1070400006F09EFA484600F061FAD9F8000041695E
:1070500001F40051416106F0F7F9000702D4D9F8B4
:10706000000008E0484600F069FAD9F800004169DC
:1070700001F00801416106F0E7F900062AD50599FB
:10708000886920F08000886199F80400022821D3E3
:1070900009F5157409F11405012640F27B2704E077
:1070A0000136864207F1240714D219F80710012986
:1070B000F6D106F00F0000EBC0023006D9F8000050
:1070C00005EB820158BF04EB820106F093F899F8B2
:1070D0000400E5E7D9F8000006F0B6F9C00202D4D2
:1070E000D9F8000030E099F80400022826D3059969
:1070F00009F1140401F5126509F13B064FF001088E
:10710000012705E001372035874206F1240615D214
:1071100029687278012AF5D1B1F1FF3FF2DC07F05E
:107120000F0000EBC001D9F8000004EB810186F8E4
:10713000008006F05FF899F80400E3E7D9F8000052
:10714000416901F48011416106F07EF9059D8002DC
:1071500002D4D9F8000031E099F80410022927D3AD
:1071600005F53260013909F51F72012305E000BF02
:107170002030013902F124021AD007681678012E56
:10718000F6D1B7F1FF3FF3DCD9F8D46486EA1747AC
:10719000FF07EDD102F8013CAF6947F08007AF610E
:1071A0006F693F06E4D40499486840F40070486071
:1071B000D9F80000416901F40011416106F044F979
:1071C000400002D4D9F8000008E04846FFF786FAEC
:1071D000D9F80000416901F08041416106F034F9BD
:1071E00040077FF5B6ABD9F800004468610704D5C5
:1071F0004846FFF78DFAD9F8000041682143416005
:1072000007B0BDE8F08F0000D0F8E00404F04EBEF7
:10721000D0F8E00404F060BE002804BF01207047ED
:10722000F0B581B00446056890F8950428B90020AF
:1072300084F89404204600F025F90320B5F1A04F0E
:1072400084F8950404BF0020A071206805F048FE72
:1072500094E80F00267C009605F05AFA002840F0CA
:1072600000812068002106F047F9002840F0F980ED
:1072700094F804E0BEF1000F00F0EC800EF0030C77
:10728000BEF1040F4FF0000240D30EF0FC03A4F156
:1072900090000321012500BFCE1E80F8A460A0F855
:1072A000BE608E1E80F8C860A0F8E2604E1E80F8B6
:1072B000EC60A0F8066180F81011A0F82A110E1DEC
:1072C000013180F8A55080F8A820C0E92B22C0F831
:1072D000B42080F8C95080F8CC20C0E93422C0F82E
:1072E000D82080F8ED5080F8F020C0E93D22C0F8A9
:1072F000FC2080F8115180F81421C0E94622C0F822
:107300002021903099423146C6D1F21EBCF1000FC7
:1073100031D004F1140002EBC20100EB810501231E
:1073200000F821200021BCF1010F6B706A832971E4
:10733000C5E9021129611ED0551C05EBC50600EBFD
:107340008607BCF1020F7B7000F826507D833971EF
:10735000C7E9021139610ED0911C01EBC10200EBAB
:107360008203012500F8221000205D7059831871F6
:10737000C3E902001861BEF1000F6BD0BEF1040F2B
:107380004FF0000236D30EF0FC000321234600BF6D
:10739000CF1E83F854728F1E83F878724F1E83F8C5
:1073A000C0120D1D013183F8552283F85822C3E91C
:1073B0009722C3F8642283F8792283F87C22C3E9F8
:1073C000A022C3F8882283F89D2283F89C7283F858
:1073D000A022C3E9A922C3F8AC2283F8C12283F812
:1073E000C422C3E9B222C3F8D02290338142294695
:1073F000CED1EA1EBCF1000F2CD004F5157002EBC3
:10740000C20300EB83070021BCF1010F797000F883
:1074100023203971C7E9021139611BD0531C03EBDA
:10742000C30700EB8706BCF1020F717000F827302C
:107430003171C6E9021131610CD0911C01EBC1021E
:1074400000EB820300275F7000F822101F71C3E970
:1074500002771F6194E80F00277C009705F0E6FA99
:1074600028B1022084F89504012001B0F0BD00206D
:107470006074012084F89504206805F0C7FA0020A4
:1074800001B0F0BDB0B586B000680024B0F1A04FE7
:107490000594CDE903440294019401D006B0B0BD37
:1074A00043F630050094C4F20205286801A940F0B3
:1074B00001002860286800F00100009000984FF457
:1074C000C05001900220CDE90204032004900A205C
:1074D00005900020C4F20200FEF7D8FE6868002183
:1074E00040F08000686000946869002240F48040A9
:1074F0006861686900F48040009000984320FFF7BD
:1075000041F84320FFF72CF806B0B0BD10B5C179A3
:10751000044621B1022901D0FDF76EFB0121D4F808
:10752000E00404F061FDD4F8E004BDE8104004F08C
:107530000FBD0000D0F8E00404F03CBDD0F8E0043A
:1075400004F042BD90F89424012A04BF0220704741
:1075500010B5012280F89424417402680446104654
:1075600005F0FCFF002084F8940410BDD0F8E0245E
:1075700000F29C41104604F04DBD000010B50446D9
:1075800090F89404012804BF022010BD2068012156
:1075900084F89414C168490606D5617B012903D19A
:1075A000816B41F48031816305F0AAFE206805F00B
:1075B0001DFA002084F8940410BD000010B50446A4
:1075C000D0F8E00404F07AFD2068D0F8001E41F005
:1075D0000101C0F8001EE07A002808BF10BD4EF679
:1075E0001050CEF20000016841F00601016010BDAC
:1075F000002804BF012070472DE9F04143F6080838
:10760000C4F202080446D8F8F8030D4600F007005B
:10761000884207D288F8F853D8F8F80300F007003A
:10762000A84276D12068810717D5410705D5D8F83B
:10763000001041F4E051C8F80010010705D5D8F852
:10764000001041F46041C8F80010D8F80010A2689A
:1076500021F0F0011143C8F80010C0073FD1D8F85D
:10766000F80300F00700A84207D988F8F853D8F8C3
:10767000F80300F00700A8424BD12068410707D566
:10768000D8F80010E26821F4E0511143C8F8001066
:10769000000708D5D8F80000216920F4604040EACE
:1076A000C100C8F8000000F081F8D8F8001042F6D8
:1076B000B832C1F30311C0F60102515C40F220025E
:1076C00020FA01F140F26C20C2F200000068C2F220
:1076D00000021160FEF700FF0020BDE8F081606845
:1076E000811E022907D258F8081C89015CBF0120BD
:1076F000BDE8F08110E0012807D158F8081C890383
:107700005CBF0120BDE8F08106E058F8081C89073D
:1077100002D40120BDE8F081D8F8001021F0030167
:107720000843C8F80000FEF78FFE064641F288378E
:10773000D8F80000616800F00C00B0EB810F8ED02B
:10774000FEF782FE801BB842F2D90320BDE8F0812B
:1077500040F22000C2F200000068704740F22000B2
:1077600043F60801C2F20000C4F202010068096891
:1077700042F6C832C1F38221C0F60102515CC84012
:107780007047000040F2200043F60801C2F20000FA
:10779000C4F202010068096842F6C832C1F34231FE
:1077A000C0F60102515CC8407047000010B543F6B6
:1077B0000404C4F20204606800F00C0008280AD037
:1077C000042819BF42F20040C0F2F40047F640001E
:1077D000C0F27D1010BD206821682368490247F679
:1077E0004001C0F27D1100F03F02C3F388105CBF7E
:1077F00042F20041C0F2F401A1FB00010023FCF7BA
:10780000DFFC21680222C1F3014102EB4101B0FB20
:10781000F1F010BD002804BF012070472DE9F041B0
:1078200082B00446007843F60006C007C4F20206A0
:107830000BD0B06800F00C00042876D130688003CB
:1078400003D56068002800F04F812078800719D5A3
:10785000B06810F00C0F07D0B06800F00C000828DA
:107860007DD1706840027AD43068800703D5E06823
:10787000012840F039813068216920F0F80040EAA1
:10788000C10030602078000713D42078400726D448
:10789000A569002D00F02481B06800F00C000828D4
:1078A00040F09680012D40F0F880012002B0BDE844
:1078B000F0816069002877D00020C4F247200121C0
:1078C000C0F8801EFEF7C0FD054600BF706F800740
:1078D000DBD4FEF7B9FD401B0228F7D9D9E0306CA4
:1078E0005FEAC0080AD400200190306C40F080505C
:1078F0003064306C00F080500190019847F200072E
:10790000C4F200073868C00540D4386840F480707D
:107910003860FEF799FD05463868C00536D4FEF795
:1079200093FD401B0228F7D9B3E0B06800F00C00CB
:10793000082803D1706840023FF580AF6168306865
:10794000B1F5803F07D0B1F5A02F40F08C8040F416
:1079500080203060306840F4803030608CE0E06837
:10796000002840F20000C4F2472054D001210160F9
:10797000FEF76AFD054600BF306880073FF57BAF24
:10798000FEF762FD401B0228F6D982E0A168306F45
:10799000012905D005294FD140F004003067306F30
:1079A00040F00100306750E00020C4F24720002181
:1079B000C0F8801EFEF748FD054600BF706F8007C7
:1079C0007FF563AFFEF740FD401B0228F6D960E06B
:1079D0000027C4F2472700203866FEF735FD022D48
:1079E00005460DD13068800140F18280FEF72CFD04
:1079F000401B02284FF00300F4D902B0BDE8F0812B
:107A0000306880016CD5FEF71FFD401B02284FF047
:107A10000300F5D9F1E700210160FEF715FD0546E9
:107A2000306880077FF52EAFFEF70EFD401B022861
:107A30004FF00300F4D9E0E720F001003067306F29
:107A4000002920F00400306773D0FEF7FDFC0546E6
:107A500041F28837306F80077BD4FEF7F5FC401B7E
:107A6000B842F7D915E020F4803030603068002942
:107A700020F48020306075D0FEF7E6FC054600BF9C
:107A8000306880033FF5E1AEFEF7DEFC401B642862
:107A9000F6D9032002B0BDE8F0817068E16900F416
:107AA00080028A4220D1216A00F03F028A421BD123
:107AB00047F6C071626A0140B1EB821F14D1A16A1E
:107AC0004FF6FF73C903994300F44032A1F58031AA
:107AD0008A4209D1E16A00F07060B0EB016F03D116
:107AE000002002B0BDE8F081012002B0BDE8F081C5
:107AF00004F11C052FCD084340EA8210D9034FF64C
:107B0000FF729143A1F5803140EA0560084370603F
:107B100001203866FEF798FC044600BF30688001FB
:107B2000DED4FEF791FC001B02284FF00300F5D9CC
:107B300063E7FEF789FC054641F28837306F80071E
:107B400007D5FEF781FC401BB8424FF00300F5D982
:107B500053E7B8F1000F3FF59BAE306C20F080503A
:107B6000306495E6FEF770FC054600BF3068800380
:107B70007FF56BAEFEF768FC401B64284FF00300F6
:107B8000F4D93AE770470000B0B582B001684A689E
:107B90008B6803F04105012D04D112F0400501D09E
:107BA000016C05E09D0707D512F0800504D0416CFB
:107BB00002B0BDE8B040084713F4B07F18BF12F020
:107BC000200501D102B0B0BD5D0617D590F8515027
:107BD000032D08D100200190C868019088680190A9
:107BE000019802B0B0BD456D45F00405456500251E
:107BF0000195CD6801958D680195019D9D060CD577
:107C0000456D45F001054565002501958D68019597
:107C10000D6825F040050D60019DDB0508D5436D1D
:107C200043F008034365002301938B680193019B94
:107C3000436D002BC6D04B68920723F0E0034B60E6
:107C40004FF0010380F8513025D04A684AF2D154F0
:107C500022F003024A60C16CC0F6000459B1054627
:107C600008460C65FDF7D8FF0146284619B1416D5D
:107C700041F040014165816C0029A3D00C650446A8
:107C80000846FDF7C9FF00289CD0606D40F0400019
:107C9000606502B0B0BD02B0BDE8B040FFF772BF92
:107CA00070B528B1416A29B100210161142106E0B3
:107CB000012070BD4168B1F5827F02D01C210022F5
:107CC00042500026866290F8511029B980F8506021
:107CD000054600F03DF82846022180F8511090E852
:107CE0002E0002F482720C6803F4044324F0400472
:107CF0000C601A4405F4006305691A4405F0020398
:107D000045691A4405F001038569C4691A4405F4FC
:107D100000731A4404F03803046A1A4404F0800320
:107D2000846A1A4304F400531A430A60436A042223
:107D300002EA154203F010031A444A60CA6922F4A9
:107D40000062CA610121466580F85110304670BD5D
:107D50002DE9F04F87B00446006843F60041C4F2B5
:107D6000000100278842CDE90577CDE90377029726
:107D700034D043F60001C4F20001884240F0AB80E9
:107D8000002043F630010190C4F202010A6942F476
:107D900080420A610A6902F480420192019A0190CC
:107DA0000A6842F002020A60096801F002010191CA
:107DB00001994FF4604102910221CDE903100520A1
:107DC000069040F60000C4F202000591A0F5806024
:107DD00002A9FEF75BFA07B0BDE8F08F43F630006A
:107DE0000197C4F20200016940F6000B41F4004122
:107DF00001610169C4F2020B01F400410191019992
:107E00000197016802AE41F00401016000684FF083
:107E1000020A00F00400019001984FF4A050029073
:107E200001254FF0060858463146CDE903A70595D0
:107E3000CDF81880FEF72AFA4FF40069CDF81880C3
:107E400046F2100858463146CDE9029ACDE904556C
:107E5000C4F20208FEF71AFA41F20025C2F2000548
:107E60004FF4806B4FF4005A4FF400362846C5E9B2
:107E70000087C5E90277C5E904B9C5E906A7C5E9E0
:107E80000867FDF7B9FF002818BFFCF7B5FEE564E9
:107E9000AC6341F2602508F17800C2F200050021D0
:107EA000402285E807002846C5E9031BC5E9059A75
:107EB000E961C5E90861FDF79FFF002818BFFCF7DD
:107EC0009BFE332000210022A564AC63FEF75AFB21
:107ED0003320FEF745FB07B0BDE8F08F2DE9F041F8
:107EE00082B0044690F85100012818D100294FF0C3
:107EF000010018BF002A02D102B0BDE8F08160681D
:107F00001D461746B0F5827F02D1A06800284ED0EA
:107F10000E46FEF799FA94F85010012903D1022079
:107F200002B0BDE8F0818046012084F850000420B2
:107F3000002184F851006165A663A787E787216364
:107F4000A186E186A2682068B2F5004F21646164D1
:107F500007D1016821F040010160016821F48041EE
:107F600001600168490603D4016841F040010160E5
:107F7000E168E08F39B3002849D06F1C0AE000BFE8
:107F8000C068A16B21F8020BA163E08F0138E08784
:107F9000E08FE0B320688168C907F1D1FEF754FA99
:107FA000002FF5D0A0EB0800A842F1D325E0042073
:107FB00084F8510020460A463B46009500F054F9EB
:107FC00002B0BDE8F08110B36F1C0AE0007BA16B2A
:107FD0000870A06B0130A063E08F0138E087E08F6C
:107FE000A8B120688168C907F0D1FEF72DFA002FEB
:107FF000F5D0A0EB0800A842F1D3012084F851008D
:10800000002084F85000032002B0BDE8F081204633
:108010002946424602F0B2FB00281CBF20206065C2
:10802000012084F85100002084F85000606D002881
:1080300018BF012002B0BDE8F081000070470000C9
:10804000704700002DE9F04184B01D4616460F46EA
:108050000446FEF7F9F994F8511001290DD1804634
:10806000002F4FF0010018BF002E02D104B0BDE870
:10807000F08194F85000012803D1022004B0BDE83B
:10808000F081012084F850000320002184F8510081
:1080900061652763A686E686A163A187E187A0685C
:1080A0002164B0F5004F2068616407D1016821F0B8
:1080B00040010160016841F48041016001684906A6
:1080C00003D4016841F0400101606168731EE268F9
:1080D000B1FA81F1B3FA83F349095B09B2F5006F94
:1080E00041EA030123D131B137F8021BC160276394
:1080F000E08E0138E086E08E002846D06E1C09E054
:10810000216B31F8022BC2602163E08E0138E086DA
:10811000E08ED0B3206881688907F1D4FEF794F926
:10812000002EF5D0A0EB0800A842F1D323E039B12E
:1081300039780173206B01302063E08E0138E086CE
:10814000E08E10B36E1C0AE0216B09780173206B7E
:1081500001302063E08E0138E086E08EA8B120680F
:1081600081688907F0D4FEF76FF9002EF5D0A0EBF7
:108170000800A842F1D3012084F85100002084F8BF
:108180005000032004B0BDE8F08120460221012206
:108190002B46CDF8008002F01DFBE0B1606D40F091
:1081A0002000606520206065A06838B9002002903A
:1081B0002068C1680291806802900298012084F8CA
:1081C0005100002084F85000606D002818BF012085
:1081D00004B0BDE8F08140F22000C2F20000006867
:1081E00049F68171C1F25E61A0FB0101480D4FF4B7
:1081F0007A71484303906068B0F5827F0AD12046C7
:10820000802100222B46CDF8008002F0E3FA0028FE
:10821000C4D1C9E703980028C6D003980138039059
:10822000206880680006BFD503980028BCD003985A
:1082300001380390206880680006B5D503980028AF
:10824000B2D0039801380390206880680006ABD54F
:1082500003980028A8D0039801380390206880680C
:108260000006D7D4A0E700002DE9F04383B01E46F6
:1082700015460F460446FEF7E7F894F8511081467C
:10828000012908D1002F4FF0010018BF002D0ED199
:1082900003B0BDE8F0836068B0F5827F0DD104299A
:1082A0004FF00200F4D1A1680029EBD0F0E7002ED6
:1082B000EED094F85000012803D1022003B0BDE8AD
:1082C000F083012084F8500094F851000021042824
:1082D0001CBF052084F851006165A563E687A68769
:1082E0002763E6862068A6862164616401684906E2
:1082F00003D4016841F0400101606168731EE268C7
:10830000B1FA81F1B3FA83F3DDF8288049095B09FA
:10831000B2F5006F41EA030137D131B137F8021BE2
:10832000C1602763E08E0138E086012608F101056F
:10833000E08E10B9E08F00286CD020688168890732
:108340000CD5E18E51B1012E08D1216B002631F8F8
:10835000022BC2602163E18E0139E1868168C90781
:108360000AD0E18F41B1C068A16B012621F8020B50
:10837000A163E08F0138E087FEF766F8002DD7D0C3
:10838000A0EB09004045D3D33AE039B13978017305
:10839000206B01302063E08E0138E086012608F171
:1083A000010500BFE08E08B9E08F98B320688168AE
:1083B00089070ED5E18E61B1012E0AD1216B00260D
:1083C00009780173216B206801312163E18E013945
:1083D000E1868168C9070BD0E18F49B1C068A16B04
:1083E00001260870A06B0130A063E08F0138E087A0
:1083F000FEF72AF8002DD5D0A0EB09004045D1D3D7
:10840000012084F85100002084F85000032003B0BC
:10841000BDE8F0832046022101224346CDF80090BA
:1084200002F0D8F960B1606D40F020006065202056
:108430006065002084F85000012003B0BDE8F0839F
:1084400040F22000C2F20000006849F68171C1F2DA
:108450005E61A0FB0101480D4FF47A714843029020
:108460006068B0F5827F0AD1204680210022434611
:10847000CDF8009002F0AEF90028D4D123E00298A4
:1084800008B30298013802902068806800061AD567
:108490000298C0B1029801380290206880680006F6
:1084A00011D5029878B1029801380290206880684E
:1084B000000608D5029830B1029801380290206871
:1084C00080680006DBD4A06838B9002001902068DD
:1084D000C1680191806801900198012084F85100E1
:1084E000002084F85000606D002818BF012003B000
:1084F000BDE8F08370B590F85150012D07D10029E7
:108500004FF0010C18BF002A0DD1604670BD4468C1
:10851000B4F5827F0DD1042D4FF0020CF5D18568A2
:10852000002DECD0F1E7002BEFD090F85050012D4A
:1085300001D1022070BD012580F8505090F85150B3
:108540000024042D1CBF052580F8515044650163AB
:108550008386C38682638387C387C0E9104490F80B
:1085600051104AF2FD534AF20566C0F60003C0F608
:1085700000060568D0F84CC0042908BF1E464AF220
:108580000D614AF27963C0F60001C0F6000308BF2E
:108590000B464AF2DD51C0F60001CCE90F36CCE9BA
:1085A0001314C38F064605F10C016046FDF7C8FCA5
:1085B00038B1706D40F010007065012086F85040B1
:1085C00070BD3568316BB06C6B6805F10C0243F01F
:1085D00001036B60C0E90F44C0E91344F38EFDF75B
:1085E000AFFC40B1706D40F010007065002086F85F
:1085F0005000012070BD306835460168490603D43B
:10860000016841F0400101604FF0000C85F850C056
:10861000416841F020014160416841F00201416040
:10862000604670BD41F61C11C2F20001884218BFBD
:108630007047B0B50024C4F2020420464FF4004154
:108640000122FDF7FBFE40F61845C2F2000528782E
:10865000022821D0012821D10220287020464FF481
:1086600000410022FDF7EAFE41F61C1040F26621AF
:1086700041F63832C2F20000C2F20001C2F200023A
:108680000123FFF737FF48B120464FF40041012294
:10869000FDF7D4FE002000E003202870BDE8B040C4
:1086A0007047000070470000411E0020B0EB116FC2
:1086B0001CBF012070474EF21002CEF20002516042
:1086C0004EF62351CEF20001F0230B70072190608B
:1086D00011607047704700007047000090F83C2020
:1086E000012A04BF02207047B0B501F108053CCD56
:1086F000D1E900CE23F47C5322F470521A432EF4B5
:10870000F0431A432CF4E0431A4324F4C0431A43C1
:108710002A43C96922F48042036811435964002145
:1087200080F83C100020B0BD90F83C20012A4FF0AA
:10873000020252D010B580F83D200268D2F804E061
:10874000D2F808C00C682EF07003234341F2FF7486
:10875000C4F20004A24253600DDC40F2FF73C4F285
:1087600000039A4215DCB2F1804F29D040F2004359
:10877000C4F2000322E040F2FF33C4F201039A4244
:1087800012DC41F60003C4F200039A4218D0002321
:1087900012E040F60003C4F200039A4210D040F603
:1087A0000043C4F2000309E044F20003C4F20103F1
:1087B0009A4205D040F20043C4F201039A4204D128
:1087C00049682CF08003194391600121002280F850
:1087D0003D1080F83C20BDE8104010467047000076
:1087E000A1B1042904D0082914BF4522442200E085
:1087F0004322825C012A11D10222082910D00429C7
:1088000014BF80F8452080F843200BE090F8422008
:10881000012A03D1022280F8422003E001207047A0
:1088200080F84420006801F00F010422036A02FA74
:1088300001F123EA01020262026A11430162416C02
:1088400041F2FF72C4F2000241F4004190424164DF
:108850000DDC40F2FF71C4F20001884215DCB0F17A
:10886000804F29D040F20041C4F2000122E040F2E2
:10887000FF31C4F20101884212DC41F60001C4F26A
:108880000001884218D0002112E040F60001C4F235
:108890000001884210D040F60041C4F2000109E016
:1088A00044F20001C4F20101884205D040F20041C7
:1088B000C4F20101884206D1816801F0070106294E
:1088C00004BF00207047016841F0010101600020F1
:1088D0007047000010B5026801F00F0E4FF0040C55
:1088E000146A0CFA0EF324EA03031362136A136288
:1088F000146A41F211131C420AD1D2F820C040F28E
:1089000044441CEA040F03D1546C24F4004454641E
:10891000146A1C4204D1136A40F24444234212D028
:10892000082916D0042909D000294FF0010114BFED
:1089300080F8451080F84210002010BD012180F819
:108940004310002010BD136823F0010313600829B1
:10895000E8D1012180F84410002010BD002804BF98
:108960000120704710B5044690F83D0028B900205A
:1089700084F83C00204600F01FF8022084F83D00F7
:108980002068211D02F036F8012084F8460084F8A2
:108990003E0084F83F0084F8400084F8410084F8E9
:1089A000420084F8430084F8440084F8450084F8C9
:1089B0003D00002010BD00002DE9F04182B00168AB
:1089C00040F20042C4F2010291423CD040F6000263
:1089D000C4F20002914233D18046002043F64001A8
:1089E0000190C4F202010A6841F2C02442F004027C
:1089F0000A600968C2F2000401F0040101910199C2
:108A000046F25801C4F202014FF08062402384E82C
:108A10000E0004F10C014FF480654FF480564FF4C2
:108A20008047E1C1C4E9070060622046FDF7E4F930
:108A3000002818BFFCF7E0F8C8F82840C4F83880D0
:108A400002B0BDE8F0810020009043F64000C4F27F
:108A500002004168002241F00201416040680A21A1
:108A600000F00200009000982C20FDF78BFD2C20D8
:108A700002B0BDE8F041FDF773BD000090F83D1075
:108A800001291CBF01207047022180F83D100068B9
:108A900041F2FF72C168C4F20002904241F001014C
:108AA000C1600DDC40F2FF71C4F20001884215DCA8
:108AB000B0F1804F29D040F20041C4F2000122E021
:108AC00040F2FF31C4F20101884212DC41F600019C
:108AD000C4F20001884218D0002112E040F60001E3
:108AE000C4F20001884210D040F60041C4F20001F7
:108AF00009E044F20001C4F20101884205D040F2CD
:108B00000041C4F20101884206D1816801F00701E9
:108B1000062904BF00207047016841F0010101608F
:108B20000020704790F83C20012A4FF002026BD0E1
:108B300080B580F83D20D0F800C04FF67772DCF8A1
:108B4000083023EA0202CCF808200B684F2B28DCFF
:108B50001F2B44DD202B45D0302B43D0402B40F041
:108B6000AC80D1F804E0C968DCF82030DCF82020C3
:108B700022F00102CCF82020DCF8182022F0F002CC
:108B800042EA011123F00A0242EA0E02CCF8181060
:108B9000CCF82020DCF8081041F0470121F030012A
:108BA00027E06F2B32DDB3F5005F73D0B3F5805F44
:108BB00021D0702B40F08180D1E901E3C968DCF855
:108BC000082043EA0E0322F47F4243EA01211143C5
:108BD000CCF80810DCF8081041F0770109E00BB17F
:108BE000102B6AD1DCF8081021F07001194341F014
:108BF0000701CCF808100022012180F83D10002167
:108C000080F83C10BDE8804010467047502B21D0C2
:108C1000602B52D1D1F804E0C968DCF82030DCF8D0
:108C2000202022F01002CCF82020DCF8182022F4BA
:108C3000704242EA013123F0A00242EA0E12CCF85F
:108C40001810CCF82020DCF8081041F0670121F062
:108C50001001CEE7D1F804E0C968DCF82030DCF878
:108C6000202022F00102CCF82020DCF8182022F08D
:108C7000F00242EA011123F00A0242EA0E02CCF8A5
:108C80001810CCF82020DCF8081041F0570121F032
:108C90002001AEE7D1E901E3C968DCF8082043EA26
:108CA0000E0322F47F4243EA01211143CCF808105D
:108CB000DCF8081041F480419BE701229CE70000AA
:108CC000704700007047000070B504460068C56832
:108CD0000669B10716D515F0020113D06FF0020135
:108CE0000161012121778069800703D02046FFF7C9
:108CF000E9FF05E0204600F00BF9204600F044FAB9
:108D000000202077700718D515F0040015D02068D2
:108D10006FF00401016102212177806910F4407F26
:108D200003D02046FFF7CEFF05E0204600F0F0F824
:108D3000204600F029FA00202077300717D515F0DB
:108D4000080014D020686FF0080101610421217728
:108D5000C069800703D02046FFF7B4FF05E0204636
:108D600000F0D6F8204600F00FFA00202077F00639
:108D700018D515F0100015D020686FF010010161B2
:108D800008212177C06910F4407F03D02046FFF707
:108D900099FF05E0204600F0BBF8204600F0F4F90A
:108DA00000202077F00718BF15F0010002D130062F
:108DB00009D412E020686FF001010161204600F043
:108DC00049FC300609D515F0800006D020686FF008
:108DD000800101612046FFF77DFC700609D515F082
:108DE000400006D020686FF040010161204600F08D
:108DF00061FCB00658BF70BD15F0200008D0216896
:108E00006FF0200220460A61BDE87040FFF764BCA5
:108E100070BD00002DE9F04186B0006840F20041CD
:108E2000C4F2010100268842CDE90466CDE902665C
:108E3000019620D040F60001C4F20001884264D1BE
:108E4000002043F630010090C4F202010A6842F0AB
:108E500002020A60096801F0020100910099802174
:108E600001910221CDE90210CDE9040140F2004058
:108E7000C4F2020046E043F630000096C4F202005D
:108E8000016840F2004441F0010101600168C4F250
:108E9000020401F00101009100990096016801AD02
:108EA00041F00201016001684FF0020801F0020187
:108EB0000091009900960168032741F004010160C8
:108EC0000068294600F0040000900098802001907E
:108ED000A4F58060CDE9028604960597FDF7D6F9E2
:108EE00020462946CDE90178CDE903660597FDF7CF
:108EF000CDF94FF4E070CDE9010804F58060CDE9CB
:108F00000366059701A9FDF7C1F906B0BDE8F08138
:108F10007047000090F83C30012B04BF02207047DE
:108F20004FEAB202032A00F2FD802DE9F043DFE8A8
:108F300002F002AF3D7D036840F200461C6A1A6AE7
:108F400024F0020422F001021A621A46D3F804C087
:108F500052F818EF8F6843F48065C4F20106B542F9
:108F600044EA070405D1CF6824F00C0427F0040775
:108F70003C430F68B54206D1D1E905582CF4407640
:108F80002E4346EA080C2EF073063743C3F804C09C
:108F90009F614F6809695F631C629F6947F008071A
:108FA0009F619F6927F004079F61B0E0036840F26A
:108FB00000481C6A1A6A24F4007422F480721A624F
:108FC0001A46D3F804C052F81CEF8F6843F480654A
:108FD000C4F20108454544EA072408D1CF6840F2AD
:108FE000FF463F0224F4406427EA06063443D1F8E2
:108FF0000090454506D1D1E905562CF440572E4343
:1090000047EA061C2EF0730747EA0907C3F804C0B5
:10901000DF614F680969DF631C62DF6947F0080799
:10902000DF61DF6927F00407DF6170E0036840F269
:109030000045D3F820C01A6A43F4806722F48052B6
:109040001A621A465C6852F81C8FD1F800E08E68EC
:10905000C4F20105AF4204D14D6924F4804444EACE
:1090600085142CF4005747EA063728F4E64646EA0A
:109070000E265C60DE614E6809691E641F62DF694E
:1090800047F40067DF61DF6927F48067DF613DE057
:10909000036840F200481C6A1A6A24F0200422F097
:1090A00010021A621A46D3F804C052F818EF8F68FB
:1090B00043F48065C4F20108454544EA071407D12A
:1090C000CF686FF0400624F0C00406EA0716344368
:1090D000D1F80090454506D1D1E905562CF44067FA
:1090E0002E4347EA860C2EF4E64747EA0927C3F8E1
:1090F00004C09F614F6809699F631C629F6947F4C0
:1091000000679F619F6927F480679F610902136868
:10911000194311600021BDE8F043002280F83C2093
:10912000084670470121F8E7002804BF0120704776
:1091300010B5044690F83D0028B9002084F83C00A2
:10914000204600F01FF8022084F83D002068211D11
:1091500001F050FC012084F8460084F83E0084F8B9
:109160003F0084F8400084F8410084F8420084F80D
:10917000430084F8440084F8450084F83D00002052
:1091800010BD00007047000041F67412C2F20002E8
:1091900001681268914218BF704740F21022C2F273
:1091A000000201230421137000F0F8B97047000099
:1091B000A1B1042904D0082914BF4122402200E0B3
:1091C0003F22825C012A11D10222082910D00429F1
:1091D00014BF80F8412080F83F200BE090F83E203B
:1091E000012A03D1022280F83E2003E001207047CB
:1091F00080F84020006801F01F010122036A02FA92
:1092000001F123EA01020262026A114341F2FF7294
:10921000C4F20002904201620BDC40F2FF71C4F222
:109220000001884213DCB0F1804F35D040F200419C
:1092300015E040F2FF31C4F20101884214DC41F62E
:109240000001C4F20001884226D0002114E040F65B
:109250000001C4F2000188421ED040F60041C4F271
:109260000001884218D01EE044F20001C4F201015E
:10927000884211D040F20041C4F20101884212D16B
:10928000416C40F2004340F48062C4F2010341F4B7
:1092900000419A42416406D1816801F00701062924
:1092A00004BF00207047016841F001010160002007
:1092B0007047000070B5A1B14125082908BF4025BD
:1092C000042908BF3F25455D022D04BF022070BD63
:1092D00008290ED0042914BF00F1410500F13F0513
:1092E00009E0054615F83E4F022C04BF022070BD70
:1092F00001E000F140052D78012D40F09B80002A0F
:109300004FF0010C18BF002B01D1604670BD022543
:1093100041B1082909D0042914BF80F8415080F8D0
:109320003F5004E080F83E5001E080F840504FEAA2
:10933000B105032DE9D80E46DFE805F002602241B1
:10934000456A4AF62134C0F60004EC63456A4AF6E1
:109350008934C0F600042C64456A4AF6C1340168B9
:10936000C0F60004EC640546406A01F1340C114675
:109370006246FCF7E5FD00285CD14FF400715DE02A
:10938000C56A4AF62134C0F60004EC63C56A4AF6A1
:109390008934C0F600042C64C56A4AF6C1340168F9
:1093A000C0F60004EC640546C06A01F13C0C1146AD
:1093B0006246FCF7C5FDE8BB4FF400613EE0056B7B
:1093C0004AF62134C0F60004EC63056B4AF6893492
:1093D000C0F600042C64056B4AF6C1340168C0F67F
:1093E0000004EC640546006B01F1400C1146624636
:1093F000FCF7A6FDF0B94FF480511FE0856A4AF6EC
:109400002134C0F60004EC63856A4AF68934C0F65C
:1094100000042C64856A4AF6C1340168C0F6000471
:10942000EC640546806A01F1380C11466246FCF78F
:1094300087FD08B1012070BD4FF480612868C268C3
:109440001143C16006F01F010122036A02FA01F113
:1094500023EA01020262026A114341F2FF72C4F27E
:109460000002904201620BDC40F2FF71C4F2000185
:10947000884213DCB0F1804F35D040F2004115E056
:1094800040F2FF31C4F20101884214DC41F60001D0
:10949000C4F20001884226D0002114E040F6000109
:1094A000C4F2000188421ED040F60041C4F200011F
:1094B000884218D01CE044F20001C4F20101884245
:1094C00011D040F20041C4F20101884210D1416C38
:1094D00040F2004340F48062C4F2010341F40041D1
:1094E0009A42416404D1816801F00701062903D042
:1094F000016841F0010101604FF0000C604670BD51
:1095000010B5026801F01F0E4FF0010C146A0CFA3E
:109510000EF324EA0303136240F20043D2F820C0A2
:1095200042F48064C4F201039C42C2F820C00DD111
:10953000136A41F21114234208D1136A40F24444E1
:10954000234203D1536C23F400435364136A41F262
:109550001114234204D1136A40F24444234212D02E
:10956000082916D0042909D000294FF0010114BFA1
:1095700080F8411080F83E10002010BD012180F8D5
:109580003F10002010BD136823F001031360082969
:10959000E8D1012180F84010002010BD70B50446CC
:1095A0004FEAB10003284FF0010650D80D4642F6AD
:1095B00000412268C0F6010151F82010D36804EB85
:1095C00080001940D160406AFCF726FB206805F056
:1095D0001F01026A06FA01F122EA0101016240F26A
:1095E0000043016A40F48062C4F201039A420162BE
:1095F0000DD1016A41F21112114208D1016A40F203
:109600004442114203D1416C21F400414164016A9A
:1096100041F21112114208D1016A40F24442114252
:1096200003D1016821F0010101600120082D0BD058
:10963000042D06D0002D14BF84F8410084F83E00AC
:1096400004E084F83F0001E084F840000026304642
:1096500070BD0000016840F20040C4F20100814288
:1096600000D070470068C00648BF7047B0B5FCF72F
:10967000F1FE40F6E424C2F20004206005F04EFD45
:10968000FCF7E8FE40F6DC25C2F200052968401A26
:1096900040F6D821C2F200010860FCF7DBFE216829
:1096A0002860401A40F6E021C2F200010860BDE8DF
:1096B000B0407047704700007047000070470000DE
:1096C000B0B582B001680A68CC684B6902F02F051A
:1096D000202D04F0200505D125B102B0BDE8B04031
:1096E00001F078BC5FEA027C1EBF03F0010E04F4B7
:1096F000907313EB0E0340D1036BD50618D5012BE5
:1097000016D114F0100313D0002201920A680192BE
:109710004A680192019A4969490649D4818DC28DEE
:10972000C38D002B18BF914240F0F98102B0B0BD4B
:1097300013062CD514F0800329D090F84120212A5B
:10974000F4D18268B2F5805F03D10269002A00F08B
:109750006982026A531C036212784A60C28C013A21
:109760001304C284E2D1C86820F08000C860C868D1
:1097700040F04000C86002B0B0BDD30718BF14F479
:10978000807340F0D780530700F1DA80DFE05206A3
:10979000CCD514F04002C9D0CA6822F04002CA6099
:1097A000202180F8411002B0BDE8B04000F080BB3D
:1097B000C26B11684B68858D99B2002900F0B080AA
:1097C000A94280F0AD80C385D169B1F5807F00F0FA
:1097D000A080016851E8031F026821F4807142E80B
:1097E0000313DBB1016851E8031F026821F48071A3
:1097F00042E8031393B1016851E8031F026821F4A2
:10980000807142E803134BB1016851E8031F0268FD
:1098100021F4807142E80313002BDAD1016851E88A
:10982000051F026821F0010142E80513BBB301687E
:1098300051E8051F026821F0010142E8051373B3E6
:10984000016851E8051F026821F0010142E8051393
:109850002BB3016851E8051F026821F0010142E8BD
:109860000513002BDAD11AE0016851E8051F0268E0
:1098700021F0400142E80513DBB1016851E8051F02
:10988000026821F0400142E8051393B1016851E8F4
:10989000051F026821F0400142E805134BB1016841
:1098A00051E8051F026821F0400142E80513002B32
:1098B000DAD1202180F8421000210163016851E8CB
:1098C000031F026821F0100142E80313DBB10168B5
:1098D00051E8031F026821F0100142E8031393B11D
:1098E000016851E8031F026821F0100142E80313E8
:1098F0004BB1016851E8031F026821F0100142E8F2
:109900000313002BDAD1C16B04460846FCF744F977
:10991000204602214163818DC28D891A89B277E187
:109920008D427FF403AFD269B2F5807F7FF4FEAE43
:1099300002226CE1436C43F001034364530706D5F4
:10994000BEF1000F03D0436C43F00203436493075E
:1099500006D5BEF1000F03D0436C43F0040343640B
:10996000BCF1000F06D55EEA050303D0436C43F05B
:1099700008034364436C002B3FF4D8AE920605D530
:1099800025B1044601F026FB216820464969426C56
:1099900001F0400102F00802891800F0B98000BF10
:1099A000016851E8031F026821F4907142E8031333
:1099B000BBB3016851E8031F026821F4907142E8CB
:1099C000031373B3016851E8031F026821F4907117
:1099D00042E803132BB3016851E8031F026821F426
:1099E000907142E80313002BDAD11AE0016851E8C4
:1099F000051F026821F0010142E80513DBB101688F
:109A000051E8051F026821F0010142E8051393B1F6
:109A1000016851E8051F026821F0010142E80513C1
:109A20004BB1016851E8051F026821F0010142E8CD
:109A30000513002BDAD1016B012924D1016851E80B
:109A4000031F026821F0100142E80313DBB1016833
:109A500051E8031F026821F0100142E8031393B19B
:109A6000016851E8031F026821F0100142E8031366
:109A70004BB1016851E8031F026821F0100142E870
:109A80000313002BDAD1202180F84210002101635A
:109A900001684969490640F1C080016851E8051F25
:109AA000026821F0400142E80513DBB1016851E88A
:109AB000051F026821F0400142E8051393B10168D7
:109AC00051E8051F026821F0400142E805134BB13F
:109AD000016851E8051F026821F0400142E80513C2
