:020000040800F2
:10400000102700209D410008C97F0008C17F0008DB
:10401000C57F0008214C000805D100080000000001
:1040200000000000000000000000000025920008D1
:104030008D540008000000001D8E00082992000821
:10404000B7410008B7410008B7410008B741000870
:10405000B7410008B7410008B7410008B741000860
:10406000B7410008B7410008B741000839540008BB
:10407000B7410008B741000845540008B74100089F
:1040800051540008B7410008B7410008B741000883
:10409000B7410008B7410008B7410008B741000820
:1040A000B7410008B7410008B7410008B741000810
:1040B000B7410008B7410008B7410008B741000800
:1040C000B7410008B7410008B7410008B7410008F0
:1040D000B74100086DB60008B7410008B7410008B5
:1040E000B7410008B7410008B7410008B7410008D0
:1040F00051920008B7410008B7410008B7410008D5
:10410000B7410008B7410008B7410008218E0008F8
:10411000B7410008B7410008B7410008B74100089F
:104120005D540008B741000869540008B741000811
:10413000B74100080000000000000000B74100087F
:10414000254C0008B7410008B7410008CD7F0008A2
:1041500075540008B741000881540008B7410008B1
:10416000B7410008B7410008B7410008B74100084F
:10417000B7410008B741000800000000000000003F
:10418000B7410008B7410008DFF80CD000F05AF83A
:1041900000480047E5F8000810270020064880473F
:1041A00006480047FEE7FEE7FEE7FEE7FEE7FEE71C
:1041B000FEE7FEE7FEE7FEE73992000889410008C6
:1041C000D2B201E000F8012B491EFBD27047002259
:1041D000F6E710B513460A4604461946FFF7F0FF06
:1041E000204610BD421C10F8011B0029FBD1801A8B
:1041F0007047F0B400F0004221F0004120F0004090
:10420000CE0DC30DC1F3160141F40001C0F3160039
:104210004C42154640F40000761E09E010EB4400C5
:1042200002D582F0004240428842F7D840005B1E2F
:10423000B342F9DA18B1F0BC002100F024B82846E6
:10424000F0BC70471CB5094800900948019005462C
:10425000009C06E0E06840F0010394E807009847FE
:104260001034AC42F6D3FFF793FF0000543E010830
:10427000743E01080029A8BF7047401C490008BFD0
:1042800020F00100704710B4B0FA80FC00FA0CF086
:1042900050EA010404BF10BC704749B1CCF12004BE
:1042A00021FA04F411FA0CF118BF0121214308434B
:1042B000A3EB0C01CB1D4FEA00614FEA102042BF77
:1042C000002010BC704700EBC35010440029A4BF6D
:1042D00010BC7047401C490008BF20F0010010BC12
:1042E00070472DE9F05F0546002092469B468846C0
:1042F0000646814640241BE0284641464746224662
:1043000000F0F8F953465A46C01A914110D31146AD
:104310001846224600F0DFF92D1A67EB01084F46D8
:1043200022460120002100F0D6F917EB00094E418A
:10433000201EA4F10104DFDC484631462A464346EC
:10434000BDE8F09F40EA01039B0703D009E008C9DC
:10435000121F08C0042AFAD203E011F8013B00F84A
:10436000013B521EF9D270472DE9FE4F804681EA8B
:104370000300C00F0C46009021F0004123F00045DF
:10438000B8EB0200A94105D24046214690461C46A2
:104390000B46024623F00040104347D0270DC7F3D9
:1043A0000A00C3F30A510290401A019040286BDAC8
:1043B000C3F3130040F4801B0098924620B1002301
:1043C000D2EB030A63EB0B0B01985946C0F1400294
:1043D000504600F080F906460D4650465946019A6F
:1043E00000F098F910EB08006141002487EA1152AF
:1043F00084EAE7731A4340D0009A62B3019A012A13
:104400004FEA075215DC001B61EB02014FF000423E
:1044100002EA0752CDE90042001C41F58011324604
:104420002B4600F098F903B0BDE8F08F40462146D6
:10443000F9E7001B61EB0201001C41F58013001835
:104440005B412018A2F5001747EB030140EAD57045
:10445000B6196D4111E06D084FEA360645EAC075A0
:104460004FEA0752001B61EB0201001C41F580116D
:1044700049084FEA30000019514132462B4603B03B
:10448000BDE8F04F00F058B9009801224000002329
:10449000D0EB020263EBE073009821464FEAE07430
:1044A000B8EB000061EB0401E9E783F000435BE750
:1044B00081F0004158E72DE9FE4F81EA030404F042
:1044C000004421F0004100944FF0000B23F0004322
:1044D00050EA01045ED052EA03045BD0C3F30A54ED
:1044E000C1F30A552C44A4F2F3340194A0FB025406
:1044F000C1F3130141F48011C3F3130343F4801398
:1045000001FB024400FB034E840A970A44EA8154EB
:1045100047EA8357A4FB076802958D0A05FB0785C8
:104520004FEA932C04FB0C542705029D4FEA0658D2
:1045300047EA1637B5EB08056EEB070C870E920EAF
:1045400047EA811742EA8312A7FB0201B6EB0B018F
:1045500064EB00042B0D43EA0C335E1844EB1C5053
:10456000DA465146E7FB0201C5F313044FEA0B3369
:1045700043EA14534FEA0432019C43EA0603A4F1D0
:104580000C040294009CCDE900B400F0E4F803B000
:10459000BDE8F08F00200146F9E72DE9F04D81EAF2
:1045A000030404F0004B21F0004514464FF0000ACC
:1045B00023F0004150EA050220D054EA01021DD048
:1045C000C5F30A570246C5F31303C1F31300C1F341
:1045D0000A5640F4801543F48013A7EB0608101B1D
:1045E000D64608F2FD3873EB050002D308F1010846
:1045F00001E092185B41B8F1000F03DA0020014698
:10460000BDE8F08D00204FF48011064684460EE090
:10461000171B73EB050705D3121B63EB050306435A
:104620004CEA010C49084FEA300092185B4150EA0D
:104630000107EDD152EA030012D082EA040083EAB6
:104640000501084305D0101BAB4106D2012200230F
:1046500006E000224FF0004302E06FF00102531029
:104660001AEB06004CEB085110EB0A0041EB0B0172
:10467000BDE8F04D00F060B800F0004230F00040BE
:104680000AD0C10D01F56071C0F3160042EA015174
:10469000C20840071143704700200146704701F0EF
:1046A000004330B421F0004150EA010206D00A0D67
:1046B000A2F56072C1F31301002A02DC30BC0020B5
:1046C0007047440F44EAC104C100E01830BC00EB5D
:1046D000C250FFF7CFBD202A04DB203A00FA02F1D6
:1046E000002070479140C2F1200320FA03F31943E0
:1046F00090407047202A04DB203A21FA02F0002182
:10470000704721FA02F3D040C2F1200291400843E1
:1047100019467047202A06DBCB17203A41FA02F0EF
:1047200043EAE07306E041FA02F3D040C2F120020E
:10473000914008431946704710B5141E73F10004E8
:1047400008DA401C41F1000192185B411A4301D183
:1047500020F0010010BD2DE9F04D92469B4611B1AD
:10476000B1FA81F202E0B0FA80F220329046FFF70F
:10477000B2FF04460F4640EA0A0041EA0B015346E5
:104780005A46084313D0114653EA010019D0C8F124
:1047900040025046FFF7AEFF05460E4650465946CA
:1047A0004246FFF798FF084305D0012004E0204669
:1047B0003946BDE8F08D0020054346EAE0762C43FB
:1047C00037430A986305E40AA0EB08000022FD0ABB
:1047D00044EA47540A3002D500200146E9E70105C2
:1047E00010196941DDE9084500196941BDE8F04D3E
:1047F000A2E730B58C1810F8012B12F00F0301D18D
:1048000010F8013B120906D110F8012B03E010F853
:10481000015B01F8015B5B1EF9D101E001F8013B8E
:10482000521EFBD1A142E6D3002030BD816B0B6C40
:104830000A6C13F0500F04D0D20619D4896BC96CDE
:10484000084742F4007008640868826812F0405F0C
:1048500002D10A7E002A6DD042F20001C4F20101A9
:10486000884205D140F63250C2F20000017801B111
:10487000704740F62851C2F200010A889FED392A9C
:1048800000EE102A40F68852C2F20002B8EE400A4A
:1048900092ED001A20EE020A30EE010A4B8882EDFA
:1048A000000A40F68C5201EE103AC2F20002B8EE55
:1048B000411A92ED003A898821EE021A31EE031A6C
:1048C00003EE101A40F6905182ED001AC2F2000178
:1048D00040F68452B8EE433A91ED004AC2F200022B
:1048E00023EE022A137832EE042A81ED002A591CA5
:1048F000CBB2642B117018BF70479FED1B3A40F686
:10490000345180EE030A81EE031A82EE032AC2F2CA
:10491000000181ED000A40F63851C2F2000181ED3C
:10492000001A40F63C51C2F2000181ED002A01213B
:1049300001707047C26A12F4700F02D0826852058B
:104940008AD4426822F0200242600A6C22F480720B
:104950000A640A6CD2043FF57FAF0A6C42F0010290
:104960000A6479E74108043D0000C842806B402199
:104970000164416C41F004014164704770470000DC
:104980002DE9F04381B041F6382EC2F2000E9EF9B7
:1049900001304FF04B08B3F1FF3FC8BF4FF0230881
:1049A0005A064FF04B0258BF23229C064FF04B048F
:1049B00058BF2324DD064FF04B0558BF23251E07A3
:1049C0004FF04B0658BF23265F074FF04B0758BFE9
:1049D000232798074FF04B0041F6BC4158BF2320D6
:1049E000DB07C2F200014FF04B0308BF2323C1E9EC
:1049F00006039EF80000C1E9008201F10802F0C23E
:104A000042B2B2F1FF3F4FF04B089EF80230C8BFF0
:104A10004FF0230844064FF04B0958BF4FF02309CD
:104A200085064FF04B0558BF2325C6064FF04B06B1
:104A300058BF232607074FF04B0758BF23274207CD
:104A40004FF04B0258BF232284074FF04B0458BF4E
:104A50002324C0074FF04B0008BF2320C1E9088979
:104A600001F12808C86358B288E8E000B0F1FF3FC0
:104A70004FF04B08C1E90D24C8BF4FF023085A0678
:104A80004FF04B0258BF23229C064FF04B0458BFF7
:104A90002324DD064FF04B0558BF23251E074FF09A
:104AA0004B0658BF23265F074FF04B0758BF2327FD
:104AB00098074FF04B0058BF2320DB074FF04B0304
:104AC00008BF232388659EF90400C1E9108201F123
:104AD0004802B0F1FF3F4FF04B08F0C2CB65C8BFB2
:104AE0004FF0230843064FF04B0358BF232384069F
:104AF0004FF04B0458BF2324C5064FF04B0558BF59
:104B0000232506074FF04B0658BF232647074FF0D3
:104B10004B0758BF232782074FF04B0258BF232271
:104B2000C0074FF04B0008BF23208A679EF903207F
:104B3000C1E9188301F16803B2F1FF3F4FF04B0860
:104B4000F0C3C867C8BF4FF0230853064FF04B03AC
:104B500058BF232394064FF04B0458BF2324D50697
:104B60004FF04B0558BF232516074FF04B0658BF93
:104B7000232657074FF04B0758BF232790074FF0C6
:104B80004B0058BF2320D2074FF04B0208BF23220F
:104B9000C1F898009EF90500C1E9208301F188035E
:104BA000B0F1FF3F4FF04B0EF0C3C1F89C20C8BFDF
:104BB0004FF0230E43064FF04B0358BF23238706C5
:104BC0004FF04B0758BF2327C6064FF04B0658BF80
:104BD000232605074FF04B0558BF232544074FF008
:104BE0004B0458BF232482074FF04B024FF04B0C6D
:104BF00058BF2322C00708BF4FF0230CC1E928E3A8
:104C0000C1E92A76C1E92C54C1E92E2C01F1C0007A
:104C10004FF4C871FFF7DBFA01B0BDE8F083000084
:104C2000FEE700002DE9F04F83B041F2041BC2F211
:104C3000000BDBF800004669D0F804808268C16888
:104C4000D0F81090D0F818E0F30701D1002530E03B
:104C5000D3070ED00123950783600AD453075ABFA8
:104C60004FF4805303EA42254FF40065D30503D483
:104C70000FE00025D3050CD54FF4807394058360B5
:104C800007D453055ABF02F4006345EAC30505F58E
:104C90000055D3030DD54FF480339403836008D4BB
:104CA00053034FBF05F500454FF4803303EAD202AA
:104CB0001544320706D511F010021EBF45F40075E9
:104CC0001022C260720704D511F008011CBF082130
:104CD000C160B10740F12281C168890700F01E81DF
:104CE0009BF8201040F6483701390129C2F200072D
:104CF00000F2AB80C168890700F0AA80D0F8B0113B
:104D0000D0F8B011D0F8B021D0F8B4214B0D120773
:104D10005ABFD0F8B41101F00F010821D0F8B42126
:104D2000D0F8B421D0F8B8218DF80420D0F8B841DB
:104D3000240A8DF80540D0F8B841240C8DF80640BF
:104D4000D0F8B841240E8DF80740D0F8BC418DF85A
:104D50000840D0F8BC41240A8DF80940D0F8BC4185
:104D6000240C8DF80A40D0F8BC41240E8DF80B407D
:104D7000C46844F02004C46040F64430C2F200002D
:104D80000068834240F0BB8040F64C30C2F2000025
:104D90000078002800F0888040F65C3040F66032F1
:104DA000C2F20000C2F200020078B2F800A00028AF
:104DB00040F6503718BF40208245C2F2000715D098
:104DC00040F65834C2F20004D7F800C02388E52228
:104DD0000CF803205A1C02F03F02228040F6603299
:104DE0000AF1010AC2F20002A2F800A0CDF800E028
:104DF000C1B340F65832C2F200023F68B2F800C0B8
:104E00000DF1040E53461BE09EF800401FFA8CF291
:104E1000BC540CF1010202F03F0C40F65832C2F2D1
:104E20000002A2F800C003F1010A40F66032C2F2AB
:104E300000025346A2F800A001390EF1010E11D074
:104E40009CB28442E0D10346F6E74FF4802001E0B3
:104E50004FF40010DBF824100843CBF82400387816
:104E6000053050E01FFA8AF1DDF800E040F64837DF
:104E70008142C2F2000742D040F6503040F658332B
:104E8000C2F20000C2F20003006819885E22425498
:104E9000481C00F03F0040F6603118800AF1010024
:104EA000C2F2000108802AE040F66830C2F2000039
:104EB000037823BB4B1EF246072B1AD801A9DFE863
:104EC00003F0040F18081818181400218270C1701C
:104ED0000FE040F22142416000214280029108E04F
:104EE000013182700122C27002E040F6210242804C
:104EF000416040F20111018008F01CF9D646387873
:104F0000002863D00138C1B238700320312988BF2E
:104F1000022040F20C21C2F200010870700608D590
:104F200019F0100005D0DBF8000045F48065102171
:104F30000161B00606D519F0080003D0DBF80000C7
:104F400008210161F00602D5DBF800000069B0031A
:104F500006D518F0100003D0DBF8000010214160E6
:104F6000F00306D518F0080003D0DBF80000082194
:104F70004160300444D55FEA48703DD506F4807046
:104F80000EEA102028435FEA8E71014648BF41F0C7
:104F90000201B20558BF01465FEA4E700D4648BF98
:104FA00045F00405700558BF0D46300524D51EF0A8
:104FB000700021D010380009052817D8DFE800F06C
:104FC00003110B0E081445F008050FE00320A0E7BD
:104FD00045F080050AE045F0200507E045F0400572
:104FE00004E045F0100501E045F48075DBF80000B1
:104FF000816921F070018161DBF8000004214160CA
:1050000025B1DBF824002843CBF8240003B0BDE829
:10501000F08F0000002070470020704740F6985045
:10502000C2F20000D0F8D41200EB8101D1F8C00226
:1050300090B140F69202C2F20002C0F80822D1F804
:10504000C01200220029C0F810221EBF40F2926058
:10505000C2F20000C1F80402002070472DE9F043BD
:1050600081B0002818BF002931D140F69851C2F212
:105070000001D1F8D42201EB8202D2F8C03213B37E
:10508000C3F80402D2F8C002E8B10A7CD0F80432B6
:10509000D1F8C8024027002A4FF0000208BF4FF4A1
:1050A0000077C0F88C228279C0E9A1370127012A54
:1050B000A0F8787204BFC0F89432012200F51E7186
:1050C000006807F039FE002001B0BDE8F08340F22F
:1050D000F209C2F20009037899F80070BB42C4D10A
:1050E0000B7899F88460034413F8017CB742BCD173
:1050F00013F8028C89F883800978062908D34F1F9A
:105100008E1F032E07F0030E04D20021032517E0A3
:10511000002125E0093927F0030421F0030C051FC5
:10512000002100BFEE792F7A6B7A3144AA7A394494
:1051300019441144043C05F10405F3D10CF10705B1
:10514000BEF1000F0CD0475DBEF1010F394407D00E
:1051500047197E78BEF1020F31441CBFBF78394435
:10516000C9B288457FF481AF8478467809F1030598
:10517000C11C07462846224689F8016089F802408A
:10518000FFF7E0F840F66831C2F200010A783846CD
:10519000002A7FF46AAF40F2013008808E70CC7034
:1051A0004D6007F0C7FF38465FE7000000207047FA
:1051B00040F6985CC2F2000CDCF8BC22D2F8142253
:1051C000002A1CBF01207047DCF8D4220CEB8202BD
:1051D000D2F8C0329BB340F27711C2F20001C3F89B
:1051E0000812D2F8C022C3F8100242B3D2F8140257
:1051F00000284FF0010018BF704780B5C2F81402B4
:10520000DCF8C802D2F81032D2F808E240F20112FB
:10521000014621F8382F0022C2648279CCF8283068
:10522000C0F844E0012A836404BFC0F854E00122BE
:10523000006807F081FD0020BDE880407047032032
:105240007047000080B541F6A81CC2F2000CDCF8E3
:10525000001040F2004E0A6AC4F2010E22F0010270
:105260000A62086A41F48062724508620DD1086AD8
:1052700041F21113184208D1086A40F2444318421F
:1052800003D1486C20F400404864086A41F21113CD
:10529000184208D1086A40F24443184203D1086812
:1052A00020F00100086001208CF83E00086A724579
:1052B00020F010000862086A08620DD1086A41F205
:1052C0001113184208D1086A40F24443184203D12E
:1052D000486C20F400404864086A41F211131842F7
:1052E00008D1086A40F24443184203D1086820F00C
:1052F0000100086001208CF83F00086A724520F424
:1053000080700862086A08620DD1086A41F21112C1
:10531000104208D1086A40F24442104203D1486C5E
:1053200020F400404864086A41F21112104208D18A
:10533000086A40F24443184203D1086820F0010093
:10534000086001208CF84000086A20F00400086220
:10535000086A0862086A104208D1086A40F24442AA
:10536000104203D1486C20F400404864086A41F2BE
:105370001112104208D1086A40F24443184203D186
:10538000086820F00100086001208CF84200086ADB
:1053900020F040000862086A0862086A104208D1DA
:1053A000086A40F24442104203D1486C20F40040A5
:1053B0004864086A41F21112104208D1086A40F2AA
:1053C0004443184203D1086820F00100086001201E
:1053D0008CF84300086A20F480600862086A08625A
:1053E000086A104208D1086A40F24442104203D1D0
:1053F000486C20F400404864086A41F211121042DF
:1054000008D1086A40F24442104203D1086820F0F3
:105410000100086001208CF8440040F21840C4F2FA
:1054200002004FF00061016041F6A830C2F20000B6
:105430000021017180BD000041F2EC10C2F20000B9
:1054400000F02CBE41F2AC20C2F2000000F026BEFB
:1054500041F24C20C2F2000000F020BE41F22C10BC
:10546000C2F2000000F01ABE41F28C10C2F200003D
:1054700000F014BE41F20C30C2F2000000F00EBE8B
:1054800041F26C30C2F2000000F008BE704700002C
:1054900080B541F6A811C2F2000191F83E0041F238
:1054A000FF7C0128C4F2000C56D1022281F83E2074
:1054B0000A68136A624523F001031362136A43F01A
:1054C000010313620BDC40F2FF73C4F200039A4243
:1054D00013DCB2F1804F36D040F2004315E040F2C9
:1054E000FF33C4F201039A4214DC41F60003C4F214
:1054F00000039A4227D0002314E040F60003C4F2D0
:1055000000039A421FD040F60043C4F200039A42BF
:1055100019D01DE044F20003C4F201039A4212D0F4
:1055200040F20043C4F201039A4211D1536C42F499
:10553000806043F4004E40F20043C4F201039842FD
:10554000C2F844E004D1906800F00700062803D0B8
:10555000106840F00100106091F83F00012856D11A
:10556000022081F83F000A68106A624520F01000AE
:105570001062106A40F0100010620BDC40F2FF7005
:10558000C4F20000824213DCB2F1804F36D040F208
:10559000004015E040F2FF30C4F20100824214DC0A
:1055A00041F60000C4F20000824227D0002014E03F
:1055B00040F60000C4F2000082421FD040F60040D6
:1055C000C4F20000824219D01DE044F20000C4F28F
:1055D0000100824212D040F20040C4F20100824237
:1055E00011D1506C42F4806340F4004E40F2004010
:1055F000C4F201008342C2F844E004D1906800F094
:105600000700062803D0106840F00100106091F8F0
:105610004000012856D1022081F840000A68106A33
:10562000624520F480701062106A40F4807010624D
:105630000BDC40F2FF70C4F20000824213DCB2F1D6
:10564000804F36D040F2004015E040F2FF30C4F207
:105650000100824214DC41F60000C4F200008242E4
:1056600027D0002014E040F60000C4F2000082427F
:105670001FD040F60040C4F20000824219D01DE065
:1056800044F20000C4F20100824212D040F2004015
:10569000C4F20100824211D1506C42F4806340F4A4
:1056A000004E40F20040C4F201008342C2F844E0E0
:1056B00004D1906800F00700062803D0106840F07D
:1056C0000100106091F8420001284DD1022081F8BC
:1056D00042000A68106A624520F004001062106AF5
:1056E00040F004001062506C40F4004050640DDC47
:1056F00040F2FF70C4F20000824215DCB2F1804F2C
:1057000029D040F20040C4F2000022E040F2FF3015
:10571000C4F20100824212DC41F60000C4F2000033
:10572000824218D0002012E040F60000C4F20000CF
:10573000824210D040F60040C4F2000009E044F27A
:105740000000C4F20100824205D040F20040C4F2E1
:105750000100824204D1906800F00700062803D0BF
:10576000106840F00100106091F8430001284DD10D
:10577000022081F843000A68106A624520F0400068
:105780001062106A40F040001062506C40F400401B
:1057900050640DDC40F2FF70C4F20000824215DC60
:1057A000B2F1804F29D040F20040C4F2000022E064
:1057B00040F2FF30C4F20100824212DC41F60000E8
:1057C000C4F20000824218D0002012E040F600002F
:1057D000C4F20000824210D040F60040C4F2000043
:1057E00009E044F20000C4F20100824205D040F218
:1057F0000040C4F20100824204D1906800F007002A
:10580000062803D0106840F00100106091F84400B1
:1058100001284DD1022081F844000968086A6145D9
:1058200020F480600862086A40F480600862486C76
:1058300040F4004048640DDC40F2FF70C4F2000008
:10584000814215DCB1F1804F29D040F20040C4F212
:10585000000022E040F2FF30C4F20100814212DC7D
:1058600041F60000C4F20000814218D0002012E08E
:1058700040F60000C4F20000814210D040F6004023
:10588000C4F2000009E044F20000C4F201008142C9
:1058900005D040F20040C4F20100814204D1886882
:1058A00000F00700062803D0086840F001000860F7
:1058B00040F21840C4F202004FF40061016041F66A
:1058C000A830C2F200000121017180BD80B540F214
:1058D000102C43F60C4EC2F2000C002141F6AC42F3
:1058E000C4F2020ECCF81C10C2F200021368DEF8FB
:1058F0000010C9034ED4DEF80000C0071CBF012011
:10590000CEF80000DEF8000010F0F20F65D0DEF8EF
:105910000000C00608D5DCF81C0040F01000CCF8F0
:105920001C001020CEF80000DEF80000800608D52C
:10593000DCF81C0040F00800CCF81C002020CEF859
:105940000000DEF80000400608D5DCF81C0040F03E
:105950000400CCF81C004020CEF80000DEF8000067
:10596000000608D5DCF81C0040F00200CCF81C0052
:105970008020CEF80000DEF80000800708D5DCF8B3
:105980001C0040F02000CCF81C000220CEF80000E3
:10599000012080BD4CF250311068C01A88421ED8D8
:1059A000DEF80000C003A6D51068C01A884216D8D9
:1059B000DEF80000C0039ED51068C01A88420ED8D9
:1059C000DEF80000C00396D51068C01A884206D8D9
:1059D000DEF80000C003DFD48DE7002080BD032087
:1059E00080BD000070B581B00022009290F83C208C
:1059F000012A02D1022001B070BDD1F800E00122DD
:105A0000BEF10A0F1FFA8EFC80F83C2009D34FEA42
:105A10004C02036812FA8EF2A2F11E0403F10C028A
:105A200004E003680EEB4E0403F11002072516682C
:105A3000A54026EA050515608D68166805FA04F488
:105A4000344314604968062906D801EB81014A1FD6
:105A5000194651F8345F0EE00C2901EB810105D89D
:105A6000A1F12302194651F8305F04E0A1F141028F
:105A7000194651F82C5F1F24944025EA04040C6059
:105A80000CFA02F20C6842F2043CC4F2010C22430C
:105A9000ACF54174A3420A603AD1BEF1120F06D1AF
:105AA000DCF8001041F48001CCF8001030E02EF05A
:105AB000010110292CD1DCF80010BEF1100F41F4C7
:105AC0000001CCF8001023D140F22001C2F2000105
:105AD00009684DF68362C4F21B32A1FB0212910CDD
:105AE00001EB810149000091009989B100990139C8
:105AF0000091009961B1009901390091009939B183
:105B0000009901390091009911B100990139EAE732
:105B1000002180F83C10002001B070BD002804BFB7
:105B2000012070472DE9F04186B0016C002940F05A
:105B3000A680016842F20012C4F2010200269142DE
:105B4000CDE90466CDE9026601964AD042F2000230
:105B5000C4F20102914240F08E80804643F630004C
:105B60000096C4F202004169032741F4807141614B
:105B7000416901F48071009100990096016841F03B
:105B800001010160006801A900F001000090009887
:105B9000072001900020C4F20200CDE9027600F057
:105BA00047FC41F22C1446F21040C2F20004C4F249
:105BB00002004FF480614FF40062C4E9000604F172
:105BC00010004FF400534FF480752EC04FF4003096
:105BD00004F12002C4E90266042183C2C4E90B6611
:105BE00039E0804643F630000096C4F20200416975
:105BF00041F400714161416901F400710091009923
:105C00000096016841F001010160006801A900F0FF
:105C1000010000900098782001900320CDE9020651
:105C20000020C4F2020000F003FC46F21040C4F26F
:105C3000020041F28C143030C2F200044FF4806252
:105C40004FF0007184E84300C4E90362C4E90566CB
:105C5000C4E907666662204600F000FB30B141F6F9
:105C6000B53072B6C2F20000022101704046C8F899
:105C70003840C4F838800021416480F83C10016C41
:105C8000C90639D4016C41F202129143023142F249
:105C900004320164C4F20102116821F44031116040
:105CA0001368D0E9001786683B43056913604A68AA
:105CB000012722F480724A604A68C0F6007742EAFF
:105CC00005224A604A6822F040724A604A683243BC
:105CD0004A608A6822F400628A60C2688B681A434C
:105CE0008A60826A8B68BA4223F070638B608B682B
:105CF00004D123F040520AE0012151E01A438A60A6
:105D00008A6822F040528A60C26A8B681A438A60AD
:105D10008A6822F002028A608A68037E90F8207006
:105D200042EA43028A604A6887B142F400624A60EC
:105D30004A684EF2000322F460424A60426ACFF69B
:105D4000FF734F6803EB42323A4301E022F40062F2
:105D50004A60CA6A002722F47002CA62C3694269B3
:105D6000CFF6F077CE6A07EB03533343CB628B68F1
:105D700023F400738B6090F830308F6847EA432338
:105D80008B608B6823F480638B608B6843EA82228C
:105D90008A6000214164026C012363F30102026402
:105DA000002280F83C2006B0BDE8F041084670476C
:105DB000F0B581B00023009390F83C30012B00F047
:105DC000C780D0F800C0012380F83C30654655F804
:105DD000084FE40727D12C684DF6836344F0010493
:105DE0002C6040F22004C2F200042468C4F21B3389
:105DF000A4FB0334A30C03EB430300BF0093009BFD
:105E00008BB1009B013B0093009B63B1009B013B66
:105E10000093009B3BB1009B013B0093009B13B19F
:105E2000009B013BEAE72B68DB0503D52B6823F4D5
:105E300080732B602B68046CDB070AD144F01001DF
:105E4000016400F14405012029680843286001B07D
:105E5000F0BD40F2017324EA030303F58073036489
:105E6000DCF804305B0504D5036C012464F30D33C6
:105E70000364036C00244FF0000EDB0444BF436C4A
:105E800023F00604446480F83CE0806B44F62D0364
:105E900044F67D14C0F60003C0F60004C0E90F34D8
:105EA00044F66D13C0F60003C3646FF02203CCF810
:105EB0000030DCF8043043F08063CCF80430DCF8C8
:105EC000083043F48073CCF8083090F83430012B5C
:105ED00033D0012380F83430D0F858E090F83530D2
:105EE000012B27D1022380F8353000234365036856
:105EF0008468C06D1E680CF14C0726F480261E6075
:105F00005A603A46402C04BF0A4639469A60D96026
:105F10003F2101FA00F0CEF80800186840F01600A2
:105F20001860186840F008001860186840F0010018
:105F3000186002E0002180F8341042F20430C4F20C
:105F400001000168C90605D0A0F541718C4524D037
:105F500001B0F0BD42F20001C4F201018C4515D040
:105F600042F20021C4F201018C450CD042F2001132
:105F7000C4F201018C45EBD10168C90606D0A0F539
:105F800082718C45E4D10068C006E1D4286810F025
:105F9000405FDDD14FF0804056E74FF60451CFF619
:105FA000FF71415811F0405FD2D1A0F53F754FF01D
:105FB000804049E741F20411C2F2000191F820202B
:105FC000013A012A30D8B0B546F20061C4F20001AE
:105FD0000A6842F001020A600A6822F47C520A60F0
:105FE000D0F814E0C469426A0B68012C43EA02222B
:105FF0000A600EF01F024FF0010303FA02F2CB69B0
:106000006FEA020C23EA0203CB6113D02CBBCB68EE
:1060100003EA0C03CB60C368848844EA034301EBC2
:10602000CE042364034611E0486A40F480204862AD
:1060300001207047CB681343CB600368848844EA2F
:10604000034301EBCE04236400F10C0384681B8836
:1060500043EA044301EBCE0463644B68856943EA79
:106060000204D0F810E0006A002D08BF03EA0C0417
:106070004C604B69BEF1000F43EA020408BF03EA1B
:106080000C0401284C6102D1C8691043C86108683A
:1060900020F0010008600020B0BD0000F0B581B024
:1060A0000021009140F22001C2F200010B68D0E90A
:1060B000166148F2B51537680822C1F64E358A4098
:1060C0003A42A3FB05350CD003681C68640708D569
:1060D0001C6824F004041C60B260426D42F00102AE
:1060E000426501228A403A4208D003685B691B0678
:1060F00004D5B260426D42F00202426504228A4039
:106100003A4208D003681B689B0704D5B260426D11
:1061100042F004024265102202FA01F33B4217D01A
:1061200002681468240713D5B36014681368640305
:1061300006D4DB0506D4136823F00803136001E0DE
:106140001A0341D4026C1AB104469047E16D20460F
:10615000202202FA01F33B4243D002681768FF068F
:106160003FD5B36090F835701368052F1CD123F02C
:1061700016031360536923F080035361036C0BB95A
:10618000836C1BB1136823F0080313603F2202FAEB
:1061900001F1B160012180F83510016D0022002964
:1061A00080F8342053D156E011685B0310D4C90540
:1061B00012D4116821F010011160012180F835100E
:1061C000002180F8341007E0826C002ABCD1BFE7C0
:1061D000090301D4416C00E0C16B11B1044688474A
:1061E0002046416DB9B3416DC9072ED0052180F815
:1061F00035100168AA0A0B6823F001030B60009BAD
:106200000133934200931AD80B68DB0717D0009B29
:1062100001339342009312D80B68DB070FD0009B29
:106220000133934200930AD80B68DB0707D0009B29
:1062300001339342009302D80B68DB07DFD10121C1
:1062400080F83510002180F83410C16C19B101B00C
:10625000BDE8F040084701B0F0BD000041F6AC4198
:10626000C2F200010B68002804BF012070472DE92D
:10627000F041022280F835200025026880F8345071
:10628000156825F0010515601568ED071CD00D682F
:10629000ED1A052D14D81568ED0715D00D68ED1A07
:1062A000052D0DD81568ED070ED00D68ED1A052DDA
:1062B00006D81568ED0707D00D68ED1A052DE3D94E
:1062C0000323202403215EE0116848F23F03CFF24C
:1062D0001003D0E9015401EA030C00F10C0898E81E
:1062E000C20145EA0C0525432943D0E9073E314365
:1062F00039431943456A41EA0E01042D41EA080376
:106300001CD1016BD0E90A5E41EA0E01194311600C
:106310005169BEF1000F21F0030141EA050141F08E
:10632000040C11D0B8F5005F34D0B8F1000F41D1A2
:10633000022D42D0012D37D035B93EE013605169AE
:1063400021F0070141EA050C02F0F8014AF6AB23FF
:106350001039CAF6AA23A1FB0337C2F814C03B09BF
:106360001AA7FB5C40F2FF375F294FF03F0122EA9A
:10637000070201FA03F188BF0432C0E916239160D5
:10638000002401230021446580F83530BDE8F04148
:1063900008467047032DD7D8012340240121DFE8A8
:1063A00005F0020C0203EEE7AEF1C071B1FA81F123
:1063B000490904E0032D04D3C6D1CEF300610029BE
:1063C000C2D0012340240121DDE700BF00061016E2
:1063D00000061016F0B581B040F21024C2F200049D
:1063E000217E012902D1022001B0F0BD0546012025
:1063F00016462076FFF76AFAB0B943F61047C4F2A2
:106400000207386820F440703860386840F4007043
:106410003860386840F0010038602E60FFF756FAA7
:10642000396821F0010139600021217601B0F0BD09
:106430002DE9F04F83B000F1200200F13E4741F614
:106440000045009207F1FF77C4F2020508224FEAE7
:10645000B726A84208BF072200254FF000084FF0DA
:106460000009072E38BF4FEAB72201920AE000BFA9
:1064700009F1010908F10408B9F1100F05F102054D
:1064800000F09F800F68012202FA09FE17EA0E0A47
:10649000EED0D1F804C003220CF003077E1E02FAEE
:1064A00005F4012E6FEA040B10D88468CE6804EA64
:1064B0000B04AE4034438460446824EA0E06CCF3F7
:1064C000001404FA09F42643466003E0032F01D1C7
:1064D00003271DE0C6688C6806EA0B06AC4026431D
:1064E000022FC66014D16FF00302009E02EA590722
:1064F00056F807C008F01C040F220B69A2402CEAD2
:106500000202A3401A43F251D1F804C00CF0030771
:10651000026807FA05F302EA0B021A431CF4403F33
:106520000260A5D0002243F644030292C4F20203A3
:106530001A6843F6004442F480421A601A68C4F2B2
:10654000010402F480420292029A29F003024FF6FB
:10655000084C2244CFF6FF7C52F80C3008F00C07B0
:106560000F26BE40B343019E06FA07F73B4342F8AD
:106570000C30A2684B6842EA0A0743F60C4CDE0274
:1065800058BF22EA0A07A760C4F2010CDCF8002019
:106590009E0242EA0A0758BF22EA0A07CCF80070B6
:1065A00062689E0342EA0A0758BF22EA0A07676048
:1065B0002268DB0342EA0A0758BF22EA0A0727607B
:1065C00056E703B0BDE8F08F10B5014641F2CC307C
:1065D000C2F20000D0F8E04479B194F89C0203289C
:1065E00018BF10BDD4F8B802826992B300232046C8
:1065F000C4F8D432BDE810401047D4F89402032800
:1066000027D1D4F85811B4F86001814222D9D4F8C6
:106610006421D4F8C832091A02EB000CC4F85811EE
:10662000C4F864C1814288BF08469A7903F51571A0
:106630000024012AC3E998C0C3F86842A3F8544271
:106640002DD118680122C3F870C2BDE8104006F0D1
:1066500073BB10BD94F89C02032808D1D4F8B8028B
:10666000016921B10020C4F8D402204688470420E3
:10667000C4F89402D4F8C8324FF480709A7919465D
:1066800021F8140F0024012A1C625C629C6206D16E
:10669000186801221C63BDE8104006F04DBB186865
:1066A000BDE8104006F048BB2DE9F04782B041F24A
:1066B000CC30C2F20000D0F8E09490F89C4401265F
:1066C00089F8AA4290F89D3409F2AA2889F8AB32D9
:1066D00090F89EC490F89F744CEA072AA9F8ACA2DF
:1066E00090F8A01490F8A15441EA0522A9F8AE222E
:1066F000B0F8A204A9F8B002C9F8946204F01F0629
:10670000022EC9F8980249D0012E11D0002E5CD17A
:1067100014F0600170D0402902D0202940F0AF81F0
:10672000D9F8D40209EB8000D0F8B802826846E0BC
:1067300014F0600018BF40284CD199F89C02013831
:10674000022898BF012900F29A81D9F8B80282681C
:10675000002A00F068820020C9F8D4024846414669
:106760009047B9F8B012002908BF002840F05B82BA
:106770000420C9F89402D9F8C8324FF48070194641
:1067800021F8140F9A790027012A1F625F629F6225
:1067900040F00581186801221F6301E114F06002D6
:1067A0001BD0402A02D0202A40F06981D9F8B802D3
:1067B00082680020002AC9F8D40200F034824846DA
:1067C000414602B0BDE8F0471047D9F8C80204F0CE
:1067D00080015CE12028B0D051E1002B41D0012B99
:1067E0002CD0032B40F04B8199F89C22032A00F017
:1067F0002081022A2AD042E1092B00F24081DFE801
:1068000013F00A0054003E018F003E019C00BA00C4
:106810003E014600600099F89C120139022900F2FD
:106820002E81022840F02B81D9F8A4020322494688
:10683000002808BF012241F80C2F12E199F89C02B0
:10684000032800F0B280022840F01981D9F8C8026C
:106850004A0600F0168106F0C9F9D9F8C80280216D
:1068600015E199F89C02032800F0AD80022808BFCA
:106870005FEA416040F003811420002908BF4FF413
:10688000AA7009EB0001002001F80E0FE9E00128D1
:1068900040F0F58099F89C02411E022980F0E480C6
:1068A0000020494641F8080FE2E099F89C020138BF
:1068B000022800F2E480BAF1010F40F0B481002117
:1068C00037E040F2E525C2F20005BCF1020F85F881
:1068D00000C080F0D48099F89C02032800F0DC808E
:1068E000022840F02081BCF1000F00F05581D9F85A
:1068F000B802C9F804C0002800F03E81026848468A
:1069000061469047002800F03781D9F8C8028021FD
:1069100006F06CF9D9F8C802002106F067F928E002
:10692000BAF1020F00F09580BAF1010F40F0A78094
:1069300001214846C9F8A4122FE1002A08BF002807
:1069400040F09D80BAF17F0F00F2998099F89C0287
:10695000032800F09480D9F8C802614689F89EC2E5
:1069600006F02CF9484605F0ABFEBAF1000F00F036
:106970001981022017E1781E00210628ADF80610C3
:1069800000F24181DFE810F00700C100B4003F01D0
:106990003F01DF00EA00D9F8B40202681CE1186880
:1069A00002B0BDE8F04706F0C7B9BAF1000F40F0F9
:1069B0003A81480603D0D9F8C80206F023F84846C1
:1069C00005F07EFEF2E601F00F0248B202EB820211
:1069D000B0F1FF3F09EB8202D4BF92F8232092F876
:1069E0006321002A4BD001F07F0303EB830209EB04
:1069F000820201EB8107143209EB8707B0F1FF3FF8
:106A0000C8BF07F5AA724F0627D0D9F8C87201EBA4
:106A1000C10107EB810103EBC30301F2562107EB30
:106A20008303002848BF03F116010878A8B10120AC
:106A300014E0BAF1000F7FF49BAE11F07F023FF437
:106A400097AE00287FF494AED9F8C80206F0CEF8CD
:106A50008EE6484689F8A0529FE0002002F10E0120
:106A600090734846022205E0032808D109F1040189
:106A70004846012202B0BDE8F04705F005BED9F84E
:106A8000C802802106F0B2F8D9F8C802002102B08D
:106A9000BDE8F04706F0AAB8BCF1000F71D0D9F8F4
:106AA0000400604500F07880D9F8B8124A68C1B295
:106AB00048469047D9F8B80229780028C9F8041048
:106AC0006AD0026848469047002865D0D9F8C802C5
:106AD000802106F08BF8D9F8C802002106F086F86C
:106AE000D9F8B80299F8041042684846904740E740
:106AF000BCF1050F00F28780DFE80CF003665E62F0
:106B00005A6AD9F8B402426865E099F81010D9F8C9
:106B1000B80200290CBF816AC16A0DF106008847DE
:106B20000146022026E0D9F8C802802106F05EF86E
:106B3000D9F8C802002106F059F8D9F8B802297826
:106B4000426848463DE699F8100000285BD1D9F824
:106B5000B802416B0DF10600884742E099F8100039
:106B6000002850D1D9F8B802016B0DF10600884712
:106B700001460720487035E0484605F0A1FD032096
:106B800011E0022089F89C02D9F8B802002142687D
:106B90004846C9F804C09047484602B0BDE8F047EF
:106BA00005F08EBD012089F89C0202B0BDE8F08797
:106BB000D9F8B40242690EE0D9F8B402C2680AE01A
:106BC000D9F8B402026906E0D9F8B402826802E09A
:106BD000D9F8B4028269B2B199F810000DF106013A
:106BE00090470146B9F8B022D2B1BDF8060050B1C5
:106BF000904238BF02464846ADF8062005F044FDF5
:106C000002B0BDE8F087D9F8C802802105F0EEFF98
:106C1000D9F8C802002105F0E9FF02B0BDE8F0870D
:106C2000484605F04DFD02B0BDE8F087002804BFDE
:106C300001207047416A19B100210161142104E06B
:106C40004168B1F5827F02D01C21002242502DE91B
:106C5000F04F87B00021816290F85120002A3FD088
:106C6000022280F8512090E88C00C668156803F471
:106C7000827325F04005156007F404473B4406F491
:106C8000006706693B4406F0020746693B4406F08C
:106C900001078669C5693B4406F400773B4405F06B
:106CA0003807056A3B4405F08007856A3B4305F4D5
:106CB00000573B431360476A042303EA164307F077
:106CC00010073B445360D36923F40063D36101226E
:106CD000416580F8512007B0BDE8F04F0846704785
:106CE000026843F60043C4F200039A4280F8501051
:106CF000CDE90511CDE90311029134D043F600032B
:106D0000C4F200039A42ABD143F630020191C4F2BF
:106D100002021369044643F480431361136903F4C8
:106D200080430193019B0191136843F002031360B8
:106D3000126802F002020192019A4FF4604202923C
:106D40000222CDE903210521069140F60001C4F29B
:106D500002010592A1F5806202A91046FFF768FBC7
:106D6000002120467CE70090002743F63000019781
:106D7000C4F20200016940F6000441F400410161DF
:106D80000169C4F2020401F40041019101990197E3
:106D9000016802AD41F004010160006846F2100B89
:106DA00000F00400019001984FF4A05002904FF0C1
:106DB000020A01264FF0060820462946C4F2020BBB
:106DC000CDE903A70596CDF81880FFF731FB4FF406
:106DD000006920462946CDE9029ACDE904665E465F
:106DE000CDF81880FFF724FB41F2EC14C2F2000446
:106DF0004FF4806504F110004FF4005B80E8200A36
:106E00004FF400382046C4E90067C4E90277E7611F
:106E1000C4E90887FFF722FA002841F6B530C2F22C
:106E2000000002D072B680F800A08246009840218F
:106E3000C464A06341F24C2406F17800C2F200045D
:106E4000C4E9000704F1100080E8200A2046C4E9E4
:106E50000217E761C4E90887FFF700FA18B172B6B4
:106E600002208AF8000000984EF60C518464A0635A
:106E7000CEF2000109684FF0FF33C1F3022181F027
:106E80000702042A28BF0422033903FA02F24FF052
:106E9000020738BF002127EA02028A4003FA01F103
:106EA00027EA010111434EF233420901CEF20002FA
:106EB00011704EF20411CEF200014FF400220A606C
:106EC0000021CDE670B584B041F6B004C2F20004F2
:106ED00094F85110012940F05F81002800F05C8196
:106EE0006368B3F5827F6ED1A16800296BD104215C
:106EF00041F6AC4C84F85110C2F2000CDCF80050A2
:106F000094F85110042902D0012940F0458194F8E9
:106F10005010012900F04081012184F8501094F8AC
:106F20005120042A1CBF052284F8512000226265EA
:106F3000A063E187A1872063E186A186216822649E
:106F400062640A68520603D40A6842F040020A608A
:106F5000E268B2F5006F40F0A080024632F8023BD2
:106F6000CB602263E18E0139E1862368012106E0CE
:106F7000DCF80060761BB6F57A7F80F08680E68EBE
:106F80001EB9E68F002E00F0C0809E68B6070BD5B4
:106F9000E68E4EB1012907D132F8021BD960226377
:106FA000E18E0139E18600219E68F607E0D0E68F88
:106FB000002EDDD0D96820F8021BA063E18F0139D3
:106FC000E1870121D4E741F6AC4CC2F2000CDCF8B9
:106FD000005094F85010012900F0DE8001210426B1
:106FE00084F8501084F8516000266665A063A1877C
:106FF000E1872663A686E686A1682664B1F5004F80
:107000002168666407D10E6826F040060E600E689F
:1070100026F480460E600E68760603D40E6846F0AD
:1070200040060E60E268E68FB2B15EB984E000BF50
:10703000CA6820F8022BA063E28F013AE287E28F50
:10704000002A79D08A68D207F2D1DCF80020521BDE
:10705000B2F57A7FF3D318E0002E6DD021680BE0F3
:10706000097B0170A06B21680130A063E28F013AB7
:10707000E287E28F002A5ED08A68D207F0D1DCF87E
:107080000020521BB2F57A7FF3D3012084F851001F
:10709000002084F8500004B070BD00780873206BA5
:1070A00001302063E08E0138E086012006E000BF59
:1070B000DCF80010491BB1F57A7FE6D2E18E09B900
:1070C000E18F11B321688A6892070DD5E28E5AB11B
:1070D000012809D1206B00780873206B01302063F0
:1070E000E08E0138E08600208A68D207E0D0E28F87
:1070F000002ADDD0C868A16B0870A06B0130A063C6
:10710000E08F0138E0870120D2E741F6B004C2F2F7
:1071100000042046022101224FF47A7300954FF4B7
:107120007A7602F023F8C8B3606D40F02000606505
:1071300020206065ACE76368B3F5827F0DD1A0685D
:10714000B0F5004F02D0B0F5806F0CD10A68B0F5F1
:10715000806F22F040020A6005D141F6B000C2F211
:107160000000012104E041F6B000C2F200008021DD
:1071700000224FF47A73009501F0F8FF28B1606D9A
:1071800040F02000606520206065012084F85100F7
:10719000002084F85000606D04B070BD40F2200003
:1071A000C2F20000006849F68171C1F25E61A0FB85
:1071B0000101480D704303906068B0F5827F0DD1E6
:1071C00041F6B000C2F20000802100224FF47A7331
:1071D000009501F0CBFF0028A6D120E0206803999C
:1071E000E9B10399013903918168090617D503991B
:1071F000A9B1039901390391816809060FD5039953
:1072000069B10399013903918168090607D503998A
:1072100029B103990139039181680906DFD4A06877
:107220000028B2D1002002902068C16802918068D5
:1072300002900298A9E7000070B584B041F6AC4214
:1072400041F6B001C2F20002C2F20001156891F8E5
:107250005130012B04D130B191F85030012B05D1C0
:10726000022004B070BD012004B070BD01230326CC
:1072700081F8503081F8516000264E6508638B8696
:10728000CB868E638E87CE878B680E64B3F5004FF6
:107290000B684E6407D11E6826F040061E601E680B
:1072A00046F480461E601E68760603D41E6846F0CB
:1072B00040061E60CE68B6F5006F11D130F8026B43
:1072C000DE600863CE8E013ECE86CE8E1EB39E68F3
:1072D000B607F3D41668761BB6F57A7FF5D311E0BE
:1072E00000781873086B01300863CE8E013ECE869D
:1072F000CE8E86B19E68B607F2D41668761BB6F5B8
:107300007A7FF5D3012081F85100002081F85000E8
:10731000032004B070BD41F6B004C2F20004204660
:10732000022101224FF47A7300954FF47A7601F02E
:107330001DFFD8B1606D40F02000606520206065C1
:10734000A06838B9002002902068C1680291806866
:1073500002900298012084F85100002084F8500027
:10736000606D002818BF012004B070BD40F22000FD
:10737000C2F20000006849F68171C1F25E61A0FBB3
:107380000101480D704303906068B0F5827F0DD114
:1073900041F6B000C2F20000802100224FF47A735F
:1073A000009501F0E3FE0028C4D1C9E720680399E5
:1073B0000029C5D003990139039181680906BFD519
:1073C00003990029BCD0039901390391816809060A
:1073D000B6D503990029B3D0039901390391816887
:1073E0000906ADD503990029AAD003990139039163
:1073F00081680906DBD4A3E72DE9F04341F60813C1
:10740000C2F2000393F85120012A08D100284FF05E
:10741000010218BF00290ED11046BDE8F0835E6856
:10742000B6F5827F0BD1042A4FF00202F4D19E6898
:10743000002EEBD0F0E793F85020012A02D1022071
:10744000BDE8F083012283F8502093F851600024B6
:10745000042E1CBF052683F851605C6518639A866C
:10746000DA8699639A87DA87C3E9104493F8516002
:1074700048F6817E48F68575C0F6000EC0F6000518
:10748000042E49F22106D3F800C0DA6C08BF754615
:1074900048F6897EC0F60006C0F6000E08BF7646A4
:1074A000C2E90F6548F66576C0F60006C2E91364C6
:1074B000DE8F92F83450012D00F08980012582F88A
:1074C0003450976D92F83550012D7DD102254FF043
:1074D000000882F83550C2F8548015689468D2F8D4
:1074E0005C902A680CF10C0E22F480222A6072460D
:1074F0006E60402C04BF0A467146AA60E9603F21D5
:1075000001FA09F1B960296841F01601296029687A
:1075100041F008012960296841F001012960DCF887
:10752000041041F00101CCF804109D6CC5E90F88EE
:10753000C5E91388DE8E95F83410012954D0012254
:1075400085F83420A96D95F83520012A49D1022209
:1075500085F8352000226A652C68AF68D5F85C8014
:107560002568402F25F4802525600546666004BF08
:10757000754686463F2000FA08F0A560C4F80CE086
:107580008860206840F016002060206840F001000C
:107590002060DCF80000400605D4DCF8000040F074
:1075A0004000CCF8000083F85020DCF8040040F0E4
:1075B0002000CCF80400DCF8040040F00200CCF815
:1075C00004001046BDE8F083002082F83400586DB6
:1075D00040F01000586583F8504001221046BDE885
:1075E000F083002085F83400586D40F01000586595
:1075F00083F85080F1E70000002804BF01207047A5
:1076000070B582B0044690F83D00F0B1022084F8D5
:107610003D002068211D03F0F1FC012084F84600A4
:1076200084F83E0084F83F0084F8400084F841006C
:1076300084F8420084F8430084F8440084F845004C
:1076400084F83D00002002B070BD216840F2004285
:10765000C4F201020020914284F83C003DD040F683
:107660000000C4F200008142D0D1002043F6400166
:107670000190C4F202010A6841F2AC2542F0040212
:107680000A600968C2F2000501F004010191019944
:1076900046F25801C4F202014FF0806240234FF4D9
:1076A000804685E80E0005F10C014FF4806C4FF424
:1076B000805E81E80150C5E90660C5E908002846FA
:1076C000FEF7CCFD30B141F6B53072B6C2F2000023
:1076D00002210170A562AC6398E743F64001009077
:1076E000C4F202014A6842F002024A60496801F0AD
:1076F0000201009100994EF60C51CEF2000109688A
:107700004EF20411CEF2000181F828034FF48050AC
:1077100008607BE790F83C20012A4FF002026BD012
:1077200080B580F83D20D0F800C04FF67772DCF8C5
:10773000083023EA0202CCF808200B684F2B28DC23
:107740001F2B44DD202B45D0302B43D0402B40F065
:10775000AC80D1F804E0C968DCF82030DCF82020E7
:1077600022F00102CCF82020DCF8182022F0F002F0
:1077700042EA011123F00A0242EA0E02CCF8181084
:10778000CCF82020DCF8081041F0470121F030014E
:1077900027E06F2B32DDB3F5005F73D0B3F5805F68
:1077A00021D0702B40F08180D1E901E3C968DCF879
:1077B000082043EA0E0322F47F4243EA01211143E9
:1077C000CCF80810DCF8081041F0770109E00BB1A3
:1077D000102B6AD1DCF8081021F07001194341F038
:1077E0000701CCF808100022012180F83D1000218B
:1077F00080F83C10BDE8804010467047502B21D0E7
:10780000602B52D1D1F804E0C968DCF82030DCF8F4
:10781000202022F01002CCF82020DCF8182022F4DE
:10782000704242EA013123F0A00242EA0E12CCF883
:107830001810CCF82020DCF8081041F0670121F086
:107840001001CEE7D1F804E0C968DCF82030DCF89C
:10785000202022F00102CCF82020DCF8182022F0B1
:10786000F00242EA011123F00A0242EA0E02CCF8C9
:107870001810CCF82020DCF8081041F0570121F056
:107880002001AEE7D1E901E3C968DCF8082043EA4A
:107890000E0322F47F4243EA01211143CCF8081081
:1078A000DCF8081041F480419BE701229CE70000CE
:1078B0002DE9F04186B040F20041C4F201010026FA
:1078C0008842CDE90466CDE90266019620D040F6F3
:1078D0000001C4F20001884264D1002043F6300167
:1078E0000090C4F202010A6842F002020A600968CC
:1078F00001F0020100910099802101910221CDE95E
:107900000210CDE9040140F20040C4F2020046E05A
:1079100043F630000096C4F20200016840F20044D1
:1079200041F0010101600168C4F2020401F00101AB
:10793000009100990096016801AD41F002010160DB
:1079400001684FF0020801F00201009100990096D1
:107950000168032741F0040101600068294600F036
:1079600004000090009880200190A4F58060CDE98B
:10797000028604960597FEF75BFD20462946CDE971
:107980000178CDE903660597FEF752FD4FF4E070EC
:10799000CDE9010804F58060CDE90366059701A9EA
:1079A000FEF746FD06B0BDE8F081000041F660122A
:1079B000C2F2000201681268914218BF704740F29B
:1079C000FC12C2F2000201231370CA6822F4806222
:1079D000CA60826A92F83530022B08D1052382F8FA
:1079E00035301268136823F00103136001E080232F
:1079F00053650A6A41F4806322F010020A6240F281
:107A00000042D1F820C0C4F201029342C1F820C064
:107A10000DD10A6A41F211131A4208D10A6A40F2E2
:107A200044431A4203D14A6C22F400424A640A6A6F
:107A300041F211131A4208D10A6A40F244431A4231
:107A400003D10A6822F001020A60012180F83F1088
:107A50007047000041F66011C2F2000191F83F004A
:107A6000022800F0B88091F83F00012818BF704745
:107A700010B5022081F83F0008688A6A4BF229118C
:107A80004BF29113C0F60001C0F60003C2E90F13D8
:107A900092F834104BF29913C0F600030129D36415
:107AA00000F09780012382F83430D2F858C092F861
:107AB0003530012B4AD1022382F83530002353653B
:107AC00013689168D2F85CE01A6800F1380422F477
:107AD00080221A6094225A6041F6BC42C2F200022F
:107AE0004029114604BF2146144699603F2101FAFE
:107AF0000EF1DC60CCF80810196841F2FF7241F019
:107B0000160119601968C4F2000241F008011960F9
:107B10001968904241F001011960C16841F4806127
:107B2000C160016A21F010010162016A41F0100197
:107B300001620FDC40F2FF71C4F2000188421BDCDD
:107B4000B0F1804F3CD040F200411DE0002082F8AF
:107B500034003EE040F2FF31C4F20101884216DCFD
:107B600041F60001C4F20001884229D00021C4F28C
:107B70000101884218D028E040F60001C4F200015B
:107B800088421DD040F60041C4F2000109E040F2F5
:107B90000041C4F20101884206D044F20001C4F25F
:107BA000010188420CD010E0416C40F2004340F4E7
:107BB0008062C4F2010341F400419A42416404D15D
:107BC000816801F00701062903D0016841F0010135
:107BD0000160BDE81040704741F6F010C2F20000AD
:107BE00090F84210202918BF7047F0B581B040F6D8
:107BF00095220024C2F20002012122230463826242
:107C00008185446480F84230C36B4BF261354BF29E
:107C1000BD46C0F60005C0F60006C3E90F5693F84E
:107C2000346007684BF2E515C0F60005012EC3E984
:107C3000135400F0B08083F83410D3F858E093F870
:107C40003510012940F0A48002214FF0000C83F888
:107C50003510C3F854C019689C68DB6D0D683E1D73
:107C600025F480250D600125402C34464D6004BF6D
:107C7000144632468C60CA603F229A40CEF80820F3
:107C80000A6842F016020A600A6842F008020A60B6
:107C90000A6842F001020A60CDF800C0396800911C
:107CA000796800910099016931B300BF016851E81A
:107CB000031F026841F4807142E80313E3B10168D5
:107CC00051E8031F026841F4807142E803139BB13D
:107CD000016851E8031F026841F4807142E8031310
:107CE00053B1016851E8031F026841F4807142E812
:107CF0000313002BDAD100BF016851E8051F0268A9
:107D000041F0010142E80513BBB3016851E8051FCA
:107D1000026841F0010142E8051373B3016851E8BC
:107D2000051F026841F0010142E805132BB3016809
:107D300051E8051F026841F0010142E80513002BDC
:107D4000DAD11AE0016851E8051F026841F04001EC
:107D500042E8051323B3016851E8051F026841F0AA
:107D6000400142E80513DBB1016851E8051F0268D4
:107D700041F0400142E8051393B1016851E8051F45
:107D8000026841F0400142E80513002BDAD107E018
:107D9000002183F8341010214164202180F8421022
:107DA00001B0BDE8F040704741F20001C4F20101AA
:107DB000884218BF704710B540F69454C2F20004D0
:107DC00040F695212078C2F200010A7801281DD1E1
:107DD00040F28853C2F2000393F8840082422DD10E
:107DE00040F66830C2F20000017849B9B3F80110DA
:107DF00040F201224180D91C0280416005F09AF9CD
:107E000000202070BDE81040FFF7E6BE40F20D6094
:107E1000C2F20000007882420CD10120207040F2B2
:107E20007820C2F200000021017040F66430C2F2F6
:107E300000000180BDE81040FFF7CEBE40F2782C74
:107E4000C2F2000C9CF80010012902D019B95A7036
:107E50001BE09A7019E093F802E00EF102008842EC
:107E600009D9C81840F66433C2F200031C88427076
:107E7000A018188009E002D183F8832005E00EF1F4
:107E8000030088423CBF00202070481C8CF8000092
:107E9000BDE81040FFF7A0BE41F6F011C2F20001AC
:107EA00091F84120202A40F08980002808BF7047BF
:107EB000F0B540F6B82CC2F2000C00222123C1F824
:107EC00020C08884C8844A6481F841308B6B4BF2AF
:107ED000C9444BF27555C0F60004C0F60005C3E96D
:107EE0000F4593F834500E684BF2E514C0F60004C9
:107EF000012DC3E913425AD0012283F83420D3F86C
:107F000058E093F83520012A4ED1022283F835201B
:107F100000225A651A689C68DB6D1568371D25F4C8
:107F20008025156050606046402C04BF3846674687
:107F300090603F209840D760CEF80800106840F06D
:107F400016001060106840F008001060106840F0E3
:107F5000010010606FF04000306000BF086850E81A
:107F6000050F0A6840F0800042E8050323B3086863
:107F700050E8050F0A6840F0800042E80503DBB1D5
:107F8000086850E8050F0A6840F0800042E80503E1
:107F900093B1086850E8050F0A6840F0800042E895
:107FA0000503002BDAD107E0002083F8340010200D
:107FB0004864202081F84100BDE8F040704700008F
:107FC000FEE70000FEE70000FEE700002DE9F04FAD
:107FD00085B041F2CC3EC2F2000EDEF800A0DAF825
:107FE0001400C00740F01687DAF81400DAF8181009
:107FF000014200F00F87DAF80808C0F30D20CEF830
:10800000D404DAF81400DAF818100840800705D50F
:10801000DAF8140000F00200CAF81400DAF81400CC
:10802000DAF818100AF500620840C00650460492BB
:108030007DD5DAF8180020F01000CAF81800DAF838
:10804000202002F00F0000EBC0000EEB8001C2F315
:108050004340062801F5157134D00228504662D1FC
:1080600047F6F07012EA000750465CD0C8683A093B
:10807000042AC7F3011340D3BE09771E032F06F06D
:10808000030713D326F003064FF480555AF8054032
:10809000043E04605AF8054044605AF80540846084
:1080A0005AF80540C46000F11000EFD12FB34FF42F
:1080B00080565AF806400546012F45F8044B0FD16B
:1080C00028461AE04FF480505AF80030C2F30A12E2
:1080D000CEF89C345AF80000CEF8A00450461FE0B9
:1080E0005AF80660022F466001D1083005E04FF4CF
:1080F00080575AF8077087600C3063B14FF480578F
:108100005AF80770012B077005D03E0A022B467003
:108110001CBF3B0C8370C8688318DEF80000CB607E
:108120004B691A444A61816941F0100181614169DA
:1081300082691140090340F15B81D0F81818D0F82A
:108140001C2811400D0C00F053814FF430664FF0A5
:1081500000084FF000091BE00AEB060002218160D5
:108160005FEA8B6042BF0AEB0600202181605FEA74
:108170008B4042BF0AEB06004FF40051816009F1C9
:1081800001096D0806F1200608F1240800F02E818F
:10819000E807F4D0DEF8000031188A68D0F8143807
:1081A00003EA020B5FEACB727AD00AEB06020123E4
:1081B0009360036C8A689EF80640012C27D114074F
:1081C00034D4940600F1CD8043F20A07C4F6547704
:1081D0007C1CA34202D312F4004231D10EEB080200
:1081E000D2F874320969B8F1000F6FF3DF41A3EBE5
:1081F0000101C2F868124BD1D2F86432002B00F0B2
:10820000EF80D2F860020844C2F8600240E043F216
:108210000A07C4F6547707F58074A34213D11004FB
:108220000ED4900644BF2020886031E043F20A005B
:10823000C4F654700130834232D312F400402FD080
:108240004FF400408EE0DEF8641251EA08011FD1BD
:10825000016C43F20A02C4F65472914203D9D0F879
:10826000001B002914D40021C0F8101BD0F8101BEB
:1082700041F40021C0F8101BD0F8101B41F0180188
:10828000C0F8101BD0F8101B41F0C041C0F8101B03
:108290005FFA89F0FEF798F941F2CC3EC2F2000E87
:1082A0005FEA0B7062D50AEB060008218160DEF8F8
:1082B000000043F20A02046C3044C4F6547257467C
:1082C000816802F1010A544511D311F400410ED026
:1082D0004FF400418160FEF7E7F941F2CC3EC2F273
:1082E000000E9EF80600BA4601280DD03EE0FEF7CB
:1082F000DBF941F2CC3E5445C2F2000EBA4635D30A
:108300009EF80600012831D1DEF8000043F20A028F
:10831000016CC4F65472914203D9D0F8001B0029B5
:1083200024D40021C0F8101BD0F8101B41F4002108
:10833000C0F8101BD0F8101B41F01801C0F8101B3A
:10834000D0F8101B41F0C041C0F8101B0EF29C4148
:10835000C0F8141BD0F8001B41F08021C0F8001BAE
:1083600004E0202088605FEA0B709CD45FEACB6059
:1083700042BF0AEB0600102181605FEA8B707FF537
:10838000EFAEDAF81400000604D50499486840F40A
:10839000806048600EEB080191F8570201287FF4D5
:1083A000DBAEDEF8E0040023D0F8D42281F85732A7
:1083B00000EB8202D2F8B822002A3FF4CDAE90F84A
:1083C0009C1203297FF4C8AE526A002A3FF4C4AE5F
:1083D0005FFA89F1904741F2CC3EC2F2000EBBE653
:1083E0000EF29C42012104F079FC51E7DEF8000016
:1083F000416982691140490340F1D081D0F81818D1
:10840000D0F81C2811401FFA81FBBBF1000F00F0CF
:10841000C581CDF804A00AF510604FF0000A029063
:1084200006E000BF5FEA5B0B0AF1010A00F0B281CF
:108430005FEACB70F6D0DEF800000AF00F06D0F845
:108440001018D0F8342800EB4A13F240D201D2B20F
:10845000D3F80839114301EA0309029C5FEAC971A4
:108460004FEA4A18039600F0D380049B0127596B0A
:1084700007FA06F29143596304EB08018F609EF8F6
:10848000061001290AD10AEBCA010EEB8101D1E9DC
:108490000723BAF1000F1A440A621BD0DEF8E06429
:1084A0005FEA0A6045D096F89C02032840F0B0804D
:1084B000D6F8B8024269002A00F0AA800020C6F867
:1084C000D4025FFA8AF13046904741F2CC3EC2F2C4
:1084D000000E9DE01431096949BB016C43F20A02A8
:1084E000C4F65472914203D9D0F8001B00291ED45F
:1084F0000021C0F8101BD0F8101B41F40021C0F877
:10850000101BD0F8101B41F01801C0F8101BD0F858
:10851000101B41F0C041C0F8101B0EF29C41C0F886
:10852000141BD0F8001B41F08021C0F8001BDEF8BE
:10853000E064D6F89402022863D1B069318C884295
:1085400018D9421A706AB2614318D6F8C8024FF4BB
:108550008077014642628279736221F8147F002796
:108560000362012A876204BF03630122006804F0EA
:10857000E3FB2CE016D17169814213D3D6F898023F
:1085800081420FD2D6F8C8020021002204F066F81A
:10859000D6F8C802002100220023C6F8981204F081
:1085A000E9FA2AE096F89C02032808D1D6F8B80226
:1085B000C16821B10020C6F8D40230468847D6F8F9
:1085C000C802802104F012FB0520C6F89402D6F8F8
:1085D000C8320027C3F86072C3F864729A79C3F88E
:1085E0006872A3F85472186803F51571012A04BF64
:1085F000C3F87072012204F09FFB41F2CC3EC2F23C
:10860000000E96F8A00200281CBF002086F8A002E9
:108610005FEA097042BF04EB0800082181605FEA4D
:10862000C96042BF04EB0800102181605FEA496025
:1086300042BF04EB0800402181605FEA89702BD5BE
:108640000198514604F002FD41F2CC3EC2F2000E08
:108650000AEBCA000EEB800111F8170F012817D1A1
:10866000DEF8E0040023D0F8D4220B7000EB820285
:10867000D2F8B82262B190F89C12032908D1126A8C
:1086800032B15FFA8AF1904741F2CC3EC2F2000E5D
:1086900004EB0800022181605FEA09607FF5C2AE49
:1086A0000AEBCA000EEB8000D0E909739F42FFF489
:1086B000B9AE00F11401DEF800C08A68F81A9042E1
:1086C00038BF024608EB0C00D0F818690332B6B286
:1086D000B6EB920F52D3724692F8068000F5106EF8
:1086E0000CF580564FEA0A300DE000BF4B6909EBEC
:1086F00004022344CA604B61DEF81820033492B2AE
:10870000B2EB940F35D30F699F4233D9D1E90249B7
:10871000FB1AA34238BF1C46B8F1000FE6D1A3B242
:10872000002BE3D0DF1C4FF0FF3202EB9703032B4B
:108730004B460FD3BB0823F003054B461A68043D94
:1087400082515A6882519A688251DA6803F11003A3
:108750008251F3D1C7F38105002DC7D01A68012DCE
:108760003250C3D05A68022D32501CBF9A68325022
:10877000BCE70F6941F2CC3EC2F2000E9F423FF6C9
:1087800051AEDCF83408039A012191408843CCF8BB
:10879000340847E6DEF80000DDF804A0416982698C
:1087A0001140B1F1FF3F1ADC049A516821F0010138
:1087B00051609EF8CC14012903D100218EF8CC140D
:1087C00009E0DEF8E01491F89C22042A04BF91F835
:1087D0009D2281F89C22416901F00041416141697B
:1087E00082691140090525D504998968C9071DD0FA
:1087F000DEF8E01491F89C22042A1CBF91F89C2218
:1088000081F89D22042281F89C22D0F8001E41F0BC
:108810000101C0F8001E9EF80B1039B14EF6105140
:10882000CEF200010A6842F006020A60416901F4D2
:1088300000614161416982691140C90440F11781B9
:10884000049A516821F001015160102104F0FEFBEF
:1088500041F2CC3EC2F2000E9EF80400010600F088
:10886000B480C1B2042900F0030001D2002166E007
:108870006FF0600202EA411200234FF67F370021B9
:108880000AEB0306C6F80879D6F80059803325F4B8
:108890000015C6F80059C6F8087BD6F8005B9A4266
:1088A00025F40015C6F8005BD6F8005B01F1040161
:1088B00045F00065C6F8005BC6F82879D6F820595F
:1088C00025F40015C6F82059C6F8287BD6F8205B99
:1088D00025F40015C6F8205BD6F8205B45F000654E
:1088E000C6F8205BC6F84879D6F8405925F400153B
:1088F000C6F84059C6F8487BD6F8405B25F4001509
:10890000C6F8405BD6F8405B45F00065C6F8405BB2
:10891000C6F86879D6F8605925F40015C6F860598C
:10892000C6F8687BD6F8605B25F40015C6F8605B76
:10893000D6F8605B45F00065C6F8605BA0D1002802
:1089400043D00AF5106202EB41134FF67F364F0118
:108950009E60D5590AF5306325F4001503EB4111EB
:10896000D5518E60D959012821F40011D951D95916
:1089700041F00061D95128D007F120015518AE60AF
:108980005558022825F40015555003EB0105AE603B
:108990005E5826F400165E505E5846F000665E5043
:1089A00013D007F1400011184FF67F378F60115830
:1089B00021F40011115019188F60195821F4001179
:1089C0001950195841F000611950049F8421F86929
:1089D000442240F00110F8619EF80F0000284FF08B
:1089E0000B0008BF142108BF42F22B007B5808BFC0
:1089F000102218437850B85843F20A0340F00B0095
:108A0000B8503868C4F6547320F4FE603860DEF85D
:108A100000009EF80610026C9A4203D9D0F8002B91
:108A2000002A20D40022C0F8102BD0F8102B0129E6
:108A300042F40022C0F8102BD0F8102B42F018029C
:108A4000C0F8102BD0F8102B42F0C042C0F8102B09
:108A500009D10EF29C41C0F8141BD0F8001B41F064
:108A60008021C0F8001B416901F4805141614169D6
:108A700082691140890440F1EE80D0F8001940F27B
:108A8000FF729143C0F80019D0F8041841F48071C6
:108A9000C0F80418D0F8081801F0060289074FF052
:108AA000020158BF0F21002A08BF114602298EF883
:108AB000071012D140F22001C2F20001096845F20C
:108AC0004032CFF6277243F200530A44C0F20C033F
:108AD0009A4215D24FF4705180E0C268002922F406
:108AE0007052C260C26842F41052C26000F07E80D0
:108AF00041F6B53072B6C2F200000221017074E096
:108B000041F64062CFF61B7244F240230A44C0F2A1
:108B10000F039A4202D24FF460515FE0A1F5740254
:108B200044F68073A2F51052C0F212039A4202D2A8
:108B30004FF4505152E0A1F183724DF22063A2F53F
:108B4000E742C0F213039A4202D24FF4405145E08B
:108B50004BF26062CFF6E5624EF260330A44C0F237
:108B600016039A4202D24FF4305137E04DF20032F0
:108B7000CFF6CE6247F240730A44C0F21B039A421A
:108B800002D24FF4205129E045F6C032CFF6B3624D
:108B900049F2C0130A44C0F221039A4202D24FF4B0
:108BA00010511BE0A1F1B77247F22053A2F55852C1
:108BB000C0F238039A4202D24FF400510EE045F25F
:108BC000E042CFF6596249F6E0430A44C0F241035D
:108BD0004FF4C0519A4238BF4FF4E051C26822F4BA
:108BE0007052C260C2681143C1600121DEF8E054D6
:108BF00001242974002185F89C42C5F89412D5F807
:108C0000B8026960C5F8A41285F8A01218B14268CC
:108C10000AB128469047D5F8C80200210022402317
:108C2000402603F039FFD5F8C802802100224023F6
:108C300085F86341A5F8606103F02EFF41F2CC3E58
:108C4000C2F2000EDEF8000085F823402E84416950
:108C500001F400514161416982691140090716D54B
:108C6000DEF8E01491F89C22032A0CD1D1F8B82246
:108C70004AB1D2693AB10846904741F2CC3EC2F2BD
:108C8000000EDEF80000416901F008014161416910
:108C90008269114009062DD5DAF8181021F08001FB
:108CA000CAF818109EF80410022923D30EF27B2470
:108CB000012502E001358D421AD214F8240B012857
:108CC000F8D105F00F0000EBC0000EEB8002280683
:108CD000DEF8000002F1140158BF02F5157104F02E
:108CE00039F941F2CC3EC2F2000E9EF80410E1E7E1
:108CF000DEF80000416982691140C90230D59EF852
:108D00000410022928D30EF13B040AF5126501264E
:108D1000012705E0013724348F4205F1200519D2DF
:108D200028686278012AF5D1B0F1FF3FF2DC07F044
:108D30000F0000EBC0000EEB8001DEF800001431E4
:108D4000267004F007F941F2CC3EC2F2000E9EF804
:108D50000410DFE7DEF80000416901F48011416191
:108D6000416982691140890232D59EF80420022AA5
:108D70002AD3DEF8D414013A0EF51F730AF53267D0
:108D8000012605E0013A03F1240307F120071BD077
:108D90003D681C78012CF5D1B5F1FF3FF2DC81EA8A
:108DA0001545ED07EED103F8016CDAF8185045F0DF
:108DB0008005CAF81850DAF814502D06E2D4049A47
:108DC000516841F400715160416901F40011416141
:108DD000416982691140490003D5416901F0804130
:108DE0004161416982691140490713D544686107AF
:108DF0000DD5DEF8E024012182F89C12D2F8B812D9
:108E000029B14B6811791046754698472868416822
:108E10002143416005B0BDE8F08F000070470000BD
:108E200041F60810C2F200000168D1F804C08B6856
:108E300003F04102012A04D11CF0400201D0016C70
:108E400008479A0704D51CF0800201D0416C0847FE
:108E500081B013F4B07F18BF1CF0200201D101B023
:108E600070475A0617D590F85120032A08D10020E0
:108E70000090C868009088680090009801B0704722
:108E8000426D42F00402426500220092CA680092DC
:108E90008A680092009A9A060CD5426D42F001024F
:108EA0004265002200928A6800920A6822F040021D
:108EB0000A60009ADA0508D5426D42F00802426560
:108EC000002200928A680092009A426D002AC6D061
:108ED0004A685FEA8C7322F0E0024A604FF00102B8
:108EE00080F85120BBD04A6822F003024A60C26C6D
:108EF00048F65971C0F600019AB1116592F8353003
:108F0000022B08D1052382F835301268136823F04C
:108F10000103136005E080235365426D42F0400277
:108F20004265826C002A9AD0116592F835100229A8
:108F300009D1052082F835001068016821F001018F
:108F4000016001B0704780215165416D41F04001E1
:108F5000416501B070470000806B0021C187C18668
:108F600070470000806B01684A6822F003024A6083
:108F7000416D41F010014165012180F851107047A9
:108F8000704700007047000010B582B00168846B24
:108F900041F6AC40C2F20000D0F800C00868C0053D
:108FA0003CD42068A168426822F02002426041B9A6
:108FB0006268B2F5827F04D1416821F0030141600B
:108FC00017E0426822F0010242606268B2F5827FD7
:108FD0000CD1B1F5004F02D0B1F5806F09D1026814
:108FE000B1F5806F22F04002026002D120460121DB
:108FF00001E02046802100226423CDF800C000F06B
:10900000B5F828B1606D40F02000606520206065F3
:109010000020E087012084F85100606D02B010BD8F
:10902000B0B582B00168846B41F6AC40C2F200007A
:1090300005680868C00523D42068012241686423BC
:1090400021F02001416020460221009500F08EF8B9
:10905000002840D0606D40F020006065606D40F0F9
:10906000200060652068416821F003014160002014
:10907000E086E087012084F85100606D002873D1FC
:1090800041F60810C2F2000084426DD11825C4F2E6
:1090900002054FF4004040F600442860C2F200048C
:1090A000207802285ED001285ED1022020704FF087
:1090B0000040286040F2322041F62431C2F2000024
:1090C000C2F20001FEF798F900284DD04FF400409D
:1090D0002860002047E040F22000C2F20000006853
:1090E00049F68171C1F25E61A0FB0101480D4FF4A8
:1090F0007A71484301906068B0F5827F0AD12046BA
:10910000802100226423009500F030F80028A1D1CE
:10911000A8E700BF01980028A4D001980138019069
:109120002068816809069DD5019900299AD0019986
:10913000013901918168090694D50199002991D0DE
:10914000019901390191816809067FF58BAF019979
:1091500000293FF487AF0199013901918068000629
:10916000D8D47FE70320207002B0B0BDB0B581B085
:1091700041F6AC4CC2F2000CDDF814E0DCF8004023
:1091800040F22005C2F20005AEEB0404DCF800E07A
:109190002D681C44C5F3CB3363430093036802E09E
:1091A000009D013D00959D680D406D1AB5FA85F54D
:1091B0006D0995420AD0DCF80050A5EB0E05A542DA
:1091C00007D2009D002DEBD10024ECE7002001B078
:1091D000B0BD596821F0E00159604168B1F5827F66
:1091E0000AD18168B1F5004F02D0B1F5806F03D18B
:1091F000196821F040011960816AB1F5005F07D15B
:10920000196821F400511960196841F4005119607E
:10921000012180F85110002180F85010032001B086
:10922000B0BD00007047000041F6AC40C2F2000043
:1092300001680131016070474EF68850CEF200009F
:10924000016841F4700101607047000000000000F7
:109250002DE9F04F81B02DED0C8B86B041F6A816AC
:10926000C2F200063068C7680469A10712D517F07A
:1092700002010FD06FF00201016101213177806995
:10928000800705D141F6A810C2F20000FEF78EFB60
:1092900000203077600714D517F0040011D0306833
:1092A0006FF00401016102213177806910F4407F81
:1092B00005D141F6A810C2F20000FEF777FB0020AE
:1092C0003077200713D517F0080010D030686FF002
:1092D0000801016104213177C069800705D141F699
:1092E000A810C2F20000FEF761FB00203077E00614
:1092F00014D517F0100011D030686FF01001016123
:1093000008213177C06910F4407F05D141F6A810DB
:10931000C2F20000FEF74AFB00203077E00718BFDA
:1093200017F0010020D1200606D517F0800003D0E9
:1093300030686FF080010161600606D517F04000CB
:1093400003D030686FF040010161A00606D517F028
:10935000200003D030686FF02001016106B0BDEC41
:109360000C8B01B0BDE8F08F40F200403168C4F2D0
:1093700001006FF0010281420A61D4D10068C00689
:10938000D1D44EF2140A41F6AC40CEF2000AC2F239
:1093900000000068DAF80010DAF8042001318A1AB7
:1093A0000392039A4FF47A735A43B2FBF1F141F6F8
:1093B000402B00FB031040F6AC21C2F20001C2F2C8
:1093C000000B08609BF800109BF803200131CBB222
:1093D00000209342ABF806008BF808008BF80010D1
:1093E00022D39BF801109BF804200131CBB28BF8FB
:1093F0000000012093428BF806008BF8011013D374
:109400008BF807009BF802009BF805200130002133
:10941000C3B28BF8011093428BF8020022BF8BF885
:10942000021001208BF8080040F62E50C2F2000016
:10943000C0789FEDE91A00EE100A40F62850C2F2FB
:109440000000B8EE400A40F2C022018820EE010A76
:10945000C2F2000282ED000A00EE101A40F634510A
:10946000C2F200019FEDDD1AB8EE400A91ED002A2C
:10947000418820EE010A30EE422A00EE101A40F632
:109480003851C2F20001B8EE400A91ED003A8088EE
:1094900020EE010A30EE433A00EE100A40F63C504E
:1094A000C2F20000B8EE400A90ED004A9FEDCCAA4F
:1094B00020EE010AB5EE402A30EE444AF1EE10FAF1
:1094C000B0EE4A0AB5EE403A41F6A830C8BFB0EE59
:1094D000420AF1EE10FAB0EE4A1AB5EE404AB0EE8A
:1094E0004A2AC2F20000C8BFB0EE431AF1EE10FAE9
:1094F000C8BFB0EE442A407940F63C49C2F20009A8
:10950000062889ED000A89ED011A89ED022A21D881
:109510000121814011F00C0F16D111F0300F0CD148
:10952000012101FA00F010F0420F1EBF31EE020AD5
:10953000B1EE411AB1EE422A0CE030EE012AB1EE52
:10954000400AB1EE411A05E030EE021AB1EE400ACF
:10955000B1EE422A40F63840C2F200009FEDA13A37
:10956000007831EE421A21EE031A012889ED030A30
:1095700089ED041A40F0E08140F60041C2F200019A
:10958000087840F6044240F614450028C2F2000272
:10959000C2F2000500F0D780032840F0788141F640
:1095A000AC40C2F20000056840F61840C2F200006C
:1095B000D0F800A041F62230C2F20000B0F800E07E
:1095C00041F62430C2F20000B0F800805FFA8EF05D
:1095D000C8F3850141EA8011029100EE101A40F6AD
:1095E00008419FED811AC2F20001B8EE400A91EDE8
:1095F000002A20EE010A019030EE421A40F61C408B
:109600009FED7A3AB0EEC12AC2F200000368B4EED0
:10961000432AF1EE10FA82ED000A09DD4FF0FF3126
:10962000B5EE401AF1EE10FAB8BF01210B44036009
:1096300001EE103A9FED6E2AB8EEC11A21EE021A21
:1096400040F60C4140F6104C31EE001AC2F2000117
:109650005545C2F2000C81ED001A15D0A5EB0A01A8
:109660009CED002A03EE101A9FED624AB8EE433AD1
:1096700031EE422A23EE043A82EE032A40F61441E8
:10968000C2F2000181ED002A40F6184140F608437D
:10969000C2F2000140F20C22C2F200030D605FEA48
:1096A0008871C2F2000283ED000A8CED001A70D4BA
:1096B00055785FFA88F3002D04BF03255570019893
:1096C0004FEA8E110EEBD3121FFA81FA02EB500211
:1096D00002EB5A2202EB9A2202EBDA2202EB1A3256
:1096E0004FEA980C02EBD302624402EB131202EB36
:1096F000531202EB931202EB1121029A41F6B14C84
:1097000081EA52310122C2F2000C22EA08009CF9DF
:109710000030484003F10A01C00718BFC3FA52F1F4
:10972000C8B264288CF800107AD94EF2140A40F6B8
:10973000144540F600410220CEF2000AC2F20005B4
:10974000C2F200017BE018230120C4F2020308707A
:109750004FF00040186040F23020DA468B4641F668
:109760002231C2F20000C2F200019046FDF744FE31
:109770005946D3464EF2140ACEF2000A4246002859
:1097800000F0858018234FF40040C4F202031860F3
:109790007BE040F600410020C2F20001087040F674
:1097A0000C41C2F20001507040F60442086040F6DD
:1097B000144540F61C41C2F20002C2F20005C2F29A
:1097C00000014EF2140A10601860CCF80000286006
:1097D0000860CEF2000A5AE03A07543E4108043DC0
:1097E000000000003ACD133FDB0FC939DB0F4940C1
:1097F000DB0FC9406F12833A00007A4400007AC43C
:1098000000004842000048C2D07B63080000494085
:109810000000C842DB0FC9C0A4707D3F0AD7233CBB
:10982000022D4EF2140A40F6144540F60041CEF2E5
:10983000000AC2F20005C2F2000105D1032040F285
:109840000C22C2F20002507040F218080120C4F24B
:10985000020808704FF00040C8F8000040F23020C5
:1098600041F62231C2F20000C2F20001FDF7C4FD50
:1098700040F6004140F60442C2F20001C2F200028A
:1098800028B14FF40040C8F800000020087040F2F2
:10989000C021C2F2000191F8210092ED000A01EE10
:1098A000100AB8EE411A91ED012A91F920001FED3E
:1098B000308A89ED060A20EE010A30EE420A01EEF6
:1098C000100AF0EE480AB8EEC19A09F0A5FDB5EE0F
:1098D000400A30EE081AF1EE10FAB8BFB0EE410AB5
:1098E00020EE098A99ED03BA99ED04CAB0EE480A50
:1098F00089ED058A04F032F9B0EE409AB0EE480ADC
:1099000004F0E0F840F60C402CEE091A2BEE002A89
:10991000C2F2000032EE011A2CEE000A2BEE092AE8
:109920000068296830EE420A89ED090A89ED0A1AB1
:10993000C9F85000C9F8481040F63940C2F200009A
:109940000078012840F07A8241F6343AC2F2000AE7
:109950009AF8500099ED031A99ED044A002800F096
:109960009B819AED036A9AED090A9AED042A26EE84
:10997000003AB7EE009A33EE022A89EE023A9AEDE7
:10998000162A1FED647A99ED0F5A32EE072AB4EECB
:10999000492AD9ED100AF1EE10FAC8BFB0EE492AF3
:1099A0001FED71BAB5EE402AF1EE10FAC8BFB0EE65
:1099B00042BA9AED0B2A2BEE037A9AED0C3A71EE2D
:1099C000421AF0EE002AF4EE621AB8EE008A8AED2E
:1099D00016BA34EE434AF1EE10FAC8BFF0EE621A3E
:1099E000F4EE481AF1EE10FAB0EE481AB4EE624AFC
:1099F000C8BFB0EE611AF1EE10FAC8BFB0EE624A0D
:109A0000B4EE484AF1EE10FAC8BFB0EE448A26EE32
:109A1000024A35EE444A26EE035A9AED0D6A40F6A4
:109A20002840C2F2000030EEC55A27EE066AD0ED9B
:109A3000000ADAED0E1A40F62C4126EE006AC2F258
:109A4000000124EE074A27EE055A30EEC66A27EEDB
:109A5000217AD1ED000A27EE007A5FED991A30EEF7
:109A6000C77A5FED9A0AB4EE616AF1EE10FAC8BFE8
:109A7000B0EE616AB4EE606AF1EE10FAF0EE602AC0
:109A8000B4EE617AC8BFF0EE462AC0ED002AF1EECE
:109A900010FAC8BFB0EE617AB4EE607AF1EE10FA57
:109AA000C8BFF0EE470A32EE844A30EE855A20EE07
:109AB000044A20EE050A1FEDAECA32EE042A33EE48
:109AC000000A1FEDB03AB4EE4C2AC1ED000AF1EEE7
:109AD00010FAC8BFB0EE4C2AB4EE432AF1EE10FAE9
