:020000040800F2
:10000000C8250020750200085B200008511E00086A
:100010005920000897050008D73B000800000000A1
:10002000000000000000000000000000C1220008E5
:10003000010700080000000085210008C322000815
:100040008F0200088F0200088F0200088F0200084C
:100050008F0200088F0200088F0200088F0200083C
:100060008F0200088F0200088F0200088F0200082C
:100070008F0200088F0200088F0200088F0200081C
:100080008F0200088F0200088F0200088F0200080C
:100090008F0200088F0200088F0200088F020008FC
:1000A0008F0200088F0200088F0200088F020008EC
:1000B0008F0200088F0200088F0200088F020008DC
:1000C0008F0200088F0200088F0200088F020008CC
:1000D0008F0200088F0200088F0200088F020008BC
:1000E0008F0200088F0200088F0200088F020008AC
:1000F0008F0200088F0200088F0200088F0200089C
:100100008F0200088F0200088F0200088F0200088B
:100110008F0200088F0200088F0200088F0200087B
:100120008F0200088F0200088F0200088F0200086B
:100130008F02000800000000000000008F0200088D
:100140008F0200088F0200088F0200085D2000085F
:100150008F0200088F0200088F0200088F0200083B
:100160008F0200088F0200088F0200088F0200082B
:100170008F0200088F02000800000000000000004D
:100180008F0200088F02000800F002F800F062F809
:1001900014A696E8000CB244B344DA4501D100F04D
:1001A00059F8BAE80F000FA696E83000A5EB040551
:1001B00004EB0607AAEB0704A7F101074FEA1515A0
:1001C0004FEA3414A4F10104AC4201D300F042F828
:1001D00013F0010F18BFFB1A43F0010300F001F800
:1001E000DBE71847AC3B0000CC3B00000A4410F8AA
:1001F000014B14F00F0508BF10F8015B240908BF7C
:1002000010F8014B6D1E05D010F8013B6D1E01F872
:10021000013BF9D1641E03D0641E01F8015BFBD1E0
:100220009142E4D37047000070470000002300248F
:1002300000250026103A28BF78C1FBD8520728BFF6
:1002400030C148BF0B6070471FB503F073FD1FBD81
:1002500010B510BD00F066F91146FFF7F5FF03F089
:10026000EFFC00F084F903B4FFF7F2FF03BC00F0E9
:100270008BF900000948804709480047FEE7FEE780
:10028000FEE7FEE7FEE7FEE7FEE7FEE7FEE7FEE746
:1002900004480549054A064B704700006D230008D5
:1002A00089010008C81F0020C8250020C82100209F
:1002B000C821002053EA020C00F069802DE9F04BC0
:1002C0004FF00006002B1FBFB3FA83F503FA05F4C5
:1002D00024FA05F65E4012BF1643B2FA82F502FA1E
:1002E00005F4C5F120051EBF22FA05FC44EA0C0402
:1002F000203556EA044C4FEA144418BF641C4FF0F2
:1003000000084FF00009904271EB030C39D300292B
:1003100019BFB1FA81F701FA07F6B0FA80F700FACF
:1003200007F6C7F120071EBF20FA07FC46EA0C06B5
:100330002037B6FBF4FCA7EB0507103F07F01F0BB7
:10034000CBF120062CFA06F60CFA0BFB44BFB346A1
:100350000026202FA4BF5E464FF0000B5BEA060C80
:1003600008BF4FF0010B19EB0B0948EB0608ABFB7C
:10037000027C06FB02CC0BFB03CCC01B71EB0C0117
:10038000C1E70B46024641464846BDE8F08B13B52F
:10039000084318BF4FF0FF300146AFF30080BDE8BF
:1003A0001C40704710B5431C02E010F8011B71B1EE
:1003B0008107FAD14FF0013202C88C1A8C4314EA3B
:1003C000C211F9D0C01A0A0603D0C01E10BDC01A4F
:1003D00010BD0A0401D0801E10BD0902FCD0401ED1
:1003E00010BD032A40F2308010F0030C00F015809D
:1003F00011F8013BBCF1020F624498BF11F801CB28
:1004000000F8013B38BF11F8013BA2F1040298BF8C
:1004100000F801CB38BF00F8013B11F0030300F0F6
:100420004F80083AC0F0088051F8043B083A51F870
:1004300004CBA0E80810F5E7121D5CBF51F8043B9F
:1004400040F8043BAFF30080D20724BF11F8013B12
:1004500011F801CB48BF11F8012B24BF00F8013B74
:1004600000F801CB48BF00F8012B70474FF00002A5
:1004700000B5134694469646203922BFA0E80C509A
:10048000A0E80C50B1F12001BFF4F7AF090728BF75
:10049000A0E80C5048BF0CC05DF804EB890028BFF1
:1004A00040F8042B08BF704748BF20F8022B11F01A
:1004B000804F18BF00F8012B704770477047704796
:1004C00010B5203AC0F00B80B1E81850A0E81850E1
:1004D000B1E81850A0E81850203ABFF4F5AF5FEA31
:1004E000027C24BFB1E81850A0E8185044BF18C9D6
:1004F00018C0BDE810405FEA827C24BF51F8043B7D
:1005000040F8043B08BF7047D20728BF31F8023BD0
:1005100048BF11F8012B28BF20F8023B48BF00F864
:10052000012B7047754600F02BF8AE460500694672
:10053000534620F00700854618B020B5FFF7A8FE07
:10054000BDE820404FF000064FF000074FF00008D4
:100550004FF0000BAC46ACE8C009ACE8C009ACE811
:10056000C009ACE8C00921F007018D46704710B5FD
:100570000446AFF300802046BDE81040FFF773BE8D
:10058000004870474801002001491820ABBEFEE733
:10059000260002007047FEE70020704700207047E9
:1005A00010B5364C05490022204602F072F8044985
:1005B000204602F061F8002010BD00BF000E0020B0
:1005C0000006002070B5044608681E4E0D46214600
:1005D000B070C2B21C48FFF704FF2868052827D373
:1005E00021783A2924D1211811F8011C0D291FD195
:1005F000023803220021D3B2984203D9E35C0132CE
:100600001944F8E7205C01F00101884210D16078BC
:10061000A1783070B180B08840B1B088B0F5807FEB
:1006200004D8B2880948E11CFFF7DBFE0120707096
:10063000124D2146284602F01FF8284601F0FAFF25
:10064000002070BDA8010020C41E00200416002058
:10065000002070470A4601460848D0F8BC02D0F88E
:10066000140208B10120704710B5044C204602F076
:1006700010F82046BDE8104002F080B804170020B2
:10068000B0B5B74C182104F10C00FFF7EFFE0B4892
:100690000B4A0021172908D00B5C33B1FF2B04D083
:1006A0000D1821440B73A918F4E7207B20B1207B9F
:1006B000FF3818BF0120B0BD0020B0BD00000E08FB
:1006C0000100F2F710B586B000F04CFA00200221CC
:1006D0000290019001200591694604900B2003903F
:1006E00001A800F0ABF9044600F0F2F99C4818218B
:1006F0000C30FFF7BBFEB4FA84F0400906B010BD21
:10070000704772B6FEE70000F04A0329136823F42D
:10071000407313604FF4407338BF0B0211681943E4
:100720001160116821F078011160116841EAC00080
:1007300040F002001060106840F480301060704794
:100740001348016889050FD5016821F40071016023
:10075000016841F400610160016821F400610160F9
:10076000016841F400710160016849050FD5016815
:1007700021F480610160016841F4805101600168E9
:1007800021F480510160016841F48061016070478B
:10079000003C0240F2490A6822F440720A600A688A
:1007A00042F004020A600A6842EA002040F4803005
:1007B00008607047EA4A136823F4407313601368B3
:1007C0001360136843F0010313600170704700BFAA
:1007D00010B5E3490C6824F440740C600C6844F4D0
:1007E00040740C600C6844F001040C600260BFF3BC
:1007F0006F8F436010BD00BFD94A136823F4407364
:100800001360136843F480731360136843F00103AB
:1008100013600180704700BFD14A136823F440730E
:100820001360136843F400731360136843F001030B
:1008300013600160704700BF2C480168C90606D5E7
:10084000C649CA6942F01002CA61102101600168FC
:10085000890606D5C149CA6942F00802CA61202149
:1008600001600168490606D5BC49CA6942F0040224
:10087000CA61402101600168090606D5B749CA6905
:1008800042F00202CA61802101600168890706D531
:10089000B249CA6942F02002CA6102210160704770
:1008A000F8B50446AD480021104EC16100F040FA91
:1008B0000546671C3068C00309D5002FFAD024B163
:1008C00000F036FA401BA042F4D90320F8BD30688E
:1008D000C0071CBF01203060306810F0F20F04BF69
:1008E0000020F8BDFFF7A8FF0120F8BD0C3C024036
:1008F00089B170B50D46064600F034F8FF2808D0DF
:1009000004467019013800F02DF8FF2818BF002C9C
:1009100003D1002070BD0020704711490A280C70D7
:1009200028BF0A20001B01304870012070BD00BFA5
:10093000B0B586B00A4D0024687870B100F012F9A5
:100940000220019469460590287803906878049005
:1009500001A800F073F801F087FB204606B0B0BD97
:10096000B801002010B50B4A00230C2B0DD01946FE
:1009700052F82330834201F10103F6D80B2906D047
:1009800052F823408442F0D902E0FF2100E00B211D
:10099000C8B210BD603D000870B500242346A242D5
:1009A00004D0CD5CC65C5C1CAE42F7D00020934204
:1009B00028BF012070BD2DE9F04190460E46054646
:1009C00000F0D0F800200024A7B247F00301414511
:1009D00010D278B9F219F05B715C0023927840EA8A
:1009E000024040EA01620220294600F079F804340E
:1009F0000435E9E716FA84F40026B919414508D20E
:100A000038B9A25DA9190020002300F069F8013669
:100A1000F3E701F029FB2046BDE8F081B0B50446BC
:100A200000F086F90546E448611C007818BF0444CC
:100A300000F07EF9401BA042FAD3B0BD2DE9F84387
:100A4000DFF81881054698F81800012801D1022620
:100A500038E00120894688F8180001F021FB06469D
:100A600068BB4FF0FF303E4CC9F8000028680128F1
:100A70000AD1287CFFF78EFE01F012FB06462068A3
:100A800020F00400206018E0A8680746E9680844E0
:100A900087420ED2297C3846FFF736FE01F000FB74
:100AA0000646206820F07A00206026B9A868013741
:100AB000ECE7002601E0C9F80070FFF741FE0020D6
:100AC00088F818003046BDE8F88300BF103C0240AB
:100AD0002348016841F0004101600020704700BFD9
:100AE0002DE9F041DFF87480074698F818000128D6
:100AF00004BF0220BDE8F08101201E4614460D46C9
:100B000088F818004CF25030FFF7CAFE08BB022FDD
:100B10000CD0012F05D077B9E1B22846FFF74AFE85
:100B20000EE0A1B22846FFF767FE09E028462146FD
:100B3000FFF772FE04E0284622463346FFF748FEE0
:100B40004CF25030FFF7ACFE05490A6822F0010272
:100B50000A60002188F81810BDE8F0812401002007
:100B6000103C02400648C168B1F1FF3FC4BF0020FD
:100B700070470449016004490160C068C00F7047B4
:100B8000043C024023016745AB89EFCD2DE9FE4FC0
:100B90005E4A08244FF0010B4FF0000C90425C4A73
:100BA00008BF072402444FEAB223072B38BF4FEA9D
:100BB000B22400F120020194009200250022102AA4
:100BC00008BFBDE8FE8F0C680BFA02FA14EA0A09A6
:100BD00000F09780D1F804E0032303FA0CF40EF040
:100BE0000308E643A8F10104012C12D88468D1F867
:100BF0000CB00BFA0CF734404FF0010B3C4384600F
:100C0000CEF300144768944027EA0A073C43446047
:100C100005E0B8F1030F02D14FF0030823E0C468E8
:100C20008F68344007FA0CF73C43B8F1020FC460F8
:100C300019D105F01C040F23A84603FA04F76FF03E
:100C4000030303EA520E009B1D4653F80E30BB43CC
:100C50000F6907FA04F4234345F80E304546D1F8EE
:100C600004E00EF00308046808FA0CF33440234350
:100C70001EF4403F036044D00023284C254EA84674
:100C80000293236843F48043236023680F2403F412
:100C90008043029305F00C0322F00305029F3544C4
:100CA0009C401F4FBE46EF5927EA0404019F07FAF4
:100CB00003F3234345F80E30B3684D6843EA090453
:100CC000EF0258BF23EA0904134BB460AF029E46FB
:100CD0001B6843EA090458BF23EA0904CEF8004020
:100CE000AF03736843EA090458BF23EA0904746038
:100CF000ED033368454643EA090458BF23EA090473
:100D000034600CF1020C0435013258E7001C02403B
:100D10000000FEBF003C01400C3C01404438024052
:100D200008FCFFFF002A08BF09048161704700002A
:100D300005480068704700BF1F48034900780A68EB
:100D400010440860704700BFC41F002080B50B48E6
:100D5000016841F400710160016841F48061016043
:100D6000016841F480710160032000F07BF80F20DE
:100D700000F006F800F024F8002080BD003C02409E
:100D800070B50D4E04464FF47A713078B1FBF0F037
:100D90000A490968B1FBF0F001F048F801250F2C71
:100DA00008D838B94FF0FF3021460022002500F066
:100DB00033F87460284670BD2C00002050000020DD
:100DC00082B000200B4901904A6842F480424A6098
:100DD0004A6802F480420192019A0090086840F04B
:100DE00080500860086800F080500090009802B0C1
:100DF000704700BF40380240002809D41C2101225E
:100E000001EAD00100F01F0002FA00F0014A885008
:100E1000704700BF00E100E0F0B5184B4FF0FF361F
:100E20001C68C4F30224E51E84F0070438BF0025C3
:100E300006FA05F7BA43042C28BF042406FA04F482
:100E4000A14300F00F04A940043C1143044A234489
:100E500009010244002848BF03F10C021170F0BDE3
:100E600000E400E005494FF6FF030A681A4060F30A
:100E70000A22034810430860704700BF0CED00E0F1
:100E80000000FA0570470068416200207047006862
:100E9000436AB9B170B5846A013900F582700025E2
:100EA00003EB1443CCB2A54205D250F825600135BE
:100EB00003EB1643F7E743EA024240F82120BDE87E
:100EC000704002E043EA0241816200207047D0F89E
:100ED000E00401F01FBE01EBC10200EB8202D0F87A
:100EE000E004126A01F08DBD01EBC10200EB820249
:100EF000D0F8E004D2F8602201F0D5BDD0F8E004CB
:100F000001F00ABE01F00F0249B202EBC202002951
:100F100000EB820303F5157248BF03F11402006869
:100F2000114602F0BFBCB0B5044601F00F000A46FE
:100F300001F0F2F848BF03F114010870D0094870BD
:100F400094F89404012804BF0220B0BD01F0F2F827
:100F500002F040FA01F0FCB8B0B504460A4601F0D0
:100F60000F002179884201D9012515E001F0D4F85C
:100F700048BF03F11401087094F894040025D209C5
:100F80008D704A70012801D1022505E001F0D2F8E8
:100F900002F068FB84F894542846B0BD01F00F01BC
:100FA00001EBC10100EB8100D0F868027047F8B591
:100FB000044601F00F000D466FF3DF2200EBC00185
:100FC0006FB204EB8106002F06F5157148BF06F1DC
:100FD00014018A60EA0908700B71B7F1FF3F4A708B
:100FE000D8BF4883022B04BF0020487194F89404B2
:100FF000012804BF0220F8BD01F09CF802F038F986
:10100000002084F89404F8BDB0B501F00F0100256C
:1010100001EBC10400EB840404F5187784F8541242
:1010200084F8555204F515712CC78379012B08BF3C
:10103000CA611A46006802F057FB0020B0BD70B5C7
:101040000279044601F00F050120954229D805EBED
:10105000C5024EB204EB820301EBC102002E04EB89
:10106000820202F5157248BF03F114029070C8099C
:101070001570507094F89404012804BF022070BDCC
:101080000120114684F89404206802F012FB2DB967
:10109000A179206804F29C4202F0B8FA002084F89A
:1010A000940470BD10B501F00F0404EBC40100EB13
:1010B000810101F8144F002401F10C0CACE81C0074
:1010C00001234B708379012B08BFCA611A4600685F
:1010D00002F00AFB002010BD2DE9F04F87B0056833
:1010E0008246284602F062FC10B107B0BDE8F08FDE
:1010F00001F025F80028F8D0D5F80808C0F30D2035
:10110000CAF8D40401F01BF801F038F8890703D5B8
:10111000416901F00201416105F50061059102F0AC
:1011200071FC01F02BF80695C90634D5816921F0D0
:10113000100181612C6A04F00F0000EBC0000AEB83
:10114000800000F51575C4F34340062811D002282D
:101150001AD147F6F07014EA000615D03409E96890
:101160000698224602F052FCE86800EB1610E86090
:1011700007E006980AF29C41082202F047FCC4F3FB
:101180000A14686920446861DAF80000816941F056
:1011900010018161069D02F035FC00F0EFFF0903AC
:1011A00040F1CA8002F00DFC06460AF29C404FF462
:1011B00030644FF000084FF0000B0490002E00F058
:1011C000B980F00700F0AF805FFA8BF9DAF8000021
:1011D000494602F00FFC0746C00757D028190121E5
:1011E0008160DAF800002118036C8A689AF80650CA
:1011F000012D1FD115072AD495063BD4E04DAB42F3
:10120000069D01D9120428D40AEB0802D2F87432E0
:1012100009696FF3DF41591AB4F5306FC2F86812EB
:1012200030D1D2F864324BB3D2F860020844C2F82D
:10123000600227E0D24D05F58075AB4211D1069DC5
:1012400010040AD4900644BF202088601AE0CC48DD
:10125000069D83421AD9100418D54FF400408860C7
:1012600014E0069DB4F5306F0CD1DAF8641249B978
:10127000002104E020208860069D07E00121049AF7
:1012800002F0C4F950464946FFF72EFE380720D534
:1012900028190821BA4B8160DAF8001060180A6C2E
:1012A00081689A4212D9090444BF4FF40041816019
:1012B000504600F02FFB9AF80600012809D1DAF811
:1012C0000000049A012102F0A1F902E0504600F06A
:1012D00021FBF80642BF281910218160B80717D5F5
:1012E0006869000604D50599486840F48060486044
:1012F0000AEB080090F85712012906D1002180F866
:1013000057125046494600F038FA281902218160E8
:10131000B80642BF281920218160B80442BF2819AD
:101320004FF40051816008F12408203476080BF155
:10133000010B43E7DAF8000002F064FB00F01EFF47
:10134000490340F1BB8002F035FB06460AF29C409F
:1013500005F510690AF1140800250290CDE90398FB
:10136000002E00F0A880F00700F0A280EFB2DAF8BB
:101370000000394602F02CFB0446C00725D0059A30
:1013800005F00F00012303FA00F0516B21EA000081
:10139000506309EB451083609AF80600012810D1CC
:1013A00005EBC50008EB8000D0E902121144C160D2
:1013B0003DB9006928B9DAF80000029A012102F06B
:1013C00025F950463946FFF786FD200742BF09EB55
:1013D000451008218160E00642BF09EB451010214D
:1013E0008160600642BF09EB451040218160A00783
:1013F00015D50698294602F0ADFA05EBC50008EBB5
:10140000800010F8031F012905D10021017050460A
:10141000394600F0AEF909EB451002218160200643
:1014200046D505EBC50008EB800BDBE904029042D2
:101430003ED3DAF80040DBF80880811A414538BF16
:10144000884604EB451101F5106918E0DBE90281DB
:101450009AF80630801A3A460093404538BF8046D5
:101460001FFA88F3204602F0A5FBDBE90310DBF846
:10147000142041444244CBF80C10CBF81420D9F886
:10148000183008F103019BB2B3EB910F28BF9042D3
:10149000DCD8DDE9039890420AD805F00F0001215D
:1014A00001FA00F0D4F8341821EA0000C4F8340836
:1014B0007608013554E7DAF80000069D02F0A2FA3A
:1014C000002802D4DAF8000018E00599486820F0F6
:1014D000010048609AF8CC04012807D100200021BF
:1014E0008AF8CC045046FFF7CDFC02E0504600F0ED
:1014F000FCF900F0E8FD01F00041416102F082FAE0
:10150000000502D4DAF800000BE005988068C007F7
:1015100002D0504600F01CFA00F0D5FD01F4006145
:10152000416102F06FFAC00402D4DAF8000054E01E
:10153000D5F80408102120F00100C5F80408DAF8F5
:10154000000002F007FA9AF8041005F510604FF653
:101550007F32B9B182600139036823F4001303605C
:10156000C0F80822D0F8003223F40013C0F800328B
:10157000D0F8003243F00063C0F800322030E8E7D2
:101580000A30544F059C0B218422E06940F0011081
:10159000E0619AF80F00002808BF42F22B0108BF53
:1015A0001422A3581943A15044210AF29C42002856
:1015B00008BF1021605840F00B006050206820F4F4
:1015C000FE602060DAF800009AF8061002F01EF8BB
:1015D00000F079FD01F48051416102F013FA00F04E
:1015E000CDFD890419D501F081FEDAF8000002F082
:1015F000D1F9DAF800408AF8070000F04DFA9AF8BD
:1016000007200146204602F05DFA504600F05AF9E4
:1016100000F059FD01F40051416102F0F3F90007B7
:1016200002D4DAF8000007E0504600F062F900F05A
:101630004AFD01F00801416102F0E4F9000606D418
:1016400000F07DFDC00219D4DAF8000038E00699F8
:10165000012440F27B25886920F0800088619AF897
:1016600004008442ECD21AF80500012803D1E1B24B
:101670005046FFF747FC24350134F0E706980AF19D
:101680003B040126012700F512659AF80400874201
:1016900011D228686178012909D1B0F1FF3F06DC39
:1016A00047F080002670C1B25046FFF72BFC24346F
:1016B00020350137E9E700F006FD01F480114161B2
:1016C000069C02F09FF9800202D4DAF800002EE0B6
:1016D0009AF8042004F532610AF51F7001230124F1
:1016E00094421FD20D680678012E12D1B5F1FF3F4A
:1016F0000FDCDAF8D46486EA1545ED0709D1069EB9
:10170000B56945F08005B56100F8013C75692D06A5
:1017100003D5243020310134E2E70599486840F4CC
:101720000070486000F0CFFC01F40011416102F04C
:1017300069F9400002D4DAF8000007E05046FFF7EC
:10174000C6FB00F0C0FC01F08041416102F05AF993
:1017500040077FF5CAACDAF800004468610704D599
:101760005046FFF7CBFBDAF80000416821434160A7
:10177000BBE4D0F8E00401F028BAD0F8E00401F0AE
:1017800039BA7CB500284FD00446056890F8950416
:1017900028B9002084F89404204600F051F8032072
:1017A00084F89504B5F1A04F04BF0020A071206813
:1017B00001F026FF94E80F00257C009501F0A4FDC0
:1017C00078BB20680021002502F03BF948BB207956
:1017D00001210022002398420AD0A6182432F38562
:1017E00033757175C6E90755756235760133F2E7D1
:1017F00004F519710022002398420BD001F8103C27
:1018000041E902220A6001F80C2C01F80F2C243166
:101810000133F1E794E80F00257C009501F02AFEE2
:1018200028B1022084F89504012528467CBD0025B6
:101830000120657484F89504206801F00FFEF4E738
:10184000B0B586B0044601A81421FEF70FFE20684B
:10185000B0F1A04F2FD10025184C0095206840F022
:1018600001002060206800F0010000900A2005902F
:101870000320CDE90350022002904FF4C0500190A4
:10188000009801A90E48FFF781F960680021002245
:1018900040F0800060600095606940F480406061C5
:1018A000606900F48040009000984320FFF7B4FA8C
:1018B0004320FFF7A1FA06B0B0BD00BF30380240A8
:1018C0000000024010B5C179044621B1022901D0BF
:1018D000FEF717FF0121D4F8E00401F0FDF9D4F878
:1018E000E004BDE8104001F0AFB9D0F8E00401F029
:1018F000DAB9D0F8E00401F0E0B910B500F0C1FBAE
:1019000004BF022010BD617400F014FC02F0CAF89C
:1019100000F0F0BBD0F8E02400F29C41104601F04A
:10192000E7B910B500F0ADFB04BF022010BD00F018
:101930001EFC06D5617B012903D1816B41F4803106
:10194000816301F0E4FF206801F07CFD00F0D2BB70
:1019500010B50446D0F8E00401F00CFA2068D0F885
:10196000001E41F00101C0F8001EE07A20B10348DA
:10197000016841F00601016010BD00BF10ED00E0FC
:10198000002852D02DE9F041404B04468846D3F858
:10199000000400F00700884204D283F8008400F0BD
:1019A00079FB4BD12068810711D5410703D5996890
:1019B00041F4E0519960010703D5996841F4604111
:1019C0009960A1689A6822F0F00211439960C007FB
:1019D0002DD100F05FFB04D983F8008400F05AFB9E
:1019E0002CD12068410705D5E1689A6822F4E052BD
:1019F00011439960000706D52069996821F4604178
:101A000041EAC00098601C4600F04CF8A168204AEA
:101A1000C1F30311515CC840214908601D480068AA
:101A2000FFF7AEF90020BDE8F08101207047606843
:101A3000811E022905D21968890107D40120BDE859
:101A4000F08101281DD119688903F7D599681D46D1
:101A500021F0030108439860FFF76AF9064641F256
:101A600088376068A9682B4601F00C01B1EB800F44
:101A7000AFD0FFF75DF9801BB842F2D90320BDE873
:101A8000F08119688907D9D5E0E700BF0038024026
:101A90004E3D00083000002001480068704700BF3C
:101AA0005000002010B5134C606800F00C000828AE
:101AB00004D0042814BF1048104810BD22682068C4
:101AC0000023400202F03F020C485CBF42F200409B
:101AD000C0F2F4002168C1F38811A0FB0101FEF7F8
:101AE000E9FB21680222C1F3014102EB4101B0FB95
:101AF000F1F010BD043802400024F40040787D016C
:101B0000002864D02DE9FC4104460078C44EC0078B
:101B10000CD0B06800F00C00042840F090803068D1
:101B2000800303D56068002800F0A180207880073A
:101B300019D5B06810F00C0F07D000F0DFFA40F0B4
:101B400099807068400200F195803068800703D565
:101B5000E068012840F08B802069316821F0F801AD
:101B600041EAC00030602078000732D42078400776
:101B700042D4A76947B300F0C1FA40F0AD80012F0D
:101B800075D0E169706800F480028A426FD1216AE1
:101B900000F03F028A426AD147F6C071626A014092
:101BA000B1EB821F63D1A16A4FF6FF72C903914363
:101BB00000F44032A1F580318A4258D1E16A00F048
:101BC0007060B0EB016F52D10020BDE8FC810120B4
:101BD0007047606900286ED092480121C0F8801ECD
:101BE000FFF7A6F80546706F8007BFD4FFF7A0F88F
:101BF000401B0228F7D9C9E0306C5FEAC0080AD45C
:101C000000200190306C40F080503064306C00F067
:101C1000805001900198844F3868C0053DD43868E1
:101C200040F480703860FFF783F805463868C005D7
:101C300033D4FFF77DF8401B0228F7D9A6E000F067
:101C40005DFA03D1706840023FF569AF30686168A2
:101C5000B1F5803F07D0B1F5A02F40F0828040F46D
:101C600080203060306840F48030306082E00120B5
:101C7000BDE8FC81E1686B4800294BD0012101607F
:101C8000FFF756F80546306880073FF565AFFFF768
:101C90004FF8401B0228F6D978E0306FA16801297F
:101CA00005D0052946D140F004003067306F40F080
:101CB0000100306747E05B480021C0F8801EFFF755
:101CC00037F80546706F80077FF550AFFFF730F8A3
:101CD000401B0228F6D959E0524900208846086680
:101CE000FFF726F80546022F09D13068800150D54C
:101CF000FFF71EF8411B03200229F6D965E730687B
:101D000080017FF561AFFFF713F8411B0320022923
:101D1000F5D95AE700210160FFF70AF80546306857
:101D200080077FF520AFFFF703F8411B032002294E
:101D3000F5D94AE720F0010000293067306F20F024
:101D40000400306745D0FEF7F3FF054641F28837BF
:101D5000306F80074CD4FEF7EBFF401BB842F7D939
:101D600014E020F4803000293060306820F48020B6
:101D7000306046D0FEF7DCFF0546306880033FF553
:101D8000D5AEFEF7D5FF401B6428F6D90320BDE889
:101D9000FC811C341FCC0843D90340EA82104FF663
:101DA000FF72914340EA0460A1F5803108437060FE
:101DB0000120C8F86000FEF7BBFF044630688001D0
:101DC0003FF502AFFEF7B4FF011B03200229F5D94E
:101DD000FBE6FEF7ADFF054641F28837306F80071E
:101DE00006D5FEF7A5FF411B0320B942F6D9ECE664
:101DF000B8F1000F3FF5BDAE306C20F0805030647C
:101E0000B7E6FEF795FF0546306880037FF58EAE96
:101E1000FEF78EFF411B03206429F5D9D5E600BFEC
:101E2000003802400000474200700040411E002080
:101E3000B0EB116F1CBF01207047204AF0235160A6
:101E400002490B70072190601160704723ED00E09C
:101E5000FEE770B501310023372472B1060F01F897
:101E6000023B04EB1075B0F1204F38BF06F130058E
:101E700001F8035C013A0001EFE770BD80B50D4940
:101E80000D4A086849680240B2F1005F0AD10B4A66
:101E900072B6002313605360936080F30888BDE836
:101EA00080400847032000F047F800F021F800F0D8
:101EB00007F9FAE7004000080000FE2F10E000E0FC
:101EC000B0B5504C04210022002504F50060FEF757
:101ED00029FF204608210022FEF724FF1D4C257013
:101EE000FEF726FF60601C4801210170B0BD00BFF5
:101EF00080B5FEF71DFF0B490A78032A06D80AA30E
:101F000053F822204B68C31A934200D280BD486028
:101F100011480178B1FA81F149090170BDE88040AA
:101F200001F05ABEB0010020F4010000640000007E
:101F3000580200006400000010B5064C2070FEF747
:101F4000F7FE6060044801210170BDE8104001F017
:101F500043BE00BFB0010020220100202DE9F04760
:101F600086B00DF1040814214046FEF77FFA0027E1
:101F70002348244D00224FF0040A0097016805F51C
:101F8000006641F080010160016801F0800100F00D
:101F900070F841F001010160016801F0010100F0F9
:101FA00068F841F008010160016801F0080100F0E3
:101FB00060F841F0020101600421006800F00200B5
:101FC000009000983046FEF7ADFE2846082100221A
:101FD0004FF00809FEF7A6FE012430464146CDE940
:101FE0000377CDE901A4FEF7D1FD28464146CDE9AE
:101FF0000377CDE90194FEF7C9FD06B0BDE8F0878F
:10200000303802400004024080B50F480F490022DA
:1020100000F0D2FC08B1FEF774FB0B480C4900F04D
:10202000CAFE08B1FEF76DFB07480A4900F019FB2C
:1020300008B1FEF766FB044800F0E2FE18B1BDE807
:102040008040FEF75EBB80BD0417002034000020F6
:1020500054000020F0000020FEE7FEE70148FFF7F3
:102060003BB800BFE0190020B0FA80F04409FEF749
:102070002FBD00910099009701687047214600F03C
:1020800073BC044690F8940401287047C0F8041803
:1020900000207047D3F8000400F007004045704767
:1020A0004CF25030FEF7FCBB0020C4F8D4022046AE
:1020B0001047204600F09CBB0646384601212047C9
:1020C0000120FEF7ABBCDAF80000416970470099C7
:1020D000013100910099B1F1706F70470020C4F890
:1020E000D40220460847204600F0B5BB8046822136
:1020F00038462047002084F8940410BDB06800F0F2
:102100000C000828704794F89C0201380228704798
:10211000054638468121204700EBC00155B204EB4B
:102120008103002D03F51571704704EB8000D0F892
:10213000C4027047012084F8940420687047DAF8DC
:10214000000001F05FBCC9F83800D9F838007047CA
:10215000002084F89404B0BD0A5842F000620A508E
:102160000A5842F080420A5042F210727047012130
:10217000206884F89414C168490670470146DAF86B
:10218000000070477047000070B504463138FE26E5
:102190000E2800F27780DFE800F0085E12616D75AE
:1021A00075757575757575752900042A6AD3086883
:1021B0003E4948603F484968FEF79AFB5CE00B687F
:1021C0003A483C4D83608368AB425BD383683A4DA9
:1021D000AB4257D8131F364A138083689B0751D1EF
:1021E000806812880431FEF7E6FB45E02F4800F1D5
:1021F0000C042046FEF7D6F8304EC5B22A4606F14A
:102200000901307208462146FEF7EBF8B41D0020A4
:102210002A46214622B111F8013B013A1844F9E758
:1022200071190D2200F001008A724872FEF780FDDC
:102230000546307A411D2046FEF70CFA012807D1E9
:10224000FEF776FD401B632802D8FFF739FFF0E761
:10225000F026F0B270BDFEF76BFB0DE051F8040BF9
:10226000124B9860101F124A108098681288FEF76F
:1022700093FB01E0FEF726FA6FF00106002818BF75
:102280006FF00F060D4DEE706C70FEF751FD0446B9
:1022900028460621FEF7DEF90128DAD1FEF748FDCF
:1022A000001B6328D5D8FFF70BFFF1E7B80100202A
:1022B000AC01002000400008FEFF0F0800000020D5
:1022C0007047FEF739BD000070B592B006AC302102
:1022D0002046FEF7CBF801A81421FEF7C7F8002529
:1022E000204802260095016841F080510160006895
:1022F00000F080500090009800951B48016841F460
:1023000080410160006800F4804000900720109632
:1023100011904FF4A8700F9019200E904FF4800088
:10232000CDE90C604FF480300790012006900098B2
:102330002046FFF7E5FB08B172B6FEE74FF4805088
:10234000CDE90265052105904FF4A05004900F20BF
:10235000019001A8FFF714FB08B172B6FEE712B0B6
:1023600070BD00BF40380240007000400248016864
:1023700041F470010160704788ED00E0F8B50A464D
:10238000D0F8D41200EB8103D3F8C01211B302F0DD
:102390000F0606EB860400EB840555F8144F5CB17C
:1023A000D0F8C87206EBC60607EB8606F669B4FBE2
:1023B000F6F707FB16447CB10024C1F81442D3F8A9
:1023C000C40203697BB1D1F8080201F50471984792
:1023D000002408E0032406E0002411460022002324
:1023E0002C6000F0D4FC2046F8BDB0B50446D0F80F
:1023F000D40204EB8000D0F8C05285B1204600F032
:102400009BFBC5F80C02D4F8D40205F50371FFF765
:102410008CFEC268D5F8040290470020B0BD0320AE
:10242000B0BD000070B5154E81210446B0470025AF
:102430002046012184F83750B0472046822184F895
:102440007751B047D4F8D40204F5307684F84B5075
:10245000656456F8201079B1FFF767FE4068804741
:10246000D4F8D40256F8200000F0FCFED4F8D402D0
:1024700046F82050C4F8BC52002070BDF129000875
:1024800010B5D0F8D41200EB8100D0F8C04284B16E
:10249000D0F8C41259B194F80002FF2807D08B6815
:1024A00094F8012221469847FF2084F8000200207A
:1024B00010BD032010BD00000A21018000487047B4
:1024C000D00000202DE9F041264F274CFFF70EFEEB
:1024D000FFF7F2FDFFF71CFE0EB11021B1710DB137
:1024E0004021A98008B1402181804320A8F8000044
:1024F0001C48BDE8F08100BF2DE9F041194F1A4C8E
:10250000FFF7F4FDFFF7D8FDFFF702FE0EB1102133
:10251000B17115B14FF40071A98010B14FF4007181
:1025200081804320A8F800000E48BDE8F08100BF7C
:102530002DE9F0410B4F0C4CFFF7D8FDFFF7BCFD28
:10254000FFF7E6FD0EB11021B1710DB14021A98058
:1025500008B1402181804320A8F800000148BDE86F
:10256000F08100BF8C0000202D2900082DE9F843E0
:1025700004464FF4077000F077FE002844D04FF473
:1025800007710546FDF772FFD4F8D4024027DFF843
:10259000A08004EB8000C0F8C052207CC4F8BC527C
:1025A000002808BF4FF4007720463B4681210222D5
:1025B0000226C0474FF001092046012102223B4676
:1025C00084F83790C047102082210322082384F822
:1025D000779160642046C047D4F8D402002784F87D
:1025E0004B90C5F80472FFF7A0FD00688047C5F85E
:1025F0001472C5F81872D5F80422AAB1207C60B113
:102600002046012140230CE0D4F8D4020021022608
:1026100004EB8000C0F8C01206E0204601214FF410
:10262000007300F008FB00263046BDE8F88300BFC9
:102630001F2C0008D0F8D41200EB8101D1F8C01291
:1026400069B180B5027C4023002A08BF4FF40073B3
:10265000D1F80422012100F0EEFA002080BD032011
:10266000704739B1D0F8D42200EB8200C0F8C41210
:102670000020704703207047D0F8D42200EB82007E
:10268000D0F8C00218B1C0F804120020704703202F
:102690007047D0F8D43200EB8300D0F8C00228B1E4
:1026A000C0F81022C0F808120020704703207047BD
:1026B0007CB50446D0F8D4020D4600218DF80710F1
:1026C000ADF8041004EB8000D0F8C062002E52D0A8
:1026D000297811F0600214D0202A48D1EA8802B388
:1026E00049B2B1F1FF3F25DD402A28BF402268787A
:1026F000314686F8012286F80002204600F083F871
:102700002FE068780B282ED001282AD00A281ED066
:1027100068BB94F89C02032829D101A92046022213
:102720001DE0D0F8C402294600220024836868789E
:10273000984721E0D0F8C40231468368687898470A
:10274000EA8820463146072A28BF072207E094F886
:102750009C0203280BD10DF107012046012200F055
:102760006CF8002408E094F89C020328F9D0204675
:10277000294600F03DF8032420467CBDD0F8D41251
:1027800000EB8101D1F8C03293B1D3F814220121BA
:102790007AB980B5C3F814128121D3F80822D3F88E
:1027A0001032836200F0F3FA0021BDE8804000E0BF
:1027B00003210846704780B5D0F8B8225268904788
:1027C000002818BF032080BD0020704700207047FC
:1027D00080B513460A46002100F02DFA002080BD86
:1027E00080B513460A46002100F0D1FA002080BDD2
:1027F00010B58021044600F0ABFA20460021BDE868
:10280000104000F0A5BA80B513460A46C0F864111E
:102810000321C0F894120021C0E9553300F00BFAEF
:10282000002080BD80B5052100220023C0F894124D
:10283000002100F000FA002080BD80B513460A4652
:1028400041620221C0F894120021C0E9053300F072
:102850009EFA002080BD80B5042100220023C0F82C
:102860009412002100F093FA002080BD10B5214C95
:102870000A4602A0FFF702FC204610BD4344432055
:10288000436F6E6669670000122008800048704739
:10289000DC00002010B5174C0A4602A0FFF7EEFB43
:1028A000204610BD43444320496E746572666163DF
:1028B00065000000042008800048704704010020E3
:1028C00010B50C4C0A4602A0FFF7D8FB204610BDFD
:1028D0007778640010B5074C0A4602A0FFF7CEFBDC
:1028E000204610BD584472426F6F744C6F6164652E
:1028F00072000000E0010020B0B51A2008800949EC
:1029000008688A6880180BD0074D4C680822A91CFB
:10291000FFF79FFA05F1120120460422FFF799FA0A
:102920000148B0BD107AFF1F0801002002784388DB
:1029300093429CBF0020704710B594B29C4209D2CC
:102940000478204422444478052CF6D184788C42C3
:10295000F3D110BD002010BD0021027812B101306A
:102960000131FAE7C8B27047C8B170B516460C46D7
:102970000546FFF7F1FF0221032201EB4000308002
:102980002070002062702A783AB1CBB20135E2544F
:1029900054FA81F202315070F5E7BDE8704070479B
:1029A000044AC100032822FA01F188BF0321C8B2FA
:1029B000704700BF0003010378B10023C0F8D03294
:1029C000C0F8C432C0F8B83209B1C0F8B41201215D
:1029D000027080F89C1200F0B3B80320704780B5F5
:1029E000D0F8C802FEF7B8FABDE88040FFF7D8BFBC
:1029F00080B5D0F8C802FEF796FABDE88040FFF730
:102A0000CFBFB0B5044669B194F89C02032848D101
:102A1000D4F8B8024269002A43D0FFF745FB0028EA
:102A20003FD0B0BDD4F89402022834D1218CA069E3
:102A300088420ED9421A606AA2610144204661624E
:102A4000FFF7CEFE204600210022002300F0F3F81D
:102A500021E00FD1616981420CD3D4F89802814200
:102A600008D22046002100220025FFF7B9FEC4F855
:102A70009852E7E794F89C02032805D1D4F8B802ED
:102A8000C16809B1FFF72AFB2046802100F060F9F8
:102A90002046FFF7C7FE94F8A00210B1002084F88A
:102AA000A0020020B0BD10B5044659B194F89C02B4
:102AB00003282DD1D4F8B80282694AB3FFF7F4FA9B
:102AC00030B310BDD4F89402032821D1B4F86021AA
:102AD000D4F8580190420ED9D4F86411801AC4F881
:102AE000580190421144C4F8641188BF0246204640
:102AF000FFF76EFE0CE094F89C02032805D1D4F891
:102B0000B802016909B1FFF7E9FA2046FFF7A3FE11
:102B1000002010BD00207047012180F89C12D0F8E1
:102B2000B8223AB180B5017952689047002818BFA1
:102B3000032080BD00207047D0F8C802FEF72EBAEF
:102B4000017849BB10B51549C0F8C812C1F8E004B6
:102B5000042008714FF0A04008600020C8810220C6
:102B6000C1F809004FF40070C8800846FEF709FE5E
:102B700008B1FDF7C6FD094C80212046FEF783F918
:102B8000204600214022FEF782F9204601218022C2
:102B9000FEF77DF9BDE8104000207047E0190020E5
:102BA000D0F8C80201EBC10201F07F0349B203EB88
:102BB000C303002900EB820200EB830002F25622DD
:102BC00048BF00F1160210787047D0F8D42200EB0D
:102BD0008202D2F8B8225AB190F89C32032B05D168
:102BE000126A1AB180B59047002080BD002070475E
:102BF00003207047D0F8D42200EB8202D2F8B8222A
:102C00005AB190F89C32032B05D1526A1AB180B5A3
:102C10009047002080BD002070470320704710B50A
:102C20001446D0F8C8021A462346FEF7C0F9BDE89C
:102C30001040FFF7B5BE80B5D0F8C802FEF7E4F942
:102C4000BDE88040FFF7ACBEF8B50126002504467C
:102C500080F89C62C0F8A452456080F8A052C0F889
:102C60009452D0F8B80240B1426832B120460021F7
:102C700090470546002818BF032520460021002262
:102C800040234027FFF7CBFF20468021002240232E
:102C900084F86361A4F86071FFF7C1FF284684F8E7
:102CA00023602784F8BD90F89C12042904BF90F893
:102CB0009D1280F89C120020704790F89C12032906
:102CC00008D1D0F8B81229B1C96919B180B58847BF
:102CD000BDE880400020704701740020704780B537
:102CE000D0F8C802FEF709FEBDE88040FFF758BEE5
:102CF000B0B500F2AA250446284600F051F801209C
:102D0000C4F89402B4F8B002C4F8980294F8AA0285
:102D100000F01F0102290ED0012906D089B92046F2
:102D20002946BDE8B04000F06DB820462946BDE810
:102D3000B04000F067BA20462946BDE8B04000F038
:102D4000C3B900F080012046BDE8B040AFF3008079
:102D500080B5D0F8C802FEF772F9BDE88040FFF7F1
:102D60001FBE80B5D0F8C802FEF7DBFDBDE880408D
:102D7000FFF716BE90F89C1204291CBF90F89C1215
:102D800080F89D12042180F89C120020704780B5C5
:102D9000D0F8C802FEF786F9BDE88040FFF700BE14
:102DA0000A7802704A7842704A8842808A88828013
:102DB000C988C18070471CB504460020ADF80600E4
:102DC000A9B1D4F8D402C4F8B81204F52E7151F8A0
:102DD0002000C16A21B10DF106008847C4F8D00275
:102DE000D4F8D8020130C4F8D80200201CBD03205A
:102DF0001CBDD0F8B8220AB11268104700207047F5
:102E0000FFF7AFBFBCB5044608780D4610F0600070
:102E100011D0402802D0202840F04781D4F8D402B5
:102E2000294604EB8000D0F8B8028268204602B040
:102E3000BDE8B04010476878092800F23681DFE825
:102E400010F00A00310034014900340153007100D0
:102E500034011E003F00FFF756F900F22681E88892
:102E6000022840F02281D4F8A4020322214600283F
:102E700008BF012241F80C2F2046022212E1E88807
:102E8000012840F0128194F89C02411E022980F032
:102E90007980002521462046012241F8085FFFF78E
:102EA000CCFC05E1FFF72FF900F2FF8068880025D0
:102EB000012840F0FD80C4F8A452FFF714F9F7E0B0
:102EC0006888804D10F0FE0F287041D0FFF7F1F8B0
:102ED0000325EDE06888022850D0012840F0E58005
:102EE0000120C4F8A402E5E0A888002840F0DD80B5
:102EF000E888002840F0D9806D887F2D00F2D580C9
:102F000094F89C02032800F0D080E9B2204684F8AF
:102F10009E52FFF7E4FEFFF7E6F8002D00F0CD80AB
:102F20000220CBE000204FF0FF31ADF806006888AA
:102F300001EB1021062900F2B880DFE801F0043728
:102F40002AB6B63D4700D4F8B412207C0A689AE04D
:102F500094F89C12032945D0022960D1010600F0A3
:102F6000A98000F001016160C1B22046FFF741FF76
:102F700000286FD00546FFF79CF84CE0687984F88C
:102F8000A00297E0032840F09080211D20460122F6
:102F900088E0C0B2052800F28880DFE800F0036B0B
:102FA00063675F6FD4F8B40242686AE0217CD4F8AA
:102FB000B802D9B3C16A3AE0207C002875D1D4F8B0
:102FC000B802416B0DF1060088475FE0207C0028C5
:102FD0006BD1D4F8B802016B0DF1060088470146A9
:102FE000072029E0010629D0616800F00100814234
:102FF00060D0C9B22046FFF7DEFB29782046616029
:10300000FFF7F7FE002855D00546FFF752F8217963
:103010002046FFF7D0FB022084F89C0248E0FFF72F
:1030200048F829782046FFF7C6FB51E7816A0DF181
:103030000600884701460220487028E0022100F07F
:103040000100002584F89C12606020460021FFF7F3
:10305000B2FB32E7FFF747F803202FE0D4F8B402C1
:1030600042690EE0D4F8B402C2680AE0D4F8B402AF
:10307000026906E0D4F8B402826802E0D4F8B4022F
:10308000826992B1207C0DF1060190470146EA88E1
:1030900082B1BDF8060040B1904238BF0246ADF89B
:1030A00006202046FFF7C9FB01E0FFF702F80025E4
:1030B0002846BCBDFFF717F8F9E7012084F89C0209
:1030C000F5E700BFDC01002070B5044608780D79F3
:1030D0000E4610F0600016D0402801D0202874D190
:1030E00020462946FFF770FB002870D10020C4F865
:1030F000D402D4F8B8028268002A68D0204631464B
:10310000BDE8704010477078F0B101280BD003285B
:103110005BD194F89C02032809D17088002858D00C
:10312000FEF7E1FF53E094F89C0203281FD0022829
:103130004BD1680649D020462946FFF709FE2046B4
:103140008021FFF705FE42E094F89C02032819D085
:1031500002283AD1680638D128064FF0140058BF2B
:103160004FF4AA702118002001F80E0F45E0708876
:1031700068BB680603D020462946FFF730FCFEF7FF
:10318000B2FFADE705F00F00802D00EB800004EBEF
:1031900080002CBF90F8230090F86301A8B105F0DF
:1031A0007F0105EB8500802D01EB810104EB8000A0
:1031B00004EB810101F1140638BF00F5AA7645F051
:1031C000800080280FD1002014E0FEF772FF00205D
:1031D00070BD6806A4D0F0880028A1D120462946F9
:1031E000FFF7B6FD9CE720462946FFF7D9FC0028EB
:1031F000E9D0012006F10E01B07320460222FFF74C
:103200001CFBE4E7B0B5044608780D4610F06000FA
:1032100018BF40280DD1FEF776FF0CD8A88810F013
:10322000FE0F08D1C1B22046FFF7D0FA38B1032013
:1032300010E02028EFD0FEF73CFF0020B0BDD4F80E
:10324000B8028268002AF2D000202946C4F8D402CD
:1032500020469047E9880029F0D10028EED1FEF7FA
:1032600042FFEAE77047000000487047E003002093
:1032700070B5D0F81C480A784E78530102F00F055B
:10328000012E16D1012606FA05F52C43C0F81C487C
:103290001844D0F800391B0423D400F510600368EB
:1032A00043EA82520B7989686FF3DF2141EA834157
:1032B00013E04FF48032AA402243C0F81C2818447F
:1032C000D0F8002B12040CD40A79896800F530601C
:1032D0006FF3DF2141EA824102681143024A114340
:1032E0000160002070BD00BF00800010D0F8001900
:1032F00040F2FF729143C0F80019D0F8041841F46D
:103300008071FEF7C3BE000070B5044602F47F4032
:103310000D46B0F5807F17D1A16B1B4A049821F4AC
:103320008031C0B2A163E1681140E1600128E16829
:1033300021F44011E16003D1E06840F48010E060C6
:10334000204600F023F810E0E0681E4640F0400000
:10335000E060204600F01AF8A16B16F47F4F14BF0E
:1033600021F4803141F48031A16305F47F01B1F58E
:10337000803F07D1A16841F00601A160A16841F03A
:103380002001A16070BD00BFBFFFBDFF81B0002163
:1033900000917246FEF79BFE964618D80169B1F17E
:1033A000FF3FF6DC0A210091009911B10099013923
:1033B000F9E7016941F0010101617246FEF787FEFC
:1033C000964604D80169C907F7D1002000E0032020
:1033D00001B07047B0B50A784C7819495301012CF7
:1033E00006D1C418D4F8005904F51063012408E08C
:1033F000C41801F17071D4F8005B04F530634FF428
:103400008034B5F1FF3F07DC1D6845F000651D60A5
:103410001D6845F080451D6002F00F0204FA02F2BB
:10342000D0F83C489443C0F83C48D0F81C4824EA03
:103430000202C0F81C281868084018600020B0BDBF
:10344000007833ECD0F8001E21F00301C0F8001E14
:10345000D0F8041821F00201FEF718BED0F8001EC3
:1034600021F00301C0F8001ED0F8041841F0020159
:10347000FEF70CBE2DE9FE4F8B468146180C41210C
:103480000023502903D049F821300131F9E75FFAD0
:1034900080FABAF1000F08D0D9F8380020F40010F3
:1034A000FEF751FE40F4002011E0D9F8040840F086
:1034B0000200C9F80408D9F8380040F40010FEF7FB
:1034C00042FE20F40020FEF73EFE20F48020C9F8E2
:1034D0003800002002F47F41B1F5807FC9F8000E6A
:1034E00002920DD1D9F8001809F50068B0EB1B6FF6
:1034F0000EBFC8F8001041F00100C8F8000007E056
:10350000D9F8000809F5006840F00300C9F8000880
:103510004846102100F01EFA0190484600F0FDF9DF
:103520005FFA8BF1002209F510634FF67F35002614
:103530004901C8F81020C8F81420C8F81C20B1426E
:103540000ED09F594FF09044002E08BF4FF00064FA
:1035500004EAE7749C519C1920362261A560EEE7CD
:1035600009F5306200234FF67F350026B1420ED0B8
:1035700094594FF09047002E08BF4FF0006707EABC
:10358000E4749451941920362361A560EEE7D8F8CD
:10359000101021F48071C8F810100021C9F818101B
:1035A0006FF080411BF47F0FC9F8141005D1D9F8D2
:1035B000181041F01001C9F81810D9F818100E4A67
:1035C0001143C9F81810029911F47F0F05D0D9F8EA
:1035D000181041F00801C9F81810BAF1010F05D10F
:1035E000D9F81810054A1143C9F818100199084371
:1035F00018BF0120BDE8FE8F00383C800400004069
:10360000816821F0010181600020704710B5036CD2
:10361000134CA34203D3D0F8003B002B1ED400234D
:10362000C0F8103B0129D0F8103B43F40023C0F848
:10363000103BD0F8103B43F01803C0F8103BD0F813
:10364000103B43F0C043C0F8103B07D1C0F8142B27
:10365000D0F8001B41F08021C0F8001B002010BDF5
:103660000B30544F0A784B7852011044012B0DD186
:10367000D0F8002922F40012C0F80029097901F0DD
:10368000FE01022913D100F510600CE0D0F8002BE8
:1036900022F40012C0F8002B097901F0FE01022982
:1036A00005D100F53060016841F0805101600020D3
:1036B00070470A784B7851010144012B19BF01F57D
:1036C0003060D1F8001B01F51060D1F80019002915
:1036D00004D41AB1016821F080410160016841F40D
:1036E0000011016000207047F8B54B780C78694FE5
:1036F000694D012B29D100EB441CDCF81069D1F88D
:1037000010E00CF51063BEF1000F41D035401D6193
:103710001D693D401D61002C8F6864D00EEB0705CC
:103720005F4E013DB5FBF7F51F6906EAC5463E430E
:103730001E610E79012E61D11E6926F0C0461E6100
:103740004FF0C04606EA457555E000EB4413D3F848
:10375000106B3540C3F8105BD3F8105B3D40C3F8E5
:10376000105B4E4D03F530638E680F69DCB1EFB12D
:10377000BC19013CB4FBF6F4A7B27E43484F0E627D
:1037800007EAC4441F693C431C6106EA050414E0CF
:103790003E404FF0000E1E611E6946F400261E6179
:1037A0001E6935402FE007B10E610E6206EA05047E
:1037B0001D692C431C614FF400241D692C43012A10
:1037C0001C6102D1CA6802B15A61097901292FD15D
:1037D000D0F80808C0054FF0805058BF4FF0005097
:1037E0001968084323E0BE4591BF4FF400250F61DF
:1037F0004FF40025BE461E6935431D6175461E699E
:103800006FF3DF453543012A1D6117D1CA690AB13B
:10381000CCF81429097901290AD1D0F80818DCF864
:103820000009C9054CBF40F0805040F000501860BE
:10383000186840F0044018600020F8BD630100F5EE
:103840001065EE5846F00446EE500E79012E12D166
:10385000D0F808685F59F6054FF0805658BF4FF012
:1038600000563E435E511FFA8EF3C968009222460D
:1038700000F0A0F9E0E7BEF1000FDDD004F00F0189
:10388000012202FA01F1D0F834281143C0F83418AB
:10389000D2E700BFFFFF07E00000F8FFFFFF0700CF
:1038A0000000F81F81B0002200920A784B78510185
:1038B000012B14D100F510604258B2F1FF3F21DC1A
:1038C0007346FEF749FC9E46009B01330093009B24
:1038D00093421AD84358B3F1FF3FF5DD12E000F5EB
:1038E00030604258B2F1FF3F0CDC7346FEF734FC07
:1038F0009E46009B01330093009B934205D843589A
:10390000002BF6D4002001B070470120FBE781684E
:1039100041F0010181600020704781B000210091D9
:103920007246FEF7D4FB964611D80169B1F1FF3F0C
:10393000F6DC00210091102101617246FEF7C7FB01
:10394000964604D80169C906F7D4002000E0032098
:1039500001B0704781B000220092009A01320092BB
:10396000009AB2F1706F12D80269B2F1FF3FF4DC35
:10397000890100222031009201617246FEF7A7FB07
:10398000964604D801698906F7D4002000E0032098
:1039900001B07047D0F8080802A100F00600085CEA
:1039A000704700BF000F020F0F0F0200406900F0C8
:1039B00001007047D0F81818D0F81C08084080B2F1
:1039C0007047D0F81818D0F81C080840000C704751
:1039D00010B5D0F81028D0F8344801F00F0300EBF0
:1039E0004110D0F8080924FA03F3DB01DBB21A43D3
:1039F000104010BD00EB4111D1F8081BD0F814089D
:103A0000084070474169806908407047B0B5930825
:103A10004FF4805423B10559013B41F8045BF9E7A9
:103A200012F003020BD04FF48053C058002320FA49
:103A300003F40833013A01F8014B1404F7D10846A6
:103A4000B0BDB0B50446C06820F0C040E060A1B190
:103A500001291CBF0120B0BDE068002540F00050E6
:103A6000E0600A20FCF7DAFF616905F10A00C90786
:103A700013D1BE2D0546F4D30FE0E068002540F0D9
:103A80008040E0600A20FCF7C9FF616905F10A0087
:103A9000C90702D0BE2D0546F4D3C838B0FA80F06D
:103AA0004009B0BDD0F8002801F07F0122F4FE6289
:103AB000C0F80028D0F8002842EA0111C0F8001828
:103AC00000207047022A34D1284A294B0A449A42DE
:103AD00002D24FF470512EE0264A274B0A449A42F4
:103AE00002D24FF4605126E0244A254B0A449A4200
:103AF00002D24FF450511EE0224A234B0A449A420C
:103B000002D24FF4405116E0204A214B0A449A4217
:103B100002D24FF430510EE01E4A1F4B0A449A4223
:103B200002D24FF4205106E01C4A1D4B0A449A422F
:103B30000AD24FF41051C26822F47052C260C268B7
:103B40001143C16000207047164A174B0A449A423D
:103B500002D24FF40051EEE7144A154B0A444FF4D9
:103B6000C0519A4238BF4FF4E051E4E7405327FF79
:103B700000350C00401E1BFF40420F0000DC0BFF15
:103B8000804F1200808CF9FE20D6130060B6E5FE4F
:103B900060E3160000D3CEFE40771B00C05BB3FE8F
:103BA000C091210000CA91FE20753800E05459FEF2
:103BB000E09C410010B5029C0CB1002010BD033305
:103BC000120300F580509B08002BF6D051F8044BEF
:103BD000013B1450F8E7FEE7B0B51648164C0078E4
:103BE000411E022910D3032800D008BB134D2046E4
:103BF0002A78002A18BF01220421FDF793F82878BB
:103C0000B0FA80F042090CE00C4D20462A78002AD8
:103C100018BF01220421FDF785F82A78002A18BF71
:103C20000122A4F500600821BDE8B040FDF77AB894
:103C3000B0BD00BFB0010020000C024022010020F6
:103C4000C0B0FDF783F8FEF73FFBFEF787F9FEF7FC
:103C5000DBF9FEF735F90020FEF76EF9FCF710FDF1
:103C600028B12B48012101700020FEF765F9284892
:103C70000078002849D0274D274CDFF8B0B0DFF896
:103C8000B0804FF0000AE946FEF732F92878C8B351
:103C900085F800A020783138C0B20E289ABF1FA145
:103CA000085C0320FEF748F972B62778BBF800607D
:103CB000701E80B2FF2804D8484641463246FCF7C1
:103CC00090FB85F800A038464946324662B6FEF7BA
:103CD0005BFA217835290DD1F0280DD10220FEF7AD
:103CE0002BF9C82666B10A20FCF798FEFEF700F90A
:103CF000013EF7E7FE2805D10320FEF71DF901E09C
:103D0000FEF7BCF8FEF7DCF9BEE7FEF7B7F8FEE712
:103D100000160020A9010020A801002000010101D7
:103D2000020303030303030303030000AC010020A9
:103D300004160020F1EE100A4FF6FF71C0F2C031F8
:103D400020EA010040F04070E1EE100A70470000E8
:103D5000000000000000010203040607080900003B
:103D600000000008004000080080000800C00008B3
:103D70000000010800000208000004080000060816
:103D80000000080800000A0800000C0800000E08E7
:103D9000B03D00080000002048010000EC010008D0
:103DA000883E000848010020802400002C02000802
:103DB000343A000104250D3A3F420142102F892870
:103DC0000008B5280008C1280008D5282E08F928C1
:103DD00000086D280008952800082E24F4006D25A1
:103DE000000825240008B1265208DD812400087D42
:103DF000230008EB2300082FF9240008C52400083D
:103E000031250008B9243D0809024300020100C021
:103E10003209042E010202010005240010010524CC
:103E2000012901042402020524064F01070582032B
:103E300008001009040100020A3607050102404685
:103E40000705810240450A0600024340012D120188
:103E500000020202004083044057360201020301BF
:103E60002FA10500089D05000899050008C5050C4F
:103E7000190851060008040309041A03021201027A
:083E8000140100000000000025
:040000050800018965
:00000001FF
