:020000040800F2
:10000000A02D00209D010008A1690008515F000893
:10001000216900088508000881B60008000000007A
:10002000000000000000000000000000216E000839
:10003000F90B000800000000ED6D0008616E00087B
:10004000B7010008B7010008B7010008B7010008B0
:10005000B7010008B7010008B7010008B7010008A0
:10006000B7010008B7010008B7010008B701000890
:10007000B7010008B70100080D0A0008B701000821
:10008000B7010008B7010008B7010008B701000870
:10009000B7010008B7010008B7010008B701000860
:1000A000B7010008416F0008B7010008B701000858
:1000B000516F0008B7010008B7010008B701000838
:1000C000B7010008B7010008B7010008B701000830
:1000D000116E0008AD7A0008B7010008B7010008EA
:1000E000B7010008B7010008B7010008B701000810
:1000F000B7010008B7010008B7010008B701000800
:10010000B7010008B7010008B7010008B7010008EF
:10011000B7010008B7010008B7010008B7010008DF
:10012000B7010008B70100081D0A0008B701000860
:10013000B70100080000000000000000B70100083F
:10014000B7010008B7010008B7010008256A0008D8
:10015000B7010008B70100082D0A0008B701000820
:10016000B7010008B7010008B7010008B70100088F
:10017000B7010008B70100080000000000000000FF
:10018000B7010008B7010008DFF80CD000F0B8FA9A
:100190000048004759B70008A02D002006488047B6
:1001A00006480047FEE7FEE7FEE7FEE7FEE7FEE75C
:1001B000FEE7FEE7FEE7FEE72D6F00088901000875
:1001C0002DE9F05F0546002092469B46884606468C
:1001D000814640241BE0284641464746224600F01F
:1001E000DFF953465A46C01A914110D311461846BA
:1001F000224600F0C6F92D1A67EB01084F46224649
:100200000120002100F0BDF917EB00094E41201E2E
:10021000A4F10104DFDC484631462A464346BDE8E6
:10022000F09FD2B201E000F8012B491EFBD27047CB
:100230000022F6E710B513460A4604461946FFF7B2
:10024000F0FF204610BD2DE9FE4F804681EA0300F5
:10025000C00F0C46009021F0004123F00045B8EBA0
:100260000200A94105D24046214690461C460B4655
:10027000024623F00040104347D0270DC7F30A0081
:10028000C3F30A510290401A019040286BDAC3F37D
:10029000130040F4801B0098924620B10023D2EB5B
:1002A000030A63EB0B0B01985946C0F1400250461C
:1002B00000F067F906460D4650465946019A00F08F
:1002C0007FF910EB08006141002487EA115284EAAB
:1002D000E7731A4340D0009A62B3019A012A4FEAA9
:1002E000075215DC001B61EB02014FF0004202EAED
:1002F0000752CDE90042001C41F5801132462B46E1
:1003000000F07FF903B0BDE8F08F40462146F9E7E1
:10031000001B61EB0201001C41F5801300185B41DA
:100320002018A2F5001747EB030140EAD570B61973
:100330006D4111E06D084FEA360645EAC0754FEA97
:100340000752001B61EB0201001C41F580114908B6
:100350004FEA30000019514132462B4603B0BDE848
:10036000F04F00F03FB90098012240000023D0EB8D
:10037000020263EBE073009821464FEAE074B8EBA9
:10038000000061EB0401E9E783F000435BE781F0E3
:10039000004158E72DE9FE4F81EA030404F00044D0
:1003A00021F0004100944FF0000B23F0004350EA8D
:1003B00001045ED052EA03045BD0C3F30A54C1F3D4
:1003C0000A552C44A4F2F3340194A0FB0254C1F367
:1003D000130141F48011C3F3130343F4801301FBB1
:1003E000024400FB034E840A970A44EA815447EA18
:1003F0008357A4FB076802958D0A05FB07854FEA22
:10040000932C04FB0C542705029D4FEA065847EA3B
:100410001637B5EB08056EEB070C870E920E47EA10
:10042000811742EA8312A7FB0201B6EB0B0164EBD2
:1004300000042B0D43EA0C335E1844EB1C50DA46E3
:100440005146E7FB0201C5F313044FEA0B3343EABD
:1004500014534FEA0432019C43EA0603A4F10C044E
:100460000294009CCDE900B400F0CBF803B0BDE8E5
:10047000F08F00200146F9E72DE9F04D81EA0304F1
:1004800004F0004B21F0004514464FF0000A23F021
:10049000004150EA050220D054EA01021DD0C5F304
:1004A0000A570246C5F31303C1F31300C1F30A56FA
:1004B00040F4801543F48013A7EB0608101BD646C2
:1004C00008F2FD3873EB050002D308F1010801E0E2
:1004D00092185B41B8F1000F03DA00200146BDE835
:1004E000F08D00204FF48011064684460EE0171B65
:1004F00073EB050705D3121B63EB050306434CEAB8
:10050000010C49084FEA300092185B4150EA01079C
:10051000EDD152EA030012D082EA040083EA050119
:10052000084305D0101BAB4106D20122002306E090
:1005300000224FF0004302E06FF0010253101AEB6B
:1005400006004CEB085110EB0A0041EB0B01BDE833
:10055000F04D00F047B830B50B4601460020202290
:10056000012409E021FA02F59D4205D303FA02F5C0
:10057000491B04FA02F52844151EA2F10102F1DC20
:1005800030BD202A04DB203A00FA02F10020704737
:100590009140C2F1200320FA03F3194390407047C1
:1005A000202A04DB203A21FA02F00021704721FAC8
:1005B00002F3D040C2F1200291400843194670472F
:1005C000202A06DBCB17203A41FA02F043EAE07317
:1005D00006E041FA02F3D040C2F120029140084304
:1005E0001946704710B5141E73F1000408DA401C58
:1005F00041F1000192185B411A4301D120F0010042
:1006000010BD2DE9F04D92469B4611B1B1FA81F231
:1006100002E0B0FA80F220329046FFF7B2FF0446C3
:100620000F4640EA0A0041EA0B0153465A46084386
:1006300013D0114653EA010019D0C8F140025046C8
:10064000FFF7AEFF05460E46504659464246FFF7B5
:1006500098FF084305D0012004E020463946BDE854
:10066000F08D0020054346EAE0762C4337430A9894
:100670006305E40AA0EB08000022FD0A44EA47549F
:100680000A3002D500200146E9E701051019694149
:10069000DDE9084500196941BDE8F04DA2E7C1F365
:1006A0000A52C1F3130140F2FF3341F480119A4220
:1006B00002DA00200146704740F233439A42A2F228
:1006C000334202DC5242FFF76BBFFFF75ABF000014
:1006D00030B5041E71F1000404DB4FF000444042C9
:1006E00064EB0101141E73F1000405DB1C464FF09E
:1006F0000043524263EB0403994208BF904230BD6D
:10070000064C074D06E0E06840F0010394E807005E
:1007100098471034AC42F6D3FFF73AFD3CC10008CD
:100720005CC1000880B587B013468C4686460690AB
:1007300005918DF813209DF81300014601280393BD
:10074000CDF808C0CDF804E0009104D0FFE7009890
:10075000022801D001E000E0FFE7002007B080BDE3
:1007600082B0014601900020009102B07047000065
:100770000020704780B586B013468C4686460590AB
:100780000491039200200293CDF804C0CDF800E05C
:1007900006B080BD82B001468DF8070000200091B0
:1007A00002B0704780B586B013468C4686460590E9
:1007B00004918DF80F2000200293CDF804C0CDF8ED
:1007C00000E006B080BD000080B586B00A46034652
:1007D000059004910598D0F8BC0203900398002876
:1007E0000292019301D1FFE711E0039800F20B1090
:1007F0004021FFF71DFD0598039901F20B11DDF86B
:1008000010E0BEF8062007F0A5FC0090FFE706B058
:1008100080BD000080B586B00A460346059004916D
:100820000598D0F8BC020390039800280292019327
:1008300001D1FFE71CE00498C088002818D0FFE72A
:100840000598039901F20B11049AD28807F042FC33
:100850000399012281F80A2104998979039A82F87F
:100860004B1104994979039A82F84C110090FFE7E3
:1008700006B080BD82B001468DF8070000200091CF
:1008800002B07047FFE7FEE780B586B013468C469E
:10089000864605900491ADF80E20049805990860ED
:1008A0000498BDF80E1000EB41000238059948602D
:1008B00004980599C860049805998860BDF80E00F1
:1008C00005990861059840F23011C2F200014161BA
:1008D0000293CDF804C0CDF800E006B080BD000062
:1008E00080B587B013468C468646069005910492E3
:1008F000069840690499A0EB810000280293CDF886
:1009000004C0CDF800E02ED3FFE700200390FFE7FE
:100910000398049988421FD2FFE706984168C0688F
:10092000884204D3FFE706980168C160FFE7069894
:10093000C0680088059908800698C0680021018079
:100940000698C1680231C160059802300590FFE742
:10095000039801300390DBE70498069949690A6817
:10096000101A0860FFE707B080BD000010B587B01F
:1009700013468C46864606900591049206980168B7
:10098000426840690068049C2044511AB0EB610F32
:100990000293CDF804C0CDF800E02AD2FFE7002092
:1009A0000390FFE70398049988421BD2FFE706985B
:1009B00041688068884204D3FFE706980168816037
:1009C000FFE705980088069989680880069881687D
:1009D00002318160059802300590FFE703980130ED
:1009E0000390DFE70498069949690A681044086093
:1009F000FFE707B010BD000082B0014601900198EA
:100A000040690068009102B07047000080B541F273
:100A10008050C2F2000000F0C9F980BD80B541F2FB
:100A2000E050C2F2000000F0C1F980BD80B541F293
:100A30004060C2F2000000F0B9F980BD84B0014608
:100A400003900398007810384AF6AB22CAF6AA221F
:100A5000A0FB020212090292029A4CF2BC03C0F6F9
:100A600000039A5C039BDA65029A042A01910090C4
:100A700007D3FFE703980168042262F30901816547
:100A800006E00398016840F2FF3291438165FFE779
:100A90000398806D04B0704787B00146069000202F
:100AA0008DF817000698806A0490069880690028DF
:100AB000039122D1FFE70498032802901BD80299E2
:100AC000DFE801F0020D02180698C06AC001002894
:100AD00004D5FFE701208DF81700FFE70CE006982A
:100AE000C06AB0F1C07F04D1FFE701208DF8170084
:100AF000FFE701E000E0FFE745E006988069B0F518
:100B0000005F25D1FFE70498032801901ED80199C2
:100B1000DFE801F00206021101208DF8170016E04F
:100B20000698C06AC001002804D5FFE701208DF8AF
:100B30001700FFE70BE00698C06AB0F1C07F04D150
:100B4000FFE701208DF81700FFE700E0FFE719E05D
:100B500004980328009004D3FFE70098032804D0EA
:100B60000EE001208DF817000BE00698C06AC00166
:100B7000002804D5FFE701208DF81700FFE700E00B
:100B8000FFE7FFE7FFE79DF8170007B07047000099
:100B9000B0B588B09C4696460C460546079006912F
:100BA0000592049307980068016821F48021016090
:100BB0000498079909684860079880684028CDF82C
:100BC0000CC0CDF808E00194009509D1FFE7059825
:100BD000079909688860069807990968C86008E05D
:100BE0000698079909688860059807990968C86098
:100BF000FFE708B0B0BD00007047000072B6FFE725
:100C0000FEE7000080B584B047F61020C1F6FF7003
:100C10000068039047F61420C1F6FF700068029048
:100C200047F61820C1F6FF700068019001980399FB
:100C3000084403900398002813D0FFE7039840F27C
:100C40000C11C2F200018A1C0823009111461A46B9
:100C500005F0AAFB029800991231042205F0A4FBCA
:100C6000FFE704B080BD000080B586B00146049067
:100C70000498806D0390019100F0A4FD0290049807
:100C800090F8350002280DD0FFE7049880214165D7
:100C9000FFE70498002180F83410FFE701208DF869
:100CA00017005BE004980068016821F016010160FC
:100CB00004980068416921F0800141610498006C4A
:100CC000002805D1FFE70498806C002807D0FFE7D3
:100CD00004980068016821F008010160FFE70498AA
:100CE0000068016821F001010160FFE704980068D5
:100CF0000068C00700281BD0FFE700F063FDDDF8A7
:100D000008E0A0EB0E00062811D3FFE7049820218D
:100D100041650498032180F83510FFE7049800210D
:100D200080F83410FFE703208DF8170016E0DDE7A8
:100D30000498C06D3F2101FA00F00399886004987F
:100D4000012180F83510FFE70498002180F8341065
:100D5000FFE7FFE700208DF81700FFE79DF8170079
:100D600006B080BD83B001460190019890F835002F
:100D70000228009107D0FFE70198802141650120FA
:100D80008DF80B000EE00198052180F835100198D0
:100D90000068016821F001010160FFE700208DF883
:100DA0000B00FFE79DF80B0003B0704780B588B0DB
:100DB000014607900020059040F22000C2F200009A
:100DC000006848F2B512C1F64E32A0FB0202920A48
:100DD0000492079A926D0392039A12680692069AF9
:100DE000079BDB6D4FF0080C0CFA03F31A420291DB
:100DF00001901BD0FFE707980068006840070028B3
:100E000013D5FFE707980068016821F0040101602D
:100E10000798C06D082101FA00F0039988600798CF
:100E2000416D41F001014165FFE7FFE70698079931
:100E3000C96D012202FA01F1084215D0FFE70798B7
:100E400000684069000600280DD5FFE70798C06DCF
:100E5000012101FA00F0039988600798416D41F083
:100E600002014165FFE7FFE706980799C96D042273
:100E700002FA01F1084215D0FFE707980068006800
:100E8000800700280DD5FFE70798C06D042101FAFF
:100E900000F0039988600798416D41F004014165B5
:100EA000FFE7FFE706980799C96D102202FA01F1E2
:100EB00008424BD0FFE70798006800680007002849
:100EC00043D5FFE70798C06D102101FA00F00399A0
:100ED0008860079800680068400300281CD5FFE779
:100EE000079800680068000300280AD4FFE7079805
:100EF000006C002804D0FFE70798016C8847FFE7E3
:100F000009E00798806C002804D0FFE70798816CFF
:100F10008847FFE7FFE717E0079800680068C0050B
:100F2000002807D4FFE707980068016821F008014E
:100F30000160FFE70798006C002804D0FFE70798DE
:100F4000016C8847FFE7FFE7FFE7FFE7069807998F
:100F5000C96D202202FA01F1084200F09580FFE7F6
:100F6000079800680068C006002840F18C80FFE701
:100F70000798C06D202101FA00F003998860079856
:100F800090F83500052838D1FFE707980068016818
:100F900021F01601016007980068416921F0800185
:100FA00041610798006C002805D1FFE70798806C25
:100FB000002807D0FFE707980068016821F00801C2
:100FC0000160FFE70798C06D3F2101FA00F0039927
:100FD00088600798012180F83510FFE70798002105
:100FE00080F83410FFE70798006D002804D0FFE771
:100FF0000798016D8847FFE781E00798006800685F
:10100000400300281CD5FFE707980068006800032C
:1010100000280AD4FFE70798406C002804D0FFE7B7
:101020000798416C8847FFE709E00798C06B0028E4
:1010300004D0FFE70798C16B8847FFE7FFE721E08F
:10104000079800680068C005002811D4FFE70798DA
:101050000068016821F0100101600798012180F803
:101060003510FFE70798002180F83410FFE7FFE70D
:101070000798C06B002804D0FFE70798C16B88472A
:10108000FFE7FFE7FFE7FFE70798406D002836D04E
:10109000FFE70798406DC007002826D0FFE70798B4
:1010A000052180F8351007980068016821F00101DA
:1010B0000160FFE70598013005900499884201D945
:1010C000FFE707E0FFE7079800680068C00700280F
:1010D000F0D1FFE70798012180F83510FFE7079866
:1010E000002180F83410FFE7FFE70798C06C002864
:1010F00004D0FFE70798C16C8847FFE7FFE708B017
:1011000080BD000080B586B00146049000200390A9
:10111000009100F057FB02900498002804D1FFE7EB
:1011200001208DF81700AAE00498406A002801D039
:10113000FFE7FFE70498022180F83510FFE70498E5
:10114000002180F83410FFE704980068016821F05E
:1011500001010160FFE7049800680068C0070028EB
:1011600014D0FFE700F02EFBDDF808E0A0EB0E0046
:1011700006280AD3FFE7049820214165049803213B
:1011800080F835108DF8171079E0E4E704980068CE
:1011900000680390039848F23F01CFF21001084025
:1011A0000390049841688268C368D0F810C0114366
:1011B000194341EA0C014269114382691143C26932
:1011C0001143006A08430399084303900498406A56
:1011D000042808D1FFE70498C16A006B084303990B
:1011E00008430390FFE7039804990968086004988E
:1011F000006840690390039820F00700039004986A
:10120000406A0399084303900498406A04281CD15B
:10121000FFE70498806A0399084303900498C06A22
:10122000002811D0FFE70498FFF736FC00280AD009
:10123000FFE70498402141650498012180F83510AA
:101240008DF817101BE0FFE7FFE703980499096882
:1012500048610498FFF7F2FB01900498C06D3F21AC
:1012600001FA00F001998860049800214165049812
:101270004FF0010E80F835E08DF81710FFE79DF86C
:10128000170006B080BD0000B0B58CB09C469646F5
:101290000C4605460A9009910892079300208DF8A4
:1012A0001B000A98806D0590CDF810C0CDF80CE0B9
:1012B00002940195FFE70A9890F83400012804D1C0
:1012C000FFE702208DF82F0047E00A98012180F8FF
:1012D0003410FFE7FFE70A9890F8350001282DD178
:1012E000FFE70A98022180F835100A98002141652D
:1012F0000A980999089A079BFFF74AFC0A98C06D5B
:101300003F2101FA00F0059988600A980068016899
:1013100041F0160101600A98006C002807D0FFE731
:101320000A980068016841F008010160FFE70A9827
:101330000068016841F00101016009E0FFE70A98D7
:10134000002180F83410FFE702208DF81B00FFE732
:101350009DF81B008DF82F00FFE79DF82F000CB0C3
:10136000B0BD000080B584B001460390009100F04C
:1013700029FA02900398019001980130002809D0C1
:10138000FFE740F22610C2F20000007801990844FD
:101390000190FFE7FFE700F015FADDF808E0A0EBA9
:1013A0000E00DDF804E0704501D2FFE7F3E704B07A
:1013B00080BD000091B00A46034610900F910020B6
:1013C0000D900C900B900E9009920893FFE70E98E9
:1013D0000F2800F2D381FFE70E98012101FA00F0F7
:1013E0000D900F9800680D9908400C900C980D997D
:1013F000884240F0BE81FFE70F98406800F003008C
:10140000012807D0FFE70F98406800F0030002288A
:101410002FD1FFE7109880680B900E9840000321B1
:1014200001FA00F00B9921EA00000B900F98C068B8
:101430000E99490088400B9908430B900B9810991E
:101440008860109840680B900E98012101FA00F016
:101450000B9921EA00000B900F984068C0F3001030
:101460000E9988400B9908430B900B98109948608F
:10147000FFE70F98406800F00300032818D0FFE74B
:101480001098C0680B900E984000032101FA00F0FC
:101490000B9921EA00000B900F9880680E99490083
:1014A00088400B9908430B900B981099C860FFE790
:1014B0000F98406800F00300022826D1FFE710983B
:1014C0000E996FF0030202EA51010844006A0B9082
:1014D0000E9800F0070080000F2101FA00F00B9930
:1014E00021EA00000B900F9800690E9901F00701A6
:1014F000890088400B9908430B900B9810990E9B1C
:1015000002EA530211440862FFE7109800680B904A
:101510000E984000032101FA00F00B9921EA000027
:101520000B900F98406800F003000E994900884026
:101530000B9908430B900B98109908600F988079CD
:101540008007002800F01481FFE7FFE700200A90E1
:1015500043F64400C4F20200016841F48041016096
:10156000006800F480400A900A980790FFE70E9800
:1015700020F0030043F60801C4F2010140580B902B
:101580000E9800F0030080000F2101FA00F00B9983
:1015900021EA00000B9010980021C4F20201884259
:1015A00003D1FFE7002006905EE0109840F2004172
:1015B000C4F20201884203D1FFE70120059050E008
:1015C000109840F60001C4F20201884203D1FFE7FF
:1015D0000220049042E0109840F60041C4F202015B
:1015E000884203D1FFE70320039034E0109841F2D2
:1015F0000001C4F20201884203D1FFE704200290F7
:1016000026E0109841F20041C4F20201884203D161
:10161000FFE70520019018E0109841F60001C4F2A0
:101620000201884203D1FFE7062000900AE01098EB
:1016300041F60041C4F202010822884208BF072295
:101640000092FFE700980190FFE701980290FFE702
:1016500002980390FFE703980490FFE70498059031
:10166000FFE705980690FFE70698C0B20E9901F0D3
:101670000301890088400B9908430B900B980E9941
:1016800021F0030143F60802C4F20102885043F638
:101690000840C4F2010000680B900C980B9921EAF5
:1016A00000000B900F988079C006002805D5FFE751
:1016B0000C980B9908430B90FFE70B9843F60841F1
:1016C000C4F20101086043F60C40C4F20100006856
:1016D0000B900C980B9921EA00000B900F988079E1
:1016E0008006002805D5FFE70C980B9908430B905E
:1016F000FFE70B9843F60C41C4F20101086043F682
:101700000440C4F2010000680B900C980B9921EA88
:1017100000000B900F9880798007002805D5FFE71F
:101720000C980B9908430B90FFE70B9843F6044184
:10173000C4F20101086043F60040C4F201000068F1
:101740000B900C980B9921EA00000B900F98807970
:10175000C007002805D0FFE70C980B9908430B90B1
:10176000FFE70B9843F60041C4F201010860FFE770
:10177000FFE7FFE70E9801300E9028E611B07047A2
:1017800080B585B013468C4686460490ADF80E10A1
:101790008DF80D209DF80D0000280293CDF804C0AF
:1017A000CDF800E005D0FFE7BDF80E000499886190
:1017B00005E0BDF80E00000404998861FFE705B05C
:1017C00080BD000041F69850C2F2000000687047EA
:1017D00080B590B001460E900E9800280B9104D170
:1017E000FFE701208DF83F004FE10E9890F83D0093
:1017F000002808D1FFE70E98002180F83C100E98D1
:1018000000F048F9FFE70E98242180F83D100E986B
:101810000068016821F0010101600E98006801680C
:1018200041F4004101600E980068016821F4004114
:10183000016002F0ADFC0C900E98406848F2A06187
:10184000C0F2010188420BD8FFE70C9848F28041B2
:10185000C0F21E010022884238BF01220A920AE02B
:101860000C9840F60011C0F23D010022884238BFBA
:1018700001220A92FFE70A98012804D1FFE701201C
:101880008DF83F0001E10C984DF68361C4F21B31E5
:10189000A0FB0101890C0D910E990968496821F09E
:1018A0003F010D9A11430E9A126851600E99096812
:1018B000096A21F03F010E9A526848F2A063C0F213
:1018C00001039A420990089104D8FFE70D9801306E
:1018D00007900FE00D984FF49671484344F6D351AA
:1018E000C1F26201A0FB0101012202EB91110690FD
:1018F0000791FFE70798089908430E9A126810624B
:101900000E980068C0694CF6FF7290430E9A5268B8
:1019100048F2A063C0F201039A4205901FD8FFE786
:101920000C9801380E9949684900B0FBF1F001307C
:101930006FF31F30032803D8FFE7042004900BE067
:101940000C9801380E9949684900B0FBF1F001305C
:101950006FF31F300490FFE7049803904FE00E9858
:10196000806800280DD1FFE70C9801380E9949686E
:1019700001EB4101B0FBF1F001306FF31F30029039
:101980000DE00C9801380E99496819225143B0FBBB
:10199000F1F00130042161F31F300290FFE702985B
:1019A0000005002803D1FFE70120019024E00E98F4
:1019B000806800280DD1FFE70C9801380E9949681E
:1019C00001EB4101B0FBF1F001306FF31F300090EB
:1019D0000DE00C9801380E99496819225143B0FB6B
:1019E000F1F00130042161F31F300090FFE700980F
:1019F00040F400400190FFE701980390FFE703984F
:101A0000059908430E9A1268D0610E980068006824
:101A100020F0C0000E9A1368D2F81CC0126A42EA85
:101A20000C02104318600E980068806848F2FF327C
:101A300090430E9A1368D2F80CC0126942EA0C0265
:101A4000104398600E980068C06820F0FF000E9A5E
:101A50001368D2F814C0926942EA0C021043D860AD
:101A60000E980068026842F0010202600E9800229F
:101A700002640E98202380F83D300E9802630E9881
:101A800080F83E208DF83F20FFE79DF83F0010B022
:101A900080BD000080B58CB001460B9000200A90FC
:101AA00009900890079006900B98006845F2004254
:101AB000C4F200029042039137D1FFE7FFE7002014
:101AC000059043F63000C4F20200016841F00201C3
:101AD0000160006800F00200059005980290FFE7A1
:101AE0004FF4C07006901220079000200890032049
:101AF000099004200A9040F20040C4F2020006A9B6
:101B0000FFF758FCFFE70020049043F64000C4F2C2
:101B10000200016841F400110160006800F4001047
:101B2000049004980190FFE7FFE70CB080BD00002F
:101B300080B58AB0014609900998006880680890CD
:101B40000998006843F60002C4F2000244F2080358
:101B5000C4F20003904204BF43F20843C4F20003FE
:101B6000186807900998006840680690099800680E
:101B700044F20403C4F20003904204BF43F204435E
:101B8000C4F200031868059009984068B0F5007F1A
:101B9000029106D0FFE709984068002840F098803D
:101BA000FFE708988007002809D5FFE70698000698
:101BB000002804D5FFE7099804F046FAFFE70798E4
:101BC000C007002809D0FFE705984006002804D583
:101BD000FFE7099804F0ECF9FFE7079840060028B2
:101BE0003AD5FFE705988006002835D5FFE7099824
:101BF000006843F60001C4F2000144F20402C4F29A
:101C00000002884204BF43F20442C4F2000210689A
:101C100020F06000106009980068416821F0A00180
:101C20004160FFE70020049009980068C0680490B4
:101C3000099800688068049004980190FFE709986B
:101C4000012180F841100998416C41F00201416482
:101C5000099800F0C7F8FFE708980007002836D574
:101C6000FFE706988006002831D5FFE7099800684D
:101C7000416821F0A00141600998006843F6000125
:101C8000C4F2000144F20402C4F20002884204BF1C
:101C900043F20442C4F20002106820F060001060B9
:101CA000FFE700200390099800688068039003987C
:101CB0000090FFE70998012180F841100998416CD4
:101CC00041F004014164099800F08CF8FFE780E0DE
:101CD00007988007002809D5FFE705980006002827
:101CE00004D5FFE7099804F0DBF9FFE70898C0077F
:101CF000002809D0FFE706984006002804D5FFE732
:101D0000099804F027F9FFE70898400600282DD528
:101D1000FFE706988006002828D5FFE709980068A5
:101D2000416821F0600141600998006843F60001B4
:101D3000C4F2000144F20402C4F20002884204BF6B
:101D400043F20442C4F20002106820F0A0001060C8
:101D500009984FF0010180F841100998416C41F059
:101D600002014164099800F03DF8FFE70798000779
:101D700000282DD5FFE705988006002828D5FFE725
:101D80000998006843F60001C4F2000144F204021D
:101D9000C4F20002884204BF43F20442C4F20002CB
:101DA000106820F0A000106009980068416821F0D8
:101DB0006001416009984FF0010180F841100998D5
:101DC000416C41F004014164099800F00BF8FFE711
:101DD000FFE70AB080BD000082B00146019000918B
:101DE00002B0704782B001460190009102B0704786
:101DF00080B582B0014601900198426B00919047F6
:101E000002B080BD80B58AB00146089008980028CD
:101E1000019104D1FFE701208DF827003EE10898E9
:101E200090F8410000280ED1FFE70898002180F8C3
:101E30004010089846F2D511C0F600014163089899
:101E400000F030F9FFE70898022180F84110089867
:101E50000068C26940F6BF739A43C261089800687F
:101E6000016208984069022867D0FFE70898C068B7
:101E7000002803D1FFE71020059002E02020059004
:101E8000FFE708988068202804D8FFE705984000FD
:101E90000590FFE7012001F071FE039008980069AA
:101EA000B0F5007F24D1FFE70898C06800280FD064
:101EB000FFE7039805998900B0FBF1F000EB800083
:101EC000400008994969B0FBF1F0053004900EE03C
:101ED00003980599C900B0FBF1F000EB80004000C9
:101EE00008994969B0FBF1F005300490FFE70DE077
:101EF00003980599B0FBF1F000EB800040000899D1
:101F00004969B0FBF1F005300490FFE704984CF606
:101F1000CD41CCF6CC41A0FB0101C9080491049944
:101F200001F0010106910499069A891A490807915E
:101F3000069909020691009004E002200790002013
:101F40000690FFE70798022805D3FFE70798B0F54A
:101F5000807F09D3FFE70898416C41F0100141648C
:101F600001208DF8270099E007980699089A1368D0
:101F7000126911430843186208980068C06940F666
:101F8000BF71884308990A684B68D1F808C0D1F836
:101F90000CE043EA0C0343EA0E0389691943084342
:101FA00040F40060D0610898006A01286CD1FFE716
:101FB000089841F63131C0F6000141630898006885
:101FC00043F60001C4F2000144F21C02C4F2000214
:101FD0008842104604BF43F21C40C4F2000003686C
:101FE00040F6BF7C23EA0C0303600898006844F2C3
:101FF0002003C4F20003884204BF43F22043C4F22A
:1020000000034FF00200186008980068884204BF7F
:1020100043F21C42C4F200021068ADF80A000898AE
:102020004068B0F5007F05D0FFE7089840680028B9
:1020300004D1FFE74FF48070049002E00020049088
:10204000FFE7049808998A6810438A891043098B2E
:102050000843BDF80A10084340F40060ADF80A00D8
:10206000BDF80A000899096843F60002C4F20002AC
:1020700044F21C03C4F20003914204BF43F21C4328
:10208000C4F200031860FFE7089800214164089833
:10209000012280F841208DF82710FFE79DF82700E6
:1020A0000AB080BD80B598B0014617900020169008
:1020B0001590149013901290119010900F900E9014
:1020C0001798006843F60002C4F2000290420A9199
:1020D00040F0A780FFE701200E9064200F900220BF
:1020E00010900EA801F0B0FD002803D0FFE7FEF726
:1020F00085FDFFE7FFE700200D9043F64000C4F2A6
:102100000200016841F480410160006800F48040F1
:102110000D900D980990FFE7FFE700200C9043F623
:102120003000C4F20200016841F00401016000685F
:1021300000F004000C900C980890FFE7FFE70020E7
:102140000B9043F63000C4F20200016841F0020136
:102150000160006800F002000B900B980790FFE709
:10216000082012900220139000211491159105224D
:10217000169240F60003C4F202030DF1480C0690DB
:102180001846059161460492CDF80CC0FFF712F98C
:102190004FF4A05012900698139005991491159140
:1021A000049A169240F20040C4F202000399FFF72D
:1021B00001F941F28050C2F2000046F25801C4F227
:1021C00002010160059941608160C1604FF4806245
:1021D00002614FF4006242614FF400528261C161BA
:1021E0004FF4003202624162FEF78CFF002803D0F8
:1021F000FFE7FEF703FDFFE7FFE7179841F2805185
:10220000C2F20001C16317988863FFE72420002110
:1022100002900191019A00F0E7F9029800F0D8F9D4
:10222000FFE718B080BD000080B58CB013468C4627
:1022300086460A900991ADF8222009980028059356
:10224000CDF810C0CDF80CE005D0FFE7BDF82200B6
:10225000002804D1FFE701208DF82F00C0E0FFE740
:102260000A9890F84000012804D1FFE702208DF879
:102270002F00B5E00A98012180F84010FFE7FFE742
:102280000A9890F8410001280AD0FFE7FFE70A9872
:10229000002180F84010FFE702208DF82F009FE01A
:1022A0000A98042180F841100A9800214164099895
:1022B0000A99C8620A980068C06900F00700079090
:1022C0000798032804D0FFE7079805280BD1FFE7FC
:1022D000BDF8220040000A990886BDF8220040009F
:1022E0000A99488608E0BDF822000A990886BDF8D8
:1022F00022000A994886FFE70A98C06B46F2B91196
:10230000C0F6000101640A98C06B46F27911C0F66C
:102310000001C1630A98C06B46F23511C0F6000196
:10232000C1640A980068C06900F44070B0F5407F4D
:102330000FD1FFE7FFE7002006900A980068C06809
:1023400006900A9800688068069006980290FFE759
:10235000FFE70A980168C26AC36B0C31008E0190D6
:102360001846019BFEF790FF002813D0FFE70A985C
:10237000416C41F0080141640A98012180F8411044
:10238000FFE70A98002180F84010FFE701208DF850
:102390002F0025E00A980068C0694005002807D48E
:1023A000FFE70A980068C16941F48061C161FFE7F5
:1023B0000A9800684068C007002807D1FFE70A981C
:1023C0000068416841F001014160FFE7FFE70A98BA
:1023D000002180F84010FFE700208DF82F00FFE774
:1023E0009DF82F000CB080BD82B00146019001988D
:1023F00041F2F462C2F200029042009107D1FFE77D
:1024000040F23510C2F2000001210170FFE702B076
:102410007047000082B001460190009102B0704701
:1024200082B001460190009102B0704740F2261040
:10243000C2F20000007841F69851C2F200010A6829
:10244000104408607047000080B582B043F6004039
:10245000C4F20200016841F400710160016841F4B6
:1024600080610160016841F480710160032000F027
:10247000E1F80F2000F006F8019000F081F800204C
:1024800002B080BD80B58EB001460D90002007904F
:1024900006900291FFE70020039043F64400C4F247
:1024A0000200016841F001010160006800F00100D4
:1024B000039003980190FFE708A805A901F02EFEFC
:1024C00001F07AFE4000079007984DF68361C4F250
:1024D0001B31A0FB01014FF0FF3E0EEB9141069135
:1024E00041F67841C2F2000140F2000EC4F2010E42
:1024F000C1F800E040F2E73EC1F80CE0DDF818E07A
:10250000C1F804E04FF0000EC1F810E0C1F808E097
:10251000C1F818E00090084602F0F8FB8DF81300AF
:102520009DF81300002826D1FFE741F67840C2F25B
:10253000000002F06BFC8DF813009DF813000028DA
:1025400018D1FFE7192000F043F80D980F280CD898
:10255000FFE70D991920002200F046F80D9840F28F
:102560002811C2F20001086003E001208DF8130079
:10257000FFE7FFE7FFE79DF813000EB080BD000006
:1025800084B0FFE70020039043F64400C4F2020049
:10259000016841F480410160006800F480400390CC
:1025A00003980190FFE7FFE70020029043F6400008
:1025B000C4F20200016841F080510160006800F03F
:1025C0008050029002980090FFE704B0704700002E
:1025D00080B582B001468DF807009DF90700009193
:1025E00009F050F802B080BD80B58AB013468C4621
:1025F00086468DF8270008910792002006900593E3
:10260000CDF810C0CDF80CE009F058F806909DF90F
:1026100027000699089A079B0290084611461A4619
:1026200004F0C0F9029901900846019909F04EF8AA
:102630000AB080BD80B582B001460190019800913A
:1026400009F06AF802B080BD84B00A4603460390E0
:102650008DF80B100192009304B0704784B00A46C5
:1026600003460390ADF80A10BDF80A000399096803
:10267000486200200192009304B0704780B587B093
:1026800013468C46864606908DF81710ADF8142038
:1026900006980068406A03909DF81700002802938E
:1026A000CDF804C0CDF800E009D1FFE7BDF8140073
:1026B000039941EA004006990968886233E0069868
:1026C0000068806A039901EB1040039000208DF8A8
:1026D0001300FFE79DF813009DF817100139884299
:1026E00013D2FFE7069800689DF8131000EB8100F5
:1026F000D0F80401039901EB10400390FFE79DF827
:10270000130001308DF81300E4E7BDF814000399BD
:1027100041EA0040069909689DF8172001EB820103
:10272000C1F80001FFE7002007B080BD80B584B08C
:10273000014603900398D0F8E004029106F04CFBA8
:10274000019004B080BD000080B586B00A46034603
:1027500005908DF813100598D0F8E0149DF813C07B
:102760000CEBCC0E00EB8E00006A0390084661462D
:10277000DDF80CC002926246019306F055F9009014
:1027800006B080BD80B586B00A46034605908DF838
:1027900013100598D0F8E0149DF813C00CEBCC0E84
:1027A00000EB8E00D0F86002039008466146DDF829
:1027B0000CC002926246019306F01CFA009006B02B
:1027C00080BD000080B584B0014603900398D0F826
:1027D000E004029106F008FB019004B080BD000007
:1027E00080B586B00A46034605908DF813109DF813
:1027F000130000060028029201930CD5FFE705980C
:102800009DF8131001F00F0101EBC10100EB8100F5
:10281000143003900CE005989DF8131001F00F019F
:1028200001EBC10100EB810000F515700390FFE79B
:1028300005980068039908F00DFB8DF812009DF8CB
:10284000120006B080BD000080B588B00A4603467D
:1028500006908DF817109DF81700000600280392C7
:1028600002930FD5FFE706989DF8171001F00F01AE
:1028700001EBC10100EB81001430049004980121A8
:1028800041700FE006989DF8171001F00F0101EB61
:10289000C10100EB810000F515700490049800213F
:1028A0004170FFE79DF8170000F00F0004990870D1
:1028B000FFE7069890F89404012804D1FFE702206E
:1028C0008DF81F0015E00698012180F89414FFE7A9
:1028D000FFE706980068049907F05EFD0190FFE7A6
:1028E0000698002180F89414FFE700208DF81F005F
:1028F000FFE79DF81F0008B080BD000080B588B0DC
:102900000A46034606908DF817109DF8170000F050
:102910000F000699097988420392029304D9FFE7D0
:1029200001208DF81F004EE09DF8170000060028DA
:102930000FD5FFE706989DF8171001F00F0101EB86
:10294000C10100EB81001430049004980121417012
:102950000FE006989DF8171001F00F0101EBC1017F
:1029600000EB810000F5157004900498002141707F
:10297000FFE70498002181709DF8170000F00F0018
:1029800004990870FFE7069890F89404012804D190
:10299000FFE702208DF81F0015E00698012180F85E
:1029A0009414FFE7FFE706980068049907F098FF82
:1029B0000190FFE70698002180F89414FFE70020BB
:1029C0008DF81F00FFE79DF81F0008B080BD0000D4
:1029D00080B588B00A46034606908DF81710049219
:1029E0000393FFE7069890F89404012804D1FFE7C9
:1029F00002208DF81F0025E00698012180F894142C
:102A0000FFE7FFE79DF81700000600280AD5FFE75B
:102A1000069800689DF8171001F00F0108F0F6FA0B
:102A2000029005E00698006808F0B4FA0190FFE70C
:102A3000FFE70698002180F89414FFE700208DF846
:102A40001F00FFE79DF81F0008B080BD84B00A4654
:102A5000034603908DF80B1003989DF80B1001F0BE
:102A60000F0101EBC10100EB8100D0F86802019277
:102A7000009304B070470000B0B58AB09C469646FB
:102A80000C46054608908DF81F10ADF81C208DF8F7
:102A90001B3000208DF81A009DF81F00000600284A
:102AA000CDF810C0CDF80CE0029401950FD5FFE7EA
:102AB00008989DF81F1001F00F0101EBC10100EB18
:102AC0008100143005900598012141700FE00898AD
:102AD0009DF81F1001F00F0101EBC10100EB810017
:102AE00000F515700590059800214170FFE79DF8ED
:102AF0001F0000F00F0005990870BDF81C00059933
:102B000088609DF81B000599087105984078002899
:102B100004D0FFE7059801784183FFE79DF81B008B
:102B2000022804D1FFE7059800214171FFE7FFE784
:102B3000089890F89404012804D1FFE702208DF84A
:102B4000270016E00898012180F89414FFE7FFE7BA
:102B500008980068059907F0C5F90090FFE7089804
:102B6000002180F89414FFE79DF81A008DF82700E3
:102B7000FFE79DF827000AB0B0BD0000B0B58CB0EB
:102B80009C4696460C4605460B908DF82B100992F4
:102B900008930B989DF82B1001F00F0101EBC10178
:102BA00000EB810000F51570079009980799C8603F
:102BB00008980799086107980021416107984170BA
:102BC0009DF82B0000F00F00079908700B98807992
:102BD0000128CDF818C0CDF814E00494039504D171
:102BE000FFE709980799C861FFE70B980168079A02
:102BF0008079029008461146029A07F021FF0021D1
:102C0000019008460CB0B0BD80B58AB00A460346B4
:102C100008908DF81F109DF81F0000F00F00089914
:102C2000097988420592049304D9FFE701208DF8C1
:102C300027005FE09DF81F00000600280FD5FFE782
:102C400008989DF81F1001F00F0101EBC10100EB86
:102C50008100143006900698012141700DE008981B
:102C60009DF81F1001EBC10100EB810000F515700C
:102C70000690069800214170FFE7069801218170B7
:102C80009DF81F0000F00F0006990870FFE70898F4
:102C900090F89404012804D1FFE702208DF8270062
:102CA00028E00898012180F89414FFE7FFE70898CE
:102CB0000068069907F068FE9DF81F1009070029B3
:102CC00003900DD1FFE708980168827900F29C40DB
:102CD000029008461146029A07F0A8FD0190FFE70E
:102CE000FFE70898002180F89414FFE700208DF892
:102CF0002700FFE79DF827000AB080BDB0B58CB073
:102D00009C4696460C4605460B908DF82B10099272
:102D100008930B989DF82B1001F00F0101EBC101F6
:102D200000EB81001430079009980799C860089853
:102D300007990861079800214161079801214170B6
:102D40009DF82B0000F00F00079908700B98807910
:102D50000128CDF818C0CDF814E00494039504D1EF
:102D6000FFE709980799C861FFE70B980168079A80
:102D70008079029008461146029A07F061FE002110
:102D8000019008460CB0B0BD80B59CB001461B90C8
:102D90001B9800681A901A9819901B980068119156
:102DA00008F0A0F9002840F02984FFE71B9800688C
:102DB00008F012FA002802D1FFE700F01FBC1998B2
:102DC000D0F80808C0F30D201B99C1F8D4041B9853
:102DD000006808F001FA8007002807D5FFE71B9874
:102DE0000068416901F002014161FFE71B9800683A
:102DF00008F0F2F9C006002865D5FFE71B980068C7
:102E0000816921F0100181611A98006A12901B9863
:102E1000129901F00F0101EBC10100EB810000F5F7
:102E200015701890129800F4F0100221B1EB504F79
:102E300025D1FFE7BDF8480047F6F07108421DD0E4
:102E4000FFE71A981899C968129AC2F30A1208F093
:102E5000D3F9129947F6F0721140DDF860E0DEF820
:102E60000C3003EB1111CEF80C1012991140189A86
:102E7000536903EB111151611090FFE71CE01298A8
:102E800000F4F0100621B1EB504F13D1FFE71A9870
:102E90001B9901F29C41082208F0AEF9129947F6FD
:102EA000F0721140189AD2F814E00EEB1111516132
:102EB0000F9000E0FFE7FFE71B980068816941F091
:102EC00010018161FFE71B98006808F085F9000395
:102ED000002840F1A380FFE7002014901B980068B1
:102EE00008F01EF91690FFE71698002800F095806C
:102EF000FFE79DF85800C007002800F08780FFE733
:102F00001B9800689DF8501008F04AF91590159824
:102F1000C00700280DD0FFE71998149900EB411065
:102F20000121C0F8081B1B98149903F0CFFD0E90E7
:102F3000FFE71598000700280DD5FFE719981499A9
:102F400000EB41100821C0F8081B1B98149903F0EE
:102F500071FD0D90FFE71598C006002808D5FFE722
:102F60001998149900EB41101021C0F8081BFFE7D5
:102F70001598800700282DD5FFE71A9840690006AC
:102F8000002808D5FFE71998D0F8041841F48061AB
:102F9000C0F80418FFE71B98149901EBC10100EB7E
:102FA000810000F5157018901898C078012809D193
:102FB000FFE718980021C1701B989DF8501000F091
:102FC00033FBFFE71998149900EB41100221C0F878
:102FD000081BFFE715988006002808D5FFE7199819
:102FE000149900EB41102021C0F8081BFFE7159849
:102FF0008004002809D5FFE71998149900EB4110C7
:103000004FF40051C0F8081BFFE7FFE714980130A8
:10301000149016984008169066E7FFE71B98006822
:1030200008F0DAF84003002840F1CA80FFE71B9857
:10303000006808F061F8169000201490FFE71698D9
:10304000002800F0BC80FFE79DF85800C00700286A
:1030500000F0AE80FFE71B9800689DF8501008F064
:1030600073F815901598C007002845D0FFE714980D
:1030700000F00F00012101FA00F013901398199A43
:10308000D2F8343823EA0000C2F834081998149AA8
:1030900000EB4210C0F808191B988079012825D14F
:1030A000FFE71B98149901EBC10100EB8100C16996
:1030B000026A114401621498002816D1FFE71B9898
:1030C000149901EBC10100EB8100406A00280CD18A
:1030D000FFE71B98016800F29C4201200C90084613
:1030E0000C9907F0A3FB0B90FFE7FFE71B989DF8F7
:1030F0005010FFF729FBFFE715980007002808D5B7
:10310000FFE71998149900EB41100821C0F808193D
:10311000FFE71598C006002808D5FFE7199814990D
:1031200000EB41101021C0F80819FFE71598400680
:10313000002808D5FFE71998149900EB41104021A9
:10314000C0F80819FFE715988007002824D5FFE785
:103150001A98149907F05AFF1B99DDF850E00EEB0E
:10316000CE0E01EB8E01143118911899C9780129FE
:103170000A9009D1FFE718980021C1701B989DF8AB
:10318000501000F03DFAFFE71998149900EB411038
:103190000221C0F80819FFE715980006002806D597
:1031A000FFE71B98149903F07FFD0990FFE7FFE705
:1031B0001498013014901698400816903FE7FFE7E6
:1031C0001B98006808F008F8C00F002820D0FFE71F
:1031D0001998D0F8041821F00101C0F804181B98C0
:1031E00090F8CC04012808D1FFE71B98002180F853
:1031F000CC141B98FFF728FA03E01B9800F0F0FBB3
:10320000FFE71B980068416901F000414161FFE759
:103210001B98006807F0E0FF0005002812D5FFE7C3
:103220001998D0F80808C007002804D0FFE71B98B9
:1032300000F080FCFFE71B980068416901F4006121
:103240004161FFE71B98006807F0C6FFC004002833
:1032500040F18D80FFE71998D0F8041821F00101A2
:10326000C0F804181B980068102107F0CFFE002159
:1032700017910890FFE717981B990979884231D276
:10328000FFE71998179900EB41104FF67F31C0F80E
:1032900008191998179A00EB4210D0F8002922F467
:1032A0000012C0F800291998179A00EB4210C0F8D4
:1032B000081B1998179900EB4110D0F8001B21F456
:1032C0000011C0F8001B1998179900EB4110D0F8B5
:1032D000001B41F00061C0F8001BFFE717980130A8
:1032E0001790C8E71998D0F81C1841F00111C0F8E0
:1032F0001C181B98C07B00280FD0FFE71998D0F846
:10330000841841F00B01C0F884181998D0F84418BB
:1033100041F00B01C0F844180FE01998D0F81418C8
:1033200042F22B021143C0F814181998D0F8101863
:1033300041F00B01C0F81018FFE71998D0F80018F9
:1033400021F4FE61C0F800181B980168827900F230
:103350009C40079008461146079A07F067FA1B99A8
:1033600009684A6902F480524A610690FFE71B9897
:10337000006807F031FF800400282CD5FFE71B9878
:10338000006806F023FEDDF86CE0DEF800E0059052
:10339000704607F07DFEDDF86CE08EF807001B98A4
:1033A0000068049000F0EEFEDDF86CE09EF8072067
:1033B000DDF810E003907046039908F02FF81B9990
:1033C0000290084600F0DCFA1B980068416901F49D
:1033D00000514161FFE71B98006807F0FDFE000700
:1033E00000280CD5FFE71B9800F008FB1B9800682D
:1033F000D0F814E00EF0080EC0F814E0FFE71B98B8
:10340000006807F0E9FE0006002826D5FFE71A98B5
:10341000816921F08001816101201490FFE71498F7
:103420001B990979884217D2FFE71B98149901EB81
:10343000C10100EB810090F85702012807D1FFE796
:103440001B989DF85010FFF7CBF90190FFE7FFE7BD
:10345000149801301490E2E7FFE71B98006807F02A
:10346000BBFEC00200283CD5FFE701201490FFE717
:1034700014981B99097988422CD2FFE7199814995E
:1034800000EB4110D0F8000912901B98149901EB41
:10349000C10100EB8100007E012816D1FFE71298E0
:1034A000C00F002811D0FFE71B98149901EBC10150
:1034B00000EB81000121C1751B989DF8501041F06F
:1034C0008001FFF78DF90090FFE7FFE714980130C6
:1034D0001490CDE71B980068416901F480114161A7
:1034E000FFE71B98006807F077FE8002002854D59C
:1034F000FFE701201490FFE714981B99097988428F
:1035000044D2FFE71998149900EB4110D0F8000B52
:1035100012901B98149901EBC10100EB810090F807
:10352000580201282DD1FFE71298C00F002828D09B
:10353000FFE7129800F480301B99D1F8D41401F001
:10354000010188421DD1FFE71B98149901EBC101CD
:1035500000EB8100012180F857121A98816941F02F
:10356000800181611A9840690006002808D4FFE7AD
:103570001998D0F8041841F40071C0F8041805E057
:10358000FFE7FFE7149801301490B5E71B98006837
:10359000416901F400114161FFE71B98006807F0E1
:1035A0001BFE400000280CD5FFE71B98FFF7BEF874
:1035B0001B980068D0F814E00EF0804EC0F814E0BC
:1035C000FFE71B98006807F007FE4007002814D5A6
:1035D000FFE71B9800684068129012984007002887
:1035E00004D5FFE71B98FFF7EDF8FFE712981B994A
:1035F00009684A6810434860FFE7FFE71CB080BDD8
:1036000080B586B00A46034605908DF813100598DC
:10361000D0F8E0049DF813100392029305F0BCFC6F
:10362000019006B080BD000080B586B00A46034612
:1036300005908DF813100598D0F8E0049DF813104C
:103640000392029305F0EAFC019006B080BD0000F1
:1036500010B592B00146109010980028059104D141
:10366000FFE701208DF8470027E1109800680F90D0
:10367000109890F89504002808D1FFE710980021D1
:1036800080F89414109800F01DF9FFE710980321BA
:1036900080F895140F98B0F1A04F04D1FFE710986F
:1036A00000218171FFE71098006807F0B3F8DDF89A
:1036B00040E0DEF800109EF810208DF83420DEF88F
:1036C0000420DEF80830DEF80CE0CDF830E00B9393
:1036D0000A920A9A0B9BDDF830E0DDF834C06C46A4
:1036E000C4F800C00490084611461A46734606F016
:1036F0009FFD002808D0FFE71098022180F895145C
:1037000001208DF84700D8E010980068002107F0EC
:10371000D7FD002808D0FFE71098022180F8951403
:1037200001208DF84700C8E000208DF83B00FFE73E
:103730009DF83B0010990979884241DAFFE710981B
:103740009DF83B1001EBC10100EB810001214175A7
:103750009DF83B00109900EBC00201EB8201087557
:103760009DF83B00109900EBC00201EB8201C88577
:1037700010989DF83B1001EBC10100EB8100002186
:10378000017610989DF83B2002EBC20200EB82000C
:10379000C16110989DF83B2002EBC20200EB820051
:1037A000016210989DF83B2002EBC20200EB820000
:1037B0004162FFE79DF83B0001308DF83B00B7E721
:1037C00000208DF83B00FFE79DF83B001099097938
:1037D00088423EDAFFE710989DF83B1001EBC101EB
:1037E00000EB8100002180F855129DF83B00109AF3
:1037F00000EBC00302EB830282F8540210989DF89C
:103800003B2002EBC20200EB820080F858121098B5
:103810009DF83B2002EBC20200EB8200C0F85C1274
:1038200010989DF83B2002EBC20200EB8200C0F82A
:10383000601210989DF83B2002EBC20200EB820060
:10384000C0F86412FFE79DF83B0001308DF83B00A3
:10385000BAE710980168027C8DF8242042688368DA
:10386000C0680890079306920698079A089BDDF8AF
:1038700024C0EE46CEF800C003900846039906F037
:1038800065FE002808D0FFE71098022180F8951403
:1038900001208DF8470010E0109800214174109825
:1038A000012280F8952410980068029106F036FEF7
:1038B00002998DF847100190FFE79DF8470012B07C
:1038C00010BD000080B58EB001460D9000200C9018
:1038D0000B900A90099008900D980068B0F1A04FE5
:1038E00005914AD1FFE7FFE70020079043F630003B
:1038F000C4F20200016841F001010160006800F0BB
:103900000100079007980490FFE74FF4C05008901B
:103910000220099000200A9003200B900A200C90AE
:103920000020C4F2020008A9FDF744FDFFE743F6BA
:103930003400C4F20200016841F080010160FFE739
:103940000020069043F64400C4F20200016841F4EE
:1039500080410160006800F4804006900698039062
:10396000FFE7FFE74320002102900191019AFEF753
:103970003BFE0298FEF72CFEFFE70EB080BD000074
:1039800080B586B00146059001208DF8130005989A
:10399000C0790028039104D1FFE700208DF81300BF
:1039A0000CE00598C079022804D1FFE701208DF8CA
:1039B000130002E0FDF722F9FFE7FFE70598D0F8D2
:1039C000E0049DF8131005F05FFC0599D1F8E014B0
:1039D0000290084605F0C0FB019006B080BD0000D3
:1039E00080B584B0014603900398D0F8E0040291BA
:1039F00005F012FC019004B080BD000080B584B0D9
:103A0000014603900398D0F8E004029105F018FCF9
:103A1000019004B080BD000080B586B00A46034620
:103A200004908DF80F1002920193FFE7049890F82C
:103A30009404012804D1FFE702208DF817001AE052
:103A40000498012180F89414FFE7FFE79DF80F0028
:103A500004994874049800689DF80F1007F0A8FCBA
:103A60000090FFE70498002180F89414FFE70020FD
:103A70008DF81700FFE79DF8170006B080BD000025
:103A800080B584B0014603900398D0F8E02400F29A
:103A90009C4002901046029A0191114605F026FCC6
:103AA000009004B080BD000080B586B0014604904F
:103AB0000498006803900291FFE7049890F894043A
:103AC000012804D1FFE702208DF817002DE00498AB
:103AD000012180F89414FFE7FFE70398C0684006CF
:103AE00000280BD5FFE70498407B012806D1FFE7AB
:103AF0000398816B41F480318163FFE7049800688B
:103B000007F03CFADDF810E0DEF800E001907046C6
:103B100006F0ECFC0090FFE70498002180F8941474
:103B2000FFE700208DF81700FFE79DF8170006B0AB
:103B300080BD000080B584B0014603900398D0F8A2
:103B4000E004029105F060FC03990968D1F800EEE9
:103B50004EF0010EC1F800EE0399C97A00290190D8
:103B600009D0FFE74EF61050CEF20000016841F098
:103B700006010160FFE704B080BD000087B0014688
:103B8000069000200590049003900290069801286A
:103B9000019155D1FFE743F60800C4F20200006826
:103BA00000F4000003900398002800900BD0FFE77A
:103BB0000098B0F5000F3FD1FFE748F20000C0F2D7
:103BC000BB0005903BE043F60400C4F2020000682D
:103BD000400200280FD5FFE743F60400C4F20200BC
:103BE000006800F03F0047F64001C0F27D11B1FBD4
:103BF000F0F004900EE043F60400C4F20200006806
:103C000000F03F0042F20041C0F2F401B1FBF0F0DD
:103C10000490FFE7049843F68401C4F202010A68A5
:103C2000C2F388125043029002980968C1F30271EE
:103C3000B0FBF1F0059002E000200590FFE700E006
:103C4000FFE7059807B0704780B58AB00146089035
:103C500000200790069008980068C007002804918B
:103C600006D1FFE7089800684007002852D5FFE713
:103C70006820C4F2472000210160FDF7A3FD0790F2
:103C8000FFE743F60000C4F20200006800F00060A5
:103C90000021B1EBD06F0ED0FFE7FDF793FDDDF80B
:103CA0001CE0A0EB0E00032804D3FFE703208DF8EF
:103CB0002700F0E0E5E7089841688068890141EA5B
:103CC000007043F68401C4F2020108606820C4F267
:103CD000472001210160FDF775FD0790FFE743F6DE
:103CE0000000C4F20200006800F000600021B1EBA7
:103CF000D06F0ED1FFE7FDF765FDDDF81CE0A0EB0E
:103D00000E00032804D3FFE703208DF82700C2E04C
:103D1000E5E7FFE7089800688007002840F1B780D2
:103D2000FFE7FFE70020059043F64000C4F20200E1
:103D3000016841F080510160006800F080500590FA
:103D400005980390FFE747F20000C4F20000016805
:103D500041F480710160FDF735FD0790FFE747F200
:103D60000000C4F200000068C00500280ED4FFE780
:103D7000FDF728FDDDF81CE0A0EB0E00032804D3BE
:103D8000FFE703208DF8270085E0E8E743F67000A1
:103D9000C4F20200006800F4407006900698002803
:103DA00041D0FFE706980899C96801F4407188423C
:103DB00039D0FFE743F67000C4F20200016821F435
:103DC0004071069140F64061C4F2472101220A6029
:103DD00000220A60069901600068C007002821D00F
:103DE000FFE7FDF7EFFC0790FFE743F67000C4F232
:103DF0000200006800F002000021B1EB500F10D16A
:103E0000FFE7FDF7DFFCDDF81CE0A0EB0E0041F260
:103E1000893E704504D3FFE703208DF827003AE080
:103E2000E3E7FFE7FFE7FFE70898C06800F44070AA
:103E3000B0F5407F13D1FFE743F60800C4F202005B
:103E4000016821F4F811089AD2684FF6FF43C0F6D2
:103E5000FF731A4011430A46016002920AE043F6DA
:103E60000800C4F20200016821F4F8110A4601605A
:103E70000192FFE70898C0686FF31F3043F67001A6
:103E8000C4F202010A6810430860FFE7FFE7002060
:103E90008DF82700FFE79DF827000AB080BD0000DD
:103EA00080B588B00A46034606900591069800281A
:103EB0000392029304D1FFE701208DF81F0028E14F
:103EC000059843F60041C4F20201096801F00701B8
:103ED000884212D9FFE7059843F60041C4F2020177
:103EE0000870086800F007000599884204D0FFE7D1
:103EF00001208DF81F000CE1FFE70698006880079D
:103F000000282AD5FFE7069800684007002809D551
:103F1000FFE743F60800C4F20200016841F4E051F3
:103F20000160FFE7069800680007002809D5FFE751
:103F300043F60800C4F20200016841F460410160E8
:103F4000FFE743F60800C4F20200016821F0F00127
:103F5000069A926811430160FFE706980068C0075F
:103F6000002870D0FFE706984068012811D1FFE7CC
:103F700043F60000C4F20200006800F400300021A3
:103F8000B1EB504F04D1FFE701208DF81F00C0E0D6
:103F90002CE006984068022805D0FFE706984068A4
:103FA000032811D1FFE743F60000C4F202000068C5
:103FB00000F000700021B1EB506F04D1FFE7012049
:103FC0008DF81F00A5E010E043F60000C4F20200E7
:103FD000006800F002000021B1EB500F04D1FFE7B0
:103FE00001208DF81F0094E0FFE7FFE743F608008B
:103FF000C4F20200016821F00301069A52681143DD
:104000000160FDF7DFFB0490FFE743F60800C4F210
:104010000200006800F00C0006994968B0EB810FBF
:1040200010D0FFE7FDF7CEFBDDF810E0A0EB0E00AF
:1040300041F2893E704504D3FFE703208DF81F004D
:1040400067E0E2E7FFE7059843F60041C4F20201AA
:10405000096801F00701884212D2FFE7059843F68C
:104060000041C4F202010870086800F007000599D9
:10407000884204D0FFE701208DF81F0049E0FFE7E8
:1040800006980068400700280CD5FFE743F60800B3
:10409000C4F20200016821F4E051069AD26811438B
:1040A0000160FFE706980068000700280DD5FFE7CC
:1040B00043F60800C4F20200016821F46041069A48
:1040C000126941EAC2010160FFE700F08BF843F694
:1040D000080EC4F2020EDEF800E05FFA8EFE4FEA30
:1040E0001E1E4CF2A401C0F6000111F80E10C840CB
:1040F00040F22001C2F20001086040F22810C2F232
:1041000000000068FEF7BEF900218DF81F10019035
:10411000FFE79DF81F0008B080BD000084B00A468C
:1041200003460390029103980F21016043F60800B3
:10413000C4F20200016801F00301DDF80CC0CCF804
:104140000410016801F0F001DDF80CC0CCF8081093
:10415000016801F4E051DDF80CC0CCF80C100068E7
:1041600000F46040C0080399086143F60040C4F2BF
:104170000200006800F007000299086001920093B5
:1041800004B0704740F22000C2F20000006870479F
:1041900080B5FFF7F7FF43F6080EC4F2020EDEF813
:1041A00000E0CEF3822E4CF2B401C0F6000111F80B
:1041B0000E10C84080BD000080B5FFF7E3FF43F656
:1041C000080EC4F2020EDEF800E01FFA8EFE4FEA7F
:1041D0005E3E4CF2B401C0F6000111F80E10C8406A
:1041E00080BD000080B586B000200590049003904B
:1041F000029043F60800C4F20200006800F00C00D0
:1042000001460028019108D0FFE7019804280AD050
:10421000FFE7019808280CD04FE042F20040C0F2BE
:10422000F40002904FE047F64000C0F27D1002908B
:1042300049E043F60400C4F20200016801F03F01C6
:10424000059100684002002813D5FFE743F60400FB
:10425000C4F202000068C0F3881047F64001C0F2C3
:104260007D11A0FB0101059A0023FBF7A9FF049033
:1042700012E043F60400C4F202000068C0F38810A4
:1042800042F20041C0F2F401A0FB0101059A0023B3
:10429000FBF796FF0490FFE743F60400C4F2020028
:1042A000006800F44030022101EBD0300390049804
:1042B0000399B0FBF1F0029005E042F20040C0F239
:1042C000F4000290FFE7029806B080BD80B588B088
:1042D0000146069006980028019104D1FFE70120CD
:1042E0008DF81F006EE306980068C007002800F0F4
:1042F000AB80FFE743F60800C4F20200006800F05C
:104300000C00042813D0FFE743F60800C4F20200B3
:10431000006800F00C0008281FD1FFE743F60400F6
:10432000C4F2020000684002002816D5FFE743F6F9
:104330000000C4F20200006800F400300021B1EB7C
:10434000504F09D0FFE706984068002804D1FFE7E6
:1043500001208DF81F0035E375E0FFE706984068FF
:10436000B0F5803F09D1FFE743F60000C4F2020038
:10437000016841F48031016020E006984068B0F5A2
:10438000A02F0DD1FFE743F60000C4F20200016840
:1043900041F480210160016841F4803101600CE04A
:1043A00043F60000C4F20200016821F4803101608C
:1043B000016821F480210160FFE7FFE7FFE706982D
:1043C000406800281FD0FFE7FDF7FCF90590FFE7E4
:1043D00043F60000C4F20200006800F4003000213F
:1043E000B1EB504F0ED1FFE7FDF7ECF9DDF814E02B
:1043F000A0EB0E00652804D3FFE703208DF81F0013
:10440000E0E2E5E71EE0FDF7DDF90590FFE743F6A2
:104410000000C4F20200006800F400300021B1EB9B
:10442000504F0ED0FFE7FDF7CDF9DDF814E0A0EB1B
:104430000E00652804D3FFE703208DF81F00C1E2BA
:10444000E5E7FFE7FFE7FFE7069800688007002839
:1044500040F19B80FFE743F60800C4F202000068C9
:1044600010F00C0F13D0FFE743F60800C4F202006F
:10447000006800F00C0008282CD1FFE743F6040088
:10448000C4F2020000684002002823D4FFE743F68C
:104490000000C4F20200006800F002000021B1EB4D
:1044A000500F09D0FFE70698C068012804D0FFE745
:1044B00001208DF81F0085E243F60000C4F20200DF
:1044C000016821F0F801069A126941EAC20101600F
:1044D000FFE759E00698C068002830D0FFE70020C9
:1044E000C4F2472001210160FDF76CF90590FFE758
:1044F00043F60000C4F20200006800F00200002150
:10450000B1EB500F0ED1FFE7FDF75CF9DDF814E0D9
:10451000A0EB0E00032804D3FFE703208DF81F0053
:1045200050E2E5E743F60000C4F20200016821F022
:10453000F801069A126941EAC201016023E00020F5
:10454000C4F2472000210160FDF73CF90590FFE728
:1045500043F60000C4F20200006800F002000021EF
:10456000B1EB500F0ED0FFE7FDF72CF9DDF814E0AA
:10457000A0EB0E00032804D3FFE703208DF81F00F3
:1045800020E2E5E7FFE7FFE7FFE70698006800079E
:10459000002850D5FFE706984069002825D0FFE79E
:1045A00040F68060C4F2472001210160FDF70AF95E
:1045B0000590FFE743F67400C4F20200006800F0C3
:1045C00002000021B1EB500F0ED1FFE7FDF7FAF822
:1045D000DDF814E0A0EB0E00032804D3FFE703206E
:1045E0008DF81F00EEE1E5E724E040F68060C4F2BC
:1045F000472000210160FDF7E5F80590FFE743F64D
:104600007400C4F20200006800F002000021B1EB67
:10461000500F0ED0FFE7FDF7D5F8DDF814E0A0EB62
:104620000E00032804D3FFE703208DF81F00C9E123
:10463000E5E7FFE7FFE7069800684007002840F13C
:10464000D680FFE700208DF80F0043F64000C4F24B
:1046500002000068C000002816D4FFE7FFE7002032
:10466000029043F64000C4F20200016841F080511C
:104670000160006800F08050029002980090FFE70F
:1046800001208DF80F00FFE747F20000C4F20000A0
:104690000068C005002824D4FFE747F20000C4F2F8
:1046A0000000016841F480710160FDF78BF805900E
:1046B000FFE747F20000C4F200000068C0050028D0
:1046C0000ED4FFE7FDF77EF8DDF814E0A0EB0E0056
:1046D000032804D3FFE703208DF81F0072E1E8E709
:1046E000FFE7FFE706988068012809D1FFE743F656
:1046F0007000C4F20200016841F0010101601FE096
:104700000698806805280DD1FFE743F67000C4F2D3
:104710000200016841F004010160016841F00101FB
:1047200001600CE043F67000C4F20200016821F061
:1047300001010160016821F004010160FFE7FFE76A
:10474000FFE706988068002821D0FFE7FDF73AF8D8
:104750000590FFE743F67000C4F20200006800F025
:1047600002000021B1EB500F10D1FFE7FDF72AF84E
:10477000DDF814E0A0EB0E0041F2893E704504D351
:10478000FFE703208DF81F001CE1E3E720E0FDF7C1
:1047900019F80590FFE743F67000C4F202000068C4
:1047A00000F002000021B1EB500F10D0FFE7FDF741
:1047B00009F8DDF814E0A0EB0E0041F2893E7045E7
:1047C00004D3FFE703208DF81F00FBE0E3E7FFE7DA
:1047D0009DF80F00012809D1FFE743F64000C4F21D
:1047E0000200016821F080510160FFE7FFE70698B1
:1047F0008069002800F0E280FFE743F60800C4F279
:104800000200006800F00C00082800F08B80FFE731
:1048100006988069022860D1FFE76020C4F2472033
:1048200000210160FCF7CEFF0590FFE743F6000092
:10483000C4F20200006800F000700021B1EB506F7C
:104840000ED0FFE7FCF7BEFFDDF814E0A0EB0E0092
:10485000032804D3FFE703208DF81F00B2E0E5E74B
:104860000698C169026A436AD0F828C0114341EA38
:1048700083114FEACC324FF6FF739A43A2F5803290
:104880001143C06A41EA006043F60401C4F2020128
:1048900008606020C4F2472001210160FCF792FF0C
:1048A0000590FFE743F60000C4F20200006800F044
:1048B00000700021B1EB506F0ED1FFE7FCF782FFD3
:1048C000DDF814E0A0EB0E00032804D3FFE703207B
:1048D0008DF81F0076E0E5E723E06020C4F2472072
:1048E00000210160FCF76EFF0590FFE743F6000032
:1048F000C4F20200006800F000700021B1EB506FBC
:104900000ED0FFE7FCF75EFFDDF814E0A0EB0E0031
:10491000032804D3FFE703208DF81F0052E0E5E7EA
:10492000FFE74AE006988069012804D1FFE70120EB
:104930008DF81F0046E043F60400C4F20200006850
:10494000049006988069012831D0FFE7049800F4AC
:1049500080000699C969884229D1FFE7049800F0D0
:104960003F000699096A884221D1FFE7049847F67B
:10497000C07108400699496AB0EB811F17D1FFE763
:10498000049800F440300699896AC9034FF6FF7213
:104990009143A1F58031884209D1FFE7049800F0E6
:1049A00070600699C96AB0EB016F04D0FFE701207F
:1049B0008DF81F0006E0FFE7FFE7FFE700208DF816
:1049C0001F00FFE79DF81F0008B080BD80B584B0D0
:1049D0000146029002980028019104D1FFE70120CE
:1049E0008DF80F0072E00298406A00280CD1FFE7B2
:1049F00002984068B0F5827F01D1FFE703E002989A
:104A00000021C161FFE705E00298002101610298E1
:104A10004161FFE7029800218162029890F85100FD
:104A2000002808D1FFE70298002180F85010029872
:104A300000F050F8FFE70298022180F85110029828
:104A40000068016821F04001016002980168426835
:104A50008368D0F80CC002F4827203F404431A4451
:104A60000CF400631A44036903F002031A44436917
:104A700003F001031A44836903F400731A44C36901
:104A800003F038031A44036A03F080031A43806A70
:104A900000F40050104308600298418B01F00401BB
:104AA0000268406A00F010000844506002980068F4
:104AB000C16921F40061C161029800214165029839
:104AC000012280F851208DF80F10FFE79DF80F00AC
:104AD00004B080BD80B592B00146119000201090C6
:104AE0000F900E900D900C901198006843F60042C4
:104AF000C4F200029042089163D1FFE7FFE7002073
:104B00000B9043F64000C4F20200016841F40041FA
:104B10000160006800F400400B900B980790FFE7DD
:104B2000FFE700200A9043F63000C4F2020001685B
:104B300041F004010160006800F004000A900A9846
:104B40000690FFE7FFE70020099043F63000C4F22B
:104B50000200016841F002010160006800F00200FB
:104B6000099009980590FFE74FF4C0500C9002207F
:104B70000D9000210E9103220F920623109340F610
:104B8000000CC4F2020C0DF1300E0490604603914B
:104B9000714602920193CDF800E0FCF70BFC08206F
:104BA0000C9004980D9003990E91029A0F92019B1C
:104BB000109340F20040C4F202000099FCF7FAFBA7
:104BC000FFE712B080BD000082B001460190009165
:104BD00002B0704782B001460190009102B0704768
:104BE00087B00A4603460590049101920093FFE7BF
:104BF000059890F83C00012804D1FFE702208DF8C9
:104C00001B007EE00598012180F83C10FFE7FFE7DC
:104C10000598022180F83D100598006840680390CF
:104C20000598006880680290039820F07000039057
:104C3000049800680399084303900398059909684C
:104C40004860059800680021C4F2010188423CD008
:104C5000FFE705980068B0F1804F36D0FFE7059870
:104C6000006840F20041C4F2000188422DD0FFE705
:104C70000598006840F60001C4F20001884224D083
:104C8000FFE70598006840F60041C4F20001884241
:104C90001BD0FFE70598006840F20041C4F2010113
:104CA000884212D0FFE70598006844F20001C4F280
:104CB0000101884209D0FFE70598006841F600012C
:104CC000C4F2000188420ED1FFE7029820F0800074
:104CD000029004984068029908430290029805994E
:104CE00009688860FFE70598012180F83D10FFE71B
:104CF0000598002180F83C10FFE700208DF81B008C
:104D0000FFE79DF81B0007B07047000080B584B036
:104D10000146029002980028019104D1FFE701208A
:104D20008DF80F0043E0029890F83D00002808D16C
:104D3000FFE70298002180F83C10029800F03CF850
:104D4000FFE70298022180F83D10029850F8041BFA
:104D500000900846009902F003F90298012180F8BA
:104D60004610FFE70298012180F83E10029880F873
:104D70003F10029880F84010029880F84110FFE739
:104D8000FFE70298012180F84210029880F8431052
:104D9000029880F84410029880F84510FFE70298C6
:104DA000012180F83D1000208DF80F00FFE79DF8ED
:104DB0000F0004B080BD000080B586B001460590AC
:104DC00005980068B0F1804F03911DD1FFE7FFE720
:104DD0000020049043F64000C4F20200016841F054
:104DE00001010160006800F0010004900498029045
:104DF000FFE71C20002101900091009AFDF7F4FBD1
:104E00000198FDF7E5FBFFE706B080BD84B00146E1
:104E10000290029890F83D000128009104D0FFE72D
:104E200001208DF80F006AE00298022180F83D1001
:104E300002980068C16841F00101C16002980068F1
:104E40000021C4F2010188423CD0FFE702980068CB
:104E5000B0F1804F36D0FFE70298006840F2004181
:104E6000C4F2000188422DD0FFE70298006840F6A6
:104E70000001C4F20001884224D0FFE702980068D4
:104E800040F60041C4F2000188421BD0FFE70298BF
:104E9000006840F20041C4F20101884212D0FFE7ED
:104EA0000298006844F20001C4F20101884209D06E
:104EB000FFE70298006841F60001C4F20001884251
:104EC00012D1FFE702980068806800F007000190A7
:104ED0000198062807D0FFE702980068016841F0B2
:104EE00001010160FFE706E002980068016841F0F7
:104EF00001010160FFE700208DF80F00FFE79DF83A
:104F00000F0004B07047000080B58EB00A4603461B
:104F10000C900B9100208DF82B0008920793FFE76F
:104F20000C9890F83C00012804D1FFE702208DF88E
:104F30003700BBE00C98012180F83C10FFE7FFE749
:104F40000C98022180F83D100C9800688068099048
:104F5000099820F077000990099820F47F40099083
:104F600009980C99096888600B98006800280690D9
:104F700000F08280FFE7069810287DD0FFE70698B2
:104F8000202879D0FFE70698302875D0FFE70698EB
:104F9000402861D0FFE7069850283DD0FFE70698EB
:104FA000602849D0FFE7069870280BD0FFE70698E5
:104FB000B0F5805F05D0FFE70698B0F5005F19D027
:104FC00061E064E00C9800680B994A688B68C968D6
:104FD00005911946059B02F0C7F80C980068806897
:104FE0000990099840F07700099009980C99096890
:104FF00088604CE00C9800680B994A688B68C96817
:1050000004911946049B02F0AFF80C98006881687F
:1050100041F4804181603AE00C9800680B994A683D
:10502000C96803911146039A02F0AAFA0C98006825
:10503000502102F0BFF82AE00C9800680B994A68EA
:10504000C96802911146029A02F0CCFA0C980068E5
:10505000602102F0AFF81AE00C9800680B994A68DA
:10506000C96801911146019A02F08AFA0C98006809
:10507000402102F09FF80AE00C9800680B9909683B
:1050800002F098F803E001208DF82B00FFE70C9860
:10509000012180F83D10FFE70C98002180F83C10BA
:1050A000FFE79DF82B008DF83700FFE79DF83700EC
:1050B0000EB080BD82B001460190009102B07047F1
:1050C00080B584B00146039003980068C0680290E0
:1050D00003980068006901900198800700280091FA
:1050E00024D5FFE70298800700281ED5FFE7039824
:1050F00000686FF0020101610398012101770398B4
:10510000006880698007002804D0FFE70398FFF754
:10511000D1FF06E0039800F00DF9039800F01CFAA7
:10512000FFE7039800210177FFE7FFE701984007B9
:10513000002824D5FFE70298400700281ED5FFE786
:10514000039800686FF00401016103980221017760
:1051500003980068806910F4407F04D0FFE703984B
:10516000FFF7A8FF06E0039800F0E4F8039800F0CA
:10517000F3F9FFE7039800210177FFE7FFE70198C4
:105180000007002824D5FFE70298000700281ED555
:10519000FFE7039800686FF008010161039804219C
:1051A000017703980068C0698007002804D0FFE7F2
:1051B0000398FFF77FFF06E0039800F0BBF8039821
:1051C00000F0CAF9FFE7039800210177FFE7FFE746
:1051D0000198C006002824D5FFE70298C0060028E1
:1051E0001ED5FFE7039800686FF010010161039876
:1051F0000821017703980068C06910F4407F04D04B
:10520000FFE70398FFF756FF06E0039800F092F8D7
:10521000039800F0A1F9FFE7039800210177FFE769
:10522000FFE70198C00700280FD0FFE70298C007EA
:10523000002809D0FFE7039800686FF001010161C1
:10524000039800F07DFAFFE7FFE7019800060028C9
:105250000FD5FFE702980006002809D5FFE703985D
:1052600000686FF0800101610398FFF7ADFCFFE774
:10527000FFE70198400600280FD5FFE70298400697
:10528000002809D5FFE7039800686FF0400101612D
:10529000039800F067FAFFE7FFE70198800600280F
:1052A0000FD5FFE702988006002809D5FFE703988D
:1052B00000686FF0200101610398FFF78BFCFFE7A6
:1052C000FFE704B080BD000080B58AB001460990B8
:1052D00000200890079006900590049009980068B7
:1052E000B0F1804F029122D1FFE7FFE70020039049
:1052F00043F63000C4F20200016841F00101016090
:10530000006800F00100039003980190FFE720205F
:10531000049002200590002006900790012008903C
:105320000020C4F2020004A9FCF744F8FFE70AB029
:1053300080BD000082B001460190009102B070472C
:1053400080B58AB013468C4686460890079106922F
:1053500000208DF817000493CDF80CC0CDF808E0BC
:10536000FFE7089890F83C00012804D1FFE70220ED
:105370008DF827008FE00898012180F83C10FFE7A6
:10538000FFE706980C28019000F276800199DFE88B
:1053900001F007737373227373733D737373580053
:1053A00008980068079901F01FFF08980068816954
:1053B00041F00801816108980068816921F00401C9
:1053C00081610798006908990968D1F818E040EAF6
:1053D0000E00886154E008980068079901F07EFF8C
:1053E00008980068816941F400618161089800684B
:1053F000816921F4806181610798006908990968D1
:10540000D1F818E04EEA0020886139E00898006879
:10541000079901F0E1FF08980068C16941F00801AF
:10542000C16108980068C16921F00401C161079851
:10543000006908990968D1F81CE040EA0E00C861CB
:105440001EE008980068079902F044F80898006880
:10545000C16941F40061C16108980068C16921F423
:105460008061C1610798006908990968D1F81CE05A
:105470004EEA0020C86103E001208DF81700FFE725
:10548000FFE70898002180F83C10FFE79DF817001F
:105490008DF82700FFE79DF827000AB080BD0000C7
:1054A00080B584B00146029002980028019104D191
:1054B000FFE701208DF80F0043E0029890F83D00CF
:1054C000002808D1FFE70298002180F83C100298DC
:1054D00000F03CF8FFE70298022180F83D100298A6
:1054E00050F8041B00900846009901F039FD02981D
:1054F000012180F84610FFE70298012180F83E1054
:10550000029880F83F10029880F84010029880F8C6
:105510004110FFE7FFE70298012180F8421002984E
:1055200080F84310029880F84410029880F84510E3
:10553000FFE70298012180F83D1000208DF80F0050
:10554000FFE79DF80F0004B080BD000082B0014667
:105550000190009102B0704782B001460190009125
:1055600002B0704780B58EB00A4603460C900B918E
:105570000B9800280992089305D1FFE70C9890F842
:105580003E0007901CE00B98042805D1FFE70C981B
:1055900090F83F00069010E00B98082805D1FFE72F
:1055A0000C9890F84000059004E00C9890F84100A9
:1055B0000590FFE705980690FFE706980790FFE73C
:1055C0000798012804D0FFE701208DF83700B2E0EA
:1055D0000B98002805D1FFE70C98022180F83E10B7
:1055E0001FE00B98042806D1FFE70C98022180F8F1
:1055F0003F10049112E00B98082806D1FFE70C98A1
:10560000022180F84010039105E00C98022180F8F7
:1056100041100391FFE703980490FFE7049802907C
:10562000FFE70C9800680B990122019201F076FDCA
:105630000C98006801990022C4F201029042009186
:105640000CD0FFE70C9800684FF60041CBF6FE71D6
:105650000844B0FA80F040090090FFE70098C007C6
:10566000002807D0FFE70C980068416C41F4004126
:105670004164FFE70C9800680021C4F201018842F0
:105680003CD0FFE70C980068B0F1804F36D0FFE7C0
:105690000C98006840F20041C4F2000188422DD00D
:1056A000FFE70C98006840F60001C4F20001884250
:1056B00024D0FFE70C98006840F60041C4F20001D6
:1056C00088421BD0FFE70C98006840F20041C4F20A
:1056D0000101884212D0FFE70C98006844F20001F3
:1056E000C4F20101884209D0FFE70C98006841F636
:1056F0000001C4F20001884212D1FFE70C98006853
:10570000806800F007000A900A98062807D0FFE793
:105710000C980068016841F001010160FFE706E0B4
:105720000C980068016841F001010160FFE700206A
:105730008DF83700FFE79DF837000EB080BD000000
:1057400080B582B001460190019800680022C4F241
:1057500001029042009103D1FFE7FCF767FEFFE7EB
:1057600002B080BD82B001460190009102B0704746
:1057700084B00A4603460390ADF80A1001920093E4
:1057800004B0704782B001460190009102B07047AA
:1057900080B598B001461790179800680068169079
:1057A00017980068C06815901798006840691490B1
:1057B000002013901290169800F00F001390139889
:1057C0000028069112D1FFE79DF8580080060028B6
:1057D0000BD5FFE79DF854008006002805D5FFE7AC
:1057E000179801F0A5FF0590F9E1FFE7139800284D
:1057F00000F0CD80FFE79DF85000C007002807D1DA
:10580000FFE7BDF8540010F4907F00F0C080FFE780
:105810009DF85800C00700280CD0FFE79DF8550000
:10582000C007002806D0FFE71798416C41F001013E
:105830004164FFE79DF85800400700280CD5FFE7BA
:105840009DF85000C007002806D0FFE71798416C6C
:1058500041F002014164FFE79DF8580080070028ED
:105860000CD5FFE79DF85000C007002806D0FFE7E1
:105870001798416C41F004014164FFE79DF858001E
:105880000007002812D5FFE79DF854008006002885
:1058900006D4FFE79DF85000C007002806D0FFE7B8
:1058A0001798416C41F008014164FFE71798406C7C
:1058B00000286BD0FFE79DF85800800600280BD524
:1058C000FFE79DF854008006002805D5FFE71798EC
:1058D00001F02EFF0490FFE7179800684069C0F3BD
:1058E000801012901798406C0007002804D4FFE73E
:1058F0001298002840D0FFE7179801F0B7FE1798DC
:10590000006840694006002831D5FFE7FFE7FFE760
:105910001798006850E8050F20F040001190FFE74D
:1059200011981799096841E80502002AF0D1FFE7AC
:10593000FFE71798C06B002814D0FFE71798C06BDB
:1059400047F24961C0F6000101651798C06BFBF78B
:1059500009FA002805D0FFE71798C06B016D88474A
:10596000FFE703E01798FFF70DFFFFE703E0179845
:10597000FFF708FFFFE708E01798FFF703FF179806
:105980004FF0000EC0F844E0FFE7FFE727E117986B
:10599000006B012840F00181FFE79DF85800C00628
:1059A000002840F1FA80FFE79DF85400C006002867
:1059B00040F1F380FFE7FFE70020109017980068A0
:1059C0000068109017980068406810901098039035
:1059D000FFE71798006840694006002840F183807F
:1059E000FFE71798C06B00684068ADF83E00BDF84F
:1059F0003E00002876D0FFE7BDF83E001799898D5C
:105A000088426FDAFFE7BDF83E001799C8851798FE
:105A1000C06BC069B0F5807F59D0FFE7FFE7FFE7B3
:105A20001798006850E8030F20F480700E90FFE78D
:105A30000E981799096841E80302002AF0D1FFE7A0
:105A4000FFE7FFE7FFE71798006850E8050F20F031
:105A500001000D90FFE70D981799096841E80502CC
:105A6000002AF0D1FFE7FFE7FFE7FFE7179800689C
:105A700050E8050F20F040000C90FFE70C981799B4
:105A8000096841E80502002AF0D1FFE7FFE717980F
:105A9000202180F84210179800210163FFE7FFE7FB
:105AA0001798006850E8030F20F010000B90FFE7F4
:105AB0000B981799096841E80302002AF0D1FFE723
:105AC000FFE71798C06BFBF7CFF80290FFE7179836
:105AD000022141631798818DC28D891A89B2FFF71F
