:020000040800F2
:10000000402F00209D010008013500080130000844
:10001000F13400081B030008A35200080000000090
:100020000000000000000000000000002135000872
:100030000F040008000000001135000823350008F7
:10004000B7010008B7010008B7010008B7010008B0
:10005000B7010008B7010008B7010008B7010008A0
:10006000B7010008B7010008B7010008B701000890
:10007000B7010008B70100088D030008B7010008A8
:10008000B7010008B7010008B7010008B701000870
:10009000B7010008B7010008B7010008B701000860
:1000A000B7010008D5350008B7010008B7010008FE
:1000B000E1350008B7010008B7010008B7010008E2
:1000C000B7010008B7010008B7010008B701000830
:1000D000153500088D3A0008B7010008B70100087F
:1000E000B7010008B7010008B7010008B701000810
:1000F000B7010008B7010008B7010008B701000800
:10010000B7010008B7010008B7010008B7010008EF
:10011000B7010008B7010008B7010008B7010008DF
:10012000B7010008B701000899030008B7010008EB
:10013000B70100080000000000000000B70100083F
:10014000B7010008B7010008B7010008053500082D
:10015000B7010008B7010008A5030008B7010008AF
:10016000B7010008B7010008B7010008B70100088F
:10017000B7010008B70100080000000000000000FF
:10018000B7010008B7010008DFF80CD000F07AF8DA
:1001900000480047C9520008402F00200648804709
:1001A00006480047FEE7FEE7FEE7FEE7FEE7FEE75C
:1001B000FEE7FEE7FEE7FEE7C53500088901000817
:1001C0002DE9F05F0546002092469B46884606468C
:1001D000814640241BE0284641464746224600F01F
:1001E00041F853465A46C01A914110D31146184659
:1001F000224600F016F82D1A67EB01084F462246FA
:100200000120002100F00DF817EB00094E41201EDF
:10021000A4F10104DFDC484631462A464346BDE8E6
:10022000F09F202A04DB203A00FA02F100207047F8
:100230009140C2F1200320FA03F319439040704724
:10024000D2B201E000F8012B491EFBD27047002218
:10025000F6E710B513460A4604461946FFF7F0FFC5
:10026000204610BD202A04DB203A21FA02F00021AA
:10027000704721FA02F3D040C2F1200291400843B6
:1002800019467047064C074D06E0E06840F0010350
:1002900094E8070098471034AC42F6D3FFF778FF94
:1002A000345300085453000870B58C1810F8015BE3
:1002B00015F0070301D110F8013B2A1106D110F8FF
:1002C000012B03E010F8016B01F8016B5B1EF9D103
:1002D0002B0705D40023521E0DD401F8013BFAE789
:1002E00010F8013BCB1A921C03E013F8015B01F8F4
:1002F000015B521EF9D5A142D8D3002070BD002069
:100300007047002070470020704700207047002091
:1003100070470020704700207047FEE710B54FF08F
:10032000000C96460DE04468C368AEF1010EA3428E
:1003300024BF0368C3601C8821F8024B23F802CB5A
:10034000C360BEF1000FEED10169891A016110BDD1
:10035000036903EB020C0023B3EB9C2F18BF70471B
:1003600010B50BE0D0E901E4013A744524BF0468FC
:10037000846031F8023B24F8023B8460002AF1D10A
:10038000C0F810C0BDE8104070470000014800F000
:1003900093B800BF78170020014800F08DB800BF67
:1003A000D8170020014800F087B800BF3818002097
:1003B00001686FF00F0240F2FF3352FA81F2994365
:1003C00018235F2AB2FBF3F203A388BF04318165CF
:1003D0009A5CC265084670470006101600061016A3
:1003E00080B5D0F800C0DCF800E02EF4802ECCF808
:1003F00000E0CCF8043080684028084608BF10466A
:10040000CCF8080008BF0A46CCF80C2080BD704725
:1004100072B6FEE770B5866D044600F0B9FA05467F
:1004200094F83500022828D12068016821F01601CF
:100430000160416921F080014161216C09B9A16C21
:1004400019B1016821F008010160016821F0010182
:10045000016005E000F09CFA401B052811D82068D7
:100460000068C007F6D1E06D3F2101FA00F0B060EE
:10047000012084F83500002008E08020606501201C
:1004800004E020206065032084F83500002184F812
:10049000341070BD90F83510022909D1052180F87B
:1004A00035100068016821F00101016000207047EB
:1004B0008021416501207047F8B5044600200821DD
:1004C000009058480568D4E9166037688140394281
:1004D0000CD0226813685B0708D5136823F0040367
:1004E0001360B160616D41F00101616501218140DE
:1004F000394208D022685269120604D5B160616D94
:1005000041F00201616504218140394208D022682E
:100510001268920704D5B160616D41F00401616514
:1005200010218140394217D020680268120713D584
:10053000B16002680168520306D4C9055EBF016854
:1005400021F00801016001E0080301D4216C00E002
:10055000A16C09B120468847E16D202000FA01F224
:100560003A423BD020680368DB0637D5B26094F886
:1005700035300268052B19D122F01602026042695B
:1005800022F080024261226C0AB9A26C1AB10268A0
:1005900022F0080202603F208840B060002084F80A
:1005A0003400012084F83500216D37E001685203E2
:1005B0000CD4C9050ED4016821F01001016000209F
:1005C00084F83400012084F8350003E0080301D4E6
:1005D000616C00E0E16B09B120468847606D00B3B3
:1005E000606DC00719D005214FF4165084F83510FE
:1005F000B5FBF0F021680A6822F001020A60009A57
:1006000001328242009202D80A68D207F7D1002054
:1006100084F83400012084F83500E16C09B12046EB
:100620008847F8BD240000202DE9F041044600F081
:10063000AFF9002C4FD00546002084F8340002208A
:1006400084F835002168086820F00100086005E0A2
:1006500000F09EF9401B052840D821680868C007B3
:10066000F6D10868394AD4E9013504F10C0800EAEA
:10067000020C98E8C101D4E9072E43EA0C032B438E
:100680001843636A30433843042B40EA080040EAC9
:10069000020040EA0E0225D1D4E90BE042EA0E0244
:1006A000BEF1000F40EA0200086051F8140FA26A80
:1006B00020F0030040EA020040F0040C19D0B8F525
:1006C000005F28D0B8F1000F35D1022A36D0012AB8
:1006D0002BD09AB30DE00120BDE8F0810325202343
:1006E000032013E00A6051F8140F20F0070040EADD
:1006F000030C2046C1F800C0FFF75AFEE16D3F220F
:100700000023012502FA01F181600020636584F86D
:100710003550BDE8F081032AEBD8012540230120A4
:10072000DFE802F0020C0203F0E7AEF1C070B0FAAD
:1007300080F0400904E0032A04D3DAD1CEF300604C
:100740000028D6D0012540230120DFE73F8010F0AC
:10075000B0B5044690F83400012828D00120A56DDA
:1007600084F8340094F8350001281DD1022084F863
:100770003500002060652046FFF732FEE06D3F2126
:1007800001FA00F0A8602068016841F016010160DC
:10079000216C19B1016841F008010160016841F064
:1007A000010101600020B0BD002084F83400022067
:1007B000B0BD0000B0B5044600F0EAF805460548B3
:1007C000611C007818BF044400F0E2F8401BA0420E
:1007D000FAD3B0BD000000202DE9FC4F634A082782
:1007E0004FF0010B4FF000094FF0000A9042604AB1
:1007F00008BF072702444FEAB223072B38BF4FEA4E
:10080000B22700970027202F08BFBDE8FC8F0B6898
:100810000BFA0AF6334200F0A3804B6803F003089A
:10082000A8F10104012C18D80322856802FA07F404
:1008300025EA040CCD686FEA040EBD4045EA0C05BC
:100840008560C3F3001505FA0AFC4568B54345EA1F
:100850000C054FEA4A0C45600CE00325B8F1030F84
:10086000BC4605FA07F56FEA050E03D1BC464FF00A
:10087000030821E0C4688D68B8F1020F04EA0E0491
:1008800005FA0CF544EA0504C46015D109F01C030F
:100890000F2202FA03F86FF0030202EA5A05054438
:1008A0002C6A24EA08080C6904FA03F343EA0803F3
:1008B0002B624B6803F00308046808FA0CF513F484
:1008C000403F04EA0E0445EA0405056048D00022D2
:1008D00009F00C040192294A136843F48043136021
:1008E0001368244A03F48043944601932AF00303D7
:1008F0001344234A019D96469D580F22A24025EAA3
:100900000202009DA5402A4343F80E20DCF808208F
:100910004D6842EA0603EC0258BF22EA0603164A73
:10092000CCF80830AC029646126842EA060358BF7B
:1009300022EA0603CEF80030AC03DCF8042042EAD9
:10094000060358BF22EA0603CCF80430ED03DCF8B6
:10095000002042EA060358BF22EA0603CCF8003022
:1009600009F1040902370AF1010A4CE7001C0240B0
:100970000000FEBF003C01400C3C014044380240F6
:1009800008FCFFFF002A08BF0904816170470000CE
:1009900001480068704700BF381F0020B0B560B341
:1009A000044690F83D0028B9002084F83C00204619
:1009B00000F0B6F8242084F83D002068016821F09A
:1009C00001010160016841F400410160016821F406
:1009D0000041016001F0F2FB4C494D4B00224D4DAE
:1009E00088424FF0000138BF0121984238BF0122F0
:1009F0006368AB4238BF0A460AB10120B0BD464920
:100A0000B0FBF1F221684D6825F03F0515434D60BC
:100A10000D6A25F03F0C414DAB4213D8013201382D
:100A200042EA0C020A625A004CF6FF73B0FBF2F085
:100A300001306FF31F30042898BF0420CA6922EAEE
:100A4000030C3AE04FF49675A0F1010E6A434FF49F
:100A50007A75B2FBF5F24CF6FF75013242EA0C02F0
:100A60000A62CA6922EA050CA26842B1192004256B
:100A70005843BEFBF0F0013065F31F3006E003EB96
:100A80004300BEFBF0F001306FF31F30000509D0CA
:100A900052B1192004225843BEFBF0F0013062F33A
:100AA0001F3008E0012008E003EB4300BEFBF0F03C
:100AB00001306FF31F3040F4004040EA0C00C86181
:100AC0000868D4E9072320F0C000104348F2FF3241
:100AD0001843086088689043D4E9032318431043FF
:100AE0008860C868D4E9052320F0FF00104318434C
:100AF000C860086840F001000860002020212064E0
:100B000084F83D10206384F83E00B0BD80841E0050
:100B100000093D00A186010040420F00A0860100AF
:100B2000B0B586B0044601A81421FFF790FB2168F8
:100B30001448814224D10025134C00F5D83000958B
:100B4000216841F002012160216801F00201009159
:100B50000099042105910321CDE90351122102914D
:100B60004FF4C071019101A9FFF736FE009520698D
:100B700040F400102061206900F4001000900098FB
:100B800006B0B0BD005400403038024070B586B0A9
:100B900004460068E14D816805F58066B042059124
:100BA0004FF0402104BF43F20041C4F200018A68C3
:100BB0000492426803924A680292626842F40072A8
:100BC000B2F5007F4BD10599890744BF03995FEACD
:100BD000016100F18F800498C0071ED00298400682
:100BE0001BD52068B042284618BF4FF04020C1688E
:100BF000E26A931CE3621180618E01396186618E25
:100C000059B9416821F060014160608D28B9012027
:100C100084F84100204600F0DDF80498400644BF07
:100C200002985FEA806000F180800598000744BF69
:100C300003985FEA80605BD520684168B04221F08C
:100C4000A001416018BF4FF04025696821F06001A4
:100C50006960002101918068019001983EE004984C
:100C6000800744BF02985FEA00607ED40598C00701
:100C700019D00398400616D52068C168E26A931C13
:100C8000E3621180618E01396186618E59B94168D4
:100C900021F060014160608D28B9012084F8410095
:100CA000204600F097F80598400644BF03985FEA95
:100CB000806075D40498000744BF02985FEA8060A2
:100CC00016D52068B04218BF4FF04025696821F062
:100CD000A0016960416821F060014160012084F851
:100CE0004100606C40F004006064204600F073F83E
:100CF00006B070BD616A8A1C62620988C160618D3C
:100D000001396185618D00297FF465AF416821F06B
:100D1000A0014160608E00287FF45DAF012084F85F
:100D20004100204600F056F855E720682946B042B9
:100D300018BF4FF040214A6822F060024A604168C3
:100D400021F0A001416000210191C16801918068FA
:100D500001900198012084F84100606C40F002008D
:100D60006064204600F037F85FE7606A821C6262C8
:100D70000088C860608D01386085608D00287FF430
:100D800075AF486820F0A0004860608E00287FF4AE
:100D90006DAF012084F84100204600F01BF865E7A4
:100DA00020684168B04221F060014160284618BFC8
:100DB0004FF04020416821F0A0014160012084F8FB
:100DC0004100606C40F002006064204600F003F8CF
:100DD00070E700BF70477047416B0847B0B5002807
:100DE0004ED0044690F8410038B9002084F8400005
:100DF00048486063204600F093F8022140F6BF7334
:100E000084F841102068C2699A43C2610162616935
:100E1000022903D121690222002336E0D4E902012C
:100E2000002221284FF0200038BF0122002908BFEE
:100E3000102000FA02F5012001F056F82169B1F501
:100E4000007F04D1E268002A0CBFED00AD00B0FBCA
:100E5000F5F062696FF0010300EB80004000B0FB29
:100E6000F2F00A220530B0FBF2F202F00100121A91
:100E700003EB5203FD2B05D9606C40F01000606459
:100E80000120B0BD0302206852081A4340F6BF7E1D
:100E9000251D11430162C16921EA0E0326CDD4F854
:100EA00018C02A4342EA01052B4343EA0C0343F4EA
:100EB0000063C361236A012B25D1174B42EA0C0260
:100EC00041F400716363154B03F580654FF04023D7
:100ED000A84204BF43F20043C4F20003D869B1F54D
:100EE000007F20EA0E00D8614FF002001862D86936
:100EF00014BF4FF400614FF4106110434FF2FF72C2
:100F000010400843D86100200121606484F841103A
:100F1000B0BD00BF4F3000088D0B0008003400400A
:100F20002DE9F0438BB0044606A81421FFF78FF992
:100F300000203C4ECDE90400CDE902002068B0421B
:100F40006DD14FF002086420CDF81080039001208D
:100F5000029002A800F0EEFF08B1FFF759FA00274F
:100F600031484FF0050906AD0197016941F4804110
:100F70000161016901F480410191019901970168C2
:100F800041F004010160016801F00401019101993F
:100F90000197016841F0020101602946006800F0F4
:100FA000020001900198CDE90979CDE90787082071
:100FB000069006F5E830FFF70FFC4FF4A050CDE99E
:100FC0000979CDE907872946069006F5E630FFF74F
:100FD00003FC164D4FF40030154E4FF480414FF492
:100FE00080524FF48063C5E908074FF48070C5E96B
:100FF0000067C5E90277C5E90432C5E9061028464D
:10100000FFF712FB08B1FFF703FA242000210022AA
:10101000E563AC6300F01CF9242000F00BF90BB081
:10102000BDE8F083003800403038024078170020D7
:10103000586002401CB50446012001B3FAB194F88F
:10104000400001281AD0012084F8400094F84100A3
:10105000012810D104208C4684F841000020E16270
:1010600060642168C86900F00700052809D00328DA
:1010700008BF520006E0002084F84000022002B0C1
:1010800010BD5200228662861B4A1D4BE06BC26473
:101090001A4AC0E90F23CA6902F44072B2F5407FD0
:1010A00006D100220192CA6801928A680192019ACF
:1010B000238E0C316246FFF74BFB50B1606C002170
:1010C00040F008006064012084F8410084F840107A
:1010D000D5E72068C16949055EBFC16941F48061F7
:1010E000C1614168C90702BF416841F00101416027
:1010F000002084F84000C2E70330000827300008D1
:10110000493000080349884218BF7047042003F0A3
:101110001FBC00BFEC18002070477047034804490B
:1011200000780A6810440860704700BF0000002083
:10113000381F002080B50B48016841F40071016040
:10114000016841F480610160016841F480710160CF
:10115000032000F09BF80F2000F006F800F04EF896
:10116000002080BD003C024070B586B004460025DA
:101170001D480195016841F0010101606946006860
:1011800000F001000190019801A800F0F7FF01F0C4
:101190001FF8184E40001549154B40F2E732B0FBDE
:1011A000F6F08D610138C1E900300846C1E902520C
:1011B0000D6101F017FA054698B90C4801F05CFA88
:1011C000054670B9192000F035F80F2C08D8192001
:1011D00021460022002500F03BF80748046000E0AB
:1011E0000125284606B070BD44380240181E002074
:1011F0000000014040420F000400002082B00020A7
:101200000B4901904A6842F480424A604A6802F4FD
:1012100080420192019A0090086840F08050086076
:10122000086800F080500090009802B0704700BF3E
:1012300040380240002808DB00F01F01012240096D
:1012400002FA01F1014A42F82010704700E100E083
:1012500080B5144B1B68C3F3022CBCF1030E8CF059
:1012600007034FF0FF3C38BF4FF0000E042B28BFA0
:1012700004230CFA03F399430CFA0EF301FA0EF16E
:101280009A431143BDE8804004F00CB805494FF67D
:10129000FF030A681A4060F30A22034810430860FB
:1012A000704700BF0CED00E00000FA0570470068D1
:1012B000416200207047D0F800C00029DCF824000B
:1012C0001BD080B5DCF82830A1F1010E00EB1343F0
:1012D000002006E00CEB81010130D1F8041103EB92
:1012E0001143C1B28E45F5D80CEB8E0043EA0241A2
:1012F000C0F80411BDE8804003E040EA0240CCF8A9
:10130000280000207047D0F8E00402F093BE01EB03
:10131000C10200EB8202D0F8E004126A02F0F8BDCC
:1013200001EBC10200EB8202D0F8E004D2F86022A7
:1013300002F046BED0F8E00402F07EBE01F00F02DB
:10134000090602EBC20200EB820303F1140258BF4C
:1013500003F515720068114603F0EABD10B50446A6
:1013600001F00F00090609D400EBC001002204EBD4
:10137000810181F8552201F5157106E000EBC001ED
:10138000012204EB81014A751431087094F8940429
:10139000012804BF022010BD012084F894042068B5
:1013A00003F048FB002084F8940410BDB0B5044657
:1013B00001F00F002279904201D9012523E00906AE
:1013C00009D400EBC001002204EB810181F8552211
:1013D00001F5157106E000EBC001012204EB81016B
:1013E0004A751431002508708D7094F89404012812
:1013F00001D1022507E0012084F89404206803F05D
:101400007BFC84F894542846B0BD10B5044690F88F
:101410009404012804BF022010BD01200A0684F8AC
:101420009404206802D403F0CBFD03E001F00F0127
:1014300003F0E7FD002084F8940410BD01F00F01D3
:1014400001EBC10100EB8100D0F86802704710B5D4
:10145000044601F00F00090609D400EBC00104EBBB
:10146000810C00218CF855120CF5157108E000EB89
:10147000C00104EB810C01218CF815100CF1140152
:101480008A600B7108704A7802B14883022B04BF4E
:101490000020487194F89404012804BF022010BD74
:1014A000012084F89404206803F09AF9002084F85D
:1014B000940410BD80B501F00F0E0EEBCE0100EBD1
:1014C000810C0021CCE99823CCF868128CF85512D5
:1014D0008CF854E20CF515718379012B08BFCCF818
:1014E00070221A46006803F03BFC002080BDB0B5B6
:1014F0000446007901F00F05854284BF0120B0BD8C
:10150000080609D401EBC100002104EB800080F83B
:10151000551200F5157107E005EBC500012104EB3C
:101520008000417500F1140101200D70887094F85D
:101530009424012A04BF0220B0BD84F894042068DA
:1015400003F0F2FB2DB9A179206804F29C4203F06C
:10155000A7FB002084F89404B0BD80B501F00F0E05
:101560000EEBCE0100EB810C614601F814EF4FF059
:10157000000E01F10C07A7E80C4001234B708379A2
:10158000012B08BFCCF830201A46006803F0E8FBB6
:10159000002080BD2DE9F04F89B0056882462846BD
:1015A00003F05FFD10B109B0BDE8F08FDAF800007C
:1015B00003F083FD0028F6D0D5F80808C0F30D200D
:1015C000CAF8D404DAF8000003F077FD0146DAF82F
:1015D0000000890742BF416901F00201416105F540
:1015E0000061049103F069FD0146DAF800000595F9
:1015F000C9063FD5816921F0100181612C6AC4F3CD
:10160000434004F00F0506281CD002282BD147F6D2
:10161000F070044027D005EBC50022090AEB8005D5
:101620000598D5F8601203F04CFDD5F86002D5F8A6
:10163000681200EB1410C5F8600201EB1410C5F835
:10164000680210E005980AF29C41082203F039FD77
:1016500005EBC5000AEB8000D0F86812C4F30A124B
:101660001144C0F86812DAF80000816941F01001F5
:101670008161059D03F021FD000340F1DB80DAF874
:10168000000003F0F9FC06460AF29C400AF51D74BE
:101690004FF430684FF0000B0890002E00F0CA8025
:1016A000F00700F0A9805FFA8BF9DAF800004946EC
:1016B00003F0FBFC0746C0074CD005EB08000121F6
:1016C0008160DAF8000008EB0001036C8A689AF880
:1016D0000650012D14D115071ED4950637D4059D4B
:1016E00012F0280F36D1AC46E34DAB42C0F08B80F0
:1016F00012F4004200F087804FF40040654614E089
:10170000DD4DFF35AB4212D1059D10040BD4900680
:1017100044BF2020886015E0D748059D834219D337
:1017200012F4004016D04FF40040886012E0059D8E
:10173000B8F5306F06D1DAF8641219B90021089AA9
:1017400003F0AEFA50464946FFF7EAFD02E02020DA
:101750008860059D380723D505EB08000821C64B96
:101760008160DAF80010013B0A6C08EB0100816827
:101770009A4212D9090444BF4FF400418160504697
:1017800000F074FB9AF80600012809D1DAF800008D
:10179000089A012103F084FA02E0504600F066FB4B
:1017A000F80642BF05EB080010218160B80716D586
:1017B0006869000604D50499486840F48060486070
:1017C00014F81D0C012806D10020494604F81D0C10
:1017D000504600F074FA05EB080002218160B8065B
:1017E00042BF05EB080020218160B80442BF05EB31
:1017F00008004FF400518160243408F12008760875
:101800000BF1010B49E722680969B8F5306F6546AD
:101810006FF3DF41A2EB010144F80C1C92D1DAF81E
:1018200064222AB1DAF860020844CAF8600289E743
:10183000012184E7DAF8000003F03FFC049E400336
:1018400040F1CB80DAF8000003F00FFC07460AF203
:101850009C400023029005F510600690BAE0F8075E
:1018600000F0B680DAF80000D9B20793089103F0CF
:101870000AFC0446C00728D0079B0122716B03F0C5
:101880000F0002FA00F021EA00007063069800EBF6
:10189000431082609AF80600012812D103EBC300BE
:1018A000002B0AEB8000D0E907121144016208D135
:1018B000DAF8240028B9DAF80000029A012103F0CE
:1018C000EFF908995046FFF722FD079B200704D542
:1018D0000698082100EB43108160E00604D50698C5
:1018E000102100EB43108160600604D5069840216A
:1018F00000EB43108160A00718D52846194603F075
:1019000080FB079B03EBC3000AEB800010F8171F56
:10191000012906D1002101700899504600F0CBF949
:10192000079B0698022100EB4310816020064FD5EB
:1019300003EBC3000AEB800BD94659F8240FC846C5
:1019400058F8042F904243D35BF81C1FDAF800408C
:10195000851A039757468D4288BF0D4604EB431105
:101960000BF1040601F5106A17E0BD79DBF80030D1
:1019700031680095851A20469D4288BF1D46089A09
:10198000ABB203F079FC306828443060D8F800002E
:101990004219C8F80020D9F80000DAF81830E91C1C
:1019A0009BB2B3EB910F28BF9042DED8BA46059D9B
:1019B000DDE90376079B90420AD803F00F0001216E
:1019C00001FA00F0D4F8341821EA0000C4F8340811
:1019D0007F080133002F7FF442AFDAF8000003F0F4
:1019E0006CFB002802DBDAF8000018E0706820F0D9
:1019F000010070609AF8CC04012807D10020002172
:101A00008AF8CC045046FFF751FC02E0504600F043
:101A100012FADAF80000416901F00041416103F077
:101A20004CFB000502D4DAF800000BE0B068C007F8
:101A300002D0504600F040FADAF80000416901F4A3
:101A40000061416103F039FBC00402D4DAF8000000
:101A500058E0D5F80408102120F00100C5F804086A
:101A6000DAF8000003F0CDFA9AF8041005F51060DA
:101A70004FF67F3217E000BF0B30544F82600139C0
:101A8000036823F400130360C0F80822D0F8003282
:101A900023F40013C0F80032D0F8003243F00063A2
:101AA000C0F8003220300029E8D1F06940F0011080
:101AB000F0619AF80F0040B1D6F8840040F00B00B6
:101AC000C6F8840006F1440006E0706942F22B017A
:101AD0000843706106F1100001680AF29C4241F06F
:101AE0000B010160306820F4FE6030609AF8061047
:101AF000DAF8000003F0D4F8DAF80000416901F4E4
:101B00008051416103F0D9FA0146DAF800008904F6
:101B10001AD502F0ABFEDAF8000003F094FA8AF866
:101B20000700DAF8004000F045FB9AF8072001466C
:101B3000204603F029FB504600F06AF9DAF800006D
:101B4000416901F40051416103F0B7FA000702D482
:101B5000DAF8000008E0504600F071F9DAF8000009
:101B6000416901F00801416103F0A7FA000617D5A9
:101B70000598012440F27B250146806920F0800011
:101B8000886109E01AF80500012803D1E1B2504646
:101B9000FFF7D4FB243501349AF804008442F1D3D2
:101BA000DAF8000003F089FAC00202D4DAF8000083
:101BB00022E005980AF13B040126012700F5126591
:101BC00010E02868B0F1FF3F09DC6078012806D1F9
:101BD00047F080002670C1B25046FFF7AFFB2434B7
:101BE000203501379AF804008742EAD3DAF800007A
:101BF000416901F480114161059C03F05EFA8002A5
:101C000002D4DAF800002DE09AF804200AF51F70DB
:101C100004F53261012301271CE00E68B6F1FF3F95
:101C200015DC0578012D12D1DAF8D45406F480368B
:101C300005F00105AE420AD1059E00F8013C35468B
:101C4000B66946F08006AE616E6936062DD5243041
:101C5000203101379742E0D3DAF80000416901F4FE
:101C60000011416103F029FA400002D4DAF80000C3
:101C700008E05046FFF747FBDAF80000416901F041
:101C80008041416103F019FA40077FF58CACDAF826
:101C900000004468610704D55046FFF74BFBDAF8B3
:101CA00000004168214341607DE40499486840F4A4
:101CB00000704860D0E7D0F8E00402F01BBAD0F81A
:101CC000E00402F02CBABCB5002851D004460568E7
:101CD00090F8950428B9002084F89404204600F078
:101CE00055F80320B5F1A04F84F8950404BF0020F7
:101CF000A071206802F0CEFF94E80F00257C0095CB
:101D000002F030FE88BB20680021002503F0FAF9BC
:101D100058BB20794FF0010C002300EBC00081007C
:101D200000200AE0E2182433D085107582F815C02F
:101D3000C2E907555562157601309942F2D104F592
:101D400015710022002307E0C1E902220A610A712D
:101D50000B704A70243101339842F5D194E80F009A
:101D6000257C009502F0C8FE30B1022084F895046D
:101D70000125284602B0B0BD00250120657484F815
:101D80009504206802F0AAFEF3E70000B0B586B023
:101D9000044601A81421FEF75AFA2068B0F1A04FBA
:101DA0002FD10025184C01A90095206840F00100B2
:101DB0002060206800F00100009000980A20059043
:101DC0000320CDE90350022002904FF4C05001904F
:101DD0000E48FEF701FD60680021002240F08000FF
:101DE00060600095606940F480406061606900F463
:101DF0008040009000984320FFF72AFA4320FFF725
:101E000019FA06B0B0BD00BF3038024000000240F1
:101E100010B5C179044621B1022901D0FEF7F8FAC4
:101E20000121D4F8E00402F0EEF9D4F8E004BDE8B2
:101E3000104002F09EB9D0F8E00402F0CBB9D0F81F
:101E4000E00402F0D1B910B5044690F894040128DA
:101E500004BF022010BD0120617484F8940420683E
:101E600003F081F9002084F8940410BDD0F8E02438
:101E700000F29C41104602F0D2B910B5044690F829
:101E80009404012804BF022010BD2068012184F8B9
:101E90009414C168490606D5617B012902BF816B94
:101EA00041F48031816303F085F8206802F008FE78
:101EB000002084F8940410BD10B50446D0F8E00466
:101EC00002F0EFF92068D0F8001E41F00101C0F8DF
:101ED000001EE07A20B10348016841F0060101606C
:101EE00010BD00BF10ED00E001281CBF00207047AE
:101EF000D3484168090244BF0D4870470168490250
:101F0000D1495CBF42F20041C0F2F401026802F024
:101F10003F02B1FBF2F1D0F88020C2F38812D0F872
:101F200080005143C0F30270B1FBF0F0704700BF76
:101F30000080BB00F8B50446006810F0050F25D0FE
:101F40003F4F00208A4E3860FEF722FD054630687C
:101F5000000105D5FEF71CFD401B0228F7D934E02F
:101F6000D4E90101090741EA8010C6F88400012084
:101F70003860FEF70DFD05463068000105D4FEF718
:101F800007FD401B0228F7D91FE0206880074FF0AB
:101F900000001BD5764E00902A4F306C40F08050E8
:101FA0003064306C00F0805000900098386840F445
:101FB00080703860FEF7ECFC05463868C00507D431
:101FC000FEF7E6FC401B0228F7D9032001B0F0BD64
:101FD000306F10F440701FD0E16801F44071884206
:101FE0001AD0306F184901220A60002220F4407094
:101FF0000A603067306FC0070ED0FEF7C9FC054697
:1020000041F28837306F800706D4FEF7C1FC411BD0
:102010000320B942F6D9D9E7E068B2680B4900F469
:10202000407322F4F81201406FF31F30B3F5407F84
:1020300008BF0A43B260316F084330670020C5E72C
:102040006800474200700040400E4742FFFCFF0F0F
:102050002DE9F041002800F08780454B0446884672
:10206000D3F8000400F00700884207D283F8008408
:10207000D3F8000400F00700404575D120688107BF
:1020800011D5410742BF996841F4E05199600107B9
:1020900042BF996841F4604199609968A26821F053
:1020A000F00111439960C0072CD06068811E02299D
:1020B00003D21968890109D456E0012803D11968AF
:1020C000890303D450E0196889074DD599681D46E6
:1020D00021F0030108439860FEF75AFC064641F2DE
:1020E000883707E0FEF754FC801BB84284BF03200A
:1020F000BDE8F081A86861682B4600F00C00B0EBE9
:10210000810FEFD1D3F8000400F00700404507D954
:1021100083F80084D3F8000400F00700404523D181
:102120002068410705D59968E26821F4E051114320
:102130009960000706D59868216920F4604040EA5C
:10214000C10098601C4600F053F8A168094AC1F329
:102150000311515CC8402349086007480068FFF735
:1021600003F80020BDE8F0810120BDE8F08100BF48
:10217000003802401C530008040000200F220260B7
:10218000194A136803F003034360136803F0F00374
:102190008360136803F4E053C3604FF4E053D2F854
:1021A00000C003EADC030361D2F8F80300F0070083
:1021B000086070470B480068704700BF09480A492B
:1021C0000A4A00680968C1F38221515CC84070471F
:1021D00004480549054A00680968C1F34231515C69
:1021E000C840704724000020083802402C530008E3
:1021F00010B5134C606800F00C00082804D00428C7
:1022000014BF1048104810BD226820680023400207
:1022100002F03F020C485CBF42F20040C0F2F40002
:102220002168C1F38811A0FB0101FDF7C9FF2168F6
:102230000222C1F3014102EB4101B0FBF1F010BDFC
:10224000043802400024F40040787D012DE9FC416F
:10225000002800F03E8104460078BF4EC00743D0FE
:10226000B06800F00C00042805D1306880033BD52D
:102270006068C8BB2DE1B06800F00C00082802D1EE
:1022800070684002F1D46768B7F5803F06D03068C7
:10229000B7F5A02F12D140F480203060306840F4B0
:1022A00080303060FEF774FB0546306880031BD435
:1022B000FEF76EFB401B6428F7D9ABE020F48030BA
:1022C0003060306820F480203060FEF761FB054606
:1022D000002FEAD13068800306D5FEF759FB411B79
:1022E00003206429F6D9F5E0207880072BD5B06863
:1022F00010F00C0F07D0B06800F00C00082809D1CE
:102300007068400206D43068800715D5E06801285F
:1023100012D0DEE0E06800287ED090480121016004
:10232000FEF736FB05463068800705D4FEF730FB24
:10233000401B0228F7D96DE03068216920F0F800D1
:1023400040EAC10030602078000720D561698348E9
:1023500071B10121C0F8801EFEF71AFB0546706FAF
:10236000800714D4FEF714FB401B0228F7D951E074
:102370000021C0F8801EFEF70BFB0546706F80073A
:1023800005D5FEF705FB401B0228F7D942E020786F
:10239000400771D5306C4FF00008C0000CD4CDF868
:1023A00004804FF00108306C40F080503064306C95
:1023B00000F0805001900198694F3868C0050FD433
:1023C000386840F480703860FEF7E2FA05463868F5
:1023D000C00505D4FEF7DCFA401B0228F7D919E046
:1023E000A768012F05D0306F052F26D140F00400DB
:1023F0003067306F40F001003067FEF7C9FA0546DC
:1024000041F28837306F80072FD4FEF7C1FA401BA6
:10241000B842F7D903205DE0504800210160FEF783
:10242000B7FA0546306880077FF58DAFFEF7B0FA42
:10243000411B03200229F5D94CE020F00100306750
:10244000306F20F004003067FEF7A2FA0546002F37
:10245000D6D141F28837306F800706D5FEF798FA5B
:10246000411B0320B942F6D934E0B8F1000F1EBF7A
:10247000306C20F080503064A769002F6AD0B068BB
:1024800000F00C00082828D1012F22D07068E169E3
:1024900000F480028A421CD1216A00F03F028A4285
:1024A00017D147F6C071626A0140B1EB821F10D1AB
:1024B000A16A4FF6FF72C903914300F44032A1F5BF
:1024C00080318A4205D1E16A00F07060B0EB016FA3
:1024D00040D0012002B0BDE8F081204900208846AC
:1024E0000866FEF755FA0546022F09D130688001CB
:1024F00010D5FEF74DFA411B03200229F6D9E9E772
:102500003068800126D5FEF743FA411B03200229DB
:10251000F6D9DFE704F11C078FCF0843D90340EA5F
:1025200082104FF6FF72914340EA0760A1F58031B7
:10253000084370600120C8F86000FEF729FA0446DD
:102540003068800106D4FEF723FA011B032002291C
:10255000F6D9BFE70020BDE700380240000047423F
:10256000007000407047704790F83C300222012B09
:1025700035D010B580F83D20012280F83C2002685B
:10258000D2F804E0D2F808C00C68B2F1804F2EF007
:10259000700343EA04035360BDE8104014D04F4B6E
:1025A0009A4211D04E4B9A420ED04E4B9A420BD0CB
:1025B0004D4B9A4208D04D4B9A4205D04C4B9A4213
:1025C00002D04C4B9A4204D149682CF08003194345
:1025D00091600022012180F83C2080F83D101046D7
:1025E000704700BF40B310B5044690F83D0028B9CD
:1025F000002084F83C00204600F020F80220211D35
:1026000084F83D00206800F0F1FF012084F84600C6
:1026100084F83E0084F83F0084F8400084F84100CC
:1026200084F8420084F8430084F8440084F84500AC
:1026300084F83D00002010BD012070470068B0F113
:10264000804F18BF7047E0B5002000220190094874
:10265000016841F0010101600021006800F0010003
:10266000019001981C20FEF7F3FD1C20BDE88C4072
:10267000FEF7E0BD4038024090F83D1001291CBF34
:1026800001207047022180F83D100068C168B0F158
:10269000804F41F00101C16014D01049884211D02F
:1026A0000F4988420ED00F4988420BD00E4988420C
:1026B00008D00E49884205D00D49884202D00D4904
:1026C000884204D1816801F00701062903D001681E
:1026D00041F0010101600020704700BF000400408C
:1026E00000080040000C00400018004000000140BD
:1026F000004001400004014010B590F83C20044621
:102700000220012A08BF10BD84F83D0001204FF6C9
:10271000777384F83C00206882689A4382600A6874
:1027200012B3102A20D0202A1ED0302A1CD0402AD2
:1027300021D0502A2BD0602A35D0B2F5005F3ED090
:10274000B2F5805F4AD0702A50D1D1E90123C9681F
:102750001A4342EA0121826822F47F4211438160D8
:10276000816841F0770138E0816821F07001114300
:1027700041F0070131E04B68CA68194601F06EF874
:102780002068816841F0470121F0300125E04B6865
:10279000CA68194601F062F82068816841F0570163
:1027A00021F0200119E04B68CA68194601F067F86A
:1027B0002068816841F0670121F010010DE0D1E946
:1027C0000123C9681A4342EA0121826822F47F4248
:1027D00011438160816841F48041816000200021C3
:1027E00084F83C10012184F83D1010BD0120F6E76B
:1027F0007047B0B504460068C168026902EA010585
:10280000A90713D56FF002010161012121778069C9
:10281000800703D02046FFF7EBFF05E0204600F0DD
:102820009DF8204600F015F900202077680715D59F
:1028300020686FF00401016102212177806910F4A2
:10284000407F03D02046FFF7D3FF05E0204600F08D
:1028500085F8204600F0FDF800202077280714D5E1
:1028600020686FF00801016104212177C0698007A9
:1028700003D02046FFF7BCFF05E0204600F06EF8CD
:10288000204600F0E6F800202077E80615D52068FD
:102890006FF01001016108212177C06910F4407FB9
:1028A00003D02046FFF7A4FF05E0204600F056F8CD
:1028B000204600F0CEF800202077E80706D02068F8
:1028C0006FF001010161204600F036F9280606D5B7
:1028D00020686FF0800101612046FFF743FE680623
:1028E00006D520686FF040010161204600F02EF906
:1028F000A80658BFB0BD20686FF0200101612046D6
:10290000BDE8B040FFF72FBE10B586B0044601A861
:102910001421FDF79CFC2068B0F1804F17D10020F6
:102920000C4900900A6842F001020A60096801F04F
:1029300001010091009901210591CDE903000220D8
:1029400001A90290202001900348FDF745FF06B041
:1029500010BD00BF30380240000002407047000048
:10296000B0B5044690F83C00012804BF0220B0BD79
:102970000D464FEAB2010120032984F83C0037D804
:10298000DFE801F0020A12222068294600F0ACFEBE
:10299000206850F8181F0EE02068294600F0D2FE8B
:1029A000206850F8181F16E02068294600F0FCFE49
:1029B000206850F81C1F41F008010160016821F0F7
:1029C0000401016029690FE02068294600F01EFF1C
:1029D000206850F81C1F41F400610160016821F477
:1029E00080610160296909020268114301600020C9
:1029F000002184F83C10B0BD40B310B5044690F8F7
:102A00003D0028B9002084F83C00204600F020F862
:102A10000220211D84F83D00206800F0E7FD012020
:102A200084F8460084F83E0084F83F0084F84000B3
:102A300084F8410084F8420084F8430084F844009C
:102A400084F8450084F83D00002010BD0120704747
:102A50007047704770B5044641B1082909D0042970
:102A600014BF04F1410004F13F0004E004F13E0012
:102A700001E004F14000007801281CBF012070BD76
:102A8000022041B1082909D0042914BF84F841006B
:102A900084F83F0004E084F83E0001E084F8400040
:102AA0002068012200F010FE2068B0F1804F1FD096
:102AB0001B4988421CD01B4A904219D01A4B98429D
:102AC00016D01A4CA04213D01F4DA84205D0184E64
:102AD000B0420DD0174EB0420FD1466CB0F1804FCE
:102AE00046F40046466403D0884218BF90420AD19B
:102AF000816801F00701062903D0016841F0010156
:102B00000160002070BD9842F2D0A042F0D0A842EF
:102B1000EED007498842EBD006498842E8D0ECE77E
:102B20000004004000080040000C00400018004075
:102B3000004001400004014000680349884208BF8A
:102B4000FEF7ECBA704700BF0000014070477047C5
:102B5000704700001CB5044600680168D0F80CE01E
:102B600043695FEA017C5DD00EF4907203F00103CB
:102B7000D21860D0CA071FBF1EF48072626C42F088
:102B8000010262644A0704D51BB1626C42F0020282
:102B900062648A0704D51BB1626C42F0040262646D
:102BA000BCF1000F07D50EF02002D2181EBF626CD8
:102BB00042F008026264626C002A00F0038101EABC
:102BC0000E01890603D5204600F098FE2068406972
:102BD000616C00F0400001F00801401800F0E08056
:102BE000204600F064FE20684169490601D4D2E025
:102BF000206850E8050F216820F0400041E80502F8
:102C0000002AF5D1E06B002800F0C580724901650B
:102C1000FDF740FC002800F0D580E06B016DBDE8B9
:102C20001C40084701EA0E018A0606D52046BDE889
:102C30001C4000F063BE01EA0E01226BCB063CD5BE
:102C4000012A3AD100210191016801914168019165
:102C500001994169490641D4E18DA28DE38D002B94
:102C600000F0B080511A0A0401D1ABE0206850E8AE
:102C7000030F226820F4907042E80303002BF5D183
:102C8000206850E8050F226820F0010042E80503A3
:102C9000002BF5D1202084F842000020206320681A
:102CA00050E8030F226820F0100042E80303002BD5
:102CB000F5D1022089B2606358E00A065BD4490668
:102CC00040F18080C16821F04001C160202084F87B
:102CD00041002046BDE81C4000F091B9E26B11684C
:102CE0004B6899B200296DD0B4F82CC0614569D207
:102CF000E385D169B1F5807F01D131E0206850E8EA
:102D0000030F216820F4807041E80302002AF5D106
:102D1000206850E8050F216820F0010041E8050215
:102D2000002AF5D1206850E8050F216820F0400006
:102D300041E80502002AF5D1202084F84200002055
:102D40002063206850E8030F216820F0100041E85C
:102D50000302002AF5D1E06BFDF75CFBB4F82CC050
:102D600002206063E08DACEB000081B22046BDE83C
:102D70001C40FFF7ECBE94F84110212922D1A16834
:102D8000B1F5805F01D1216981B1216A4A1C2262BB
:102D90000978416011E02046BDE81C40FFF7D8BE2D
:102DA0002046FFF7D5FE002060641CBD216A31F883
:102DB000022B6FF35F2242602162E18C0139E184D2
:102DC000090400D01CBDC16821F08001C160C16848
:102DD00041F04001C1601CBDA338000858B310B5D4
:102DE000044690F8410028B9002084F840002046AD
:102DF00000F024F8242084F841002068C16821F400
:102E00000051C160204600F0DBFD2068016921F41B
:102E100090410161416921F02A014161C16841F499
:102E20000051C16000202021606484F8411084F8C2
:102E30004210606310BD0120704700002DE9F04F83
:102E400087B0044602A81421FDF701FA20686549FD
:102E5000884241D06449884240F0C18000266348DE
:102E6000F04C02AD4FF008084FF00309022701961D
:102E7000016941F400210161016901F4002101911E
:102E800001990196016841F001010160016801F0BA
:102E90000101019101990196016841F0040101606D
:102EA0002946006800F0040001900198CDF81880D0
:102EB000CDE90469CDE902772046FDF78DFC4FF49A
:102EC0008060CDE90598CDE903762946029004F5A6
:102ED0000060FDF781FC82E00027EA48D14D02AE98
:102EE0004FF007084FF003094FF0020A4FF4806BD0
:102EF0000197416941F010014161416901F0100100
:102F0000019101990197016841F001010160016897
:102F100001F00101019101990197016841F002015D
:102F200001603146006800F0020001900198CDF880
:102F30001880CDE90479CDF80CA0CDF808B028466A
:102F4000FDF74AFC4020CDE90598CDE903A73146BD
:102F5000029005F58060FDF73FFC254D25494FF4B3
:102F600000384FF400504FF400694FF0006AC5E993
:102F70000887C5E9001AC5E90277C5F810B0C5E9A8
:102F800005904FF4807B2846C5F81CB0FDF74CFB3C
:102F900008B1FDF73DFA1748174EE5637830C6E9EA
:102FA0000887C6E9000A4020C6E902074FF480609E
:102FB000C6E904094FF40050C6E9060B3046AC637D
:102FC000FDF732FB08B1FDF723FA2520002100228E
:102FD000A663B463FEF73CF92520FEF72BF907B092
:102FE000BDE8F08F00100140004C00403038024036
:102FF000D8170020406402403818002070477047FE
:10300000FEE7806B01684A6822F003024A600021F3
:1030100041854186012180F84110416C41F0080151
:103020004164FDF7D8BEC169806B09B1FEF76AB88B
:1030300001684A6822F001024A60002141860121AC
:1030400080F84110FEF75EB8806BFEF765B81FB5DB
:10305000044600688168039194F84110042921D145
:103060000399C90716D04168490613D5C168E26AB9
:1030700022F8021B618E01396186E262618E49B9D4
:10308000416821F060014160012084F84100204640
:10309000FEF738F80398400642BF206841685FEAAF
:1030A00081613FD494F84100032818BF1FBD0398E5
:1030B000800742BF206841685FEA016108D4039835
:1030C000000742BF206841685FEA816116D41FBDD6
:1030D000616A31F8022BC260628D013A62856162D9
:1030E000618D0029EBD1416821F0A00141600120F0
:1030F00084F841002046FEF710F8E0E7416821F02F
:10310000A001416000210191806801900198012097
:1031100084F84100606C40F0040060642046FDF7D4
:103120005AFE1FBD416821F06001416000210291FB
:10313000C1680291806802900298012084F84100E1
:10314000606C40F0020060642046FDF744FEA9E791
:10315000F24802490422FDF76DBF00BF9C04002025
:10316000B0B552004FF0000C4FF0370E00239A42DA
:1031700008BFB0BD0EEB1074050FB0F1204F4FEA41
:10318000001038BF05F13004CC5443F00104023381
:1031900001F804C0EBE7000010B5A34C0021204665
:1031A000FFF758FC20686421416310BD70B51C48CE
:1031B0000078012824D090BB9B4D002405E02868AE
:1031C00044630A20FDF7F6FA0134642CF7D1524C1F
:1031D000102101222046FDF7D5FB64206426FDF76F
:1031E000E9FA05E0286846630A20FDF7E3FA013EA4
:1031F000002EF7D1204610210022FDF7C3FB09E085
:10320000F94C6421206841636420FDF7D3FA2068FB
:10321000002141636420BDE87040FDF7CBBA70BD6A
:103220003001002000000240BCB500203949164C96
:1032300001900A6842F480020A600A6802F480027F
:103240000192019A00900868002240F40010086082
:103250000868002100F40010009000980E20A0479C
:103260000A4D0E20A8473A2000210022A0473A200C
:10327000A847462000210022A04746202946BDE855
:10328000BC4008473038024051120008351200088F
:1032900070B586B000251F481F4C002248F210066A
:1032A00005950095016841F080010160016801F019
:1032B0008001009100990095016841F004010160CE
:1032C000016801F00401009100990095016841F046
:1032D00001010160016801F0010100910099009570
:1032E000016841F00201016048F21001006800F03D
:1032F0000200009000982046FDF744FB0120CDE934
:10330000035501A9CDE901602046FDF765FA06B035
:1033100070BD00BF303802400000024010B50C48BC
:103320000C4B0D4C00224FF480410262C0E9004377
:10333000C0E90222C0E90412C0E90622FDF72EFB13
:10334000002814BFBDE8104010BDFDF761B800BFF4
:1033500098180020A08601000054004010B56F4866
:103360000B4C00214FF4FA524FF440730162C0E954
:103370000043C0E90211C0E90412C0E90611FDF7DB
:103380002DFD08B1FDF744F8BDE81040FFF7E0BEA1
:103390000038004010B58EB0002401A81C21CDE9F2
:1033A0000C44CDE90A44CDE90844FCF750FF8E48AF
:1033B000632140F247324FF080438461C0E900321C
:1033C000C0E902410461FFF70DF908B1FDF720F8EB
:1033D0004FF480500AA90A908348FFF78DF908B18D
:1033E000FDF716F88048FFF707FB08B1FDF710F866
:1033F0007D48002408A9CDE90844FFF7B5F808B1D5
:10340000FDF706F860200594CDE9024401A90022E9
:1034100001907548FFF7A4FA08B1FCF7F9FF72486C
:10342000FFF772FA0EB010BD601E002010B50B48F9
:103430000B4C4FF4E13300210C22C0E90043C0E9FA
:103440000211C0E90412C0E90611FFF7C7FC002809
:1034500014BFBDE8104010BDFCF7DABFF01E00201D
:10346000004C004010B50B480B4C4FF4E1330021E9
:103470000C22C0E90043C0E90211C0E90412C0E90E
:103480000611FFF7ABFC002814BFBDE8104010BDCB
:10349000FCF7BEBFA81E00200010014080B51048F8
:1034A0001049002200F00EFD08B1FCF7B1FF0C48F6
:1034B0000D4900F017FF08B1FCF7AAFF08480B49B7
:1034C00000F074FB08B1FCF7A3FF054800F031FFE2
:1034D000002814BFBDE8804080BDFCF799BF00BF45
:1034E0009C1400200800002028000020DC000020A0
:1034F000FEE780B501F01EFABDE88040FFF728BE68
:10350000FEE700000148FEF745B800BF341900206F
:10351000704700000148FDF75FBC00BFEC180020B9
:1035200070477047B0B592B0002401A81421CDE9CE
:103530000A44CDE90844FCF78AFE2048009402259D
:10354000016841F080510160006800F080500090F7
:10355000009800941A48016841F4804101600068B5
:1035600000F4804000900098072011904FF4A8705C
:1035700010950F9019200E904FF48000CDE90C505B
:103580004FF4803007900120069006A8FEF75EFEFB
:1035900008B172B6FEE74FF48050052105904FF454
:1035A000A05004900F20CDE90254019001A8FEF72D
:1035B0004FFD08B172B6FEE712B0B0BD4038024010
:1035C000007000400248016841F4700101607047DA
:1035D00088ED00E00148FFF70CB900BF181E00207D
:1035E0000148FFF706B900BF601E00200268B0F175
:1035F000804F0ED02A4B98420BD02A4B984208D0CD
:10360000294B984205D0944B984202D0274B9842C0
:1036100003D14B6822F070021A43B0F1804F20D0E2
:103620001F4B98421DD01F4B98421AD01E4B9842F8
:1036300017D01F4B984214D01E4B984211D01E4BEE
:1036400098420ED0194B98420BD0834B984208D029
:103650001A4B984205D01A4B984202D0194B984207
:1036600003D1CB6822F440721A434B6922F08002E6
:103670001A43794B02608A68C2620A68826240F427
:1036800080629A4204BF09690163012141610169B5
:10369000C9071EBF016921F001010161704700BF28
:1036A0000004004000080040000C00400000014001
:1036B00000180040001C0040002000400040014075
:1036C000004801400044014001F01F01012303FABA
:1036D00001FC036A02FA01F123EA0C030362026AA5
:1036E000114301627047000070B5D0F820C0026A33
:1036F00022F0010202622CF00202D0F804E0856997
:103700008C680B68144325F0730242EA030C524B99
:1037100040F480629A420DD1CE68D1E905352EF48D
:1037200040721A4326F0040342EA050E24F00C020C
:1037300043EA0204C0F804E0C0F818C049684163D5
:10374000046270BD70B5D0F820C0036A23F0100386
:103750002CF020020362D0F804E083698C680D68C5
:1037600042EA041423F4E6423B4B42EA052C40F4BF
:1037700080629A4210D1CE68D1E905352EF44062BC
:1037800042EA830224F0C00342EA850E6FF0400251
:1037900002EA061242EA0304C0F804E0C0F818C0C6
:1037A00049688163046270BD70B5D0F820C0036AB7
:1037B00023F480732CF400720362D0F804E0C36930
:1037C0008C680D6842EA042423F07302224B42EA1B
:1037D000050C40F480629A4210D1CE68D1E90535DB
:1037E0002EF4405242EA031240F2FF4342EA051E21
:1037F00032029A4324F4406342EA0304C0F804E02E
:10380000C0F81CC04968C163046270BDB0B5D0F88F
:1038100020C0036A23F480532CF4005203624368EF
:10382000C5698C68D1F800E042EA043C25F4E64220
:10383000094C40F4806542EA0E22A54202BF4D6960
:1038400023F4804343EA85134360C26149680164FD
:10385000C0F820C0B0BD00BF00040140D0F820C0B7
:10386000036A23F001030362836923F0F00343EA50
:10387000021282612CF00A02114301627047D0F8F3
:1038800020C0036A23F010030362836923F47043AA
:1038900043EA023282612CF0A00242EA0111016285
:1038A0007047806B0021C185C184FFF751B9016861
:1038B00051E8031F026821F4907142E80313002BC2
:1038C000F5D1016851E8051F026821F0010142E8C5
:1038D0000513002BF5D1016B012909D1016851E8CD
:1038E000031F026821F0100142E80313002BF5D1F9
:1038F000202180F8421000210163704790F84210A7
:10390000222918BF70478368B3F5805F05D101692C
:10391000B1B100F128010A680BE00146002B51F813
:10392000282F01D1036923B103685B6803F07F038B
:1039300001E003685B6813700A6801320A6007E0FF
:103940000168826A49686FF35F2122F8021B826274
:10395000C18D0139C185090400D070470168CA686A
:1039600022F02002CA60CA6822F48072CA604A69E2
:1039700022F001024A61202280F8422000224263A4
:10398000036B012B18BFFFF739BB026351E8031F1C
:10399000026821F0100142E803130168002BF5D101
:1039A0000A68D20608D581B0002200920A68009207
:1039B00049680091009901B0818DFFF7C8B80000F7
:1039C000B0B50446006849F20C650169E26821F46B
:1039D000405111430161D4F808C0D4E90423D4F85C
:1039E0001CE0C16842EA0C02A9431A4342EA0E02F3
:1039F0001143C1604169A26921F4407111434161E1
:103A0000214940F48060884202D1FEF7E1FB01E0E9
:103A1000FEF7D4FBE26919216368A0FB0101B2F54E
:103A2000004F16D15A00DB0FFCF7CAFB64216FF080
:103A30006303B0FBF1F202FB0300322303EBC0008F
:103A4000B0FBF1F14FF4F87000EA410001F007011A
:103A500013E09A009B0FFCF7B3FB64216FF0630344
:103A6000B0FBF1F202FB0300322303EB0010B0FBCA
:103A7000F1F101F0F00001F00F0100EB021008433A
:103A800021688860B0BD00BF001401400148FFF705
:103A900061B800BFA81E002000F0F8BE70B5D0F8D5
:103AA000BC62DEB3012937D10121044600F0DDFA02
:103AB000054681B2B6F80801D4F8D8320122304464
:103AC00004309847B6F808012844A6F8080180B2E7
:103AD000B0F5807F0ED10025A6F8085196F80401B4
:103AE000032807D1D4F8CC32301D80210122984719
:103AF00086F8045196F80511B6F8080129B980280E
:103B000002BF012086F805018020304401214023B6
:103B1000021D204600F024FB002070BD032070BD74
:103B2000B0B50121044600F0EAF90025C4F8785147
:103B3000D4F8BC0248B1D4F8C81200208847D4F8A1
:103B4000BC0200F048FEC4F8BC520020B0BDB0B5C5
:103B5000D0F8BC529DB195F80A11012911D195F800
:103B60004C11002402290DD195F80B11D0F8D42264
:103B70000846904785F84B4185F80A4102E0032446
:103B800000E000242046B0BD002070476D21018078
:103B9000454870470A21018000487047D000002046
:103BA00000F090BE002070470020704700290FBF32
:103BB0000320D0F8D42200EB8200C0F8C41218BF52
:103BC00000207047002070477CB505460020ADF806
:103BD0000600D5F8BC62002E62D008780C4610F0C2
:103BE000600010D0202857D16078012820D081288B
:103BF00052D106F20B1640213046FCF728FBE28832
:103C0000284631463BE061780B2945D80020DFE8A3
:103C100001F0064843434343204343432F3A95F87A
:103C20009C02032838D10DF106012846022226E025
:103C3000E28832B306F20B11284600F05FF801204B
:103C400086F80A01A07986F84B01607986F84C0164
:103C500017E0E0784FF40451B1EB002F11D1E28866
:103C60001148092A00F1120128BF0922284606E05E
:103C700095F89C0203280FD128463146012200F016
:103C800055F800200DE095F89C02032804D1A07897
:103C9000012801D83060F4E72846214600F023F8D7
:103CA000032002B070BD00BF6000002080B5D0F8D6
:103CB000B82252689047002818BF032080BD00201A
:103CC00070470020704780B513460A46002100F077
:103CD00047FA002080BD80B513460A46002100F057
:103CE000EDFA002080BD10B58021044600F0C7FA2F
:103CF00020460021BDE8104000F0C1BA80B513464F
:103D00000A460321C0E95633C0F89412002100F09E
:103D100027FA002080BD80B5052100220023C0F8CD
:103D20009412002100F01CFA002080BD80B51346DB
:103D30000A460221C0E90633C0F89412002100F0BF
:103D4000BDFA002080BD80B5042100220023C0F808
:103D50009412002100F0B2FA002080BD10B5044C8E
:103D60000A4604A0214600F075F8204610BD00BFA9
:103D700034010020415544494F20436F6E66696706
:103D8000000000001220088000487047F800002062
:103D900010B5044C0A4604A0214600F05BF820460A
:103DA00010BD00BF34010020415544494F20496EE9
:103DB000746572666163650004200880004870477E
:103DC0000C01002010B5044C0A4604A0214600F066
:103DD00041F8204610BD00BF3401002053544D6906
:103DE00063726F656C656374726F6E6963730000F4
:103DF00010B5044C0A4604A0214600F02BF82046DA
:103E000010BD00BF3401002053544D3332204175A2
:103E100064696F20436C6173730000001A2008808E
:103E20000A4908688A6880180ED0B0B5084D4C68F9
:103E30000822A91CFFF794F905F11201204604227B
:103E4000FFF78EF9BDE8B04001487047107AFF1FB8
:103E50001001002080B538B34FF0000C864603E017
:103E60000EF1010E0CF1010C9EF80030002BF7D181
:103E70005FFA8CFC4FF0020E0EEB4C0CA2F800C067
:103E800003224A7081F800C04FF0000C09E05FFA8D
:103E90008EF30EF1020E0130CA5443F0010201F814
:103EA00002C00278002AF2D180BD000003288FBF33
:103EB0000320C000024921FA00F098BFC0B2704749
:103EC0000003010380B100230029C0F8D032C0F8FC
:103ED000C432C0F8B83201D0C0F8B4120121027067
:103EE00080F89C1200F0C6B80320704780B5D0F867
:103EF000C802FDF75BFABDE88040FFF7D7BF80B589
:103F0000D0F8C802FDF72AFABDE88040FFF7CEBF1F
:103F1000B0B5044689B194F89C0203284ED1D4F878
:103F2000B8024269002A49D00020C4F8D4022046D1
:103F30009047002808BF0020B0BDD4F894020228A2
:103F400036D1D4E9070188420DD9431A11462046DB
:103F50001A46E361FFF7BFFE20460021002200233E
:103F600000F0FEF824E00FD1A16981420CD3D4F80F
:103F70009802814208D22046002100220025FFF746
:103F8000AAFEC4F89852E7E794F89C02032808D1E7
:103F9000D4F8B802C16821B10020C4F8D402204688
:103FA00088472046802100F06AF92046FFF7B3FEDB
:103FB00094F8A00210B1002084F8A0020020B0BD47
:103FC00010B5044681B194F89C02032830D1D4F88E
:103FD000B802826962B30020C4F8D4022046904738
:103FE000002808BF002010BDD4F8940203281FD178
:103FF000D4E9570398420BD9C01A1146C4F85C01A2
:10400000984238BF034620461A46FFF75CFE0FE091
:1040100094F89C02032808D1D4F8B802016921B1B0
:104020000020C4F8D402204688472046FFF78BFEC4
:10403000002010BD00207047012180F89C12D0F8AC
:10404000B8223AB180B5017952689047002818BF6C
:10405000032080BD0020704780B5D0F8C802FDF76E
:10406000D4F9BDE88040FFF721BFD0F8C802FDF7C2
:10407000E5B90000017849BB10B51549C1F8E00465
:10408000C0F8C812042008714FF0A040086000205A
:10409000C8810220C1F809004FF40070C8800846AA
:1040A000FDF711FE08B1FCF7B3F9094C8021204659
:1040B000FDF7FDF8204600214022FDF7FCF82046E0
:1040C00001218022FDF7F7F8BDE81040002070477D
:1040D0003419002001F07F02D0F8C802090602EB73
:1040E000C20200EB820000F1160258BF00F2562215
:1040F00010787047D0F8D42200EB8202D2F8B822B0
:104100005AB190F89C32032B05D1126A1AB180B5CE
:104110009047002080BD0020704703207047D0F8F2
:10412000D42200EB8202D2F8B8225AB190F89C3225
:10413000032B05D1526A1AB180B59047002080BD8B
:10414000002070470320704780B59446D0F8C8021D
:104150001A466346FDF77BF9BDE88040FFF7A6BE2F
:1041600080B5D0F8C802FDF7A5F9BDE88040FFF79B
:104170009DBEF8B501260025044680F89C62C0F873
:10418000A452456080F8A052C0F89452D0F8B8020A
:1041900050B142683AB120460021904705460028B8
:1041A00018BF032500E000252046002100224023FF
:1041B0004027FFF7C9FF2046802100224023A4F8B2
:1041C0006461C4F86071FFF7BFFFA68427622846C8
:1041D00001B0F0BD90F89C12042904BF90F89D1224
:1041E00080F89C120020704790F89C12032908D197
:1041F000D0F8B81229B1C96919B180B58847BDE8AE
:1042000080400020704701740020704780B5D0F8CE
:10421000C802FDF718FEBDE88040FFF747BEB0B505
:1042200000F2AA250446284600F051F80120C4F8FF
:104230009402B4F8B002C4F8980294F8AA0200F00C
:104240001F01022908D001290CD089B9204629462E
:10425000BDE8B04000F070B820462946BDE8B04047
:1042600000F0D2B920462946BDE8B04000F07EBA41
:1042700000F080012046BDE8B040AFF3008080B57B
:10428000D0F8C802FDF733F9BDE88040FFF70EBE55
:1042900080B5D0F8C802FDF7F0FDBDE88040FFF71B
:1042A00005BE90F89C1204291CBF90F89C1280F85F
:1042B0009D12042180F89C120020704780B5D0F830
:1042C000C802FDF74AF9BDE88040FFF7EFBD0A7864
:1042D00002704A7842704A8842808A888280C988FF
:1042E000C18070471CB5044600200029ADF80600C7
:1042F00015D0C4F8B81204F52E71D4F8D40251F8D0
:104300002000C16A21B10DF106008847C4F8D0022F
:10431000D4F8D8020130C4F8D802002000E003200D
:1043200002B010BDD0F8B8220AB1126810470020C0
:104330007047FFF7ADBF0000BCB5044608780D46D6
:1043400010F0600011D0402802D0202840F04E81AB
:10435000D4F8D402294604EB8000D0F8B802826871
:10436000204602B0BDE8B04010476878092800F246
:104370003D81DFE810F00A0020003B0131003B01E5
:10438000580079003B013B004D0094F89C02013835
:10439000022800F22B81E888022840F02781D4F817
:1043A000A40203222146002808BF012241F80C2F55
:1043B0002046022217E194F89C020138022800F2FC
:1043C000158168880025012840F01481C4F8A452A2
:1043D0002046FFF7B8FC0DE1688802286FD001285D
:1043E00040F004810120C4F8A40206E1E888012815
:1043F00040F0FC8094F89C02411E022963D2002503
:1044000021462046012241F8085FFFF78FFCF1E0CA
:1044100068887C4D10F0FE0F28703BD02046FFF7D7
:1044200062FC0325E6E0A888002840F0DF80E888E9
:10443000002840F0DB8068887F2800F2D78094F85D
:104440009C12032900F0D28000F07F052046294607
:1044500084F89E52FFF7DAFE2046FFF774FC002D29
:1044600014BF0220012097E000204FF0FF31ADF88B
:104470000600688801EB1021062900F2B780DFE80A
:1044800001F0043629B5B5434D00D4F8B412207CB0
:104490000A6899E0C1B294F89C0203284BD0022824
:1044A00064D1002900F0A98020466160FFF73AFF3F
:1044B00000286DD005462046FFF715FC52E06879CC
:1044C00084F8A00299E0032840F09080211D204646
:1044D000012288E0C0B2052800F28880DFE800F001
:1044E000035F63676B6FD4F8B40242686AE0217CB3
:1044F000D4F8B80200290CBF816AC16A0DF1060028
:1045000088470146022014E0207C00286ED1D4F8B0
:10451000B802416B0DF10600884758E0207C002866
:1045200064D1D4F8B802016B0DF10600884701464A
:10453000072048704CE009B3606888425DD0C1B282
:104540002046FFF7B3FB297820466160FFF7EAFEBB
:10455000002852D005462046FFF7C5FB21792046AA
:10456000FFF7A4FB022084F89C0243E02046FFF7FB
:10457000BAFB29782046FFF799FB52E702206160D9
:104580000021002584F89C022046FFF78FFB1FE7DF
:104590002046FFF7D8FB032084F89C0229E0D4F8DA
:1045A000B40282680EE0D4F8B402C2680AE0D4F81B
:1045B000B402026906E0D4F8B402426902E0D4F819
:1045C000B402826992B1207C0DF106019047014648
:1045D000EA8892B1BDF8060040B1904238BF024669
:1045E000ADF806202046FFF7A1FB02E02046FFF7CA
:1045F0007AFB0025284602B0B0BD2046FFF7A3FB9A
:10460000F7E700BF3101002070B5044608780D7946
:104610000E4610F0600017D0402801D020284AD163
:1046200020462946FFF74BFB002847D1C4F8D402A7
:1046300004EB8000D0F8B8028268002A3ED0204601
:104640003146BDE8704010477078B8B1012828D0D5
:10465000032830D194F89C02032826D1708848B9E9
:1046600045F08000802805D0F08818B920462946FA
:10467000FFF705FE2046FFF766FB1FE094F89C025B
:1046800003281DD0022816D1002D55D0802D12D11F
:1046900005F07F0000EB800004EB800000F11401C6
:1046A00052E094F89C0203281FD0022803D145F061
:1046B0008000802826D12046FFF715FB002070BD22
:1046C00005F00F00290600EB800004EB800022D4E7
:1046D000B0F864010028EED005F07F0000EB800008
:1046E00004EB800000F5AA7620E070880028E5D170
:1046F000680603D020462946FFF7F8FB2046FFF75F
:1047000022FB8DE720462946FFF7B9FD2046802190
:10471000FFF7B5FDD2E7808C0028CCD005F07F00F4
:1047200000EB800004EB800000F1140645F08000EF
:1047300080280DD1002012E005F07F0000EB800002
:1047400004EB800000F5AA7100200860204609E013
:1047500020462946FFF7BEFC0028EBD00120306040
:10476000204631460222FFF7E1FAA7E7B0B504463A
:1047700008780D4610F0600018BF40280FD194F85B
:104780009C02013802280CD8A88810F0FE0F08D12E
:10479000C1B22046FFF795FA40B10320B0BD2028F2
:1047A000EDD02046FFF79FFA0020B0BD04EB80015A
:1047B000D1F8B8128A68002AEFD0C4F8D402204693
:1047C000294690470028F0D1E9880029EDD12046FC
:1047D000FFF7B9FAE8E77047004870473403002054
:1047E00080B591F800C091F801E001220CF00F03B0
:1047F000BEF1010F02FA03F31AD1D0F81C281A43B4
:104800004FEA4C13C0F81C2800F51060C25812047F
:1048100027D491F804E089681A586FF3DF2141EA40
:104820008C511143104A41EA8E411143195018E04E
:10483000D0F81C2842EA0342C0F81C284FEA4C1268
:1048400000F5306083581B040BD491F804C08968CC
:1048500013586FF3DF211943034B41EA8C4119438D
:104860001150002080BD00BF00800010D0F800195A
:1048700040F2FF729143C0F80019D0F8041841F4D7
:104880008071C0F80418002070470000B0B5D0F85F
:10489000BC5281210446FFF7DFFB30480069202825
:1048A0003CBF0120B0BD04352C4820222946FBF72F
:1048B00035FD204681212A464023BDE8B040FFF760
:1048C000FDBC00BFF8B5214905462448002401F588
:1048D0000062C0E90012C0E9021104614FF4A8703F
:1048E000FFF77AFF00B3012706468121012240230A
:1048F0006F87C5F8BC022846FFF726FC2F870320E8
:10490000371D34604FF4807186F804013846FBF798
:104910009EFC284681213A46402386F80941C6F884
:104920000541FFF7CBFC02E0C5F8BC42022420465B
:1049300001B0F0BD05490948002201F50063C0E956
:104940000013C0E902110261704700BF9C0C0020F7
:10495000024602480249FBF7FBBC00BF8804002066
:104960009C04002070B5044602F47F400D46B0F56B
:10497000807F18D1A16B1C4A049821F48031C0B209
:10498000A1630128E16801EA0201E160E16821F424
:104990004011E16002BFE06840F48010E060204612
:1049A00000F024F810E0E0681E4640F04000E060AF
:1049B000204600F01BF8A16B16F47F4F14BF21F4C2
:1049C000803141F48031A16305F47F01B1F5803F6E
:1049D00018BF70BDA16841F00601A160A16841F057
:1049E0002001A16070BD00BFBFFFBDFF81B00021ED
:1049F00000910099013100910099B1F1706F15D8C3
:104A00000169B1F1FF3FF4DC00210091016941F03F
:104A1000010101610099013100910099B1F1706FBC
:104A200004D80169C907F5D1002000E0032001B0D6
:104A30007047000010B54A780B78204C00EB43110A
:104A4000012A15D101F51062D1F80019B1F1FF3F2B
:104A500007DC116841F000611160116841F080418C
:104A6000116003F00F01012303FA01F18BB215E08D
:104A700001F53062D1F8001BB1F1FF3F07DC11688E
:104A800041F000611160116841F08041116003F054
:104A90000F014FF4803304F170748B40D0F83C1850
:104AA0009943C0F83C18D0F81C189943C0F81C185A
:104AB000106820401060002010BD00BF007833EC6B
:104AC000D0F8001E21F00301C0F8001ED0F8041831
:104AD00021F00201C0F8041800207047D0F8001E31
:104AE00021F00301C0F8001ED0F8041841F00201C3
:104AF000C0F80418002070472DE9F84F8A46804618
:104B0000180C4121002302E048F8213001315029DE
:104B1000FAD15FFA80F9B9F1000F0AD0D8F838005D
:104B200020F40010C8F83800D8F8380040F400200D
:104B300015E0D8F8040840F00200C8F80408D8F8D6
:104B4000380040F40010C8F83800D8F8380020F4D5
:104B50000020C8F83800D8F8380020F4802002F48B
:104B60007F41C8F838000020B1F5807FC8F8000EFA
:104B700000920DD108F5006BD8F80018B0EB1A6F51
:104B80000EBFCBF8001041F00100CBF8000007E0A9
:104B9000D8F8000808F5006B40F00300C8F80008DA
:104BA0004046102100F02DFA0746404600F008FA72
:104BB0005FFA8AF10022384308F510634FF67F3719
:104BC00000264901CBF81020CBF81420CBF81C208C
:104BD0000DE09D594FF09044002E08BF4FF0006447
:104BE00004EAE5759D519D1920362A61AF60B142F6
:104BF000EFD108F5306200234FF67F3700260028FA
:104C000018BF01200DE095594FF09044002E08BFC9
:104C10004FF0006404EAE5759551951920362B6133
:104C2000AF60B142EFD1DBF810101AF47F0F21F41E
:104C30008071CBF810104FF00001C8F818106FF019
:104C40008041C8F8141005D1D8F8181041F01001AF
:104C5000C8F81810D8F818100C4A1143C8F81810E2
:104C6000009911F47F0F1EBFD8F8181041F0080109
:104C7000C8F81810B9F1010F05D1D8F81810044A76
:104C80001143C8F8181001B0BDE8F08F00383C801F
:104C900004000040816821F001018160002070471C
:104CA00010B5036C134CA34203D3D0F8003B002B88
:104CB0001EDB00230129C0F8103BD0F8103B43F461
:104CC0000023C0F8103BD0F8103B43F01803C0F8A5
:104CD000103BD0F8103B43F0C043C0F8103B07D165
:104CE000C0F8142BD0F8001B41F08021C0F8001B45
:104CF000002010BD0B30544F0A784B785201012B25
:104D000014BF00F5306000F51060835823F40013E1
:104D10008350097901F0FE01022902BF115841F0C8
:104D200080511150002070470A784978012900EB22
:104D3000421119BF01F53060D1F8001B01F5106078
:104D4000D1F800192AB1002903DB016821F0804164
:104D50000160016841F4001101600020704700000B
:104D6000BCB54B7891F800C0012B1FD100EB4C145F
:104D7000D1F810E004F51063D4F81049BEF1000F2B
:104D80003CD06FF31204BCF1000F1C611C696FF37F
:104D9000DC441C618C686DD00EEB0405013DB5FB55
:104DA000F4F4624D05EAC4441D696AE000EB4C135B
:104DB000BCF1000FD3F8105B03F5306E6FF31205F2
:104DC000C3F8105BD3F8105B6FF3DC45C3F8105BDE
:104DD0008B680C691FD00CB3E518013DB5FBF3F5EA
:104DE000ACB26343514C0B626FF3DF4304EAC54539
:104DF000DEF810402543CEF8105018E06FF3DC4485
:104E00004FF0000E1C611D6945F400251D611C69F1
:104E10006FF3120447E004B10B610B62DEF810502F
:104E20006FF3DF432B43CEF810304FF40023DEF84E
:104E30001050012A43EA0503CEF8103003D1CA68A6
:104E40000AB1CEF81420097901290CD1D0F808084C
:104E5000C0054FF0805058BF4FF00050DEF80010F2
:104E60000843CEF80000DEF8000040F00440CEF821
:104E7000000058E0A64584BF0C61A6464FF400250B
:104E80001C692C4375461C616FF3DF451C692C437C
:104E90001C610C79012C07D11C6924F0C0441C61F1
:104EA0001C6944F000541C61012A15D1CA6902B181
:104EB0005A61097901290AD1D0F80808C0054FF0D4
:104EC000805058BF4FF000501968084318601868A8
:104ED00040F00440186026E01C6844F004441C6064
:104EE0000C79012C12D1D0F80848E4054FF0805419
:104EF00058BF4FF000541D682C431C601FFA8EF3FE
:104F0000C9680092624600F0B7F90CE0BEF1000FEC
:104F100009D00CF00F01012202FA01F1D0F8342877
:104F20001143C0F83418002002B0B0BD0000F81FD3
:104F300081B0002200924A78012A1BD1097800F53D
:104F4000106049014258B2F1FF3F2EDC0A5842F08E
:104F500000620A500A5842F080420A5042F210722F
:104F6000009B01330093009B934220D80B58002BE9
:104F7000F6DB1AE0097800F5306049014258B2F1D9
:104F8000FF3F12DC0A5842F000620A500A5842F011
:104F900080420A5042F21072009B01330093009B42
:104FA000934204D80B58002BF6DB002000E00120D0
:104FB00001B07047816841F00101816000207047B5
:104FC00081B0002100910099013100910099B1F167
:104FD000706F13D80169B1F1FF3FF4DC002100913B
:104FE000102101610099013100910099B1F1706FB8
:104FF00004D80169C906F5D4002000E0032001B0FF
:10500000704781B000220092009A01320092009A0B
:10501000B2F1706F14D80269B2F1FF3FF4DC89017C
:105020000022203100920161009901310091009924
:10503000B1F1706F04D801698906F5D4002000E051
:10504000032001B07047D0F8080810F0060004BF34
:105050000020704740F004010F20062908BF0220FD
:105060007047406900F001007047D0F81818D0F878
:105070001C08084080B27047D0F81818D0F81C08F7
:105080000840000C7047D0F810C8D0F8343801F050
:105090000F0200EB4110D0F8080923FA02F2D20106
:1050A000D2B242EA0C021040704700EB4111D1F835
:1050B000081BD0F81408084070474169806908400F
:1050C000704780B54FEA920E4FF4805C05E050F8CF
:1050D0000C30AEF1010E41F8043BBEF1000FF6D1E9
:1050E00012F003020CD04FF4805350F803C0002399
:1050F0002CFA03F0013A083301F8010B1004F7D140
:10510000084680BDB0B50446C068002920F0C04004
:10511000E06013D001291CBF0120B0BDE06800256C
:1051200040F00050E0600A20FBF744FB0A3560695C
:10513000C72D12D810F00100F5D00EE0E068002570
:1051400040F08040E0600A20FBF734FB0A356069DC
:10515000C72D02D810F00100F5D1A5F1C800B0FAB2
:1051600080F04009B0BDD0F8002801F07F0122F4A2
:10517000FE62C0F80028D0F8002842EA0111C0F809
:105180000018002070470000022A34D1284A294B19
:105190000A449A4202D24FF470512EE0264A274B1D
:1051A0000A449A4202D24FF4605126E0244A254B29
:1051B0000A449A4202D24FF450511EE0224A234B35
:1051C0000A449A4202D24FF4405116E0204A214B41
:1051D0000A449A4202D24FF430510EE01E4A1F4B4D
:1051E0000A449A4202D24FF4205106E01C4A1D4B59
:1051F0000A449A420AD24FF41051C26822F4705203
:10520000C260C2681143C16000207047164A174B44
:105210000A449A4202D24FF40051EEE7144A154B69
:105220000A444FF4C0519A4238BF4FF4E051E4E7CA
:10523000405327FF00350C00401E1BFF40420F006B
:1052400000DC0BFF804F1200808CF9FE20D613008B
:1052500060B6E5FE60E3160000D3CEFE40771B008B
:10526000C05BB3FEC091210000CA91FE20753800DA
:10527000E05459FEE09C4100DDF800C0BCF1000F95
:105280000DD103334FEA023C00F580509B0804E047
:1052900051F8042B013B4CF80020002BF8D10020E2
:1052A0007047FEE710B5074C00F00F03044AB0F159
:1052B000FF3F2344C8BF83180801187010BD00BF0A
:1052C00000E400E014ED00E0FBF734FFFEF72AF9FC
:1052D000FDF7DEFFFDF7A8FFFEF75CF8FEF7DEF84E
:1052E000FEF7A4F8FEF71AF8FEF7BCF8FEF736F85A
:1052F000FDF752FFFEF7FDF8FDF758FFFCE702E06F
:1053000008C8121F08C1002AFAD170477047002050
:1053100001E001C1121F002AFBD17047000000000C
:105320000000000001020304060708090000000055
:10533000010203045853000800000020300100005F
:10534000A80200083054000830010020102E000090
:105350000E530008000000003201321013853D1B7F
:1053600008B9041AC5041AF104131D3E1B085D0890
:105370001A9104111324F413A13B1B0821041AC928
:10538000041A89041A4F0413993A1B089D041AC57C
:105390000C1AA5041AA9049A8D041A95041409027A
:1053A0006D13020135C03209041A016F140924017A
:1053B0001B01270B170C24020101023302031C09F5
:1053C00024060D391E1B03030812021B09040E19C3
:1053D0001F2909190119092C0724011B1A0B37175A
:1053E00002021001803E16090581014019282B0791
:1053F00025C8411B0A063C212A4010130B031B0839
:10540000030413FF021B0817081A0F041A13041AC7
:1054100007042A126419281D83043057A11B0203B4
:10542000312E040309041A8E011B00000000000045
:040000050800018965
:00000001FF
