:020000040800F2
:10000000902E00209D010008355600083548000854
:100010000D56000809040008E599000800000000DA
:10002000000000000000000000000000C15A0008AD
:10003000D9060008000000009D5A00085D5B00081A
:10004000B7010008B7010008B7010008B7010008B0
:10005000B7010008B7010008B7010008B7010008A0
:10006000B7010008B7010008B7010008B701000890
:10007000B7010008B70100080D050008B701000826
:10008000B7010008B7010008B7010008B701000870
:10009000B7010008B7010008B7010008B701000860
:1000A000B7010008B7010008B7010008B701000850
:1000B000415C0008B7010008B7010008B70100085B
:1000C000B7010008B7010008B7010008B701000830
:1000D000B15A0008B7010008B7010008B7010008CD
:1000E000B7010008B7010008B7010008B701000810
:1000F000B7010008B7010008B7010008B701000800
:10010000B7010008B7010008B7010008B7010008EF
:10011000B7010008B7010008B7010008B7010008DF
:10012000B7010008B7010008B7010008B7010008CF
:10013000B70100080000000000000000B70100083F
:10014000B7010008B7010008B7010008B956000858
:10015000B7010008B7010008B7010008B70100089F
:10016000B7010008B7010008B7010008B70100088F
:10017000B7010008B70100080000000000000000FF
:10018000B7010008B7010008DFF80CD000F07AF8DA
:1001900000480047BD9A0008902E0020064880477E
:1001A00006480047FEE7FEE7FEE7FEE7FEE7FEE75C
:1001B000FEE7FEE7FEE7FEE72D5C00088901000888
:1001C0002DE9F05F0546002092469B46884606468C
:1001D000814640241BE0284641464746224600F01F
:1001E00041F853465A46C01A914110D31146184659
:1001F000224600F028F82D1A67EB01084F462246E8
:100200000120002100F01FF817EB00094E41201ECD
:10021000A4F10104DFDC484631462A464346BDE8E6
:10022000F09FD2B201E000F8012B491EFBD27047CB
:100230000022F6E710B513460A4604461946FFF7B2
:10024000F0FF204610BD202A04DB203A00FA02F11C
:10025000002070479140C2F1200320FA03F31943B4
:1002600090407047202A04DB203A21FA02F0002156
:10027000704721FA02F3D040C2F1200291400843B6
:1002800019467047064C074D06E0E06840F0010350
:1002900094E8070098471034AC42F6D3FFF778FF94
:1002A000A09B0008C09B000880B587B013468C4611
:1002B0008646069005918DF813209DF8130001469F
:1002C00001280393CDF808C0CDF804E0009104D0D4
:1002D000FFE70098022801D001E000E0FFE70020DE
:1002E00007B080BD82B0014601900020009102B0AD
:1002F000704700000020704780B586B013468C46DA
:10030000864605900491039200200293CDF804C024
:10031000CDF800E006B080BD82B001468DF8070040
:100320000020009102B0704780B586B013468C461D
:100330008646059004918DF80F2000200293CDF899
:1003400004C0CDF800E006B080BD000080B586B0E6
:100350000A460346059004910598D0F8BC02039024
:10036000039800280292019301D1FFE711E003985E
:1003700000F20B204021FFF75BFF0598039901F283
:100380000B21DDF810E0BEF8062006F0D5FA00904B
:10039000FFE706B080BD000080B586B00A46034680
:1003A000059004910598D0F8BC02039003980028AA
:1003B0000292019301D1FFE71CE00498C088002855
:1003C00018D0FFE70598039901F20B21049AD2880F
:1003D00006F072FA0399012281F80A2204998979B8
:1003E000039A82F84B1204994979039A82F84C12C5
:1003F0000090FFE706B080BD82B001468DF807008F
:100400000020009102B07047FFE7FEE780B586B09C
:1004100013468C46864605900491ADF80E2004984C
:10042000059908600498BDF80E1000EB81000438AF
:100430000599486004980599C860049805998860F2
:10044000BDF80E0005990861059840F22811C2F226
:10045000000141610293CDF804C0CDF800E006B080
:1004600080BD000080B587B013468C468646069056
:100470000591ADF8122006984069BDF81210A0EB66
:10048000810000280293CDF804C0CDF800E030D3FD
:10049000FFE700200390FFE70398BDF812108842A1
:1004A0001FDAFFE706984168C068884204D3FFE777
:1004B00006980168C160FFE70698C0680068059962
:1004C00008600698C068002101600698C168043180
:1004D000C160059804300590FFE703980130039050
:1004E000DAE7BDF81200069949690A68101A08602F
:1004F000FFE707B080BD000082B00146019001987F
:1005000040690068009102B07047000080B541F674
:10051000EC00C2F2000000F01BF980BD84B001467F
:1005200003900398007810384AF6AB22CAF6AA2244
:10053000A0FB020212090292029A49F65633C0F653
:1005400000039A5C039BDA65029A042A01910090E9
:1005500007D3FFE703980168042262F3090181656C
:1005600006E00398016840F2FF3291438165FFE79E
:100570000398806D04B0704787B001460690002054
:100580008DF817000698806A049006988069002804
:10059000039122D1FFE70498032802901BD8029907
:1005A000DFE801F0020D02180698C06AC0010028B9
:1005B00004D5FFE701208DF81700FFE70CE006984F
:1005C000C06AB0F1C07F04D1FFE701208DF81700A9
:1005D000FFE701E000E0FFE745E006988069B0F53D
:1005E000005F25D1FFE70498032801901ED80199E8
:1005F000DFE801F00206021101208DF8170016E075
:100600000698C06AC001002804D5FFE701208DF8D4
:100610001700FFE70BE00698C06AB0F1C07F04D175
:10062000FFE701208DF81700FFE700E0FFE719E082
:1006300004980328009004D3FFE70098032804D00F
:100640000EE001208DF817000BE00698C06AC0018B
:10065000002804D5FFE701208DF81700FFE700E030
:10066000FFE7FFE7FFE79DF8170007B070470000BE
:10067000B0B588B09C4696460C4605460790069154
:100680000592049307980068016821F480210160B5
:100690000498079909684860079880684028CDF851
:1006A0000CC0CDF808E00194009509D1FFE705984A
:1006B000079909688860069807990968C86008E082
:1006C0000698079909688860059807990968C860BD
:1006D000FFE708B0B0BD00007047000081B0EFF345
:1006E000108072B60090FFE7FEE7000080B584B08E
:1006F00047F61020C1F6FF700068039047F61420FB
:10070000C1F6FF700068029047F61820C1F6FF702E
:100710000068019001980399084403900398002809
:1007200013D0FFE7039840F20811C2F200018A1CBF
:100730000823009111461A4604F0A8FA029800997D
:100740001231042204F0A2FAFFE704B080BD0000D9
:1007500080B588B0014607900020059040F21C004B
:10076000C2F20000006848F2B512C1F64E32A0FB9A
:100770000202920A0492079A926D0392039A1268F7
:100780000692069A079BDB6D4FF0080C0CFA03F3F8
:100790001A42029101901BD0FFE707980068006899
:1007A0004007002813D5FFE707980068016821F08B
:1007B000040101600798C06D082101FA00F0039957
:1007C00088600798416D41F001014165FFE7FFE74F
:1007D00006980799C96D012202FA01F1084215D065
:1007E000FFE7079800684069000600280DD5FFE77D
:1007F0000798C06D012101FA00F0039988600798FD
:10080000416D41F002014165FFE7FFE70698079956
:10081000C96D042202FA01F1084215D0FFE70798DA
:1008200000680068800700280DD5FFE70798C06DB5
:10083000042101FA00F0039988600798416D41F0A6
:1008400004014165FFE7FFE706980799C96D10228B
:1008500002FA01F108424BD0FFE7079800680068F0
:100860000007002843D5FFE70798C06D102101FA63
:1008700000F003998860079800680068400300282A
:100880001CD5FFE7079800680068000300280AD419
:10089000FFE70798006C002804D0FFE70798016C79
:1008A0008847FFE709E00798806C002804D0FFE73D
:1008B0000798816C8847FFE7FFE717E00798006813
:1008C0000068C005002807D4FFE7079800680168A2
:1008D00021F008010160FFE70798006C002804D0B0
:1008E000FFE70798016C8847FFE7FFE7FFE7FFE7AF
:1008F00006980799C96D202202FA01F1084200F01A
:100900009580FFE7079800680068C006002840F15E
:100910008C80FFE70798C06D202101FA00F0039951
:100920008860079890F83500052838D1FFE70798C8
:100930000068016821F016010160079800684169AC
:1009400021F0800141610798006C002805D1FFE784
:100950000798806C002807D0FFE7079800680168B7
:1009600021F008010160FFE70798C06D3F2101FAFF
:1009700000F003998860FFE70798002180F83410A1
:10098000FFE70798012180F835100798006D0028CF
:1009900004D0FFE70798016D8847FFE781E00798DB
:1009A00000680068400300281CD5FFE7079800682E
:1009B0000068000300280AD4FFE70798406C00286D
:1009C00004D0FFE70798416C8847FFE709E00798E4
:1009D000C06B002804D0FFE70798C16B8847FFE78A
:1009E000FFE721E0079800680068C005002811D4DF
:1009F000FFE707980068016821F010010160FFE738
:100A00000798002180F83410FFE70798012180F84B
:100A10003510FFE70798C06B002804D0FFE7079860
:100A2000C16B8847FFE7FFE7FFE7FFE70798406DE7
:100A3000002836D0FFE70798406DC007002826D071
:100A4000FFE70798052180F83510079800680168CE
:100A500021F001010160FFE705980130059004993C
:100A6000884201D9FFE707E0FFE7079800680068C0
:100A7000C0070028F0D1FFE7FFE70798002180F8C2
:100A80003410FFE70798012180F83510FFE7079839
:100A9000C06C002804D0FFE70798C16C8847FFE7C7
:100AA000FFE708B080BD000080B586B00146049025
:100AB00000200390009100F057FB0290049800285A
:100AC00004D1FFE701208DF81700AAE00498406ADE
:100AD000002801D0FFE7FFE7FFE70498002180F836
:100AE0003410FFE70498022180F83510049800685C
:100AF000016821F001010160FFE7049800680068C7
:100B0000C007002814D0FFE700F02EFBDDF808E056
:100B1000A0EB0E0006280AD3FFE7049820214165C8
:100B20000498032180F835108DF8171079E0E4E778
:100B30000498006800680390039848F23F01CFF2E0
:100B4000100108400390049841688268C368D0F897
:100B500010C01143194341EA0C01426911438269F3
:100B60001143C2691143006A084303990843039083
:100B70000498406A042808D1FFE70498C16A006B12
:100B80000843039908430390FFE703980499096811
:100B900008600498006840690390039820F00700FB
:100BA00003900498406A0399084303900498406AAC
:100BB00004281CD1FFE70498806A03990843039036
:100BC0000498C06A002811D0FFE70498FFF7D4FC0E
:100BD00000280AD0FFE704984021416504980121CC
:100BE00080F835108DF817101BE0FFE7FFE703983A
:100BF0000499096848610498FFF790FC01900498F3
:100C0000C06D3F2101FA00F001998860049800212D
:100C1000416504984FF0010E80F835E08DF817100B
:100C2000FFE79DF8170006B080BD0000B0B58CB09E
:100C30009C4696460C4605460A90099108920793F1
:100C400000208DF81B000A98806D0590CDF810C02B
:100C5000CDF80CE002940195FFE70A9890F8340073
:100C6000012804D1FFE702208DF82F0047E00A9801
:100C7000012180F83410FFE7FFE70A9890F835006B
:100C800001282DD1FFE70A98022180F835100A9833
:100C9000002141650A980999089A079BFFF7E8FC2B
:100CA0000A98C06D3F2101FA00F0059988600A9802
:100CB0000068016841F0160101600A98006C002884
:100CC00007D0FFE70A980068016841F00801016059
:100CD000FFE70A980068016841F00101016009E03E
:100CE000FFE70A98002180F83410FFE702208DF812
:100CF0001B00FFE79DF81B008DF82F00FFE79DF814
:100D00002F000CB0B0BD000080B584B00146039048
:100D1000009100F029FA02900398019001980130A7
:100D2000002809D0FFE740F22210C2F2000000784C
:100D3000019908440190FFE7FFE700F015FADDF89C
:100D400008E0A0EB0E00DDF804E0704501D2FFE7FB
:100D5000F3E704B080BD000091B00A46034610904E
:100D60000F9100200D900C900B900E90099208931B
:100D7000FFE70E980F2800F2D381FFE70E980121BC
:100D800001FA00F00D900F9800680D9908400C9042
:100D90000C980D99884240F0BE81FFE70F9840689B
:100DA00000F00300012807D0FFE70F98406800F02B
:100DB000030002282FD1FFE7109880680B900E984F
:100DC0004000032101FA00F00B9921EA00000B908A
:100DD0000F98C0680E99490088400B9908430B9002
:100DE0000B9810998860109840680B900E9801211C
:100DF00001FA00F00B9921EA00000B900F9840686F
:100E0000C0F300100E9988400B9908430B900B9883
:100E100010994860FFE70F98406800F0030003282E
:100E200018D0FFE71098C0680B900E98400003217F
:100E300001FA00F00B9921EA00000B900F988068EE
:100E40000E99490088400B9908430B900B98109914
:100E5000C860FFE70F98406800F00300022826D121
:100E6000FFE710980E996FF0030202EA510108445F
:100E7000006A0B900E9800F0070080000F2101FA25
:100E800000F00B9921EA00000B900F9800690E9971
:100E900001F00701890088400B9908430B900B98DB
:100EA00010990E9B02EA530211440862FFE7109862
:100EB00000680B900E984000032101FA00F00B9996
:100EC00021EA00000B900F98406800F003000E9993
:100ED000490088400B9908430B900B9810990860C3
:100EE0000F984068C000002840F11481FFE7FFE739
:100EF00000200A9043F64400C4F20200016841F465
:100F000080410160006800F480400A900A980790D0
:100F1000FFE70E9820F0030043F60801C4F2010138
:100F200040580B900E9800F0030080000F2101FA4A
:100F300000F00B9921EA00000B9010980021C4F2F8
:100F40000201884203D1FFE7002006905EE010987E
:100F500040F20041C4F20201884203D1FFE70120C0
:100F6000059050E0109840F60001C4F2020188425A
:100F700003D1FFE70220049042E0109840F60041C0
:100F8000C4F20201884203D1FFE70320039034E05A
:100F9000109841F20001C4F20201884203D1FFE738
:100FA0000420029026E0109841F20041C4F20201B0
:100FB000884203D1FFE70520019018E0109841F620
:100FC0000001C4F20201884203D1FFE7062000902D
:100FD0000AE0109841F60041C4F20201082288425A
:100FE00008BF07220092FFE700980190FFE70198F1
:100FF0000290FFE702980390FFE703980490FFE751
:1010000004980590FFE705980690FFE70698C0B2A0
:101010000E9901F00301890088400B9908430B9059
:101020000B980E9921F0030143F60802C4F2010265
:10103000885043F60040C4F2010000680B900C9801
:101040000B9921EA00000B900F984068C00300281C
:1010500005D5FFE70C980B9908430B90FFE70B9819
:1010600043F60041C4F20101086043F60440C4F2B3
:10107000010000680B900C980B9921EA00000B907E
:101080000F9840688003002805D5FFE70C980B995E
:1010900008430B90FFE70B9843F60441C4F20101AB
:1010A000086043F60840C4F2010000680B900C98F9
:1010B0000B9921EA00000B900F984068C0020028AD
:1010C00005D5FFE70C980B9908430B90FFE70B98A9
:1010D00043F60841C4F20101086043F60C40C4F233
:1010E000010000680B900C980B9921EA00000B900E
:1010F0000F9840688002002805D5FFE70C980B99EF
:1011000008430B90FFE70B9843F60C41C4F2010132
:101110000860FFE7FFE7FFE70E9801300E9028E632
:1011200011B0704780B585B013468C468646049052
:10113000ADF80E108DF80D209DF80D0000280293DB
:10114000CDF804C0CDF800E005D0FFE7BDF80E00F3
:101150000499886105E0BDF80E00000404998861D7
:10116000FFE705B080BD000041F68460C2F20000D8
:101170000068704780B58AB00146099009980068F8
:10118000806808900998006843F60002C4F20002E3
:1011900044F20803C4F20003904204BF43F2084340
:1011A000C4F2000318680790099800684068069028
:1011B0000998006844F20403C4F20003904204BF9B
:1011C00043F20443C4F2000318680590099840688C
:1011D000B0F5007F029106D0FFE70998406800282B
:1011E00040F09880FFE708988007002809D5FFE7BE
:1011F00006980006002804D5FFE7099803F096FB3F
:10120000FFE70798C007002809D0FFE705984006C8
:10121000002804D5FFE7099803F03CFBFFE7079897
:10122000400600283AD5FFE705988006002835D506
:10123000FFE70998006843F60001C4F2000144F298
:101240000402C4F20002884204BF43F20442C4F222
:101250000002106820F06000106009980068416882
:1012600021F0A0014160FFE7002004900998006888
:10127000C068049009980068806804900498019000
:10128000FFE70998012180F841100998416C41F06D
:1012900002014164099800F0C7F8FFE708980007C9
:1012A000002836D5FFE706988006002831D5FFE7ED
:1012B00009980068416821F0A00141600998006820
:1012C00043F60001C4F2000144F20402C4F2000239
:1012D000884204BF43F20442C4F20002106820F0C6
:1012E00060001060FFE700200390099800688068A4
:1012F000039003980090FFE70998012180F84110BE
:101300000998416C41F004014164099800F08CF89F
:10131000FFE780E007988007002809D5FFE70598D8
:101320000006002804D5FFE7099803F02BFBFFE730
:101330000898C007002809D0FFE706984006002853
:1013400004D5FFE7099803F077FAFFE7089840060D
:1013500000282DD5FFE706988006002828D5FFE74E
:1013600009980068416821F06001416009980068AF
:1013700043F60001C4F2000144F20402C4F2000288
:10138000884204BF43F20442C4F20002106820F015
:10139000A000106009984FF0010180F841100998F1
:1013A000416C41F002014164099800F03DF8FFE70B
:1013B0000798000700282DD5FFE70598800600282C
:1013C00028D5FFE70998006843F60001C4F2000140
:1013D00044F20402C4F20002884204BF43F2044211
:1013E000C4F20002106820F0A000106009980068A4
:1013F000416821F06001416009984FF0010180F8D7
:1014000041100998416C41F004014164099800F0D1
:101410000BF8FFE7FFE70AB080BD000082B001468D
:101420000190009102B0704782B001460190009196
:1014300002B0704780B582B0014601900198426BBE
:101440000091904702B080BD80B58AB001460890F7
:1014500008980028019104D1FFE701208DF82700AA
:101460003EE1089890F8410000280ED1FFE7089867
:10147000002180F84010089844F6B921C0F6000118
:101480004163089800F030F9FFE70898022180F8DE
:10149000411008980068C26940F6BF739A43C26160
:1014A00008980068016208984069022867D0FFE741
:1014B0000898C068002803D1FFE71020059002E0DB
:1014C00020200590FFE708988068202804D8FFE7CF
:1014D000059840000590FFE7012001F059FD0390B9
:1014E00008980069B0F5007F24D1FFE70898C0682C
:1014F00000280FD0FFE7039805998900B0FBF1F0B1
:1015000000EB8000400008994969B0FBF1F005301C
:1015100004900EE003980599C900B0FBF1F000EBD0
:101520008000400008994969B0FBF1F00530049053
:10153000FFE70DE003980599B0FBF1F000EB8000A8
:10154000400008994969B0FBF1F005300490FFE7CD
:1015500004984CF6CD41CCF6CC41A0FB0101C90862
:101560000491049901F0010106910499069A891ADF
:1015700049080791069909020691009004E00220AB
:10158000079000200690FFE70798022805D3FFE7A1
:101590000798B0F5807F09D3FFE70898416C41F0C8
:1015A0001001416401208DF8270099E00798069901
:1015B000089A136812691143084318620898006872
:1015C000C06940F6BF71884308990A684B68D1F832
:1015D00008C0D1F80CE043EA0C0343EA0E03896922
:1015E0001943084340F40060D0610898006A01285C
:1015F0006CD1FFE7089841F27511C0F60001416314
:101600000898006843F60001C4F2000144F21C028D
:10161000C4F200028842104604BF43F21C40C4F2E8
:101620000000036840F6BF7C23EA0C0303600898BF
:10163000006844F22003C4F20003884204BF43F26E
:101640002043C4F200034FF00200186008980068BD
:10165000884204BF43F21C42C4F200021068ADF895
:101660000A0008984068B0F5007F05D0FFE70898A9
:101670004068002804D1FFE74FF48070049002E036
:1016800000200490FFE7049808998A6810438A892B
:101690001043098B0843BDF80A10084340F400606A
:1016A000ADF80A00BDF80A000899096843F600027F
:1016B000C4F2000244F21C03C4F20003914204BFCE
:1016C00043F21C43C4F200031860FFE708980021AE
:1016D00041640898012280F841208DF82710FFE727
:1016E0009DF827000AB080BD80B598B001461790DC
:1016F0000020169015901490139012901190109055
:101700000F900E901798006843F60002C4F2000292
:1017100090420A9140F0AE80FFE701200E906420D5
:101720000F90022010900EA801F096FC002803D024
:10173000FFE7FEF7D3FFFFE7FFE700200D9043F63A
:101740004000C4F20200016841F480410160006879
:1017500000F480400D900D980990FFE7FFE700200E
:101760000C9043F63000C4F20200016841F004011D
:101770000160006800F004000C900C980890FFE7EE
:10178000FFE700200B9043F63000C4F2020001682E
:1017900041F002010160006800F002000B900B981C
:1017A0000790FFE708201290022013900021149167
:1017B00015910522169240F60003C4F202030DF1C2
:1017C000480C06901846059161460492CDF80CC06D
:1017D000FFF7C2FA4FF4A0501290069813900599A3
:1017E00014911591049A169240F20040C4F202003E
:1017F0000399FFF7B1FA41F6EC00C2F2000046F29D
:101800005801C4F202010160059941608160C16024
:101810004FF4806202614FF4006242614FF4005263
:1018200082614FF48072C2614FF40032026204227E
:10183000426203228262C1620163FFF735F9002828
:1018400003D0FFE7FEF74AFFFFE7FFE7179841F6EF
:10185000EC01C2F20001C16317988863FFE72420FE
:10186000002102900191019A00F09EF9029800F087
:101870008FF9FFE718B080BD80B58CB013468C4659
:1018800086460A900991ADF8222009980028059310
:10189000CDF810C0CDF80CE005D0FFE7BDF8220070
:1018A000002804D1FFE701208DF82F00C0E0FFE7FA
:1018B0000A9890F84000012804D1FFE702208DF833
:1018C0002F00B5E00A98012180F84010FFE7FFE7FC
:1018D0000A9890F8410001280AD0FFE7FFE70A982C
:1018E000002180F84010FFE702208DF82F009FE0D4
:1018F0000A98042180F841100A980021416409984F
:101900000A99C8620A980068C06900F00700079049
:101910000798032804D0FFE7079805280BD1FFE7B5
:10192000BDF8220040000A990886BDF82200400058
:101930000A99488608E0BDF822000A990886BDF891
:1019400022000A994886FFE70A98C06B44F69D2159
:10195000C0F6000101640A98C06B44F65D21C0F630
:101960000001C1630A98C06B44F61921C0F600015A
:10197000C1640A980068C06900F44070B0F5407F07
:101980000FD1FFE7FFE7002006900A980068C068C3
:1019900006900A9800688068069006980290FFE713
:1019A000FFE70A980168C26AC36B0C31008E019090
:1019B0001846019BFFF73AF9002813D0FFE70A9871
:1019C000416C41F0080141640A98012180F84110FE
:1019D000FFE70A98002180F84010FFE701208DF80A
:1019E0002F0025E00A980068C0694005002807D448
:1019F000FFE70A980068C16941F48061C161FFE7AF
:101A00000A9800684068C007002807D1FFE70A98D5
:101A10000068416841F001014160FFE7FFE70A9873
:101A2000002180F84010FFE700208DF82F00FFE72D
:101A30009DF82F000CB080BD82B001460190019846
:101A400041F64C12C2F200029042009101D1FFE730
:101A5000FFE702B07047000082B00146019000919C
:101A600002B0704782B001460190009102B0704709
:101A700040F22210C2F20000007841F68461C2F206
:101A800000010A68104408607047000080B582B009
:101A900043F60040C4F20200016841F400710160A5
:101AA000016841F480610160016841F48071016066
:101AB000032000F09FF80F2000F006F8019000F0DE
:101AC0003FF8002002B080BD80B584B0014602908E
:101AD00040F21C00C2F20000006840F22212C2F282
:101AE000000212784FF47A73B3FBF2F2B0FBF2F01B
:101AF000019102F0E7F9002804D0FFE701208DF8FA
:101B00000F0018E002980F280DD8FFE702994FF058
:101B1000FF30002200F048F8029840F22411C2F28F
:101B20000001086003E001208DF80F0003E00020B1
:101B30008DF80F00FFE79DF80F0004B080BD000096
:101B400084B0FFE70020039043F64400C4F2020093
:101B5000016841F480410160006800F48040039016
:101B600003980190FFE7FFE70020029043F6400052
:101B7000C4F20200016841F080510160006800F089
:101B80008050029002980090FFE704B07047000078
:101B900080B582B001468DF807009DF907000091DD
:101BA00007F022FF02B080BD80B58AB013468C4694
:101BB00086468DF82700089107920020069005932D
:101BC000CDF810C0CDF80CE007F02AFF06909DF983
:101BD00027000699089A079B0290084611461A4664
:101BE00003F02AFD029901900846019907F020FFB1
:101BF0000AB080BD80B582B0014601900198009185
:101C000007F03CFF02B080BD84B00A460346039053
:101C10008DF80B100192009304B0704784B00A460F
:101C200003460390ADF80A10BDF80A00039909684D
:101C3000486200200192009304B0704780B587B0DD
:101C400013468C46864606908DF81710ADF8142082
:101C500006980068406A03909DF8170000280293D8
:101C6000CDF804C0CDF800E009D1FFE7BDF81400BD
:101C7000039941EA004006990968886233E00698B2
:101C80000068806A039901EB1040039000208DF8F2
:101C90001300FFE79DF813009DF8171001398842E3
:101CA00013D2FFE7069800689DF8131000EB81003F
:101CB000D0F80401039901EB10400390FFE79DF871
:101CC000130001308DF81300E4E7BDF81400039908
:101CD00041EA0040069909689DF8172001EB82014E
:101CE000C1F80001FFE7002007B080BD80B584B0D7
:101CF000014603900398D0F80404029105F0C0FB5C
:101D0000019004B080BD000080B586B00A4603464D
:101D100005908DF813100598D0F804149DF813C0A1
:101D2000CCEBCC0E00EB8E00806C03900846614635
:101D3000DDF80CC002926246019305F04FFA009064
:101D400006B080BD80B586B00A46034605908DF882
:101D500013100598D0F804149DF813C0CCEBCC0EEA
:101D600000EB8E00D0F80802039008466146DDF8CB
:101D70000CC002926246019305F0F2FA009006B0A0
:101D800080BD000080B584B0014603900398D0F870
:101D90000404029105F07CFB019004B080BD0000BA
:101DA00080B588B00A46034606908DF817109DF856
:101DB000170000060028039202930FD5FFE706984C
:101DC0009DF8171001F00F01C1EBC10100EB81007C
:101DD0003C3004900498012141700FE006989DF872
:101DE000171001F00F01C1EBC10100EB810000F5FC
:101DF000FE700490049800214170FFE79DF81700E1
:101E000000F00F0004990870FFE7069890F8BC03F3
:101E1000012804D1FFE702208DF81F0015E0069885
:101E2000012180F8BC13FFE7FFE7069800680499DA
:101E300006F0CEFC0190FFE70698002180F8BC1365
:101E4000FFE700208DF81F00FFE79DF81F0008B096
:101E500080BD000080B588B00A46034606908DF824
:101E600017109DF8170000F00F0006994968884286
:101E70000392029304D9FFE701208DF81F004EE082
:101E80009DF81700000600280FD5FFE706989DF87B
:101E9000171001F00F01C1EBC10100EB81003C30D4
:101EA00004900498012141700FE006989DF81710E6
:101EB00001F00F01C1EBC10100EB810000F5FE70E4
:101EC0000490049800214170FFE70498002181707C
:101ED0009DF8170000F00F0004990870FFE70698BE
:101EE00090F8BC03012804D1FFE702208DF81F0001
:101EF00015E00698012180F8BC13FFE7FFE706987C
:101F00000068049907F020F80190FFE70698002187
:101F100080F8BC13FFE700208DF81F00FFE79DF855
:101F20001F0008B080BD000080B588B00A46034697
:101F300006908DF8171004920393FFE7069890F827
:101F4000BC03012804D1FFE702208DF81F0025E023
:101F50000698012180F8BC13FFE7FFE79DF8170002
:101F6000000600280AD5FFE7069800689DF81710BC
:101F700001F00F0107F090FA029005E00698006862
:101F800007F062FA0190FFE7FFE70698002180F86A
:101F9000BC13FFE700208DF81F00FFE79DF81F002E
:101FA00008B080BD84B00A46034603908DF80B103C
:101FB00003989DF80B1001F00F01C1EBC10100EB7C
:101FC0008100D0F814020192009304B07047000021
:101FD000B0B58AB09C4696460C46054608908DF8EA
:101FE0001F10ADF81C208DF81B3000208DF81A0052
:101FF0009DF81F0000060028CDF810C0CDF80CE0B9
:10200000029401950FD5FFE708989DF81F1001F085
:102010000F01C1EBC10100EB81003C300590059838
:10202000012141700FE008989DF81F1001F00F0189
:10203000C1EBC10100EB810000F5FE700590059831
:1020400000214170FFE79DF81F0000F00F00059987
:102050000870BDF81C00059988609DF81B00059963
:10206000C87005984078002804D0FFE705980178EB
:10207000C180FFE79DF81B00022804D1FFE7059807
:1020800000210171FFE7FFE7089890F8BC030128E1
:1020900004D1FFE702208DF8270016E008980121FF
:1020A00080F8BC13FFE7FFE708980068059906F081
:1020B0008DF90090FFE70898002180F8BC13FFE736
:1020C0009DF81A008DF82700FFE79DF827000AB059
:1020D000B0BD0000B0B58EB09C4696460C46054695
:1020E0000D908DF833100B920A930D989DF83310D4
:1020F00001F00F01C1EBC10100EB810000F5FE70A2
:1021000009900B980999C8600A980999486109983B
:1021100000218161099841709DF8330000F00F00A3
:10212000099908700D9800690128CDF820C0CDF8F4
:102130001CE00694059504D1FFE70B980999086106
:10214000FFE79DF83300000700280CD1FFE70D984A
:102150000168099A007C049008461146049A06F02A
:1021600093FD03900BE00D980168099A007C0290A2
:1021700008461146029A06F097FF0190FFE70020FB
:102180000EB0B0BD80B58AB00A46034608908DF8FF
:102190001F109DF81F0000F00F0008994968884241
:1021A0000592049304D9FFE701208DF827005FE032
:1021B0009DF81F00000600280FD5FFE708989DF83E
:1021C0001F1001F00F01C1EBC10100EB81003C3099
:1021D00006900698012141700DE008989DF81F10A7
:1021E000C1EBC10100EB810000F5FE70069006987E
:1021F00000214170FFE70698012181709DF81F00C2
:1022000000F00F0006990870FFE7089890F8BC03EB
:10221000012804D1FFE702208DF8270028E0089864
:10222000012180F8BC13FFE7FFE7089800680699D2
:1022300006F0DEFE9DF81F100907002903900DD15E
:10224000FFE708980168027C00F57170029008466B
:102250001146029A06F01EFE0190FFE7FFE708987C
:10226000002180F8BC13FFE700208DF82700FFE76E
:102270009DF827000AB080BDB0B58EB09C4696464A
:102280000C4605460D908DF833100B920A930D986D
:102290009DF8331001F00F01C1EBC10100EB81008B
:1022A0003C3009900B980999C8600A9809994861CF
:1022B0000998002181610998012141709DF833003E
:1022C00000F00F00099908700D9800690128CDF8F9
:1022D00020C0CDF81CE00694059504D1FFE70B98CB
:1022E00009990861FFE79DF83300000700280CD129
:1022F000FFE70D980168099A007C04900846114692
:10230000049A06F0C1FC03900BE00D980168099A4D
:10231000007C029008461146029A06F0C5FE019024
:10232000FFE700200EB0B0BD80B59AB0014619900D
:1023300019980068189018981790199800680F91CC
:1023400007F002F9002840F03783FFE7199800688A
:1023500007F074F9002801D1FFE72DE31998006810
:1023600007F06CF98007002807D5FFE71998006887
:10237000416901F002014161FFE71998006807F027
:102380005DF9C006002865D5FFE7199800688169E6
:1023900021F0100181611898006A11901998119923
:1023A00001F00F01C1EBC10100EB810000F5FE70EF
:1023B0001090119800F4F0100221B1EB504F25D18C
:1023C000FFE7BDF8440047F6F07108421DD0FFE773
:1023D00018981099C968119AC2F30A1207F03EF9C9
:1023E000119947F6F0721140DDF840E0DEF80C304C
:1023F00003EB1111CEF80C1011991140109A93694A
:1024000003EB111191610E90FFE71CE0119800F4AD
:10241000F0100621B1EB504F13D1FFE7189819992E
:1024200001F57171082207F019F9119947F6F07258
:102430001140109AD2F818E00EEB111191610D9035
:1024400000E0FFE7FFE719980068816941F010019B
:102450008161FFE71998006807F0F0F80003002891
:102460006ED5FFE7002013901998006807F08AF8EE
:102470001590FFE71598002861D0FFE79DF85400FC
:10248000C007002854D0FFE7199800689DF84C1049
:1024900007F0B8F814901498C00700280DD0FFE793
:1024A0001798139900EB41100121C0F8081B1998E7
:1024B000139903F055F90C90FFE7149800070028D2
:1024C0000DD5FFE71798139900EB41100821C0F8CC
:1024D000081B1998139903F0F7F80B90FFE714986D
:1024E000C006002808D5FFE71798139900EB4110A4
:1024F0001021C0F8081BFFE714988006002808D5B3
:10250000FFE71798139900EB41102021C0F8081B32
:10251000FFE714988004002809D5FFE7179813995E
:1025200000EB41104FF40051C0F8081BFFE7FFE734
:102530001398013013901598400815909AE7FFE71B
:102540001998006807F07AF84003002840F1AE803F
:10255000FFE71998006807F001F815900020139024
:10256000FFE71598002800F0A080FFE79DF85400D1
:10257000C007002800F09280FFE7199800689DF8D6
:102580004C1007F013F814901498C007002845D099
:10259000FFE7139800F00F00012101FA00F01290FC
:1025A0001298179AD2F8343823EA0000C2F8340897
:1025B0001798139A00EB4210C0F80819199800698F
:1025C000012825D1FFE719981399C1EBC10100EB50
:1025D0008100416C826C114481641398002816D1EB
:1025E000FFE719981399C1EBC10100EB8100006D61
:1025F00000280CD1FFE71998016800F571720120DD
:102600000A9008460A9906F045FC0990FFE7FFE7A3
:1026100019989DF84C10FFF777FBFFE71498000717
:10262000002808D5FFE71798139900EB41100821FF
:10263000C0F80819FFE71498C006002808D5FFE77E
:102640001798139900EB41101021C0F80819FFE703
:1026500014984006002808D5FFE71798139900EB57
:1026600041104021C0F80819FFE71498800700289E
:1026700008D5FFE71798139900EB41100221C0F825
:102680000819FFE714980006002806D5FFE71998F7
:10269000139903F061F90890FFE7FFE71398013001
:1026A00013901598400815905BE7FFE719980068AC
:1026B00006F0C4FFC00F002820D0FFE71798D0F81D
:1026C000041821F00101C0F80418199890F8F403D7
:1026D000012808D1FFE71998002180F8F413199810
:1026E000FFF792FA03E0199800F086FBFFE71998CC
:1026F0000068416901F000414161FFE719980068F5
:1027000006F09CFF0005002812D5FFE71798D0F8C7
:102710000808C007002804D0FFE7199800F014FC4F
:10272000FFE719980068416901F400614161FFE722
:102730001998006806F082FFC004002840F19780D5
:10274000FFE71798D0F8041821F00101C0F8041829
:1027500019980068102106F09FFE0021169107903D
:10276000FFE716981999496888423BD2FFE7179806
:10277000169900EB41104FF67F31C0F808191798F1
:10278000169A00EB4210D0F8002922F40012C0F88B
:1027900000291798169A00EB4210D0F8002942F051
:1027A0000062C0F800291798169A00EB4210C0F892
:1027B000081B1798169900EB4110D0F8001B21F464
:1027C0000011C0F8001B1798169900EB4110D0F8C3
:1027D000001B41F00061C0F8001BFFE716980130B4
:1027E0001690BEE71798D0F81C1841F00111C0F8F8
:1027F0001C181998006B00280FD0FFE71798D0F825
:10280000841841F00B01C0F884181798D0F84418C8
:1028100041F00B01C0F844180FE01798D0F81418D5
:1028200042F22B021143C0F814181798D0F8101870
:1028300041F00B01C0F81018FFE71798D0F8001806
:1028400021F4FE61C0F8001819980168027C00F5B7
:102850007170069008461146069A06F01BFB1999FE
:1028600009684A6902F480524A610590FFE71998A5
:10287000006806F0E3FE800400282CD5FFE71998D5
:10288000006805F017FEDDF864E0DEF800E0049073
:10289000704606F02FFEDDF864E0CEF80C001998C3
:1028A0000068039000F042FEDDF864E09EF80C2022
:1028B000DDF80CE002907046029906F069FF199964
:1028C0000190084600F068FA19980068416901F41F
:1028D00000514161FFE71998006806F0AFFE00075C
:1028E00000280CD5FFE7199800F094FA19980068B1
:1028F000D0F814E00EF0080EC0F814E0FFE71998C5
:10290000006806F09BFEC00200280ED5FFE70020FD
:10291000139019989DF84C1000F050F81998006821
:10292000416901F480114161FFE71998006806F0E0
:1029300085FE800200280ED5FFE70020139019982D
:102940009DF84C1000F04EF819980068416901F4A8
:1029500000114161FFE71998006806F06FFE400022
:1029600000280CD5FFE71998FFF7C0F919980068FF
:10297000D0F814E00EF0804EC0F814E0FFE719988C
:10298000006806F05BFE4007002814D5FFE71998A1
:1029900000684068119011984007002804D5FFE7AF
:1029A0001998FFF7EFF9FFE71198199909684A6834
:1029B00010434860FFE7FFE71AB080BD80B586B0DE
:1029C0000A46034605908DF813100598D0F80404C4
:1029D0009DF813100392029304F028FE019006B0B4
:1029E00080BD000080B586B00A46034605908DF88C
:1029F00013100598D0F804049DF813100392029365
:102A000004F04AFE019006B080BD00002DE9F04FB1
:102A100099B00146179017980028149104D1FFE748
:102A200001208DF8630053E11798006816901798FD
:102A300090F8BD03002808D1FFE71798002180F81F
:102A4000BC13179800F04AF9FFE71798032180F8A4
:102A5000BD131698C06BC005002804D4FFE7179873
:102A600000210161FFE71798006806F001F9DDF821
:102A70005CE0DEF80010DEF80420DEF80830DEF856
:102A80000CC0DEF81040DEF81450DEF81860DEF8F6
:102A90001C70DEF82080DEF82490DEF828A0DEF836
:102AA0002CB01390DEF83000DEF834E01290684667
:102AB000C0F824E0DDF848E0C0F820E0C0F81CB021
:102AC000C0F818A0C0F81490C0F81080C7608660E5
:102AD00045600460084611461A46634605F0B0FD9D
:102AE000002808D0FFE71798022180F8BD130120C5
:102AF0008DF86300ECE0179800680021119106F052
:102B0000DDFD11998DF857101090FFE79DF85700E3
:102B100017994968884245D2FFE717989DF85710E2
:102B2000C1EBC10100EB8100012180F83D109DF84F
:102B300057001799C0EBC00201EB820181F83C00FD
:102B40009DF857001799C0EBC00201EB8201A1F874
:102B5000420017989DF85710C1EBC10100EB8100AE
:102B6000002180F83F1017989DF85720C2EBC20251
:102B700000EB8200416417989DF85720C2EBC20217
:102B800000EB8200816417989DF85720C2EBC202C7
:102B900000EB82000165FFE79DF8570001308DF8DA
:102BA0005700B3E700208DF85700FFE79DF8570066
:102BB0001799496888423ED2FFE717989DF8571049
:102BC000C1EBC10100EB8100002180F8FD119DF8EF
:102BD0005700179AC0EBC00302EB830282F8FC0196
:102BE00017989DF85720C2EBC20200EB820080F8D4
:102BF000FF1117989DF85720C2EBC20200EB82002C
:102C0000C0F8041217989DF85720C2EBC20200EBDF
:102C10008200C0F8081217989DF85720C2EBC20234
:102C200000EB8200C0F81012FFE79DF8570001305A
:102C30008DF85700BAE71798016842688368D0F8A2
:102C40000CC0D0F810E044698569C669076AD0F8FD
:102C50002480D0F82890D0F82CA0D0F830B0406B69
:102C60000F9068460E900F980D910E994862C1F82A
:102C700020B0C1F81CA0C1F81890C1F814800F61F1
:102C8000CE608D604C60C1F800E00D9811461A4688
:102C9000634605F077FE002808D0FFE71798022169
:102CA00080F8BD1301208DF8630011E01798002112
:102CB00080F838101798012280F8BD231798006813
:102CC0000C9105F047FE0C998DF863100B90FFE70F
:102CD0009DF8630019B0BDE8F08F000080B58EB09C
:102CE00001460D9000200C900B900A9009900890DE
:102CF0000D980068B0F1A04F05914AD1FFE7FFE7BA
:102D00000020079043F63000C4F20200016841F051
:102D100001010160006800F001000790079804902D
:102D2000FFE74FF4C05008900220099000200A905D
:102D300003200B900A200C900020C4F2020008A986
:102D4000FEF70AF8FFE743F63400C4F20200016818
:102D500041F080010160FFE70020069043F6440047
:102D6000C4F20200016841F480410160006800F48F
:102D70008040069006980390FFE7FFE7432000217C
:102D800002900191019AFEF70FFF0298FEF700FFF3
:102D9000FFE70EB080BD000080B586B0014605900B
:102DA00001208DF813000598C0680028039104D114
:102DB000FFE700208DF813000CE00598C06802289A
:102DC00004D1FFE701208DF8130002E0FDF786FC37
:102DD000FFE7FFE70598D0F804049DF8131004F00E
:102DE0008FFD0599D1F804140290084604F0E6FC22
:102DF000019006B080BD000080B584B0014603900C
:102E00000398D0F80404029104F03AFD019004B054
:102E100080BD000080B584B0014603900398D0F8CF
:102E20000404029104F040FD019004B080BD000054
:102E300080B586B00A46034604908DF80F100292C2
:102E40000193FFE7049890F8BC03012804D1FFE741
:102E500002208DF817001BE00498012180F8BC13B4
:102E6000FFE7FFE79DF80F00049981F83800049808
:102E700000689DF80F1006F055FC0090FFE70498DD
:102E8000002180F8BC13FFE700208DF81700FFE752
:102E90009DF8170006B080BD80B584B00146039050
:102EA0000398D0F8042400F5717002901046029A3D
:102EB0000191114604F056FD009004B080BD000061
:102EC00080B586B001460490049800680390029192
:102ED000FFE7049890F8BC03012804D1FFE7022023
:102EE0008DF817002CE00498012180F8BC13FFE74F
:102EF000FFE70498806A01280BD1FFE704988069F6
:102F0000012806D0FFE70398816B41F4803181638B
:102F1000FFE70498006806F08BFADDF810E0DEF8B1
:102F200000E00190704605F0FDFC0090FFE704987A
:102F3000002180F8BC13FFE700208DF81700FFE7A1
:102F40009DF8170006B080BD80B584B0014603909F
:102F50000398D0F80404029104F092FD03990968E3
:102F6000D1F800EE4EF0010EC1F800EE0399096AA7
:102F70000029019009D0FFE74EF61050CEF2000074
:102F8000016841F006010160FFE704B080BD000068
:102F900087B00146069000200590049003900290AF
:102FA00006980128019154D1FFE743F60800C4F2C6
:102FB0000200006800F400000390039800280090CD
:102FC0000AD0FFE7009801283FD1FFE748F2000050
:102FD000C0F2BB0005903BE043F60400C4F20200DF
:102FE0000068400200280FD5FFE743F60400C4F252
:102FF0000200006800F03F0047F64001C0F27D117A
:10300000B1FBF0F004900EE043F60400C4F20200BD
:10301000006800F03F0042F20041C0F2F401B1FB51
:10302000F0F00490FFE7049843F68401C4F2020133
:103030000A68C2F388125043029002980968C1F3EB
:103040000271B0FBF1F0059002E000200590FFE76F
:10305000FFE7059807B0704780B58AB00146089031
:1030600000200790069008980068C0070028049187
:1030700006D1FFE7089800684007002852D5FFE70F
:103080006820C4F2472000210160FEF76DF8079028
:10309000FFE743F60000C4F20200006800F00060A1
:1030A0000021B1EBD06F0ED0FFE7FEF75DF8DDF841
:1030B0001CE0A0EB0E00032804D3FFE703208DF8EB
:1030C0002700F0E0E5E7089841688068890141EA57
:1030D000007043F68401C4F2020108606820C4F263
:1030E000472001210160FEF73FF80790FFE743F614
:1030F0000000C4F20200006800F000600021B1EBA3
:10310000D06F0ED1FFE7FEF72FF8DDF81CE0A0EB43
:103110000E00032804D3FFE703208DF82700C2E048
:10312000E5E7FFE7089800688007002840F1B780CE
:10313000FFE7FFE70020059043F64000C4F20200DD
:10314000016841F080510160006800F080500590F6
:1031500005980390FFE747F20000C4F20000016801
:1031600041F480710160FDF7FFFF0790FFE747F230
:103170000000C4F200000068C00500280ED4FFE77C
:10318000FDF7F2FFDDF81CE0A0EB0E00032804D3EE
:10319000FFE703208DF8270085E0E8E743F670009D
:1031A000C4F20200006800F44070069006980028FF
:1031B00041D0FFE706980899C96801F44071884238
:1031C00039D0FFE743F67000C4F20200016821F431
:1031D0004071069140F64061C4F2472101220A6025
:1031E00000220A60069901600068C007002821D00B
:1031F000FFE7FDF7B9FF0790FFE743F67000C4F261
:103200000200006800F002000021B1EB500F10D165
:10321000FFE7FDF7A9FFDDF81CE0A0EB0E0041F28F
:10322000893E704504D3FFE703208DF827003AE07C
:10323000E3E7FFE7FFE7FFE70898C06800F44070A6
:10324000B0F5407F13D1FFE743F60800C4F2020057
:10325000016821F4F811089AD2684FF6FF43C0F6CE
:10326000FF731A4011430A46016002920AE043F6D6
:103270000800C4F20200016821F4F8110A46016056
:103280000192FFE70898C0686FF31F3043F67001A2
:10329000C4F202010A6810430860FFE7FFE700205C
:1032A0008DF82700FFE79DF827000AB080BD0000D9
:1032B00080B588B00A460346069005910698002816
:1032C0000392029304D1FFE701208DF81F0028E14B
:1032D000059843F60041C4F20201096801F00701B4
:1032E000884212D9FFE7059843F60041C4F2020173
:1032F0000870086800F007000599884204D0FFE7CD
:1033000001208DF81F000CE1FFE706980068800798
:1033100000282AD5FFE7069800684007002809D54D
:10332000FFE743F60800C4F20200016841F4E051EF
:103330000160FFE7069800680007002809D5FFE74D
:1033400043F60800C4F20200016841F460410160E4
:10335000FFE743F60800C4F20200016821F0F00123
:10336000069A926811430160FFE706980068C0075B
:10337000002870D0FFE706984068012811D1FFE7C8
:1033800043F60000C4F20200006800F4003000219F
:10339000B1EB504F04D1FFE701208DF81F00C0E0D2
:1033A0002CE006984068022805D0FFE706984068A0
:1033B000032811D1FFE743F60000C4F202000068C1
:1033C00000F000700021B1EB506F04D1FFE7012045
:1033D0008DF81F00A5E010E043F60000C4F20200E3
:1033E000006800F002000021B1EB500F04D1FFE7AC
:1033F00001208DF81F0094E0FFE7FFE743F6080087
:10340000C4F20200016821F00301069A52681143D8
:103410000160FDF7A9FE0490FFE743F60800C4F23F
:103420000200006800F00C0006994968B0EB810FBB
:1034300010D0FFE7FDF798FEDDF810E0A0EB0E00DE
:1034400041F2893E704504D3FFE703208DF81F0049
:1034500067E0E2E7FFE7059843F60041C4F20201A6
:10346000096801F00701884212D2FFE7059843F688
:103470000041C4F202010870086800F007000599D5
:10348000884204D0FFE701208DF81F0049E0FFE7E4
:1034900006980068400700280CD5FFE743F60800AF
:1034A000C4F20200016821F4E051069AD268114387
:1034B0000160FFE706980068000700280DD5FFE7C8
:1034C00043F60800C4F20200016821F46041069A44
:1034D000126941EAC2010160FFE700F02DF843F6EE
:1034E000080EC4F2020EDEF800E05FFA8EFE4FEA2C
:1034F0001E1E49F64631C0F6000111F80E10C840F4
:1035000040F21C01C2F20001086040F22410C2F235
:1035100000000068FEF7D8FA00218DF81F10019016
:10352000FFE79DF81F0008B080BD000040F21C00BE
:10353000C2F200000068704780B586B00020059098
:1035400004900390029043F60800C4F20200006861
:1035500000F00C0001460028019108D0FFE7019817
:1035600004280AD0FFE7019808280CD04FE042F267
:103570000040C0F2F40002904FE047F64000C0F275
:103580007D10029049E043F60400C4F20200016895
:1035900001F03F01059100684002002813D5FFE7C4
:1035A00043F60400C4F202000068C0F3881047F636
:1035B0004001C0F27D11A0FB0101059A0023FCF738
:1035C000FFFD049012E043F60400C4F2020000681C
:1035D000C0F3881042F20041C0F2F401A0FB0101E7
:1035E000059A0023FCF7ECFD0490FFE743F6040086
:1035F000C4F20200006800F44030022101EBD03038
:10360000039004980399B0FBF1F0029005E042F2B8
:103610000040C0F2F4000290FFE7029806B080BDBF
:1036200080B588B00146069006980028019104D123
:10363000FFE701208DF81F006EE306980068C007C1
:10364000002800F0AB80FFE743F60800C4F2020058
:10365000006800F00C00042813D0FFE743F60800D0
:10366000C4F20200006800F00C0008281FD1FFE738
:1036700043F60400C4F2020000684002002816D598
:10368000FFE743F60000C4F20200006800F40030D7
:103690000021B1EB504F09D0FFE7069840680028A1
:1036A00004D1FFE701208DF81F0035E375E0FFE747
:1036B00006984068B0F5803F09D1FFE743F6000067
:1036C000C4F20200016841F48031016020E00698F4
:1036D0004068B0F5A02F0DD1FFE743F60000C4F21B
:1036E0000200016841F480210160016841F48031E9
:1036F00001600CE043F60000C4F20200016821F40E
:1037000080310160016821F480210160FFE7FFE75B
:10371000FFE70698406800281FD0FFE7FDF724FD6B
:103720000590FFE743F60000C4F20200006800F4D1
:1037300000300021B1EB504F0ED1FFE7FDF714FD33
:10374000DDF814E0A0EB0E00652804D3FFE70320AA
:103750008DF81F00E0E2E5E71EE0FDF705FD0590AE
:10376000FFE743F60000C4F20200006800F40030F6
:103770000021B1EB504F0ED0FFE7FDF7F5FCDDF86F
:1037800014E0A0EB0E00652804D3FFE703208DF8BA
:103790001F00C1E2E5E7FFE7FFE7FFE706980068E3
:1037A0008007002840F19B80FFE743F60800C4F241
:1037B0000200006810F00C0F13D0FFE743F608007A
:1037C000C4F20200006800F00C0008282CD1FFE7CA
:1037D00043F60400C4F2020000684002002823D42B
:1037E000FFE743F60000C4F20200006800F00200A8
:1037F0000021B1EB500F09D0FFE70698C0680128FF
:1038000004D0FFE701208DF81F0085E243F6000099
:10381000C4F20200016821F0F801069A126941EA37
:10382000C2010160FFE759E00698C068002830D067
:10383000FFE70020C4F2472001210160FDF794FC5E
:103840000590FFE743F60000C4F20200006800F0B4
:1038500002000021B1EB500F0ED1FFE7FDF784FC11
:10386000DDF814E0A0EB0E00032804D3FFE70320EB
:103870008DF81F0050E2E5E743F60000C4F20200B5
:10388000016821F0F801069A126941EAC20101605B
:1038900023E00020C4F2472000210160FDF764FC12
:1038A0000590FFE743F60000C4F20200006800F054
:1038B00002000021B1EB500F0ED0FFE7FDF754FCE2
:1038C000DDF814E0A0EB0E00032804D3FFE703208B
:1038D0008DF81F0020E2E5E7FFE7FFE7FFE7069826
:1038E00000680007002850D5FFE7069840690028C7
:1038F00025D0FFE740F68060C4F247200121016037
:10390000FDF732FC0590FFE743F67400C4F20200B5
:10391000006800F002000021B1EB500F0ED1FFE76C
:10392000FDF722FCDDF814E0A0EB0E00032804D321
:10393000FFE703208DF81F00EEE1E5E724E040F605
:103940008060C4F2472000210160FDF70DFC059066
:10395000FFE743F67400C4F20200006800F00200C2
:103960000021B1EB500F0ED0FFE7FDF7FDFBDDF8B6
:1039700014E0A0EB0E00032804D3FFE703208DF82A
:103980001F00C9E1E5E7FFE7FFE706980068400789
:10399000002840F1D680FFE700208DF80F0043F6A5
:1039A0004000C4F202000068C000002816D4FFE7FF
:1039B000FFE70020029043F64000C4F202000168D5
:1039C00041F080510160006800F080500290029840
:1039D0000090FFE701208DF80F00FFE747F200009D
:1039E000C4F200000068C005002824D4FFE747F2B5
:1039F0000000C4F20000016841F480710160FDF72D
:103A0000B3FB0590FFE747F20000C4F20000006836
:103A1000C00500280ED4FFE7FDF7A6FBDDF814E093
:103A2000A0EB0E00032804D3FFE703208DF81F004E
:103A300072E1E8E7FFE7FFE706988068012809D10F
:103A4000FFE743F67000C4F20200016841F0010193
:103A500001601FE00698806805280DD1FFE743F656
:103A60007000C4F20200016841F0040101600168C5
:103A700041F0010101600CE043F67000C4F2020065
:103A8000016821F001010160016821F00401016079
:103A9000FFE7FFE7FFE706988068002821D0FFE7EF
:103AA000FDF762FB0590FFE743F67000C4F20200E9
:103AB000006800F002000021B1EB500F10D1FFE7C9
:103AC000FDF752FBDDF814E0A0EB0E0041F2893E59
:103AD000704504D3FFE703208DF81F001CE1E3E7E6
:103AE00020E0FDF741FB0590FFE743F67000C4F2CC
:103AF0000200006800F002000021B1EB500F10D06E
:103B0000FFE7FDF731FBDDF814E0A0EB0E0041F21A
:103B1000893E704504D3FFE703208DF81F00FBE0CA
:103B2000E3E7FFE79DF80F00012809D1FFE743F61F
:103B30004000C4F20200016821F080510160FFE7FB
:103B4000FFE706988069002800F0E280FFE743F66F
:103B50000800C4F20200006800F00C00082800F021
:103B60008B80FFE706988069022860D1FFE760201C
:103B7000C4F2472000210160FDF7F6FA0590FFE747
:103B800043F60000C4F20200006800F0007000215B
:103B9000B1EB506F0ED0FFE7FDF7E6FADDF814E069
:103BA000A0EB0E00032804D3FFE703208DF81F00CD
:103BB000B2E0E5E70698C169026A436AD0F828C016
:103BC000114341EA83114FEACC324FF6FF739A4317
:103BD000A2F580321143C06A41EA006043F6040155
:103BE000C4F2020108606020C4F247200121016094
:103BF000FDF7BAFA0590FFE743F60000C4F20200B1
:103C0000006800F000700021B1EB506F0ED1FFE7AB
:103C1000FDF7AAFADDF814E0A0EB0E00032804D3A8
:103C2000FFE703208DF81F0076E0E5E723E0602042
:103C3000C4F2472000210160FDF796FA0590FFE7E6
:103C400043F60000C4F20200006800F0007000219A
:103C5000B1EB506F0ED0FFE7FDF786FADDF814E008
:103C6000A0EB0E00032804D3FFE703208DF81F000C
:103C700052E0E5E7FFE74AE006988069012804D1B1
:103C8000FFE701208DF81F0046E043F60400C4F270
:103C900002000068049006988069012831D0FFE78F
:103CA000049800F480000699C969884229D1FFE789
:103CB000049800F03F000699096A884221D1FFE785
:103CC000049847F6C07108400699496AB0EB811F15
:103CD00017D1FFE7049800F440300699896AC903B8
:103CE0004FF6FF729143A1F58031884209D1FFE779
:103CF000049800F070600699C96AB0EB016F04D0B7
:103D0000FFE701208DF81F0006E0FFE7FFE7FFE770
:103D100000208DF81F00FFE79DF81F0008B080BD50
:103D200080B584B00146029002980028019104D128
:103D3000FFE701208DF80F0072E00298406A00282A
:103D40000CD1FFE702984068B0F5827F01D1FFE710
:103D500003E002980021C161FFE705E0029800211D
:103D6000016102984161FFE7029800218162029897
:103D700090F85100002808D1FFE70298002180F850
:103D80005010029800F050F8FFE70298022180F8E6
:103D9000511002980068016821F04001016002980A
:103DA000016842688368D0F80CC002F4827203F4A0
:103DB00004431A440CF400631A44036903F0020339
:103DC0001A44436903F001031A44836903F400733E
:103DD0001A44C36903F038031A44036A03F08003EA
:103DE0001A43806A00F40050104308600298418B27
:103DF00001F004010268406A00F0100008445060BD
:103E000002980068C16921F40061C1610298002133
:103E100041650298012280F851208DF80F10FFE7CC
:103E20009DF80F0004B080BD80B58CB001460B90AA
:103E300000200A9009900890079006900B9800685F
:103E400043F60042C4F200029042039137D1FFE7EB
:103E5000FFE70020059043F64000C4F2020001682D
:103E600041F400410160006800F4004005900598AD
:103E70000290FFE7FFE70020049043F63000C4F211
:103E80000200016841F004010160006800F00400D4
:103E9000049004980190FFE74FF4E0500690022050
:103EA0000790002008900320099006200A9040F611
:103EB0000000C4F2020006A9FCF74EFFFFE70CB0B9
:103EC00080BD000080B582B001460190019800914C
:103ED00001F016FE02B080BD82B001460190009153
:103EE00002B0704782B001460190009102B0704765
:103EF00087B00A4603460590049101920093FFE7BC
:103F0000059890F83C00012804D1FFE702208DF8C5
:103F10001B007EE00598012180F83C10FFE7FFE7D9
:103F20000598022180F83D100598006840680390CC
:103F30000598006880680290039820F07000039054
:103F40000498006803990843039003980599096849
:103F50004860059800680021C4F2010188423CD005
:103F6000FFE705980068B0F1804F36D0FFE705986D
:103F7000006840F20041C4F2000188422DD0FFE702
:103F80000598006840F60001C4F20001884224D080
:103F9000FFE70598006840F60041C4F2000188423E
:103FA0001BD0FFE70598006840F20041C4F2010110
:103FB000884212D0FFE70598006844F20001C4F27D
:103FC0000101884209D0FFE70598006841F6000129
:103FD000C4F2000188420ED1FFE7029820F0800071
:103FE000029004984068029908430290029805994B
:103FF00009688860FFE70598012180F83D10FFE718
:104000000598002180F83C10FFE700208DF81B0088
:10401000FFE79DF81B0007B07047000080B584B033
:104020000146029002980028019104D1FFE7012087
:104030008DF80F0043E0029890F83D00002808D169
:10404000FFE70298002180F83C10029800F03CF84D
:10405000FFE70298022180F83D10029850F8041BF7
:1040600000900846009901F0F3FD0298012180F8C4
:104070004610FFE70298012180F83E10029880F870
:104080003F10029880F84010029880F84110FFE736
:10409000FFE70298012180F84210029880F843104F
:1040A000029880F84410029880F84510FFE70298C3
:1040B000012180F83D1000208DF80F00FFE79DF8EA
:1040C0000F0004B080BD000080B588B001460790A5
:1040D00007980068B0F1804F04911DD1FFE7FFE71A
:1040E0000020069043F64000C4F20200016841F04F
:1040F00001010160006800F001000690069803903D
:10410000FFE71C20002102900191019AFDF74CFD70
:104110000298FDF73DFD1CE00798006840F2004161
:10412000C4F20001884213D1FFE7FFE700200590A9
:1041300043F64000C4F20200016841F00201016050
:10414000006800F00200059005980090FFE7FFE787
:10415000FFE708B080BD000080B58CB00A4603467A
:104160000A90099107920693FFE70A9890F83C009D
:10417000012804D1FFE702208DF82F00B7E00A984C
:10418000012180F83C10FFE7FFE70A98022180F840
:104190003D100A98006880680890089820F0770021
:1041A0000890089820F47F40089008980A990968B8
:1041B0008860099800680028059000F08280FFE779
:1041C000059810287DD0FFE70598202879D0FFE7D3
:1041D0000598302875D0FFE70598402861D0FFE7A3
:1041E000059850283DD0FFE70598602849D0FFE7A3
:1041F000059870280BD0FFE70598B0F5805F05D0D3
:10420000FFE70598B0F5005F19D061E061E00A981A
:10421000006809994A688B68C96804911946049B2B
:1042200001F0E8FD0A98006880680890089840F05E
:104230007700089008980A990968886049E00A9808
:10424000006809994A688B68C96803911946039BFD
:1042500001F0D0FD0A980068816841F480418160D6
:1042600037E00A98006809994A68C96802911146BE
:10427000029A01F0CBFF0A980068502101F0E0FD9E
:1042800027E00A98006809994A68C96801911146AF
:10429000019A01F0EDFF0A980068602101F0D0FD5D
:1042A00017E00A98006809994A68C96800911146A0
:1042B000009A01F0ABFF0A980068402101F0C0FDB0
:1042C00007E00A9800680999096801F0B9FD00E063
:1042D000FFE70A98012180F83D10FFE70A980021C6
:1042E00080F83C10FFE700208DF82F00FFE79DF8D5
:1042F0002F000CB080BD000082B0014601900091FB
:1043000002B0704780B582B0014601900198006804
:10431000006900F002000022B2EB500F009129D09A
:10432000FFE701980068C06800F002000021B1EBCF
:10433000500F1ED0FFE7019800686FF00201016185
:1043400001980121017701980068806980070028A1
:1043500004D0FFE70198FFF7CFFF06E0019800F0D7
:104360004DF9019800F054FAFFE701980021017718
:10437000FFE7FFE701980068006900F004000021F2
:10438000B1EB900F29D0FFE701980068C06800F0FA
:1043900004000021B1EB900F1ED0FFE701980068E8
:1043A0006FF0040101610198022101770198006812
:1043B000806910F4407F04D0FFE70198FFF79CFF6D
:1043C00006E0019800F01AF9019800F021FAFFE7E1
:1043D000019800210177FFE7FFE701980068006975
:1043E00000F008000021B1EBD00F29D0FFE70198C1
:1043F0000068C06800F008000021B1EBD00F1ED0AB
:10440000FFE7019800686FF008010161019804213D
:10441000017701980068C0698007002804D0FFE791
:104420000198FFF769FF06E0019800F0E7F80198AE
:1044300000F0EEF9FFE7019800210177FFE7FFE7C1
:1044400001980068006900F010000021B1EB101F16
:1044500029D0FFE701980068C06800F01000002133
:10446000B1EB101F1ED0FFE7019800686FF010013C
:10447000016101980821017701980068C06910F472
:10448000407F04D0FFE70198FFF736FF06E0019870
:1044900000F0B4F8019800F0BBF9FFE701980021A3
:1044A0000177FFE7FFE7019800680069C00700286F
:1044B00011D0FFE701980068C068C007002809D044
:1044C000FFE7019800686FF001010161019800F0B9
:1044D000A5F9FFE7FFE7019800680069C0B2002175
:1044E000B1EBD01F13D0FFE701980068C068C0B2DD
:1044F0000021B1EBD01F09D0FFE7019800686FF0F1
:10450000800101610198FFF7E7FCFFE7FFE70198F1
:104510000068006900F040000021B1EB901F14D04A
:10452000FFE701980068C06800F040000021B1EB8F
:10453000901F09D0FFE7019800686FF0400101610A
:10454000019800F071F9FFE7FFE701980068006942
:1045500000F020000021B1EB501F14D0FFE70198BC
:104560000068C06800F020000021B1EB501F09D0A6
:10457000FFE7019800686FF0200101610198FFF7E3
:10458000B1FCFFE7FFE702B080BD000080B58AB054
:10459000014609900020089007900690059004902D
:1045A0000998006840F20042C4F200029042029171
:1045B00021D1FFE7FFE70020039043F63000C4F26B
:1045C0000200016841F002010160006800F0020091
:1045D000039003980190FFE70220049005900021CA
:1045E00006910791089040F20040C4F2020004A92D
:1045F000FCF7B2FBFFE70AB080BD000082B00146C5
:104600000190009102B0704780B588B013468C4687
:1046100086460690059104920393CDF808C0CDF824
:1046200004E0FFE7069890F83C00012804D1FFE77A
:1046300002208DF81F008BE00698012180F83C10C5
:10464000FFE7FFE704980C28009000F276800099BD
:10465000DFE801F007737373227373733D73737331
:10466000580006980068059901F004FC0698006857
:10467000816941F00801816106980068816921F033
:10468000040181610598006906990968D1F818E06C
:1046900040EA0E00886151E006980068059901F033
:1046A00063FC06980068816941F4006181610698A5
:1046B0000068816921F4806181610598006906992B
:1046C0000968D1F818E04EEA0020886136E00698C3
:1046D0000068059901F0C6FC06980068C16941F0C0
:1046E0000801C16106980068C16921F00401C16137
:1046F0000598006906990968D1F81CE040EA0E00A7
:10470000C8611BE006980068059901F029FD06982C
:104710000068C16941F40061C16106980068C1691F
:1047200021F48061C1610598006906990968D1F892
:104730001CE04EEA0020C86100E0FFE7FFE70698B2
:10474000002180F83C10FFE700208DF81F00FFE7F4
:104750009DF81F0008B080BD80B584B0014602906E
:1047600002980028019104D1FFE701208DF80F0085
:1047700043E0029890F83D00002808D1FFE7029836
:10478000002180F83C10029800F03CF8FFE7029806
:10479000022180F83D10029850F8041B0090084652
:1047A000009901F055FA0298012180F84610FFE7C0
:1047B0000298012180F83E10029880F83F1002987C
:1047C00080F84010029880F84110FFE7FFE7029858
:1047D000012180F84210029880F84310029880F876
:1047E0004410029880F84510FFE70298012180F8F4
:1047F0003D1000208DF80F00FFE79DF80F0004B07A
:1048000080BD000082B001460190009102B0704767
:1048100082B001460190009102B0704782B001461B
:104820000190009102B0704782B001460190009162
:1048300002B07047FFE7FEE780B582B00146019005
:1048400001980068C068019AD36A03F1020CC2F8AB
:104850002CC018800198428E013A42860198408E01
:104860000028009114D1FFE701980068416821F009
:10487000600141600198408D002808D1FFE7019850
:10488000012180F841100198FCF7C8FDFFE7FFE720
:1048900002B080BD80B582B00146019001980068E9
:1048A00043F60002C4F2000244F20C03C4F2000317
:1048B000904204BF43F20C43C4F200031868019A0B
:1048C000D36A03F1020CC2F82CC018800198428E02
:1048D000A2F1010242860198408E0028009122D167
:1048E000FFE70198006843F60001C4F2000144F2BA
:1048F0000402C4F20002884204BF43F20442C4F23C
:104900000002106820F0600010600198408D0028BF
:1049100008D1FFE70198012180F841100198FCF7C8
:104920007DFDFFE7FFE702B080BD000080B582B0EB
:10493000014601900198426A931C43621088019AD3
:104940001268D0600198428D013A42850198408DED
:104950000028009114D1FFE701980068416821F018
:10496000A00141600198408E002808D1FFE701981E
:10497000012180F841100198FCF750FDFFE7FFE7A7
:1049800002B080BD80B582B0014601900198426AB4
:10499000931C43621088019A126843F60003C4F224
:1049A000000344F20C0CC4F2000C9A4204BF43F220
:1049B0000C4CC4F2000CCCF800000198428DA2F11E
:1049C000010242850198408D0028009122D1FFE725
:1049D0000198006843F60001C4F2000144F20402A9
:1049E000C4F20002884204BF43F20442C4F200024F
:1049F000106820F0A00010600198408E002808D1B7
:104A0000FFE70198012180F841100198FCF706FDAD
:104A1000FFE7FFE702B080BD80B584B00146039098
:104A20000398806B029002980068426822F00302AB
:104A30004260029800224285029842860298012232
:104A400080F841200298426C42F0080242640298C9
:104A50000191FCF7E9FC04B080BD000080B584B092
:104A6000014603900398806B02900398C069002868
:104A700001910ED1FFE702980068416821F0010121
:104A800041600298002141860298012180F841107E
:104A9000FFE70298FCF7D0FF04B080BD80B584B07A
:104AA000014603900398806B029002980191FCF7F5
:104AB000D3FF04B080BD000080B588B001460790E8
:104AC0000798006880680690079890F841000428CD
:104AD000039144D1FFE70698C00700280ED0FFE7F6
:104AE00007980068406800F040000021B1EB901F7B
:104AF00004D0FFE7079800F079F8FFE70698400632
:104B000000282BD5FFE707980068406800F02000D8
:104B10000021B1EB501F21D0FFE7079800684168E2
:104B200021F060014160FFE70020059007980068D0
:104B3000C068059007980068806805900598029005
:104B4000FFE70798012180F841100798416C41F078
:104B5000020141640798FCF767FCFFE7FFE707984D
:104B600090F8410003283FD1FFE70698800700280E
:104B70000DD5FFE7079800684068C0B20021B1EB8F
:104B8000D01F04D0FFE7079800F058F8FFE7069819
:104B90000007002827D5FFE707980068406800F065
:104BA00020000021B1EB501F1DD0FFE707980068DF
:104BB000416821F0A0014160FFE7002004900798C0
:104BC00000688068049004980190FFE7079801212D
:104BD00080F841100798416C41F004014164079846
:104BE000FCF722FCFFE7FFE708B080BD80B582B08C
:104BF0000146019001980068C068019AD26A10804D
:104C00000198C26A0232C2620198428E013A42861B
:104C10000198408E002800910ED1FFE701980068AE
:104C2000416821F0600141600198012180F8411044
:104C30000198FCF701FFFFE702B080BD80B582B0AC
:104C40000146019001980268406A0088D06001988E
:104C5000426A023242620198428D013A42850198CD
:104C6000408D002800910ED1FFE70198006841684F
:104C700021F0A00141600198012180F841100198C4
:104C8000FCF7F0FEFFE702B080BD000080B586B003
:104C900013468C468646059004918DF80F2000201F
:104CA0008DF80E000293CDF804C0CDF800E0FFE7C8
:104CB0009DF80E009DF80F10884229DAFFE705984D
:104CC000000F092809D8FFE70598000F3030049934
:104CD0009DF80E2001F8120009E00598372101EB3C
:104CE000107004999DF80E2001F81200FFE7059856
:104CF0000001059004989DF80E1000EB4100002182
:104D00004170FFE79DF80E0001308DF80E00CFE7EF
:104D100006B080BDB0B586B09C4696460C460546AA
:104D2000ADF81600ADF81410ADF81220ADF8103043
:104D30002A20CDF80CC0CDF808E00194009500F0D1
:104D4000B3F9BDF81600023080B200F091F9BDF859
:104D50001200023080B200F08BF92B2000F0A4F991
:104D6000BDF81400013080B200F082F9BDF81000E7
:104D7000013080B200F07CF92C2000F095F906B0EB
:104D8000B0BD000070B588B0DDF830C09E46144656
:104D90000D460646ADF81E00ADF81C10ADF81A2001
:104DA000ADF81830ADF816C0BDF81E00BDF81C10E7
:104DB000BDF81A20013ABDF81830013B92B29BB2FF
:104DC000CDF80CE0029401950096FFF7A3FFBDF823
:104DD0001C00ADF81400FFE7BDF81400BDF8181072
:104DE00088421EDAFFE7BDF81E00ADF81200FFE7AB
:104DF000BDF81200BDF81A1088420BDAFFE7BDF8C3
:104E0000160000F035F9FFE7BDF812000130ADF8EB
:104E10001200EDE7FFE7BDF814000130ADF8140013
:104E2000DAE708B070BD000080B598B040F20040ED
:104E3000C4F202004FF48071012217901692FCF721
:104E400071F920200021179A15901046DDF854E0E2
:104E500014917146149AFCF765F964201390FBF7DE
:104E600053FF17981599169AFCF75CF97820129061
:104E7000FBF74AFF08201799119008461199169AD6
:104E8000FCF750F91398FBF73FFF112000F00CF9E5
:104E90001298FBF739FFB12000F006F905201090B9
:104EA00000F0F6F83C200F9000F0F2F80F9800F0B8
:104EB000EFF8B22000F0F8F8109800F0E9F80F9839
:104EC00000F0E6F80F9800F0E3F8B32000F0ECF8FB
:104ED000109800F0DDF80F9800F0DAF80F9800F065
:104EE000D7F8109800F0D4F80F9800F0D1F80F9888
:104EF00000F0CEF8B42000F0D7F803200E9000F0B8
:104F0000C7F8C0200D9000F0CFF828200C9000F0DA
:104F1000BFF8119800F0BCF804200B9000F0B8F82E
:104F2000C12000F0C1F80D9800F0B2F8C22000F0E6
:104F3000BBF80D200A9000F0ABF8149800F0A8F828
:104F4000C32000F0B1F88D20099000F0A1F82A20CC
:104F5000089000F09DF8C42000F0A6F8099800F031
:104F600097F8EE2000F094F8C52000F09DF81A2084
:104F700000F08EF8362000F097F8149800F088F8CA
:104F8000E02000F091F80B9800F082F8222000F069
:104F90007FF8072000F07CF80A2000F079F82E2036
:104FA000079000F075F8302000F072F82520069088
:104FB00000F06EF8089800F06BF80C9800F068F8B4
:104FC0002620059000F064F8079800F061F83A2078
:104FD000049000F05DF8149800F05AF8169800F06C
:104FE00057F80E9800F054F81320039000F050F892
:104FF000E12000F059F80B9800F04AF8162000F074
:1050000047F8062000F044F80A9800F041F82D20F7
:10501000029000F03DF8059800F03AF8232000F0E7
:1050200037F82720019000F033F8019800F030F8AD
:10503000069800F02DF8029800F02AF83B2000F0C6
:1050400027F8149800F024F8169800F021F80B982F
:1050500000F01EF8039800F01BF8049800F024F804
:10506000109800F015F8292000F01EF818B080BD47
:1050700080B582B00146ADF806009DF807000091AA
:1050800000F030F89DF8060000F02CF802B080BD6A
:1050900080B582B001468DF807009DF807000091A9
:1050A00000F020F802B080BD80B584B001468DF8D4
:1050B0000F0040F20040C4F20200402200230290A0
:1050C0000191114600921A46FCF72CF89DF80F004A
:1050D00000F008F8012202980099FCF723F804B0C8
:1050E00080BD000080B588B001468DF81F004FF0EC
:1050F00001300690059040F20040C4F202001022F8
:105100000023039111461A460293FCF70BF802980C
:105110008DF81300FFE79DF81300072842DCFFE736
:1051200040F20040C4F202004FF480710022FBF70D
:10513000F9FF9DF81F00000600280FD5FFE740F299
:105140000040C4F20200802101220192FBF7EAFF35
:105150009DF8130005A9019A0A540EE040F20040A0
:10516000C4F20200802100220092FBF7DBFF9DF8D1
:10517000130005A9009A0A54FFE740F20040C4F268
:1051800002004FF480710122FBF7CCFF9DF81F0055
:1051900040008DF81F00FFE79DF8130001308DF8E7
:1051A0001300B8E740F20040C4F2020010210122CF
:1051B000FBF7B8FF08B080BD7047000080B586B02F
:1051C00040F22C10C2F20000007801460028059140
:1051D00004D0FFE70598012816D023E00020C4F290
:1051E00002001021012204900391FBF79BFF642031
:1051F0000290FBF789FD002204980399FBF792FFC8
:105200000298FBF781FD0EE06420019000F048FC5D
:105210000198FBF779FD002000F042FC0198FBF7B4
:1052200073FD00E0FFE706B080BD000080B584B0EC
:10523000FFE70020039043F63000C4F2020001684B
:1052400041F400110160006800F40010039003981D
:105250000290FFE70E20002101900091009AFCF7D8
:10526000A3FC0198FCF794FC04B080BD80B594B019
:10527000002013901290119010900F90FFE70020E3
:105280000E9043F63000C4F20200016841F0800144
:105290000160006800F080000E900E980A90FFE711
:1052A000FFE700200D9043F63000C4F202000168D1
:1052B00041F004010160006800F004000D900D98B9
:1052C0000990FFE7FFE700200C9043F63000C4F29E
:1052D0000200016841F001010160006800F0010076
:1052E0000C900C980890FFE7FFE700200B9043F626
:1052F0003000C4F20200016841F002010160006860
:1053000000F002000B900B980790FFE70020C4F21A
:10531000020048F230010022069005910492FBF74A
:1053200001FF40F20040C4F202004FF4FC71039010
:10533000049AFBF7F7FE05980F9001211091049A4B
:10534000119212920DF13C0E069802917146CDF821
:1053500004E0FBF701FD78200F900298109004996B
:105360001191129103980199FBF7F6FC4FF4C0706C
:105370000F900298109004991191022212920398B2
:105380000199FBF7E9FC14B080BD000080B541F63F
:105390004C10C2F2000043F60001C4F200010160AB
:1053A0004FF440714160002181600322C2600161BD
:1053B0004FF47A5242618161C1610162FCF744F8A5
:1053C000002803D0FFE7FBF789F9FFE780BD000065
:1053D00080B541F69C50C2F2000043F60041C4F291
:1053E000000101604FF482714160002181604FF43F
:1053F0000062C2600222026141614FF40072826168
:10540000C1610162416281620A21C162FEF788FCCA
:10541000002803D0FFE7FBF761F9FFE780BD00003C
:1054200080B586B000200590049003900290019012
:10543000009041F6F451C2F200014FF080420A6040
:1054400040F247324A6088606322CA60086188611E
:105450000846FEF7E3FD002803D0FFE7FBF73EF91F
:10546000FFE74FF48050029041F6F450C2F2000082
:1054700002A9FEF771FE002803D0FFE7FBF72EF923
:10548000FFE700200090019041F6F450C2F20000C6
:105490006946FEF72DFD002803D0FFE7FBF71EF954
:1054A000FFE706B080BD000080B58EB000200D90F3
:1054B0000C900B900A900990089007900690059028
:1054C000049003900290019041F63C61C2F2000109
:1054D00040F20042C4F200020A60486088604FF661
:1054E000FF72CA60086188610846FEF797FD0028D0
:1054F00003D0FFE7FBF7F2F8FFE74FF480500A9084
:1055000041F63C60C2F200000AA9FEF725FE002821
:1055100003D0FFE7FBF7E2F8FFE741F63C60C2F299
:105520000000FFF719F9002803D0FFE7FBF7D6F8D2
:10553000FFE700200890099041F63C60C2F20000AD
:1055400008A9FEF7D5FC002803D0FFE7FBF7C6F853
:10555000FFE760200190002002900390059041F643
:105560003C60C2F2000001A90C22FFF74DF80028B0
:1055700003D0FFE7FBF7B2F8FFE741F63C60C2F269
:105580000000FFF703F80EB080BD000080B541F2C7
:105590001C60C2F2000040F20001C2F200010022D1
:1055A00001F098FD002803D0FFE7FBF797F8FFE72D
:1055B00041F21C60C2F2000040F22001C2F2000180
:1055C00002F0D2FA002803D0FFE7FBF787F8FFE7E5
:1055D00041F21C60C2F2000040F2D401C2F20001AC
:1055E00000F0CEFF002803D0FFE7FBF777F8FFE7D6
:1055F00041F21C60C2F2000002F056FC002803D009
:10560000FFE7FBF76BF8FFE780BD0000FFE7FEE771
:1056100080B582B003F006F841F64C10C2F20000EB
:1056200040F22E11C2F200018022FCF725F9019010
:1056300002B080BDFFE7FEE780B58BB013468C4615
:1056400086460A90099108920A9800F00700079090
:105650000798C0F1070005280493CDF80CC0CDF8D9
:1056600008E003D3FFE70420019004E00798C0F1AD
:1056700007000190FFE7019806900798043006287C
:1056800003D8FFE70020009003E00798033800905C
:10569000FFE70098059009980699012202FA01F1A6
:1056A0000139084005998840089B02FA01F1013947
:1056B000194008430BB080BD80B541F69410C2F28A
:1056C0000000FCF731FE80BD80B58AB00A46034673
:1056D0000990089109980068079007980690079824
:1056E000006C05900698089900EB4110D0F8080B63
:1056F0000490059843F20B01C4F65471884203925A
:1057000002930ED3FFE704980004002809D5FFE7B1
:105710000698089900EB41104FF40041C0F8081BAF
:10572000FFE70998FDF7B8FB059843F20B0EC4F6A6
:10573000547E704511D3FFE70998006901280CD108
:10574000FFE70998016800F5717201200190084691
:10575000019903F09FFB0090FFE700200AB080BD95
:1057600080B58CB00A4603460B900A910B980068EE
:105770000990099808900998006C079008980A9970
:1057800000EB4110D0F8080B06900B980069012837
:105790000592049340F09180FFE7069800070028E7
:1057A00017D5FFE7079843F20B01C4F654718842FE
:1057B0000ED3FFE706980004002809D5FFE70898F4
:1057C0000A9900EB41104FF40041C0F8081BFFE7B5
:1057D00072E006988006002808D5FFE708980A9925
:1057E00000EB41102021C0F8081B64E09DF8180070
:1057F00010F0280F5DD1FFE7079843F20B01C4F6C4
:10580000547188420ED3FFE706980004002809D59A
:10581000FFE708980A9900EB41104FF40041C0F8E7
:10582000081B45E00B980A99C1EBC10200EB82000E
:10583000D0F80402089A02EB4111D1F8101B6FF363
:10584000DF41401A0B990A9AC2EBC20201EB8201B6
:10585000C1F814020B980A99C1EBC10100EB810059
:10586000D0F80412D0F808221144C0F808120A989F
:10587000002817D1FFE70B980A99C1EBC10100EB93
:105880008100D0F8100200280CD1FFE70B980168C6
:1058900000F57172012003900846039903F0FAFAAB
:1058A0000290FFE70B989DF82810FCF74BFAFFE7F2
:1058B00000E0FFE7FFE7FFE74BE0079843F20A113C
:1058C000C4F65471884222D1FFE7069800040028EC
:1058D00009D5FFE708980A9900EB41104FF4004101
:1058E000C0F8081B12E006988006002808D5FFE7DC
:1058F00008980A9900EB41102021C0F8081BFFE727
:105900000B989DF82810FCF71DFAFFE720E00A9895
:10591000002817D1FFE70B980A99C1EBC10100EBF2
:105920008100D0F8100200280CD1FFE70B98016825
:1059300000F57172002001900846019903F0AAFA5F
:105940000090FFE70B989DF82810FCF7FBF9FFE7A4
:10595000FFE700200CB080BD80B58EB00A4603463C
:105960000C900B910C9800680A900A9809900C987A
:105970000B99C1EBC10100EB81003C300890089805
:105980004169806988420492039304D9FFE70120AA
:105990008DF837007DE0089841698069081A079002
:1059A000079808998968884204D9FFE708988068B1
:1059B0000790FFE70798033080080690FFE70998F3
:1059C0000B9900EB4110D0F8180980B2069900221B
:1059D000884202920FD3FFE708984169806900224C
:1059E0008842029207D2FFE708984069002818BF52
:1059F00001200290FFE70298C00700282FD0FFE7A0
:105A0000089841698069081A079007980899896879
:105A1000884204D9FFE7089880680790FFE7079855
:105A20000330800806900A980899C9689DF82C20D0
:105A3000BDF81C30DDF830C09CF810C0EE46CEF842
:105A400000C003F08DFF0799089AD3681944D1600C
:105A50000799089A9369194491610190AFE70898F2
:105A600041698069814210D8FFE70B9800F00F0070
:105A7000012101FA00F0059005980999D1F8342820
:105A800022EA0000C1F83408FFE700208DF8370053
:105A9000FFE79DF837000EB080BD000070470000A2
:105AA00082B001468DF80700009102B070470000F7
:105AB00080B541F64C10C2F20000FBF7BBFC80BD84
:105AC0007047000085B00146049004980190019849
:105AD0000078ADF80C000198013001900198007831
