:020000040800F2
:10000000F81F00209D010008AD9A000871910008BA
:10001000A99A0008F90D0008D501010800000000A8
:1000200000000000000000000000000045B50008CE
:100030000D16000800000000C9AD000819B6000840
:10004000B7010008B7010008B7010008B7010008B0
:10005000B7010008B7010008B7010008B7010008A0
:10006000B7010008B7010008B7010008F513000840
:10007000B7010008B701000805140008B70100081F
:1000800015140008B7010008B7010008B7010008FF
:10009000B7010008B7010008B7010008B701000860
:1000A000B7010008B7010008B7010008B701000850
:1000B000B7010008B7010008B7010008B701000840
:1000C000B7010008B7010008B7010008B701000830
:1000D000B701000859C80008B7010008B7010008B7
:1000E000B7010008B7010008B7010008B701000810
:1000F000D9B70008B7010008B701000825140008A7
:10010000B7010008B7010008B7010008A9B000084E
:10011000B7010008B7010008B7010008B7010008DF
:1001200035140008B701000845140008B70100089D
:10013000B70100080000000000000000B70100083F
:10014000FD0D0008B7010008B70100081D9B00085D
:1001500055140008B701000865140008B70100082D
:10016000B7010008B7010008B7010008B70100088F
:10017000B7010008B70100080000000000000000FF
:10018000B7010008B7010008DFF80CD000F0FCFA56
:1001900000480047DD130108F81F0020064880478B
:1001A00006480047FEE7FEE7FEE7FEE7FEE7FEE75C
:1001B000FEE7FEE7FEE7FEE7E1B60008890100087A
:1001C0002DE9F05F0546002092469B46884606468C
:1001D000814640241BE0284641464746224600F01F
:1001E000DAF953465A46C01A914110D311461846BF
:1001F000224600F0C1F92D1A67EB01084F4622464E
:100200000120002100F0B8F917EB00094E41201E33
:10021000A4F10104DFDC484631462A464346BDE8E6
:10022000F09F40EA01039B0703D009E008C9121FB1
:1002300008C0042AFAD203E011F8013B00F8013BA0
:10024000521EF9D27047D2B201E000F8012B491ECC
:10025000FBD270470022F6E710B513460A46044663
:100260001946FFF7F0FF204610BD421E12F8013F6D
:10027000002BFBD111F8013B02F8013B002BF9D117
:100280007047421C10F8011B0029FBD1801A7047EF
:100290002DE9FE4F804681EA0300C00F0C46009016
:1002A00021F0004123F00045B8EB0200A94105D23E
:1002B0004046214690461C460B46024623F000402D
:1002C000104347D0270DC7F30A00C3F30A51029029
:1002D000401A019040286BDAC3F3130040F4801BEE
:1002E0000098924620B10023D2EB030A63EB0B0B7C
:1002F00001985946C0F14002504600F03DF90646CB
:100300000D4650465946019A00F055F910EB080089
:100310006141002487EA115284EAE7731A4340D00E
:10032000009A62B3019A012A4FEA075215DC001BBA
:1003300061EB02014FF0004202EA0752CDE90042B0
:10034000001C41F5801132462B4600F08CF903B0B9
:10035000BDE8F08F40462146F9E7001B61EB020142
:10036000001C41F5801300185B412018A2F500170E
:1003700047EB030140EAD570B6196D4111E06D08F5
:100380004FEA360645EAC0754FEA0752001B61EB9B
:100390000201001C41F5801149084FEA30000019A4
:1003A000514132462B4603B0BDE8F04F00F04CB946
:1003B0000098012240000023D0EB020263EBE073BF
:1003C000009821464FEAE074B8EB000061EB0401AD
:1003D000E9E783F000435BE781F0004158E72DE94E
:1003E000FE4F81EA030404F0004421F00041009430
:1003F0004FF0000B23F0004350EA01045ED052EAB4
:1004000003045BD0C3F30A54C1F30A552C44A4F28D
:10041000F3340194A0FB0254C1F3130141F48011A1
:10042000C3F3130343F4801301FB024400FB034EA8
:10043000840A970A44EA815447EA8357A4FB076871
:1004400002958D0A05FB07854FEA932C04FB0C549B
:100450002705029D4FEA065847EA1637B5EB08050F
:100460006EEB070C870E920E47EA811742EA831261
:10047000A7FB0201B6EB0B0164EB00042B0D43EA72
:100480000C335E1844EB1C50DA465146E7FB020180
:10049000C5F313044FEA0B3343EA14534FEA043213
:1004A000019C43EA0603A4F10C040294009CCDE9EC
:1004B00000B400F0D8F803B0BDE8F08F002001468A
:1004C000F9E730B5041E71F1000404DB4FF000447D
:1004D000404264EB0101141E73F1000405DB1C466D
:1004E0004FF00043524263EB0403101A8B4101D3D7
:1004F000012030BD002030BD0EB5C10F80EAE07094
:100500000844CA07002140F233438DE80E000A4632
:100510000B4600F0A8F803B000BD00F0004230F038
:1005200000400AD0C10D01F56071C0F3160042EA27
:100530000151C2084007114370470020014670472F
:1005400001F0004330B421F0004150EA010206D02E
:100550000A0DA2F56072C1F31301002A02DC30BC5F
:1005600000207047440F44EAC104C100E01830BCC9
:1005700000EBC25000F031B8202A04DB203A00FA28
:1005800002F1002070479140C2F1200320FA03F3EA
:10059000194390407047202A04DB203A21FA02F0E8
:1005A0000021704721FA02F3D040C2F120029140AD
:1005B000084319467047202A06DBCB17203A41FA38
:1005C00002F043EAE07306E041FA02F3D040C2F1E0
:1005D000200291400843194670470029A8BF704780
:1005E000401C490008BF20F00100704710B4B0FA69
:1005F00080FC00FA0CF050EA010404BF10BC704704
:1006000049B1CCF1200421FA04F411FA0CF118BF1D
:10061000012121430843A3EB0C01CB1D4FEA0061EC
:100620004FEA102042BF002010BC704700EBC350BF
:1006300010440029A4BF10BC7047401C490008BFEB
:1006400020F0010010BC704710B5141E73F10004B7
:1006500008DA401C41F1000192185B411A4301D1B4
:1006600020F0010010BD2DE9F04D92469B4611B1DE
:10067000B1FA81F202E0B0FA80F220329046FFF740
:100680007BFF04460F4640EA0A0041EA0B0153464D
:100690005A46084313D0114653EA010019D0C8F155
:1006A00040025046FFF777FF05460E465046594632
:1006B0004246FFF761FF084305D0012004E02046D1
:1006C0003946BDE8F08D0020054346EAE0762C432C
:1006D00037430A986305E40AA0EB08000022FD0AEC
:1006E00044EA47540A3002D500200146E9E70105F3
:1006F00010196941DDE9084500196941BDE8F04D6F
:10070000A2E72DE9FE4FC3F30A5701F0004500248C
:10071000C1F30A56C3F31303C1F3130143F4801367
:1007200012EB020AA64641F48011009543EB030C3C
:10073000A7F1010B16E0B0EB0A0061EB0C01071EFC
:1007400071F1000707DA4FF00008D0EB080085F0E0
:10075000004568EB0101171A73EB0107EBD3761E16
:10076000001849415E45F6DA50EA010209D0CDE9A8
:1007700000E5002213460296FFF775FF03B0BDE8BF
:10078000F08F20460099F9E71CB509480090094808
:1007900001900546009C06E0E06840F0010394E803
:1007A000070098471034AC42F6D3FFF7F1FC000085
:1007B000045B0108245B01082DE9F04D81EA030484
:1007C00004F0004B21F0004514464FF0000A23F0DE
:1007D000004150EA050220D054EA01021DD0C5F3C1
:1007E0000A570246C5F31303C1F31300C1F30A56B7
:1007F00040F4801543F48013A7EB0608101BD6467F
:1008000008F2FD3873EB050002D308F1010801E09E
:1008100092185B41B8F1000F03DA00200146BDE8F1
:10082000F08D00204FF48011064684460EE0171B21
:1008300073EB050705D3121B63EB050306434CEA74
:10084000010C49084FEA300092185B4150EA010759
:10085000EDD152EA030012D082EA040083EA0501D6
:10086000084305D0101BAB4106D20122002306E04D
:1008700000224FF0004302E06FF0010253101AEB28
:1008800006004CEB085110EB0A0041EB0B01BDE8F0
:10089000F04DFFF7D9BE30B58C1810F8012B12F0CF
:1008A0000F0301D110F8013B120906D110F8012BFA
:1008B00003E010F8015B01F8015B5B1EF9D101E078
:1008C00001F8013B521EFBD1A142E6D3002030BD0E
:1008D00080B540F68620C2F2000001880131018017
:1008E0000088B0F57A7F01DAFFE711E040F6862153
:1008F000C2F200010020088041F2D800C2F20000DC
:1009000040F2AE11C2F20001042202F00BF8FFE740
:1009100080BD000080B582B001900198806B00908E
:100920000098006C10F0500F3AD1FFE70099086C66
:1009300040F40070086400980068806810F0405F20
:100940002AD1FFE70098007E30BBFFE700980068DF
:10095000C06A10F4700F07D0FFE700980068806845
:100960004005002818D4FFE700980168486820F087
:10097000200048600099086C20F48070086400989A
:10098000006CC004002806D4FFE70099086C40F012
:1009900001000864FFE7FFE7009801F00BFD10E09D
:1009A0000098006CC006002804D5FFE7009801F00D
:1009B0006BFE05E00098806BC16C01988847FFE7EB
:1009C000FFE702B080BD000080B582B001900198C1
:1009D000806B00900099402008640099486C40F0BA
:1009E00004004864009801F04FFE02B080BD000092
:1009F00080B582B001900198806B0090009801F062
:100A00003FFE02B080BD000080B582B041F62420D8
:100A1000C2F20000019007F019F801980C2107F0CC
:100A200011FC41F29000C2F2000040F2A811C2F2A3
:100A30000001032201F076FF41F2D800C2F200006B
:100A400040F2AE11C2F20001042201F06BFF01205E
:100A500000F0C4F902B080BD83B002900191009211
:100A600040F2F410C2F2000000680299086040F2FF
:100A7000F810C2F2000000680199086040F2FC1012
:100A8000C2F2000000680099086003B070470000DF
:100A900085B0049003910292019341F66930C2F24D
:100AA000000000780146009140B1FFE7009801285E
:100AB00033D0FFE7009802285ED08CE040F2AE1001
:100AC000C2F200000078442804DCFFE70499782093
:100AD00008701BE040F2AE10C2F200000078BE28A1
:100AE00004DBFFE70499002008700EE040F2AE102E
:100AF000C2F20000007845F2A201C0F601010844EC
:100B000010F8450C04990870FFE7FFE741F66931DA
:100B1000C2F200010120087077E040F2AE10C2F28C
:100B200000004078442804DCFFE70399782008702F
:100B30001BE040F2AE10C2F200004078BE2804DB99
:100B4000FFE70399002008700EE040F2AE10C2F2F9
:100B50000000407845F2A201C0F60101084410F8F7
:100B6000450C03990870FFE7FFE741F66931C2F2CF
:100B700000010220087048E040F2AE10C2F200000E
:100B80008078442804DCFFE70299782008701BE095
:100B900040F2AE10C2F200008078BE2804DBFFE70E
:100BA0000299002008700EE040F2AE10C2F2000080
:100BB000807845F2A201C0F60101084410F8450C06
:100BC00002990870FFE7FFE741F66931C2F20001C0
:100BD0000320087019E00498007803990978084404
:100BE00002990978084400EE100AB8EEC00AB0EE87
:100BF000081A80EE010A019880ED000A41F6693179
:100C0000C2F2000100200870FFE705B07047000045
:100C100081B0009040F2AE10C2F20000C07800EE49
:100C2000100AB8EEC00A9FED081A20EE010AB3EED2
:100C3000001A20EE010A9FED051A80EE010A0098C5
:100C400080ED000A01B07047333353400000804309
:100C500082B0019042F20030C4F20100009000998D
:100C6000486820F44030486001984268009948681C
:100C70001043486001980168486820F4807048601B
:100C8000019801680269486840EA022048600198BA
:100C90000168486820F040704860019801688268E7
:100CA00048681043486001980168886820F4006033
:100CB000886001980168C26888681043886001985C
:100CC000806A0121C0F60071884219D0FFE70198BF
:100CD0000168886820F07060886001980168826A05
:100CE00088681043886001980168886820F0405047
:100CF000886001980168C26A8868104388600CE0C7
:100D000001980168886820F0706088600198016827
:100D1000886820F040508860FFE701980168886883
:100D200020F0020088600198027E0168886840EA2D
:100D300042008860019890F82000C8B1FFE7019850
:100D40000168486840F4006048600198016848689C
:100D500020F46040486001980168426A4EF2000049
:100D6000CFF6FF7000EB423248681043486006E05F
:100D700001980168486820F400604860FFE7019826
:100D80000168C86A20F47000C86201980168C269ED
:100D90000020CFF6F07000EB0252C86A1043C86220
:100DA00001980168886820F400708860019890F8C4
:100DB00030200168886840EA422088600198016814
:100DC000886820F4806088600198016842698868BA
:100DD00040EA8220886002B07047000081B0ADF820
:100DE0000200BDF8020041F62421C2F200010968A8
:100DF000086401B070470000FFE7FEE780B541F2EC
:100E00002010C2F2000002F0A3F980BD80B58CB0C2
:100E10000B908DF82B100B9840F28012C2F200025A
:100E200010609DF82B0000F0010050710021059129
:100E30000120069007901368C3F3CF230093126834
:100E4000520192B20192029103910491F42108910E
:100E50000E2109910FF086FB41F22010C2F2000032
:100E6000694601F05FFF20B1FFE700200FF07AFB39
:100E7000FFE741F22010C2F2000002F05BFD20B15A
:100E8000FFE700200FF06EFBFFE741F22010C2F2F7
:100E90000000022101F070FE20B1FFE700200FF0FA
:100EA00061FBFFE740F28010C2F200004079C0070A
:100EB000A0B1FFE740F28010C2F20000083040F21B
:100EC000B211C2F20001402212F046FE032804D102
:100ED000FFE700200FF046FBFFE7FFE70CB080BD07
:100EE00080B5FFE741F6DD20C2F2000000F006F910
:100EF00040B9FFE741F6DD20C2F20000007800F0C3
:100F0000A5F8EFE780BD000080B582B001908DF8B4
:100F1000031040F60830C2F200000078C00708B1A4
:100F2000FFE742E09DF80300042805D0FFE79DF8A5
:100F3000030008280CD1FFE740F60831C2F2000197
:100F4000212088709DF80300C8700198486022E055
:100F50009DF8030001280AD1FFE70198007840F6C8
:100F60000831C2F2000188700020C87012E09DF8BC
:100F7000030002280DD1FFE70198007840F6083100
:100F8000C2F2000188700120C870019801304860E9
:100F9000FFE7FFE7FFE740F60831C2F2000101205A
:100FA000087048700FF0E0FDFFE702B080BD000060
:100FB00080B58CB00B908DF82B1000208DF82A0096
:100FC00040F28011C2F200010A68019209680291A0
:100FD000039004909DF82B100591F5218DF81810C1
:100FE0008DF82A00FFE79DF82A009DF82B10884213
:100FF0000EDAFFE70B989DF82A20805C0DF12201A4
:101000008854FFE79DF82A0001308DF82A00EAE7AE
:1010100041F22010C2F2000001A90DF1220207AB3B
:1010200001F0D4FD20B1FFE702200FF09BFAFFE7AB
:10103000FFE741F22010C2F2000002F051F802284E
:1010400001D8FFE7F5E701200CB080BD80B582B084
:101050008DF8070040F67220C2F200000078C00749
:10106000E0B3FFE741F6DC20C2F200000078072879
:101070002CDCFFE79DF807005E2817D1FFE741F65B
:10108000DC20C2F20000009000780130C1B241F6CD
:10109000D420C2F20000FFF737FF0099002008704B
:1010A00040F67221C2F2000108700EE09DF80700C0
:1010B00041F6DC23C2F200031A78511C197041F684
:1010C000D421C2F200018854FFE706E040F6722105
:1010D000C2F2000100200870FFE70CE09DF8070055
:1010E000E52807D1FFE740F67221C2F20001012096
:1010F0000870FFE7FFE702B080BD000080B582B056
:101100000190019940F28010C2F20000083012F004
:10111000B7FC02B080BD000080B584B08DF80F0030
:101120000291ADF806209DF80F000146009123289A
:1011300025D80099DFE801F0121314151623232394
:10114000232323232323232323232323232323236F
:1011500023232323232323231718192210E00FE02E
:101160000EE00DE00CE00BE00AE002980078C0070A
:1011700018B1FFE713F08CFCFFE701E000E0FFE7A8
:10118000002004B080BD00000020704780B582B010
:1011900040F6B450C2F20000009040F66601C2F280
:1011A0000001002201920BF0FFFE009840F2666100
:1011B000C2F200010BF0DAFE019802B080BD00001F
:1011C00080B584B0039002910398029913F026FB36
:1011D000039940F6B450C2F2000001900BF0C6FE35
:1011E00001980BF069FE002004B080BD83B002902E
:1011F00001918DF8032000208DF802009DF9020076
:1012000003B0704780B586B00490ADF80E10002092
:101210008DF80D0040F6B450C2F20000D0F8BC02C8
:1012200002900298D0F8140220B1FFE701208DF857
:10123000170013E00499BDF80E2040F6B450C2F236
:10124000000001900BF0B0FE01980BF0B7FF8DF895
:101250000D009DF80D008DF81700FFE79DF81700B1
:1012600006B080BD80B582B08DED010ACDED000ADB
:101270009DED010ADDED000A40F6AC40C2F200002F
:1012800090ED031A183008F053FF02B080BD000043
:1012900080B584B040F69030C2F20000011D00F12C
:1012A0000802FFF7D9FB12F0EDFE0146009101287C
:1012B00014D0FFE70098022829D0FFE70098032800
:1012C0003ED0FFE70098042808D0FFE700980528E3
:1012D0001DD0FFE70098062832D04AE040F6903053
:1012E000C2F2000090ED010A90ED021A30EE010A00
:1012F0008DED030A90ED010AB1EE400A8DED020A70
:1013000090ED020AB1EE400A8DED010A3CE040F694
:101310009030C2F2000090ED000AB1EE400A8DED6F
:10132000030A90ED000A90ED021A30EE010A8DEDED
:10133000020A90ED020AB1EE400A8DED010A23E0A7
:1013400040F69030C2F2000090ED000AB1EE400A83
:101350008DED030A90ED010AB1EE400A8DED020A0F
:1013600090ED000A90ED011A30EE010A8DED010AB0
:101370000AE040F69030C2F2000001680391416833
:10138000029180680190FFE79DED030ADDED020AFE
:101390009DED011A40F69031C2F2000101F10C00FE
:1013A00010310FF0EBF804B080BD000080B584B0C0
:1013B00041F62420C2F2000003900021009107F0C2
:1013C00015FA03980421019107F010FA03980821F7
:1013D000029107F00BFA0099039806F0DFF90199E2
:1013E000039806F0DBF90299039806F0D7F904B0E8
:1013F00080BD000080B541F20820C2F2000002F07A
:1014000093FB80BD80B541F2C820C2F2000002F01B
:101410008BFB80BD80B541F26820C2F2000002F073
:1014200083FB80BD80B541F22830C2F2000002F09B
:101430007BFB80BD80B541F24810C2F2000002F093
:1014400073FB80BD80B541F2A810C2F2000002F02B
:101450006BFB80BD80B541F28830C2F2000002F023
:1014600063FB80BD80B541F2E830C2F2000002F0BB
:101470005BFB80BD82B001900198007810384AF67D
:10148000AB21CAF6AA21A0FB011000090090009927
:1014900045F28200C0F60100405C0199C8650098E1
:1014A000042807D3FFE701990868042262F30900C2
:1014B000886506E00199086840F2FF32904388652C
:1014C000FFE70198806D02B07047000086B005907C
:1014D00000208DF813000598806A039005988069B4
:1014E00010BBFFE70398029003281BD80299DFE89E
:1014F00001F0020D0218059890F82F00C00720B1E6
:10150000FFE701208DF81300FFE70CE00598C06AA3
:10151000B0F1C07F04D1FFE701208DF81300FFE791
:1015200001E000E0FFE745E005988069B0F5005F65
:1015300025D1FFE70398019003281ED80199DFE821
:1015400001F00206021101208DF8130016E0059843
:1015500090F82F00C00720B1FFE701208DF813009D
:10156000FFE70BE00598C06AB0F1C07F04D1FFE748
:1015700001208DF81300FFE700E0FFE719E0039872
:101580000090032804D3FFE70098032804D00EE05E
:1015900001208DF813000BE0059890F82F00C0078C
:1015A00020B1FFE701208DF81300FFE700E0FFE71F
:1015B000FFE7FFE79DF8130006B0704784B0039083
:1015C00002910192009303980168086820F480203A
:1015D000086000980399096848600398806840286B
:1015E00009D1FFE701980399096888600298039977
:1015F0000968C86008E00298039909688860019842
:1016000003990968C860FFE704B07047704700009D
:1016100080B584B041F62420C2F20000039000217E
:10162000009106F00FFE03980421019106F00AFED6
:1016300003980821029106F005FE0099039805F031
:10164000E3FF0199039805F0DFFF0299039805F085
:10165000DBFF04B080BD000080B540F66430C2F20C
:1016600000000078032803D1FFE700F015F810E030
:1016700040F66430C2F20000007848B9FFE740F657
:101680006431C2F200010120087000F063F9FFE745
:10169000FFE780BD0000000080B592B00EA80A9060
:1016A00002F008FF119002F005FF40F66431C2F22B
:1016B00000010991C969401A109041F6D020C2F288
:1016C00000000078800141F6D221C2F200010978C1
:1016D00040EA9100ADF83E00BDF83E00FEF70CFF79
:1016E0000246099803920A46039942EC101B8DEDBD
:1016F000040B8069FEF711FF9DED040B41EC110B0B
:101700008DED061B9FED8E1B53EC112B51EC100B36
:10171000FEF765FE9DED060B41EC110B51EC110B34
:1017200053EC102BFEF7B4FD41EC100B51EC100BF9
:10173000FEF706FF099902460A984A6091ED010AF0
:1017400091ED021A30EE410A80ED000A90ED000A98
:101750009FED7D1AB4EE410AF1EE10FA0BDBFFE7C4
:101760000A9890ED000A9FED791AB4EE410AF1EE65
:1017700010FA13DDFFE70A9890ED000A4FF0FF32F0
:10178000B5EE400AF1EE10FAB8BF012240F664311E
:10179000C2F20001486A10444862FFE740F6643034
:1017A000C2F2000090ED011A90ED090AB8EEC00AED
:1017B0009FED662A20EE020A30EE000A30EE010AA2
:1017C00080ED030A1098C0B1FFE70A9940F6643033
:1017D000C2F2000090ED030A90ED041A30EE410AC7
:1017E00091ED021AB8EE411A9FED592A21EE021A24
:1017F00080EE010A80ED050AFFE740F66431C2F28F
:10180000000148688860C86808611198C86141F69D
:10181000D220C2F200000088800700280BD5FFE725
:101820000020029000F0ECF8029840F66431C2F219
:101830000001087082E000F0DDF820B9FFE7012028
:1018400000F0DEF8FFE7FFE741F6D220C2F2000029
:10185000008800F001008DF8370000208DF8360078
:10186000BDF83E10ADF834100C90FFE70C980D2831
:1018700012DCFFE7BDF834000C99C840C00730B156
:10188000FFE79DF8360001308DF83600FFE7FFE7EF
:101890000C9801300C90E9E79DF8360000F001004B
:1018A0008DF82F009DF82F0000F001009DF83710F3
:1018B00001F00101884208D0FFE741F6F431C2F29D
:1018C000000108780A30087019E041F6F430C2F2DD
:1018D00000000078012808DBFFE741F6F430C2F28F
:1018E000000000780138019002E000200190FFE73D
:1018F000019841F6F431C2F200010870FFE741F6A9
:10190000F430C2F200000078652804DBFFE7022013
:1019100000F076F809E000F06DF8022804D1FFE746
:10192000012000F06DF8FFE7FFE740F66431C2F2F6
:1019300000010120087000F00DF8FFE712B080BD33
:1019400033394C54FB21393FDB0F49C0DB0F494091
:10195000BD37863580B500F043F841F68410C2F2F9
:10196000000040F29611C2F2000141F6D022C2F20C
:101970000002012305F00CFC48B1FFE700F026F857
:1019800040F66431C2F2000100200870FFE780BD1C
:1019900080B500F025F841F68410C2F2000040F254
:1019A0009811C2F2000141F6D222C2F200020123D4
:1019B00005F0EEFB48B1FFE700F008F840F66431AF
:1019C000C2F2000100200870FFE780BD80B5002052
:1019D000C4F202004FF40041012202F04DFD80BD2F
:1019E00080B50020C4F202004FF40041002202F052
:1019F00043FD80BD40F66130C2F2000000787047C0
:101A000081B08DF803009DF8030040F66131C2F209
:101A10000001087001B0704780B582B0019000F0FD
:101A2000DDF800F0D1F800F027F8202011F0BAFF1F
:101A30009DF8060011F0B6FF9DF8050011F0B2FF09
:101A40009DF8040011F0AEFF00F00AF800F0BCF8B9
:101A500002B080BD80B572B6022009F07BFE80BD69
:101A600080B540F20040C4F202004FF480510122E0
:101A700002F002FD80BD000080B540F20040C4F2DB
:101A800002004FF48051002202F0F6FC80BD0000FD
:101A900080B582B000208DF80600ADF80400FFF795
:101AA000EBFF0A2002F0EAFA9F2011F07BFF11F011
:101AB00065FF8DF8040011F061FF8DF8050011F04D
:101AC0005DFF8DF806009DF80400EF280ED1FFE7BA
:101AD0009DF80500402809D1FFE79DF80600182869
:101AE00004D1FFE7012000F0F9F812E040F673207E
:101AF000C2F20000007804280ADCFFE740F67321F8
:101B0000C2F20001087801300870FFF7C1FFFFE75B
:101B1000FFE7FFF7A5FF02B080BD000080B582B0EF
:101B200000208DF80700FFF7A7FF052011F03AFF0E
:101B300011F024FF8DF80700FFF792FF9DF80700D2
:101B400002B080BD80B584B002900191ADF8022052
:101B50000020ADF80000FFF78FFF032011F022FFF7
:101B600038B9FFE7022000F0B9F800208DF80F0027
:101B700026E09DF8060011F015FF9DF8050011F014
:101B800011FF9DF8040011F00DFFFFE7BDF8000004
:101B9000BDF8021088420DDAFFE711F0EFFE02995E
:101BA000BDF800208854FFE7BDF800000130ADF813
:101BB0000000EBE7FFF754FF01208DF80F00FFE76F
:101BC0009DF80F0004B080BD80B5FFE7FFF7A6FFCA
:101BD000C00708B1FFE7F9E780BD000080B5FFF757
:101BE0004BFF062011F0DEFEFFF73AFF80BD00003C
:101BF00080B584B002900191ADF80220FFF7EEFFAE
:101C0000FFF73AFF022011F0CDFE38B9FFE70220BE
:101C100000F064F800208DF80F002BE09DF806001E
:101C200011F0C0FE9DF8050011F0BCFE9DF8040007
:101C300011F0B8FE0020ADF80000FFE7BDF800008D
:101C4000BDF8021088420DDAFFE70298BDF80010D7
:101C5000405C11F0A7FEFFE7BDF800000130ADF8D1
:101C60000000EBE7FFF7FCFEFFF7AEFF01208DF869
:101C70000F00FFE79DF80F0004B080BD80B584B071
:101C8000039002910398000BADF8060003980299A7
:101C90000844000BADF80400BDF80400BDF80610C0
:101CA000401AADF802000020ADF80000FFE7BDF8D3
:101CB0000000BDF8021088420EDCFFE70398FFF732
:101CC000ABFE039800F6FF700390FFE7BDF800003D
:101CD0000130ADF80000EAE704B080BD81B08DF8B6
:101CE00003009DF8030040F66131C2F20001487024
:101CF00001B0704781B08DF803009DF8030040F6F5
:101D00008841C2F20001487001B0704740F68C3043
:101D1000C2F200007047000041F63C30C2F2000001
:101D20007047000040F69030C2F20000704700009B
:101D300080B500F0B1F940F68C30C2F200000078B6
:101D400018B9FFE70EF022FE02E00EF05BFEFFE79F
:101D500080BD000080B584B040F68C30C2F2000037
:101D600000780146039120B1FFE7039801283DD098
:101D70005EE040F68C30C2F20000407801460291ED
:101D8000042831D80299DFE801F003060B1D260074
:101D900012F0D2FE29E00EF04BFC12F0CDFE24E052
:101DA00011F078FD40F68C30C2F20000C078C00718
:101DB00018B1FFE712F0D2FEFFE70EF039FC12F087
:101DC000BBFE12E010F0B0FC11F064FD0EF030FC30
:101DD00012F0B2FE09E010F033FD11F05BFD0EF0E1
:101DE00027FC12F0A9FE00E0FFE722E040F68C306D
:101DF000C2F2000040780146019140B1FFE701982E
:101E0000012807D0FFE70198022808D00EE012F061
:101E100093FE0CE00EF00CFC12F08EFE07E011F0C9
:101E200039FD0EF005FC12F087FE00E0FFE700E050
:101E3000FFE709F0BBFB11F013FA04B080BD00000E
:101E400080B582B08DF807000EF07CFE9DF807008B
:101E500040F68C31C2F20001487002B080BD000033
:101E600081B08DED000A009840F69031C2F2000179
:101E7000486401B07047000080B582B08DF807005B
:101E80000EF074FD9DF8070040F68C31C2F200019F
:101E9000087002B080BD000080B582B0019040F6AD
:101EA0008C30C2F20000407801460091042839D8F5
:101EB0000099DFE801F0030E192121000198006864
:101EC00040F69031C2F2000148630198406808630F
:101ED00029E00198006840F69031C2F20001C86123
:101EE000019840680862FFE70198006840F6903169
:101EF000C2F20001086416E00198006840F69031D3
:101F0000C2F20001C86440F68C30C2F20000807852
:101F1000C00730B1FFE7019890ED010A08F094F98D
:101F2000FFE700E0FFE702B080BD000080B582B0AF
:101F3000FFF7FEFE40F68840C2F2000040780146FE
:101F40000191082863D80199DFE801F0050611170F
:101F5000232F323B4F005BE00EF0BAFA20B1FFE7CF
:101F60000020FFF7C7FEFFE7FFF7F4FE50E00EF09A
:101F7000FDFC0020FFF7BEFE4AE040F68841C2F2B9
:101F8000000101200870FFF743FB0520FFF7B2FEB8
:101F90003EE040F68841C2F2000100200870FFF7E1
:101FA00005FA0220FFF7A6FE32E0FFF7D3FE2FE08E
:101FB00009F02AF820B1FFE70820FFF79BFEFFE7B2
:101FC00026E040F68840C2F200000078C00758B111
:101FD000FFE740F68841C2F2000100200870FFF7D9
:101FE000E5F908F03DF9FFE712E040F68840C2F25B
:101FF00000000078C00748B1FFE740F68841C2F210
:10200000000100200870FFF7D1F9FFE700E0FFE7CB
:10201000FFF722FB02B080BD81B08DF803008DF880
:1020200002108DF8012040F6AC40C2F20000002101
:1020300041610161C1608160416001609DF80310F0
:10204000C1709DF8021001719DF801104171C178B5
:1020500000EE101AB8EEC00A9FED0E1A20EE010A2B
:1020600080ED030A90ED030A017901EE101AB8EE33
:10207000C11A20EE010A80ED040A90ED040A4179AC
:1020800001EE101AB8EEC11A20EE010A80ED050A21
:1020900001B0704717B7513840F6AC41C2F20001A9
:1020A00000208871C87108720878013008700878BB
:1020B000C97888422BDBFFE740F6AC41C2F2000151
:1020C00000200870012088714878013048704878F5
:1020D000097988421ADBFFE740F6AC41C2F2000101
:1020E000002048700120C871887801308870887895
:1020F0004979884209DBFFE740F6AC41C2F20001B2
:102100000020887001200872FFE7FFE7FFE77047B3
:1021100040F66430C2F2000090ED010A7047000002
:1021200040F66430C2F2000090ED030A70470000F0
:1021300040F66430C2F2000090ED050A70470000DE
:1021400080B584B047F61020C1F6FF700068039098
:1021500047F61420C1F6FF700068029047F6182079
:10216000C1F6FF700068019001990398084403903C
:10217000039888B1FFE7039840F2DC01C2F2000146
:1021800000910231082206F0F5FF00990298123101
:10219000042206F0EFFFFFE704B080BD85B0039096
:1021A000029100200190FFE7039890F83C0001287D
:1021B00004D1FFE702208DF81300F7E00399012016
:1021C00081F83C00FFE7FFE7029800680A281CD36B
:1021D000FFE70298008800EB4000A0F11E010720F5
:1021E00000FA01F203980168C8689043C860029938
:1021F0008868098801EB41011E3900FA01F2039851
:102200000168C8681043C86018E00298008800EBB5
:102210004001072000FA01F2039801680869904321
:10222000086102998868098801EB410100FA01F20E
:1022300003980168086910430861FFE70298406845
:1022400006281BD8FFE70298406800EB8000411F7A
:102250001F2000FA01F203980168486B904348631D
:1022600002990888496801EB8101053900FA01F2F9
:1022700003980168486B104348633DE0029840684A
:102280000C281CD8FFE70298406800EB8000A0F102
:1022900023011F2000FA01F203980168086B9043A4
:1022A000086302990888496801EB8101233900FA23
:1022B00001F203980168086B104308631BE0029861
:1022C000406800EB8000A0F141011F2000FA01F2FC
:1022D00003980168C86A9043C862029908884968EF
:1022E00001EB8101413900FA01F203980168C86AE3
:1022F0001043C862FFE7FFE742F20030C4F201007A
:1023000000900398006842F20001C4F20101884283
:102310000BD1FFE702980068122806D1FFE7009969
:10232000486840F480004860FFE70398006842F284
:102330000001C4F2010188422ED1FFE70298006833
:10234000102805D0FFE702980068112824D1FFE784
:102350000099486840F4000048600298006810281E
:1023600019D1FFE740F22400C2F2000000684DF6E8
:102370008361C4F21B31A0FB0110800C00EB8000D4
:1023800040000190FFE7019820B1FFE70198013874
:102390000190F8E7FFE7FFE7FFE70399002081F8E6
:1023A0003C00FFE700208DF81300FFE79DF81300C5
:1023B00005B0704784B003900398006842F20001B2
:1023C000C4F20101884240F04E81FFE740F67020E0
:1023D000C2F200000078C007002840F08280FFE7CA
:1023E00040F2A810C2F20000018800EE101AB8EE08
:1023F000C01A40F6EC21C2F2000191ED000A30EE65
:10240000010A81ED000A418800EE101AB8EEC01AE8
:1024100040F6F021C2F2000191ED000A30EE010A0F
:1024200081ED000A808800EE100AB8EEC01A40F66E
:10243000F420C2F2000090ED000A30EE010A80EDB7
:10244000000A40F68320C2F20000017801310170D9
:102450000078632844D1FFE740F6EC20C2F2000088
:1024600090ED000A9FED812A80EE020AB6EE001A76
:1024700030EE010ABDEEC00A10EE100A40F2002153
:10248000C2F20001088040F6F020C2F2000090ED98
:10249000000A80EE020A30EE010ABDEEC00A10EE1C
:1024A000100A40F20221C2F20001088040F6F42036
:1024B000C2F2000090ED000A80EE020A30EE010A3E
:1024C000BDEEC00A10EE100A40F20421C2F2000173
:1024D000088040F67021C2F2000101200870FFE779
:1024E000C0E040F2A810C2F20000008840F20021D3
:1024F000C2F200010988401A00EE100AB8EEC00AC4
:10250000B5EE400AF1EE10FA1EDDFFE740F2A8102A
:10251000C2F20000008840F20021C2F200010988E6
:10252000401A00EE100AB8EEC00A9FED521A20EED3
:10253000010A9FED511A20EE010A9FED501A80EE1C
:10254000010A8DED020A04E09FED490A8DED020AB1
:10255000FFE79DED020A40F2F410C2F2000080EDA8
:10256000000A40F2A810C2F20000408840F20221A6
:10257000C2F200010988401A00EE100AB8EEC00A43
:10258000B5EE400AF1EE10FA1EDDFFE740F2A810AA
:10259000C2F20000408840F20221C2F20001098824
:1025A000401A00EE100AB8EEC00A9FED321A20EE73
:1025B000010A9FED311A20EE010A9FED301A80EEDC
:1025C000010A8DED010A04E09FED290A8DED010A53
:1025D000FFE79DED010A40F2F810C2F2000080ED25
:1025E000000A40F2A810C2F20000808840F20421E4
:1025F000C2F200010988401A00EE100AB8EEC00AC3
:10260000B5EE400AF1EE10FA1EDDFFE740F2A81029
:10261000C2F20000808840F20421C2F20001098861
:10262000401A00EE100AB8EEC00A9FED121A20EE12
:10263000010A9FED111A20EE010A9FED101A80EE9B
:10264000010A8DED000A04E09FED090A8DED000AF4
:10265000FFE79DED000A40F2FC10C2F2000080EDA1
:10266000000AFFE7FFE704B0704700BF0000C84260
:102670000000000019B32A423333534000F07F4575
:1026800081B0009001B0704781B0009001B07047F8
:1026900080B584B0029000208DF80700029820B920
:1026A000FFE701208DF80F0042E00298806A0121C7
:1026B000C0F60071884201D0FFE7FFE70298006C86
:1026C00050B9FFE7029800F037F8029900204864FB
:1026D000029981F83C00FFE70298006CC0060028D0
:1026E00017D4FFE70298006C40F0020020F48850F5
:1026F000029908640298FEF7ABFA02990020486438
:102700000298006C40F0010020F002000299086479
:1027100003E001208DF80700FFE7FFE702990020A2
:1027200081F83C00FFE79DF807008DF80F00FFE7F8
:102730009DF80F0004B080BD80B592B011900020CC
:1027400010900F900E900D900C901198006842F22E
:102750000001C4F2010188427ED1FFE7FFE70020BB
:102760000B9043F64400C4F20200016841F480710A
:102770000160006800F480700B900B98FFE7FFE7A2
:1027800000200A9043F63000C4F20200016841F0D4
:1027900004010160006800F004000A900A98FFE755
:1027A000FFE70020099043F63000C4F20200016800
:1027B00041F001010160006800F0010009900998F2
:1027C000FFE708200C90032003900D900020059057
:1027D0000E9040F60000C4F202000CA9049101F032
:1027E0006FFC039A049905980C920D920E900020AC
:1027F000C4F2020001F064FC059941F24810C2F2F3
:102800000000069046F21042C4F2020202604160EB
:102810008160C1604FF4806202614FF400624261E6
:102820004FF4005282614FF48072C2614FF4003263
:102830000262416201F008FB18B1FFE7FFF70AF9F5
:10284000FFE7FFE7119841F24811C2F200018163EE
:1028500011988863FFE763E01198006842F2001165
:10286000C4F2010188425AD1FFE7FFE70020089037
:1028700043F64400C4F20200016841F400710160B3
:10288000006800F4007008900898FFE7FFE7002058
:10289000079043F63000C4F20200016841F00401E1
:1028A0000160006800F0040007900798FFE7272008
:1028B0000C9003200D90002001900E9040F6000037
:1028C000C4F202000CA901F0FBFB019941F2A8102F
:1028D000C2F20000029046F24042C4F202020260DC
:1028E0004FF0007242608160C1604FF4806202610B
:1028F00041618161C1610162416201F0A5FA18B1D3
:10290000FFE7FFF7A7F8FFE7FFE7119841F2A811EB
:10291000C2F20001816311988863FFE7FFE7FFE7D8
:1029200012B080BD80B588B0069005910492002059
:1029300003908DF80700FFE7069890F83C00012807
:1029400004D1FFE702208DF81F0010E10699012055
:1029500081F83C00FFE7FFE706980068806800F018
:10296000010001281ED0FFE706980168886840F042
:102970000100886040F22400C2F2000000684DF6B9
:102980008361C4F21B31A0FB0110800C00EB4000FE
:102990000390FFE7039820B1FFE703980138039005
:1029A000F8E7FFE7069800688068C005002807D5AB
:1029B000FFE706980168886820F480708860FFE768
:1029C000069800688068C007002800F0C080FFE714
:1029D0000698006C40F4807040F2016188430699CB
:1029E00008640698006840684005002809D5FFE79C
:1029F0000698006C40F4805020F40050069908645A
:102A0000FFE70698006CC004002806D5FFE706998A
:102A1000486C20F00600486403E0069900204864F2
:102A2000FFE7FFE70699002081F83C00FFE742F24C
:102A30000030C4F2010002900698816B40F6151038
:102A4000C0F60000C8630698816B40F6F110C0F62E
:102A5000000008640698816B40F6C910C0F60000BB
:102A6000C864069801686FF0220008600698016843
:102A7000486840F08060486006980168886840F4C3
:102A80008070886006980168806B4C31059A049BC1
:102A900001F092FA8DF8070002984068C006E8BB82
:102AA000FFE70698006842F20001C4F20101884283
:102AB00024D0FFE70698006842F20011C4F2010139
:102AC000884208D1FFE742F20430C4F201000068F6
:102AD000C00698B1FFE70698006842F20021C4F2F0
:102AE0000101884219D1FFE742F20430C4F201002B
:102AF000006800F01F000F280FD8FFE70698006855
:102B0000806810F0405F07D1FFE706980168886889
:102B100040F080408860FFE7FFE717E00698006814
:102B200042F20001C4F2010188420ED1FFE706988B
:102B30000068806810F0405F07D1FFE706980168E1
:102B4000886840F080408860FFE7FFE70AE0069968
:102B5000086C40F0100008640699486C40F00100D1
:102B60004864FFE79DF807008DF81F00FFE79DF818
:102B70001F0008B080BD000084B00290019102984F
:102B800090F820008DF803009DF80300012805D07F
:102B9000FFE79DF8030002280AD1FFE7019A029897
:102BA000016848691043486100208DF80F0008E073
:102BB0000299486A40F48020486201208DF80F0095
:102BC000FFE79DF80F0004B07047000088B0069042
:102BD000059104920393069890F820008DF8070061
:102BE00006980068806800900598806808B9FFE73B
:102BF00000E0FFE79DF80700012806D0FFE79DF8F9
:102C00000700022840F08080FFE79DF8030040079E
:102C100000280CD4FFE79DF803000007002806D425
:102C2000FFE79DF80300C006002864D5FFE7009881
:102C3000C0F3016002900299012088400399086066
:102C40000598806868B9FFE705980168C06840EAA0
:102C5000415006990968029A01EB0211C1F88001FE
:102C60000EE005994A688868C96840EAC2000843CE
:102C700006990968029A01EB0211C1F88001FFE789
:102C80000598006906990968029A01EB0211C1F8DA
:102C900084010598007D01280CD1FFE706980068A3
:102CA000029900EB0111D1F8840140F48070C1F861
:102CB0008401FFE70498406806990968029A01EBCD
:102CC0000211C1F88C010498006806990968029AFB
:102CD00001EB0211C1F8880106980068029900EB27
:102CE0000111D1F8800140F00100C1F880010020FD
:102CF0008DF81F0011E00699486A40F40010486200
:102D000001208DF81F0008E00699486A40F48020F1
:102D1000486201208DF81F00FFE79DF81F0008B0F2
:102D20007047000086B004900391049890F820004A
:102D30008DF803009DF80300012806D0FFE79DF8F9
:102D40000300022840F0B080FFE746F20040C4F2E2
:102D5000000001900199D1F8000240F00100C1F893
:102D600000020199D1F8000220F47C50C1F8000261
:102D70000398426A0199D1F8000240EA0220C1F8A2
:102D800000020398406900F01F0101208840029072
:102D9000029A0199D1F81C029043C1F81C020398D1
:102DA000C069F0B9FFE7029A0199D1F80C0290438B
:102DB000C1F80C02039A9088D168526940EA014038
:102DC000019901EBC201C1F84002039A1088916891
:102DD000526940EA0140019901EBC201C1F8440285
:102DE000FFE70398C06901281ED1FFE7029A019905
:102DF000D1F80C021043C1F80C02039A90881168B4
:102E0000526940EA0140019901EBC201C1F8400258
:102E1000039A90899168526940EA0140019901EB57
:102E2000C201C1F84402FFE70398806940B9FFE797
:102E3000029A0199D1F804029043C1F8040207E014
:102E4000029A0199D1F804021043C1F80402FFE785
:102E50000398006940B9FFE7029A0199D1F814027A
:102E60009043C1F8140207E0029A0199D1F81402C4
:102E70001043C1F81402FFE70398006A012808D143
:102E8000FFE7029A0199D1F81C021043C1F81C0215
:102E9000FFE70199D1F8000220F00100C1F800021B
:102EA00000208DF8170008E00499486A40F480205B
:102EB000486201208DF81700FFE79DF8170006B063
:102EC0007047000081B0009001B0704786B0049058
:102ED000039102920193049890F820008DF803006A
:102EE0009DF80300012806D0FFE79DF803000228A3
:102EF00040F0E880FFE7039880B9FFE70498006896
:102F0000C068800748B9FFE70499486A40F4001098
:102F1000486201208DF81700DDE00FE0049800689A
:102F20000069800748B9FFE70499486A40F4001037
:102F3000486201208DF81700CDE0FFE70498006893
:102F4000039900EB0110D0F8B00100F004000299E1
:102F500088600298806858B9FFE704980068039970
:102F600000EB0110D0F8B001400D029908600AE0B2
:102F700004980068039900EB0110D0F8B001C00874
:102F800002994860FFE704980068039900EB01107C
:102F9000D0F8B00100F002000299C86004980068FF
:102FA000039900EB0110D0F8B40100F00F000828DD
:102FB00004D3FFE70299082008610BE00498006839
:102FC000039900EB0110D0F8B40100F00F00029952
:102FD0000861FFE704980068039900EB0110D0F83E
:102FE000B40180B2000A02998861049800680399CC
:102FF00000EB0110D0F8B401000C0299486104986C
:103000000068039900EB0110D0F8B801019908702D
:1030100004980068039900EB0110D0F8B801000A89
:103020000199487004980068039900EB0110D0F8EA
:10303000B801000C0199887004980068039900EBAE
:103040000110D0F8B801000E0199C870049800680A
:10305000039900EB0110D0F8BC01019908710498A4
:103060000068039900EB0110D0F8BC01000A019937
:10307000487104980068039900EB0110D0F8BC0176
:10308000000C0199887104980068039900EB011005
:10309000D0F8BC01000E0199C871039838B9FFE758
:1030A00004980168C86840F02000C86006E00498F1
:1030B0000168086940F020000861FFE700208DF8F2
:1030C000170008E00499486A40F480204862012013
:1030D0008DF81700FFE79DF8170006B07047000055
:1030E00083B0029000200190029890F820008DF8A3
:1030F00003009DF80300012805D0FFE79DF80300B9
:10310000022822D1FFE70298006880684001002869
:1031100004D5FFE7019801300190FFE702980068AD
:1031200080680001002804D5FFE701980130019074
:10313000FFE7029800688068C000002804D5FFE718
:10314000019801300190FFE7FFE7019803B0704755
:1031500080B58AB0099000200890099800684069FD
:103160000790099800684068069009980068806890
:10317000059009980068C068049009980068006983
:10318000039009980068806902909DF81C00C007B0
:10319000002800F09480FFE79DF81400C00758B3A2
:1031A000FFE709980168012088609DF814008007F6
:1031B000002804D5FFE7099800F006FC1BE09DF805
:1031C00014004007002805D5FFE7089840F4006088
:1031D00008900FE09DF814000007002805D5FFE7D0
:1031E000089840F48050089003E0099800F0E8FB4C
:1031F000FFE7FFE7FFE7FFE79DF81500C00760B3B3
:10320000FFE7099801684FF4807088609DF8150009
:103210008007002804D5FFE7099800F0DDFB1BE0DC
:103220009DF815004007002805D5FFE7089840F4F1
:10323000005008900FE09DF815000007002805D504
:10324000FFE7089840F48040089003E0099800F0F8
:10325000BFFBFFE7FFE7FFE7FFE79DF81600C007AA
:1032600060B3FFE7099801684FF4803088609DF8EB
:1032700016008007002804D5FFE7099800F0B4FB8A
:103280001BE09DF816004007002805D5FFE70898C9
:1032900040F4004008900FE09DF816000007002859
:1032A00005D5FFE7089840F48030089003E00998BE
:1032B00000F096FBFFE7FFE7FFE7FFE7FFE79DF87A
:1032C0001C000007002810D5FFE79DF81000C0067D
:1032D000002809D5FFE7089840F400700890099885
:1032E00001681020C860FFE7FFE79DF81C00400759
:1032F00000280FD5FFE79DF810000007002808D52B
:10330000FFE7099801680820C860099800F08AFA68
:10331000FFE7FFE79DF81C00800700280BD5FFE7BB
:1033200009980068C068800720B1FFE7099800F09D
:103330007DFAFFE7FFE79DF81C004006002810D546
:10334000FFE79DF80C00C006002809D5FFE70898A4
:1033500040F4806008900998016810200861FFE738
:10336000FFE79DF81C00800600280FD5FFE79DF8B9
:103370000C000007002808D5FFE70998016808201D
:103380000861099800F0CAFAFFE7FFE79DF81C0002
:10339000C00600280BD5FFE7099800680069800780
:1033A00020B1FFE7099800F0BDFAFFE7FFE79DF8BD
:1033B0001E00800700280FD5FFE79DF81800C00603
:1033C000002808D5FFE7099801681020486009988F
:1033D00000F0ACFAFFE7FFE79DF81E00C00778B1E8
:1033E000FFE79DF818000007002808D5FFE70998B7
:1033F000016808204860099800F0FAFAFFE7FFE743
:103400009DF81D000006002840F18D80FFE79DF823
:1034100018004007002840F18180FFE79DF81D005B
:10342000C00750B1FFE79DF80800C00728B1FFE7CB
:10343000089840F001000890FFE79DF81D00800704
:1034400000280BD5FFE79DF808008007002805D568
:10345000FFE7089840F002000890FFE79DF81D0084
:10346000400700280BD5FFE79DF80800400700281B
:1034700005D5FFE7089840F004000890FFE79DF8A5
:103480001D000007002848D5FFE79DF8080010F050
:10349000700F42D0FFE7029800F0700001460191E2
:1034A000102814D0FFE70198202815D0FFE70198D5
:1034B000302816D0FFE70198402817D0FFE7019881
:1034C000502818D0FFE70198602819D01DE008980F
:1034D00040F00800089019E0089840F010000890AB
:1034E00014E0089840F0200008900FE0089840F0A1
:1034F000400008900AE0089840F08000089005E03D
:10350000089840F48070089000E0FFE7099801688F
:10351000886920F070008861FFE7FFE7099801687B
:1035200004204860FFE7089848B1FFE7089A099926
:10353000486A104348620998FFF7C4FCFFE70AB0E5
:1035400080BD000080B584B00290029820B9FFE7EA
:1035500001208DF80F00E0E0029890F8200020B9DB
:10356000FFE7029800F0DEF8FFE7029801680868BC
:1035700040F00100086000F097FF0190FFE702981B
:1035800000684068C007A8B9FFE700F08DFF019907
:10359000401A0B280DD3FFE70299486A40F4003027
:1035A00048620299052081F8200001208DF80F0063
:1035B000B3E0E4E702980168086820F002000860C0
:1035C00000F072FF0190FFE70298006840688007F2
:1035D000002815D5FFE700F067FF0199401A0B2876
:1035E0000DD3FFE70299486A40F40030486202991F
:1035F000052081F8200001208DF80F008DE0E3E721
:103600000298007E012807D1FFE702980168086848
:1036100040F08000086006E002980168086820F029
:1036200080000860FFE70298407E012807D1FFE78D
:1036300002980168086840F04000086006E00298BF
:103640000168086820F040000860FFE70298807E6B
:10365000012807D1FFE702980168086840F02000C0
:10366000086006E002980168086820F02000086001
:10367000FFE70298C07E012807D1FFE702980168A2
:10368000086820F01000086006E0029801680868E9
:1036900040F010000860FFE70298007F012807D182
:1036A000FFE702980168086840F00800086006E03B
:1036B00002980168086820F008000860FFE7029897
:1036C000407F012807D1FFE702980168086840F0B1
:1036D0000400086006E002980168086820F0040011
:1036E0000860FFE7029B19685A689868D3F80CC015
:1036F00040EA0C00D3F810C040EA0C005B691843A4
:10370000013A1043C861029900204862029A0121DF
:1037100082F820108DF80F00FFE79DF80F0004B02D
:1037200080BD000080B592B01190002010900F90E5
:103730000E900D900C901198006846F60001C4F2AE
:10374000000188426BD1FFE7FFE700200B9043F6B2
:103750004000C4F20200016841F08061016000682D
:1037600000F080600B900B98FFE7FFE700200A90C5
:1037700043F64000C4F20200016841F000710160AC
:10378000006800F000700A900A98FFE7FFE7002049
:10379000099043F63000C4F20200016841F00201D2
:1037A0000160006800F0020009900998FFE72020FE
:1037B0000C90022001900D90012006900E900320A5
:1037C00002900F9009200390109040F20040C4F244
:1037D000020004900CA9059100F072FCDDF804C011
:1037E000029B039A049805994FF0400ECDF820E013
:1037F000CDF830E0CDF834C04FF0000CCDF81CC04F
:10380000CDF838C00F93109200F05AFC0699079A31
:10381000089800F001FF089800F0F4FEFFE712B0EE
:1038200080BD000081B0009001B0704780B58CB0C1
:103830000B900B98002102AA09ABFFF747FB002869
:1038400051D1FFE7029840F28011C2F200010968ED
:10385000884237D1FFE740F28010C2F20000407981
:10386000C00740B3FFE740F28011C2F2000101F14E
:103870000800063110F03AF900200190FFE70198A6
:10388000069988420DD2FFE740F28010C2F2000094
:10389000083009A910F02AF9FFE7019801300190DA
:1038A000EDE740F28011C2F2000101F1080007319A
:1038B00010F01CF905E09DF8181009A8FDF724FB8D
:1038C000FFE7FFE740F28010C2F200000079012814
:1038D00008DBFFE740F28011C2F2000108790138ED
:1038E0000871FFE707E040F28011C2F20001087999
:1038F00005300871FFE740F28010C2F20000007945
:10390000322804DBFFE702200CF02CFE03E001204C
:103910000CF028FEFFE70CB080BD000081B00090E5
:1039200001B0704781B0009001B0704781B0009045
:1039300001B0704780B584B00290029890F82000E2
:1039400001282FD1FFE70299022081F82000029878
:103950000168086820F00100086000F0A5FD0190F2
:10396000FFE7029800684068C007A8B1FFE700F0D1
:103970009BFD0199401A0B280DD3FFE70299486A75
:1039800040F4003048620299052081F820000120AF
:103990008DF80F000FE0E4E70299002048628DF8EF
:1039A0000F0008E00299486A40F4002048620120B4
:1039B0008DF80F00FFE79DF80F0004B080BD0000F8
:1039C00081B0009001B0704781B0009001B07047A5
:1039D00081B0009001B0704781B0009001B0704795
:1039E00081B0009001B0704781B0009001B0704785
:1039F00081B0009001B0704780B584B00290029809
:103A0000806D019000F050FD0090029890F8350014
:103A100002280DD0FFE7029980204865FFE7029950
:103A2000002081F83400FFE701208DF80F0055E0F9
:103A300002980168086820F0160008600298016882
:103A4000486920F0800048610298006C20B9FFE7C7
:103A50000298806C38B1FFE702980168086820F08E
:103A600008000860FFE702980168086820F001007C
:103A70000860FFE7029800680068C007C8B1FFE768
:103A800000F012FD0099401A062811D3FFE70299B1
:103A9000202048650299032081F83500FFE702994C
:103AA000002081F83400FFE703208DF80F0015E0B7
:103AB000E0E70298C16D3F20884001998860029933
:103AC000012081F83500FFE70299002081F83400D9
:103AD000FFE7FFE700208DF80F00FFE79DF80F00DC
:103AE00004B080BD82B00090009890F835000228A4
:103AF00007D0FFE700998020486501208DF8070076
:103B00000EE00099052081F83500009801680868EA
:103B100020F001000860FFE700208DF80700FFE7B4
:103B20009DF8070002B0704780B586B00590002070
:103B3000039040F22400C2F20000006848F2B51180
:103B4000C1F64E31A0FB0110800A02900598806DED
:103B5000019001980068049004980599C96DC840C7
:103B6000000700281AD5FFE705980068006840079D
:103B7000002812D5FFE705980168086820F00400C6
:103B800008600598C16D08208840019988600599F2
:103B9000486D40F001004865FFE7FFE7049805998C
:103BA000C96DC840C007A0B1FFE70598006840692B
:103BB000000600280CD5FFE70598C16D012088405C
:103BC000019988600599486D40F002004865FFE75B
:103BD000FFE704980599C96DC8404007002814D52F
:103BE000FFE7059800680068800700280CD5FFE70C
:103BF0000598C16D04208840019988600599486D39
:103C000040F004004865FFE7FFE704980599C96D97
:103C1000C840C006002847D5FFE70598006800683F
:103C2000000700283FD5FFE70598C16D10208840A8
:103C300001998860059800680068400300281AD53B
:103C4000FFE70598006800680003002809D4FFE733
:103C50000598006C20B1FFE70598016C8847FFE7E5
:103C600008E00598806C20B1FFE70598816C8847D3
:103C7000FFE7FFE716E0059800680068C005002828
:103C800007D4FFE705980168086820F0080008607D
:103C9000FFE70598006C20B1FFE70598016C8847A5
:103CA000FFE7FFE7FFE7FFE704980599C96DC84004
:103CB0008006002840F18D80FFE7059800680068C5
:103CC000C006002840F18480FFE70598C16D2020E0
:103CD000884001998860059890F83500052834D10E
:103CE000FFE705980168086820F01600086005984D
:103CF0000168486920F0800048610598006C20B98F
:103D0000FFE70598806C38B1FFE7059801680868FF
:103D100020F008000860FFE70598C16D3F2088404B
:103D2000019988600599012081F83500FFE7059920
:103D3000002081F83400FFE70598006D20B1FFE70F
:103D40000598016D8847FFE77BE0059800680068EB
:103D5000400300281AD5FFE70598006800680003B3
:103D6000002809D4FFE70598406C20B1FFE70598CB
:103D7000416C8847FFE708E00598C06B20B1FFE77A
:103D80000598C16B8847FFE7FFE720E005980068CA
:103D90000068C005002811D4FFE70598016808688D
:103DA00020F0100008600599012081F83500FFE738
:103DB0000599002081F83400FFE7FFE70598C06B04
:103DC00020B1FFE70598C16B8847FFE7FFE7FFE7F2
:103DD000FFE70598406DA0B3FFE70598406DC00769
:103DE00030B3FFE70599052081F835000598016893
:103DF000086820F001000860FFE703980130039095
:103E00000299884201D9FFE707E0FFE705980068BB
:103E10000068C0070028F0D1FFE70599012081F86C
:103E20003500FFE70599002081F83400FFE7FFE740
:103E30000598C06C20B1FFE70598C16C8847FFE783
:103E4000FFE706B080BD000080B586B0049000207A
:103E5000039000F029FB0290049820B9FFE70120AD
:103E60008DF81700A3E00498406A08B1FFE7FFE768
:103E70000499022081F83500FFE70499002081F8B9
:103E80003400FFE704980168086820F0010008602A
:103E9000FFE7049800680068C00790B1FFE700F0F2
:103EA00003FB0299401A06280AD3FFE70499202051
:103EB00048650499032081F835008DF8170076E0F5
:103EC000E7E70498006800680390039848F23F0110
:103ED000CFF2100108400390049900914868D1F88E
:103EE00008C0CB680A6940EA0C00184310434A69CD
:103EF00010438A691043CA691043096A0143039851
:103F0000084303900498406A042808D1FFE7049905
:103F1000C86A096B0143039808430390FFE70398BD
:103F20000499096808600498006840690390039840
:103F300020F0070003900498416A03980843039017
:103F40000498406A04281AD1FFE70498816A03980C
:103F5000084303900498C06A80B1FFE70498FDF716
:103F6000B5FA50B1FFE70499402048650499012053
:103F700081F835008DF8170019E0FFE7FFE7039897
:103F80000499096848610498FDF774FA019004984F
:103F9000C16D3F20884001998860049900204865E0
:103FA000049A012182F835108DF81700FFE79DF87B
:103FB000170006B080BD000080B588B0069005915E
:103FC0000492039300208DF80B000698806D0190F9
:103FD000FFE7069890F83400012804D1FFE702209B
:103FE0008DF81F0045E00699012081F83400FFE7B5
:103FF000FFE7069890F8350001282BD1FFE70699D6
:10400000022081F835000699002048650698059938
:10401000049A039BFDF7D2FA0698C16D3F208840B1
:104020000199886006980168086840F016000860E9
:104030000698006C38B1FFE706980168086840F000
:1040400008000860FFE706980168086840F0010072
:10405000086009E0FFE70699002081F83400FFE7D7
:1040600002208DF80B00FFE79DF80B008DF81F0074
:10407000FFE79DF81F0008B080BD000080B584B048
:10408000039000F011FA029003980190019801301A
:1040900048B1FFE740F29E10C2F20000017801989B
:1040A00008440190FFE7FFE700F0FEF90299401A8B
:1040B0000199884201D2FFE7F6E704B080BD000015
:1040C0008EB00D900C9100200A90099008900B90F2
:1040D000FFE70B980F2800F2CC81FFE70B99012036
:1040E00088400A900C9800680A990840099009983D
:1040F0000A99884240F0B881FFE70C98406800F0C8
:104100000300012807D0FFE70C98406800F0030087
:1041100002282FD1FFE70D98806808900B98410086
:10412000032000FA01F10898884308900C98C068B1
:104130000B99490000FA01F1089808430890089883
:104140000D9988600D98406808900B99012000FA3D
:1041500001F10898884308900C984068C0F300105B
:104160000B9900FA01F108980843089008980D99F6
:104170004860FFE70C98406800F00300032818D05F
:10418000FFE70D98C06808900B984100032000FAE3
:1041900001F10898884308900C9880680B994900B1
:1041A00000FA01F108980843089008980D99C86032
:1041B000FFE70C98406800F00300022826D1FFE7D3
:1041C0000D980B996FF0030202EA51010844006A4E
:1041D00008900B9800F0070081000F2000FA01F111
:1041E0000898884308900C9800690B9901F0070122
:1041F000890000FA01F108980843089008980D9981
:104200000B9B02EA530211440862FFE70D98006815
:1042100008900B984100032000FA01F108988843A8
:1042200008900C98406800F003000B99490000FAD0
:1042300001F108980843089008980D9908600C98B7
:1042400080798007002800F00E81FFE7FFE700205B
:10425000079043F64400C4F20200016841F4804133
:104260000160006800F4804007900798FFE70B9812
:1042700020F0030043F60801C4F201014058089001
:104280000B9800F0030081000F2000FA01F108985C
:10429000884308900D980021C4F20201884203D19E
:1042A000FFE7002006905EE00D9840F20041C4F266
:1042B0000201884203D1FFE70120059050E00D98EC
:1042C00040F60001C4F20201884203D1FFE7022058
:1042D000049042E00D9840F60041C4F20201884289
:1042E00003D1FFE70320039034E00D9841F2000171
:1042F000C4F20201884203D1FFE70420029026E0C5
:104300000D9841F20041C4F20201884203D1FFE757
:104310000520019018E00D9841F60001C4F2020159
:10432000884203D1FFE7062000900AE00D9941F68C
:104330000042C4F202020820914208BF0720009008
:10434000FFE700980190FFE701980290FFE70298CD
:104350000390FFE703980490FFE704980590FFE7B8
:1043600005980690FFE70698C0B20B9901F003018B
:10437000890000FA01F108980843089008980B9901
:1043800021F0030143F60802C4F20102885043F60B
:104390000840C4F201000068089009990898884311
:1043A00008900C988079C006002805D5FFE7099988
:1043B000089808430890FFE7089843F60841C4F2BC
:1043C0000101086043F60C40C4F201000068089047
:1043D00009990898884308900C98807980060028ED
:1043E00005D5FFE70999089808430890FFE7089862
:1043F00043F60C41C4F20101086043F60440C4F2E4
:1044000001000068089009990898884308900C9862
:1044100080798007002805D5FFE7099908980843A7
:104420000890FFE7089843F60441C4F201010860D0
:1044300043F60040C4F2010000680890099908980A
:10444000884308900C988079C00728B1FFE7099944
:10445000089808430890FFE7089843F60041C4F223
:1044600001010860FFE7FFE7FFE70B9801300B90C1
:104470002FE60EB07047000082B00190ADF8021038
:104480008DF801209DF8010028B1FFE7BDF802007A
:104490000199886105E0BDF8020000040199886176
:1044A000FFE702B07047000041F6F030C2F20000B2
:1044B0000068704780B584B0FFF7F6FF03904EF2B6
:1044C0001400CEF2000000680130029002984EF213
:1044D0001801CEF200010968401A01900398019A70
:1044E0004FF47A714A43029BB2FBF3F200FB0120C6
:1044F00004B080BD40F29E10C2F20000027841F686
:10450000F031C2F2000108681044086070470000F2
:1045100080B543F60041C4F20201086840F400701F
:104520000860086840F480600860086840F48070A3
:104530000860032000F08AF80F2000F005F800F072
:104540003BF8002080BD000080B582B0009040F2B2
:104550002400C2F20000006840F29E11C2F2000185
:104560000A784FF47A71B1FBF2F1B0FBF1F002F08E
:104570004FFF20B1FFE701208DF8070018E00098F9
:104580000F280DD8FFE700994FF0FF30002200F010
:1045900043F8009840F2A011C2F20001086003E065
:1045A00001208DF8070003E000208DF80700FFE7E9
:1045B0009DF8070002B080BD82B0FFE700200190A7
:1045C00043F64400C4F20200016841F480410160F6
:1045D000006800F4804001900198FFE7FFE70020A9
:1045E000009043F64000C4F20200016841F080519F
:1045F0000160006800F0805000900098FFE702B072
:104600007047000080B582B08DF807009DF9070063
:104610000BF03CFE02B080BD80B586B08DF817006F
:1046200004910392002002900BF048FE02909DF945
:104630001700019002980499039A05F039FA01468F
:1046400001980BF043FE06B080BD000080B582B03B
:10465000019001980BF05CFE02B080BD82B0019029
:104660008DF8031002B0704782B00190ADF80210CF
:10467000BDF80200019909684862002002B0704745
:1046800084B003908DF80B10ADF8082003980068F3
:10469000406A00909DF80B0048B9FFE7BDF808108C
:1046A000009840EA014003990968886233E0039862
:1046B0000068816A009800EB1140009000208DF89E
:1046C0000700FFE79DF807009DF80B1001398842AD
:1046D00013D2FFE7039800689DF8071000EB8100F4
:1046E000D0F80411009800EB11400090FFE79DF80E
:1046F000070001308DF80700E4E7BDF808100098C6
:1047000040EA0140039909689DF80B2001EB820102
:10471000C1F80001FFE7002004B0704780B582B007
:1047200001900198D0F8E00409F0FAFB02B080BDD6
:1047300080B582B001908DF80310019AD2F8E004A0
:104740009DF8031001EBC10302EB8302126A09F02A
:104750003BFA02B080BD000080B582B001908DF8B8
:104760000310019AD2F8E0049DF8031001EBC10395
:1047700002EB8302D2F8602209F0F4FA02B080BDA5
:1047800080B582B001900198D0F8E00409F0CEFB2A
:1047900002B080BD80B584B003908DF80B109DF8F9
:1047A0000B00000600280CD5FFE703989DF80B10BE
:1047B00001F00F0101EBC10100EB81001430019009
:1047C0000CE003989DF80B1001F00F0101EBC10103
:1047D00000EB810000F515700190FFE70398006879
:1047E00001990BF02FF98DF80A009DF80A0004B02A
:1047F00080BD000080B584B002908DF807109DF850
:104800000700000600280FD5FFE702989DF8071063
:1048100001F00F0101EBC10100EB810014300090A9
:104820000099012048700FE002989DF8071001F0F0
:104830000F0101EBC10100EB810000F51570009044
:10484000009900204870FFE79DF8070000F00F0076
:1048500000990870FFE7029890F89404012804D1A9
:10486000FFE702208DF80F0014E00299012081F883
:104870009404FFE7FFE70298006800990AF0D2FB72
:10488000FFE70299002081F89404FFE700208DF8EB
:104890000F00FFE79DF80F0004B080BD80B584B025
:1048A00002908DF807109DF8070000F00F000299A4
:1048B0000979884204D9FFE701208DF80F004DE007
:1048C0009DF80700000600280FD5FFE702989DF825
:1048D000071001F00F0101EBC10100EB8100143062
:1048E00000900099012048700FE002989DF8071091
:1048F00001F00F0101EBC10100EB810000F5157023
:104900000090009900204870FFE70099002088700F
:104910009DF8070000F00F0000990870FFE702986B
:1049200090F89404012804D1FFE702208DF80F00CD
:1049300014E00299012081F89404FFE7FFE7029850
:10494000006800990AF0DEFDFFE70299002081F877
:104950009404FFE700208DF80F00FFE79DF80F009B
:1049600004B080BD82B001908DF8031001989DF8CD
:10497000031001F00F0101EBC10100EB8100D0F841
:10498000680202B07047000080B586B004908DF8D0
:104990000F10ADF80C208DF80B3000208DF80A00B8
:1049A0009DF80F00000600280FD5FFE704989DF83A
:1049B0000F1001F00F0101EBC10100EB8100143079
:1049C00001900199012048700FE004989DF80F10A4
:1049D00001F00F0101EBC10100EB810000F5157042
:1049E0000190019900204870FFE79DF80F0000F04A
:1049F0000F0001990870BDF80C006FF3DF200199DA
:104A000088609DF80B00019908710198407820B1E9
:104A1000FFE7019908784883FFE79DF80B0002281B
:104A200004D1FFE7019900204871FFE7FFE70498F0
:104A300090F89404012804D1FFE702208DF81700B4
:104A400015E00499012081F89404FFE7FFE704983A
:104A5000006801990AF0B0F9FFE70499002081F895
:104A60009404FFE79DF80A008DF81700FFE79DF812
:104A7000170006B080BD000080B586B005908DF8A7
:104A800013100392029305989DF8131001F00F0183
:104A900001EBC10100EB810000F515700190039856
:104AA0000199C86002980199086101990020486144
:104AB000019948709DF8130000F00F0001990870EB
:104AC00005988079012804D1FFE703980199C8610E
:104AD000FFE7059A1068019992790AF0B7FD002066
:104AE00006B080BD80B584B002908DF807109DF8A7
:104AF000070000F00F0002990979884204D9FFE706
:104B000001208DF80F0058E09DF8070000060028EE
:104B10000FD5FFE702989DF8071001F00F0101EB98
:104B2000C10100EB81001430009000990120487011
:104B30000DE002989DF8071001EBC10100EB810028
:104B400000F515700090009900204870FFE700996B
:104B5000012088709DF8070000F00F000099087090
:104B6000FFE7029890F89404012804D1FFE702209F
:104B70008DF80F0021E00299012081F89404FFE7ED
:104B8000FFE70298006800990AF00CFD9DF8070005
:104B9000000740B9FFE7029A1068917902F29C423F
:104BA0000AF060FCFFE7FFE70299002081F8940417
:104BB000FFE700208DF80F00FFE79DF80F0004B01D
:104BC00080BD000080B586B005908DF8131003926B
:104BD000029305989DF8131001F00F0101EBC1013C
:104BE00000EB81001430019003980199C86002988D
:104BF00001990861019900204861019901204870DC
:104C00009DF8130000F00F00019908700598807955
:104C1000012804D1FFE703980199C861FFE7059ACD
:104C20001068019992790AF011FD002006B080BD4C
:104C300080B58CB00B900B9800680A900A98099088
:104C40000B9800680BF034F8002840F00C84FFE764
:104C50000B9800680BF098F810B9FFE700F003BC60
:104C60000998D0F80808C0F30D200B99C1F8D404B6
:104C70000B9800680BF088F88007002807D5FFE73D
:104C80000B980168486900F002004861FFE70B9843
:104C900000680BF079F8C006002862D5FFE70B9892
:104CA0000168886920F0100088610A98006A029003
:104CB0000B98029901F00F0101EBC10100EB81009B
:104CC00000F515700890029800F4F0110220B0EB86
:104CD000514F23D1FFE7BDF8080047F6F0710842B5
:104CE0001BD0FFE70A980899C968029AC2F30A1212
:104CF0000BF058F8029847F6F07100EA0103089AA1
:104D0000D06800EB1310D060029800EA0102089905
:104D1000486900EB12104861FFE71BE0029800F4BD
:104D2000F0110620B0EB514F12D1FFE70A980B9912
:104D300001F29C4108220BF035F8029847F6F07119
:104D400000EA01020899486900EB1210486100E08E
:104D5000FFE7FFE70B980168886940F01000886161
:104D6000FFE70B9800680BF00FF80003002840F1F4
:104D7000A680FFE7002004900B9800680AF0B2FFBD
:104D80000690FFE70698002800F09880FFE79DF85E
:104D90001800C007002800F08A80FFE70B98006821
:104DA0009DF810100AF0D8FF05909DF81400C00778
:104DB00060B1FFE70998049900EB41110120C1F8A7
:104DC000080B0B98049904F0F7FEFFE79DF8140018
:104DD000000700280CD5FFE70998049900EB411162
:104DE0000820C1F8080B0B98049904F09FFEFFE718
:104DF0009DF81400C006002808D5FFE7099804991B
:104E000000EB41111020C1F8080BFFE79DF81400DA
:104E1000800700282DD5FFE70A9840690006002882
:104E200008D5FFE70999D1F8040840F48060C1F87B
:104E30000408FFE70B98049901EBC10100EB810026
:104E400000F5157008900898C078012809D1FFE78F
:104E500008990020C8700B989DF8101000F014FB02
:104E6000FFE70998049900EB41110220C1F8080BF3
:104E7000FFE79DF814008006002808D5FFE7099891
:104E8000049900EB41112020C1F8080BFFE79DF8C1
:104E900015008006002809D5FFE70998049900EB62
:104EA00041114FF40050C1F8080BFFE7FFE70498E9
:104EB0000130049006984008069063E7FFE70B98DE
:104EC00000680AF061FF4003002840F1C680FFE758
:104ED0000B9800680AF0F4FE069000200490FFE7AB
:104EE0000698002800F0B880FFE79DF81800C0077A
:104EF000002800F0AA80FFE70B9800689DF81010CA
:104F00000AF002FF05909DF81400C00700283ED06B
:104F1000FFE7049800F00F01012000FA01F103916E
:104F2000039B099AD2F834189943C2F834180999A6
:104F3000049A01EB4211C1F808090B988079012805
:104F40001FD1FFE70B98049901EBC10100EB810130
:104F5000CA69086A10440862049888B9FFE70B9888
:104F6000049901EBC10100EB8100406A40B9FFE701
:104F70000B99086801F29C4201210AF073FAFFE7DD
:104F8000FFE70B989DF81010FFF7D2FBFFE79DF8A5
:104F900014000007002808D5FFE70998049900EBE2
:104FA00041110820C1F80809FFE79DF81400C00668
:104FB000002808D5FFE70998049900EB411110205B
:104FC000C1F80809FFE79DF814004006002808D53D
:104FD000FFE70998049900EB41114020C1F8080946
:104FE000FFE79DF814008007002822D5FFE70A9804
:104FF00004990AF0F9FD0B98049901EBC10100EB4B
:105000008100143008900898C078012809D1FFE782
:1050100008990020C8700B989DF8101000F026FA2F
:10502000FFE70998049900EB41110220C1F8080933
:10503000FFE79DF814000006002805D5FFE70B9850
:10504000049904F09DFEFFE7FFE704980130049007
:1050500006984008069043E7FFE70B9800680AF0BF
:1050600093FEC00F00B3FFE70999D1F8040820F0C0
:105070000100C1F804080B9890F8CC04012808D16D
:10508000FFE70B98002180F8CC140B98FFF7E6FAA5
:1050900003E00B9800F0AAFBFFE70B980168486952
:1050A00000F000404861FFE70B9800680AF06CFED2
:1050B0000005002811D5FFE70998D0F80808C007B7
:1050C00020B1FFE70B9800F01DFCFFE70B9801688B
:1050D000486900F400604861FFE70B9800680AF037
:1050E00053FEC004002840F18680FFE70999D1F8FB
:1050F000040820F00100C1F804080B980068102192
:105100000AF072FD00200790FFE707980B990979D4
:10511000884231D2FFE70998079900EB41114FF619
:105120007F30C1F808090999079A01EB4212D2F8B9
:10513000001921F40011C2F800190999079A01EB2E
:105140004211C1F8080B0998079900EB4111D1F8F9
:10515000000B20F40010C1F8000B0998079900EB30
:105160004111D1F8000B40F00060C1F8000BFFE7DF
:10517000079801300790C8E70999D1F81C0840F05A
:105180000110C1F81C080B98C07B78B1FFE70999A2
:10519000D1F8840840F00B00C1F884080999D1F8CF
:1051A000440840F00B00C1F844080FE00999D1F819
:1051B000140842F22B021043C1F814080999D1F8DF
:1051C000100840F00B00C1F81008FFE70999D1F86A
:1051D000000820F4FE60C1F800080B9A106891796D
:1051E00002F29C420AF03EF90B980168486900F40B
:1051F00080504861FFE70B9800680AF0C5FD800405
:1052000000281FD5FFE70B98006809F045FE0B98B2
:1052100000680AF027FD0B99C8710B98006801908F
:1052200000F0C2FC014601980B9AD2790AF0B2FE56
:105230000B9800F0B1FA0B980168486900F400502F
:105240004861FFE70B9800680AF09EFD0007002800
:105250000AD5FFE70B9800F0D3FA0B98016848696C
:1052600000F008004861FFE70B9800680AF08CFD29
:105270000006002825D5FFE70A99886920F08000FC
:10528000886101200490FFE704980B99097988420E
:1052900016D2FFE70B98049901EBC10100EB8100E6
:1052A00090F85702012806D1FFE70B989DF81010DF
:1052B000FFF770FAFFE7FFE7049801300490E3E797
:1052C000FFE70B9800680AF05FFDC00200283CD59C
:1052D000FFE701200490FFE704980B9909798842C1
:1052E0002CD2FFE70998049900EB4110D0F800098F
:1052F00002900B98049901EBC10100EB8100007E44
:10530000012816D1FFE79DF80B000006002810D5F4
:10531000FFE70B98049901EBC10100EB810101202B
:10532000C8750B989DF8101041F08001FFF732FA14
:10533000FFE7FFE7049801300490CDE70B98016880
:10534000486900F480104861FFE70B9800680AF094
:105350001BFD8002002856D5FFE701200490FFE7DF
:1053600004980B990979884246D2FFE70998049975
:1053700000EB4110D0F8000B02900B98049901EB60
:10538000C10100EB810090F8580201282FD1FFE7FE
:105390009DF80B000006002829D5FFE7029800F4CD
:1053A00080310B98D0F8D40400F00100B0EB114F1D
:1053B0001DD1FFE70B98049901EBC10100EB8101BE
:1053C000012081F857020A99886940F080008861BD
:1053D0000A9840690006002808D4FFE70999D1F827
:1053E000040840F40070C1F8040805E0FFE7FFE797
:1053F000049801300490B3E70B980168486900F401
:1054000000104861FFE70B9800680AF0BDFC4000FF
:1054100000280AD5FFE70B98FFF780F90B98016881
:10542000486900F080404861FFE70B9800680AF087
:10543000ABFC4007002815D5FFE70B9800684068D3
:1054400002909DF808004007002804D5FFE70B985C
:10545000FFF796F9FFE7029A0B9801684868104336
:105460004860FFE7FFE70CB080BD000080B582B068
:1054700001908DF803100198D0F8E0049DF8031016
:1054800008F0F2FD02B080BD80B582B001908DF8C9
:1054900003100198D0F8E0049DF8031008F01CFEFA
:1054A00002B080BD80B58EB00C900C9820B9FFE79B
:1054B00001208DF8370012E10C9800680B900C98D1
:1054C00090F8950440B9FFE70C99002081F8940406
:1054D0000C9800F009F9FFE70C99032081F8950476
:1054E0000B98B0F1A04F04D1FFE70C990020887110
:1054F000FFE70C98006809F0ABFF0C9B1868197C5B
:105500008DF8241059689A68DB6808930792069111
:105510000699079A089BDDF824C0EE46CEF800C035
:1055200009F0D0FC40B1FFE70C99022081F8950406
:1055300001208DF83700D2E00C98006800210AF0B5
:105540008BFC40B1FFE70C99022081F89504012003
:105550008DF83700C3E000208DF82B00FFE79DF8A1
:105560002B000C990979884241DAFFE70C989DF8E5
:105570002B1001EBC10100EB8101012048759DF862
:105580002B000C9900EBC00201EB820108759DF81D
:105590002B000C9900EBC00201EB8201C8850C982E
:1055A0009DF82B1001EBC10100EB81010020087672
:1055B0000C999DF82B2002EBC20201EB8201C8611D
:1055C0000C999DF82B2002EBC20201EB82010862CC
:1055D0000C999DF82B2002EBC20201EB820148627C
:1055E000FFE79DF82B0001308DF82B00B7E7002076
:1055F0008DF82B00FFE79DF82B000C990979884264
:105600003EDAFFE70C989DF82B1001EBC10100EB8F
:105610008101002081F855029DF82B100C9A01EBB6
:10562000C10302EB830282F854120C999DF82B20DF
:1056300002EBC20201EB820181F858020C999DF83D
:105640002B2002EBC20201EB8201C1F85C020C9933
:105650009DF82B2002EBC20201EB8201C1F860022F
:105660000C999DF82B2002EBC20201EB8201C1F8DC
:105670006402FFE79DF82B0001308DF82B00BAE79C
:105680000C9B1868197C8DF8141059689A68DB68AF
:105690000493039202910299039A049BDDF814C0CB
:1056A000EE46CEF800C009F085FD40B1FFE70C9949
:1056B000022081F8950401208DF837000FE00C9945
:1056C0000020019048740C99012081F895040C98F1
:1056D000006809F059FD01988DF83700FFE79DF843
:1056E00037000EB080BD000080B58AB00990002060
:1056F0000890079006900590049009980068B0F112
:10570000A04F47D1FFE7FFE70020039043F63000AA
:10571000C4F20200016841F001010160006800F07C
:10572000010003900398FFE74FF4C050049002205B
:10573000059000200690032007900A200890002082
:10574000C4F2020004A9FEF7BBFCFFE743F63401F4
:10575000C4F20201086840F080000860FFE7002002
:10576000029043F64400C4F20200016841F4804113
:105770000160006800F4804002900298FFE7FFE7B4
:105780004320019000221146FEF746FF0198FEF7E4
:1057900039FFFFE70AB080BD80B582B001900120DB
:1057A0008DF803000198C07920B9FFE700208DF83B
:1057B00003000CE00198C079022804D1FFE7012022
:1057C0008DF8030002E0FCF745F9FFE7FFE70198D9
:1057D000D0F8E0049DF8031008F080FD0198D0F89F
:1057E000E00408F0F9FC02B080BD000080B582B092
:1057F00001900198D0F8E00408F03EFD02B080BDB1
:1058000080B582B001900198D0F8E00408F046FD20
:1058100002B080BD80B584B002908DF80710FFE71C
:10582000029890F89404012804D1FFE702208DF833
:105830000F0019E00299012081F89404FFE7FFE7C7
:105840009DF8070002994874029800689DF80710B7
:105850000AF072FBFFE70299002081F89404FFE749
:1058600000208DF80F00FFE79DF80F0004B080BD09
:1058700080B582B001900199D1F8E00401F29C4119
:1058800008F056FD02B080BD80B584B00290029849
:1058900000680190FFE7029890F89404012804D171
:1058A000FFE702208DF80F0028E00299012081F81F
:1058B0009404FFE7FFE70198C068400600280BD575
:1058C000FFE70298407B012806D1FFE70199886B2A
:1058D00040F480308863FFE7029800680AF040F9DE
:1058E0000298006809F03AFCFFE70299002081F86D
:1058F0009404FFE700208DF80F00FFE79DF80F00EC
:1059000004B080BD80B582B001900198D0F8E00469
:1059100008F090FD01980168D1F8000E40F00100F8
:10592000C1F8000E0198C07A48B1FFE74EF6105159
:10593000CEF20001086840F006000860FFE702B000
:1059400080BD000080B584B002900191029820B91A
:10595000FFE701208DF80F0021E1019843F6004197
:10596000C4F20201096801F00701884212D9FFE779
:10597000019943F60040C4F202000170006800F093
:1059800007000199884204D0FFE701208DF80F003D
:1059900005E1FFE702980078800700282AD5FFE795
:1059A000029800784007002809D5FFE743F6080170
:1059B000C4F20201086840F4E0500860FFE7029872
:1059C00000780007002809D5FFE743F60801C4F274
:1059D0000201086840F460400860FFE743F60801F0
:1059E000C4F20201086820F0F000029A92681043A5
:1059F0000860FFE702980078C00700286ED0FFE734
:105A000002984068012811D1FFE743F60000C4F274
:105A10000200006800F400310020B0EB514F04D1C7
:105A2000FFE701208DF80F00B9E02CE002984068F4
:105A3000022805D0FFE702984068032811D1FFE74C
:105A400043F60000C4F20200006800F0007100207C
:105A5000B0EB516F04D1FFE701208DF80F009EE0FD
:105A600010E043F60000C4F20200006800F00201FA
:105A70000020B0EB510F04D1FFE701208DF80F009B
:105A80008DE0FFE7FFE743F60801C4F20201086872
:105A900020F00300029A526810430860FEF704FDEC
:105AA0000090FFE743F60800C4F20200006800F02F
:105AB0000C0002994968B0EB810F0ED0FFE7FEF7AA
:105AC000F3FC0099401A41F28931884204D3FFE780
:105AD00003208DF80F0062E0E4E7FFE7019843F64A
