:020000040800F2
:10000000C02500209D010008B15100087949000871
:10001000AD51000841040008699700080000000085
:10002000000000000000000000000000BD550008B6
:10003000DD06000800000000B95500084D56000814
:10004000B7010008B7010008B7010008B7010008B0
:10005000B7010008B7010008B7010008B7010008A0
:10006000B7010008B7010008B7010008250500081E
:10007000B7010008B701000835050008B7010008FE
:1000800045050008B7010008B7010008B7010008DE
:10009000B7010008B7010008B7010008B701000860
:1000A000B7010008B7010008B7010008B701000850
:1000B000B7010008B7010008B7010008B701000840
:1000C000B7010008B7010008B7010008B701000830
:1000D000B7010008B7010008B7010008B701000820
:1000E000B7010008B7010008B7010008B701000810
:1000F000B7010008B7010008B7010008B701000800
:10010000B7010008B7010008B7010008B7010008EF
:10011000B7010008B7010008B7010008B7010008DF
:1001200055050008B701000865050008B70100087B
:10013000B70100080000000000000000B70100083F
:1001400045040008B7010008B70100082152000863
:1001500075050008B701000885050008B70100080B
:10016000B7010008B7010008B7010008B70100088F
:10017000B7010008B70100080000000000000000FF
:10018000B7010008B7010008DFF80CD000F07AF8DA
:10019000004800472D980008C025002006488047E9
:1001A00006480047FEE7FEE7FEE7FEE7FEE7FEE75C
:1001B000FEE7FEE7FEE7FEE71557000889010008A5
:1001C0002DE9F05F0546002092469B46884606468C
:1001D000814640241BE0284641464746224600F01F
:1001E00041F853465A46C01A914110D31146184659
:1001F000224600F028F82D1A67EB01084F462246E8
:100200000120002100F01FF817EB00094E41201ECD
:10021000A4F10104DFDC484631462A464346BDE8E6
:10022000F09FD2B201E000F8012B491EFBD27047CB
:100230000022F6E710B513460A4604461946FFF7B2
:10024000F0FF204610BD202A04DB203A00FA02F11C
:10025000002070479140C2F1200320FA03F31943B4
:1002600090407047202A04DB203A21FA02F0002156
:10027000704721FA02F3D040C2F1200291400843B6
:10028000194670471CB50948009009480190054679
:10029000009C06E0E06840F0010394E807009847FE
:1002A0001034AC42F6D3FFF773FF0000EC9800085F
:1002B0000C99000882B0019042F20030C4F20100B3
:1002C00000900099486820F44030486001984268E6
:1002D000009948681043486001980168486820F414
:1002E00080704860019801680269486840EA02200D
:1002F000486001980168486820F0407048600198A3
:1003000001688268486810434860019801688868FD
:1003100020F40060886001980168C2688868104312
:1003200088600198806A0121C0F60071884219D066
:10033000FFE701980168886820F070608860019884
:100340000168826A8868104388600198016888683B
:1003500020F04050886001980168C26A88681043A4
:1003600088600CE001980168886820F070608860FF
:1003700001980168886820F040508860FFE7019884
:100380000168886820F0020088600198027E016898
:10039000886840EA42008860019890F82000C8B15F
:1003A000FFE701980168486840F4006048600198E0
:1003B0000168486820F46040486001980168426A1A
:1003C0004EF20000CFF6FF7000EB42324868104357
:1003D000486006E001980168486820F400604860C1
:1003E000FFE701980168C86A20F47000C8620198AC
:1003F0000168C2690020CFF6F07000EB0252C86AB3
:100400001043C86201980168886820F40070886011
:10041000019890F830200168886840EA422088609E
:1004200001980168886820F48060886001980168FC
:100430004269886840EA8220886002B07047000004
:10044000FFE7FEE780B541F68800C2F2000000F049
:10045000DDFC80BD84B08DF80F000291ADF8062060
:100460009DF80F000146009123281DD80099DFE870
:1004700001F012131415161B1B1B1B1B1B1B1B1B34
:100480001B1B1B1B1B1B1B1B1B1B1B1B1B1B1B1BBC
:100490001B1B1718191A08E007E006E005E004E046
:1004A00003E002E001E000E0FFE7002004B0704755
:1004B0000020704780B582B041F21C50C2F20000AB
:1004C000009040F61C51C2F200010022019206F099
:1004D00079F8009840F21C51C2F2000106F054F87D
:1004E000019802B080BD000080B584B003900291F5
:1004F000039941F21C50C2F20000019006F044F84A
:10050000019805F0E7FF002004B080BD83B00290A1
:1005100001918DF8032000208DF802009DF9020062
:1005200003B0704780B541F67010C2F2000001F0D0
:1005300011F880BD80B541F63020C2F2000001F014
:1005400009F880BD80B541F6D010C2F2000001F07C
:1005500001F880BD80B541F6B000C2F2000000F0A5
:10056000F9FF80BD80B541F61010C2F2000000F026
:10057000F1FF80BD80B541F69020C2F2000000F08E
:10058000E9FF80BD80B541F6F020C2F2000000F026
:10059000E1FF80BD82B001900198007810384AF6E2
:1005A000AB21CAF6AA21A0FB011000090090009916
:1005B00049F6A200C0F60000405C0199C8650098A9
:1005C000042807D3FFE701990868042262F30900B1
:1005D000886506E00199086840F2FF32904388651B
:1005E000FFE70198806D02B07047000086B005906B
:1005F00000208DF813000598806A039005988069A3
:1006000010BBFFE70398029003281BD80299DFE88C
:1006100001F0020D0218059890F82F00C00720B1D4
:10062000FFE701208DF81300FFE70CE00598C06A92
:10063000B0F1C07F04D1FFE701208DF81300FFE780
:1006400001E000E0FFE745E005988069B0F5005F54
:1006500025D1FFE70398019003281ED80199DFE810
:1006600001F00206021101208DF8130016E0059832
:1006700090F82F00C00720B1FFE701208DF813008C
:10068000FFE70BE00598C06AB0F1C07F04D1FFE737
:1006900001208DF81300FFE700E0FFE719E0039861
:1006A0000090032804D3FFE70098032804D00EE04D
:1006B00001208DF813000BE0059890F82F00C0077B
:1006C00020B1FFE701208DF81300FFE700E0FFE70E
:1006D000FFE7FFE79DF8130006B070477047000082
:1006E00072B6FFE7FEE7000080B584B047F6102041
:1006F000C1F6FF700068039047F61420C1F6FF7042
:100700000068029047F61820C1F6FF70006801905B
:100710000199039808440390039888B1FFE7039870
:1007200040F2D801C2F2000100910231082204F027
:1007300025F9009902981231042204F01FF9FFE70D
:1007400004B080BD85B00390029100200190FFE7C6
:10075000039890F83C00012804D1FFE702208DF8AF
:100760001300F7E00399012081F83C00FFE7FFE761
:10077000029800680A281CD3FFE70298008800EB63
:100780004000A0F11E01072000FA01F20398016861
:10079000C8689043C86002998868098801EB4101E4
:1007A0001E3900FA01F203980168C8681043C86056
:1007B00018E00298008800EB4001072000FA01F2DF
:1007C000039801680869904308610299886809885C
:1007D00001EB410100FA01F2039801680869104336
:1007E0000861FFE70298406806281BD8FFE70298D7
:1007F000406800EB8000411F1F2000FA01F20398BF
:100800000168486B9043486302990888496801EB86
:100810008101053900FA01F203980168486B104321
:1008200048633DE0029840680C281CD8FFE7029816
:10083000406800EB8000A0F123011F2000FA01F2C4
:1008400003980168086B9043086302990888496817
:1008500001EB8101233900FA01F203980168086B6A
:10086000104308631BE00298406800EB8000A0F191
:1008700041011F2000FA01F203980168C86A904301
:10088000C86202990888496801EB8101413900FA80
:1008900001F203980168C86A1043C862FFE7FFE7E6
:1008A00042F20030C4F2010000900398006842F266
:1008B0000001C4F2010188420BD1FFE702980068F1
:1008C000122806D1FFE70099486840F4800048608C
:1008D000FFE70398006842F20001C4F20101884278
:1008E0002ED1FFE702980068102805D0FFE7029894
:1008F0000068112824D1FFE70099486840F40000FF
:10090000486002980068102819D1FFE740F22000E3
:10091000C2F2000000684DF68361C4F21B31A0FBF7
:100920000110800C00EB800040000190FFE701986F
:1009300020B1FFE7019801380190F8E7FFE7FFE7F2
:10094000FFE70399002081F83C00FFE700208DF8C5
:100950001300FFE79DF8130005B0704780B584B021
:10096000029000208DF80700029820B9FFE70120CF
:100970008DF80F0042E00298806A0121C0F60071F4
:10098000884201D0FFE7FFE70298006C50B9FFE70B
:10099000029800F037F8029900204864029981F823
:1009A0003C00FFE70298006CC006002817D4FFE760
:1009B0000298006C40F0020020F48850029908640C
:1009C0000298FFF777FC0299002048640298006CB7
:1009D00040F0010020F002000299086403E00120C9
:1009E0008DF80700FFE7FFE70299002081F83C003F
:1009F000FFE79DF807008DF80F00FFE79DF80F0057
:100A000004B080BD80B592B01190002010900F907E
:100A10000E900D900C901198006842F20001C4F203
:100A2000010188427CD1FFE7FFE700200B9043F6ED
:100A30004400C4F20200016841F480710160006862
:100A400000F480700B900B98FFE7FFE700200A90FE
:100A500043F63000C4F20200016841F00401016075
:100A6000006800F004000A900A98FFE7FFE7002002
:100A7000099043F63000C4F20200016841F0010120
:100A80000160006800F0010009900998FFE7082064
:100A90000C90032003900D90002005900E9040F6DE
:100AA0000000C4F202000CA9049100F0BDFF039AFB
:100AB000049905980C920D920E900020C4F2020049
:100AC00000F0B2FF059941F6B000C2F200000690B6
:100AD00046F21042C4F20202026041608160C160CD
:100AE0004FF4806202614FF4006242614FF40052A1
:100AF0008261C1614FF400320262416200F0BAFECD
:100B000018B1FFE7FFF7ECFDFFE7FFE7119841F6AB
:100B1000B001C2F20001816311988863FFE765E0CC
:100B20001198006842F20011C4F2010188425CD1C0
:100B3000FFE7FFE70020089043F64400C4F20200FC
:100B4000016841F400710160006800F400700890D1
:100B50000898FFE7FFE70020079043F63000C4F253
:100B60000200016841F004010160006800F0040027
:100B700007900798FFE727200C9003200D90002096
:100B800001900E9040F60000C4F202000CA900F0A3
:100B90004BFF019941F61010C2F20000029046F29C
:100BA0004042C4F2020202604FF000724260816073
:100BB000C1604FF480620261416181614FF48072D3
:100BC000C2610162416200F055FE18B1FFE7FFF714
:100BD00087FDFFE7FFE7119841F61011C2F200010F
:100BE000816311988863FFE7FFE7FFE712B080BDDC
:100BF00081B0009001B0704786B0049003910292DA
:100C00000193049890F820008DF803009DF80300EC
:100C1000012806D0FFE79DF80300022840F0E88095
:100C2000FFE7039880B9FFE704980068C068800771
:100C300048B9FFE70499486A40F40010486201206F
:100C40008DF81700DDE00FE0049800680069800768
:100C500048B9FFE70499486A40F40010486201204F
:100C60008DF81700CDE0FFE704980068039900EBCA
:100C70000110D0F8B00100F00400029988600298D9
:100C8000806858B9FFE704980068039900EB0110E9
:100C9000D0F8B001400D029908600AE0049800689D
:100CA000039900EB0110D0F8B001C0080299486028
:100CB000FFE704980068039900EB0110D0F8B00139
:100CC00000F002000299C86004980068039900EBE4
:100CD0000110D0F8B40100F00F00082804D3FFE79A
:100CE0000299082008610BE004980068039900EB62
:100CF0000110D0F8B40100F00F0002990861FFE77D
:100D000004980068039900EB0110D0F8B40180B298
:100D1000000A0299886104980068039900EB0110A9
:100D2000D0F8B401000C0299486104980068039956
:100D300000EB0110D0F8B801019908700498006820
:100D4000039900EB0110D0F8B801000A019948702E
:100D500004980068039900EB0110D0F8B801000C6A
:100D60000199887004980068039900EB0110D0F88D
:100D7000B801000E0199C87004980068039900EB4F
:100D80000110D0F8BC01019908710498006803991A
:100D900000EB0110D0F8BC01000A019948710498D9
:100DA0000068039900EB0110D0F8BC01000C019918
:100DB000887104980068039900EB0110D0F8BC0119
:100DC000000E0199C871039838B9FFE704980168CB
:100DD000C86840F02000C86006E00498016808690F
:100DE00040F020000861FFE700208DF8170008E0C0
:100DF0000499486A40F48020486201208DF8170069
:100E0000FFE79DF8170006B07047000080B58AB074
:100E10000990002008900998006840690790099897
:100E200000684068069009980068806805900998F5
:100E30000068C068049009980068006903900998E8
:100E40000068806902909DF81C00C007002800F02F
:100E50009480FFE79DF81400C00758B3FFE7099896
:100E60000168012088609DF814008007002804D5DF
:100E7000FFE7099800F056FB1BE09DF814004007BF
:100E8000002805D5FFE7089840F4006008900FE0BF
:100E90009DF814000007002805D5FFE7089840F4E6
:100EA0008050089003E0099800F038FBFFE7FFE767
:100EB000FFE7FFE79DF81500C00760B3FFE709985B
:100EC00001684FF4807088609DF815008007002845
:100ED00004D5FFE7099800F02DFB1BE09DF81500F5
:100EE0004007002805D5FFE7089840F40050089017
:100EF0000FE09DF815000007002805D5FFE70898CA
:100F000040F48040089003E0099800F00FFBFFE7F1
:100F1000FFE7FFE7FFE79DF81600C00760B3FFE7B4
:100F2000099801684FF4803088609DF816008007AA
:100F3000002804D5FFE7099800F004FB1BE09DF8AA
:100F400016004007002805D5FFE7089840F4004048
:100F500008900FE09DF816000007002805D5FFE770
:100F6000089840F48030089003E0099800F0E6FA11
:100F7000FFE7FFE7FFE7FFE7FFE79DF81C0000073B
:100F8000002810D5FFE79DF81000C006002809D5FD
:100F9000FFE7089840F40070089009980168102055
:100FA000C860FFE7FFE79DF81C00400700280FD549
:100FB000FFE79DF810000007002808D5FFE7099813
:100FC00001680820C860099800F08AFAFFE7FFE787
:100FD0009DF81C00800700280BD5FFE709980068E2
:100FE000C068800720B1FFE7099800F07DFAFFE7AD
:100FF000FFE79DF81C004006002810D5FFE79DF88C
:101000000C00C006002809D5FFE7089840F480606E
:1010100008900998016810200861FFE7FFE79DF834
:101020001C00800600280FD5FFE79DF80C00000784
:10103000002808D5FFE70998016808200861099889
:1010400000F060FAFFE7FFE79DF81C00C0060028EB
:101050000BD5FFE7099800680069800720B1FFE71A
:10106000099800F053FAFFE7FFE79DF81E0080079C
:1010700000280FD5FFE79DF81800C006002808D506
:10108000FFE70998016810204860099800F042FACB
:10109000FFE7FFE79DF81E00C00778B1FFE79DF866
:1010A00018000007002808D5FFE709980168082004
:1010B0004860099800F04AFAFFE7FFE79DF81D0035
:1010C0000006002840F18D80FFE79DF818004007DA
:1010D000002840F18180FFE79DF81D00C00750B156
:1010E000FFE79DF80800C00728B1FFE7089840F027
:1010F00001000890FFE79DF81D00800700280BD530
:10110000FFE79DF808008007002805D5FFE708984D
:1011100040F002000890FFE79DF81D0040070028FE
:101120000BD5FFE79DF808004007002805D5FFE72D
:10113000089840F004000890FFE79DF81D000007A4
:10114000002848D5FFE79DF8080010F0700F42D046
:10115000FFE7029800F0700001460191102814D0BA
:10116000FFE70198202815D0FFE70198302816D016
:10117000FFE70198402817D0FFE70198502818D0C2
:10118000FFE70198602819D01DE0089840F008009A
:10119000089019E0089840F01000089014E00898B2
:1011A00040F0200008900FE0089840F040000890C0
:1011B0000AE0089840F08000089005E0089840F4A4
:1011C0008070089000E0FFE709980168886920F0C6
:1011D00070008861FFE7FFE7099801680420486014
:1011E000FFE7089848B1FFE7089A0999486A104351
:1011F00048620998FFF7FCFCFFE70AB080BD0000D9
:1012000080B584B00290029820B9FFE701208DF8E4
:101210000F00E0E0029890F8200020B9FFE7029864
:1012200000F0DEF8FFE702980168086840F001006E
:10123000086000F0EDFD0190FFE70298006840684B
:10124000C007A8B9FFE700F0E3FD0199401A0B2899
:101250000DD3FFE70299486A40F4003048620299D2
:10126000052081F8200001208DF80F00B3E0E4E7AD
:1012700002980168086820F00200086000F0C8FDCC
:101280000190FFE70298006840688007002815D5A4
:10129000FFE700F0BDFD0199401A0B280DD3FFE7D1
:1012A0000299486A40F4003048620299052081F8AA
:1012B000200001208DF80F008DE0E3E70298007E0A
:1012C000012807D1FFE702980168086840F0800014
:1012D000086006E002980168086820F08000086055
:1012E000FFE70298407E012807D1FFE702980168D6
:1012F000086840F04000086006E00298016808684D
:1013000020F040000860FFE70298807E012807D1A6
:10131000FFE702980168086840F02000086006E0D6
:1013200002980168086820F020000860FFE7029832
:10133000C07E012807D1FFE702980168086820F005
:101340001000086006E002980168086840F010008C
:101350000860FFE70298007F012807D1FFE70298A5
:101360000168086840F00800086006E0029801681B
:10137000086820F008000860FFE70298407F012815
:1013800007D1FFE702980168086840F00400086090
:1013900006E002980168086820F004000860FFE792
:1013A000029B19685A689868D3F80CC040EA0C0090
:1013B000D3F810C040EA0C005B691843013A1043AF
:1013C000C861029900204862029A012182F8201027
:1013D0008DF80F00FFE79DF80F0004B080BD0000FE
:1013E00080B592B01190002010900F900E900D904B
:1013F0000C901198006846F60001C4F20001884282
:101400006BD1FFE7FFE700200B9043F64000C4F2EA
:101410000200016841F080610160006800F08060B6
:101420000B900B98FFE7FFE700200A9043F640007F
:10143000C4F20200016841F000710160006800F030
:1014400000700A900A98FFE7FFE70020099043F632
:101450003000C4F20200016841F00201016000683E
:1014600000F0020009900998FFE720200C9002206C
:1014700001900D90012006900E90032002900F9095
:1014800009200390109040F20040C4F20200049042
:101490000CA9059100F0C8FADDF804C0029B039A7C
:1014A000049805994FF0400ECDF820E0CDF830E0DB
:1014B000CDF834C04FF0000CCDF81CC0CDF838C0CA
:1014C0000F93109200F0B0FA0699079A089800F06E
:1014D00037FD089800F02AFDFFE712B080BD00003C
:1014E00081B0009001B0704780B58CB00B900B9824
:1014F000002101AA08ABFFF77FFB08B9FFE7FFE770
:101500000CB080BD81B0009001B0704781B00090F8
:1015100001B0704781B0009001B0704781B0009079
:1015200001B0704781B0009001B0704781B0009069
:1015300001B0704781B0009001B0704781B0009059
:1015400001B0704781B0009001B0704781B0009049
:1015500001B0704780B586B005900020039040F23E
:101560002000C2F20000006848F2B511C1F64E3109
:10157000A0FB0110800A02900598806D01900198EF
:101580000068049004980599C96DC84000070028B8
:101590001AD5FFE70598006800684007002812D5B3
:1015A000FFE705980168086820F0040008600598C6
:1015B000C16D08208840019988600599486D40F008
:1015C00001004865FFE7FFE704980599C96DC84029
:1015D000C007A0B1FFE70598006840690006002831
:1015E0000CD5FFE70598C16D0120884001998860FE
:1015F0000599486D40F002004865FFE7FFE7049851
:101600000599C96DC8404007002814D5FFE7059823
:1016100000680068800700280CD5FFE70598C16DB9
:1016200004208840019988600599486D40F00400C5
:101630004865FFE7FFE704980599C96DC840C006F3
:10164000002847D5FFE705980068006800070028D4
:101650003FD5FFE70598C16D10208840019988604B
:10166000059800680068400300281AD5FFE7059830
:10167000006800680003002809D4FFE70598006CA3
:1016800020B1FFE70598016C8847FFE708E005985F
:10169000806C20B1FFE70598816C8847FFE7FFE782
:1016A00016E0059800680068C005002807D4FFE729
:1016B00005980168086820F008000860FFE70598B1
:1016C000006C20B1FFE70598016C8847FFE7FFE752
:1016D000FFE7FFE704980599C96DC8408006002818
:1016E00040F18D80FFE7059800680068C00600287B
:1016F00040F18480FFE70598C16D20208840019962
:101700008860059890F83500052834D1FFE70598E2
:101710000168086820F016000860059801684869AB
:1017200020F0800048610598006C20B9FFE705981B
:10173000806C38B1FFE705980168086820F0080060
:101740000860FFE70598C16D3F20884001998860D7
:101750000599012081F83500FFE70599002081F8FF
:101760003400FFE70598006D20B1FFE70598016D93
:101770008847FFE77BE00598006800684003002881
:101780001AD5FFE70598006800680003002809D40F
:10179000FFE70598406C20B1FFE70598416C88474A
:1017A000FFE708E00598C06B20B1FFE70598C16B23
:1017B0008847FFE7FFE720E0059800680068C0055C
:1017C000002811D4FFE705980168086820F0100090
:1017D00008600599012081F83500FFE70599002090
:1017E00081F83400FFE7FFE70598C06B20B1FFE701
:1017F0000598C16B8847FFE7FFE7FFE7FFE705981C
:10180000406DA0B3FFE70598406DC00730B3FFE718
:101810000599052081F8350005980168086820F0D1
:1018200001000860FFE703980130039002998842A5
:1018300001D9FFE707E0FFE7059800680068C007E7
:101840000028F0D1FFE70599012081F83500FFE776
:101850000599002081F83400FFE7FFE70598C06C88
:1018600020B1FFE70598C16C8847FFE7FFE706B0A6
:1018700080BD000080B586B004900020039000F089
:10188000C7FA0290049820B9FFE701208DF81700ED
:10189000A3E00498406A08B1FFE7FFE7049902203B
:1018A00081F83500FFE70499002081F83400FFE754
:1018B00004980168086820F001000860FFE70498B8
:1018C00000680068C00790B1FFE700F0A1FA029934
:1018D000401A06280AD3FFE7049920204865049996
:1018E000032081F835008DF8170076E0E7E70498CB
:1018F000006800680390039848F23F01CFF210019E
:1019000008400390049900914868D1F808C0CB685A
:101910000A6940EA0C00184310434A6910438A6977
:101920001043CA691043096A0143039808430390AE
:101930000498406A042808D1FFE70499C86A096B33
:101940000143039808430390FFE70398049909684B
:1019500008600498006840690390039820F007002D
:1019600003900498416A0398084303900498406ADE
:1019700004281AD1FFE70498816A0398084303906A
:101980000498C06A80B1FFE70498FEF72FFE50B1BB
:10199000FFE70499402048650499012081F835004B
:1019A0008DF8170019E0FFE7FFE70398049909682D
:1019B00048610498FEF7EEFD01900498C16D3F2048
:1019C000884001998860049900204865049A0121A3
:1019D00082F835108DF81700FFE79DF8170006B064
:1019E00080BD000080B584B0039000F011FA029031
:1019F000039801900198013048B1FFE740F2F200EE
:101A0000C2F200000178019808440190FFE7FFE767
:101A100000F0FEF90299401A0199884201D2FFE7CD
:101A2000F6E704B080BD00008EB00D900C91002050
:101A30000A90099008900B90FFE70B980F2800F28E
:101A4000CC81FFE70B99012088400A900C98006830
:101A50000A990840099009980A99884240F0B8818B
:101A6000FFE70C98406800F00300012807D0FFE76B
:101A70000C98406800F0030002282FD1FFE70D9872
:101A8000806808900B984100032000FA01F1089843
:101A9000884308900C98C0680B99490000FA01F13E
:101AA00008980843089008980D9988600D98406838
:101AB00008900B99012000FA01F1089888430890DA
:101AC0000C984068C0F300100B9900FA01F10898D7
:101AD0000843089008980D994860FFE70C98406803
:101AE00000F00300032818D0FFE70D98C0680890A5
:101AF0000B984100032000FA01F1089888430890F0
:101B00000C9880680B99490000FA01F10898084385
:101B1000089008980D99C860FFE70C98406800F09D
:101B20000300022826D1FFE70D980B996FF00302FE
:101B300002EA51010844006A08900B9800F007007F
:101B400081000F2000FA01F10898884308900C9852
:101B500000690B9901F00701890000FA01F108986A
:101B60000843089008980D990B9B02EA5302114410
:101B70000862FFE70D98006808900B984100032069
:101B800000FA01F10898884308900C98406800F02A
:101B900003000B99490000FA01F1089808430890E6
:101BA00008980D9908600C9880798007002800F04B
:101BB0000E81FFE7FFE70020079043F64400C4F2E0
:101BC0000200016841F480410160006800F4804037
:101BD00007900798FFE70B9820F0030043F60801F1
:101BE000C4F20101405808900B9800F003008100F6
:101BF0000F2000FA01F10898884308900D98002101
:101C0000C4F20201884203D1FFE7002006905EE0A3
:101C10000D9840F20041C4F20201884203D1FFE76F
:101C20000120059050E00D9840F60001C4F2020139
:101C3000884203D1FFE70220049042E00D9840F66D
:101C40000041C4F20201884203D1FFE70320039060
:101C500034E00D9841F20001C4F20201884203D140
:101C6000FFE70420029026E00D9841F20041C4F203
:101C70000201884203D1FFE70520019018E00D988A
:101C800041F60001C4F20201884203D1FFE70620B9
:101C900000900AE00D9941F60042C4F202020820C9
:101CA000914208BF07200090FFE700980190FFE7EE
:101CB00001980290FFE702980390FFE703980490D1
:101CC000FFE704980590FFE705980690FFE7069860
:101CD000C0B20B9901F00301890000FA01F10898E4
:101CE0000843089008980B9921F0030143F6080275
:101CF000C4F20102885043F60840C4F201000068B3
:101D0000089009990898884308900C988079C00633
:101D1000002805D5FFE70999089808430890FFE7D0
:101D2000089843F60841C4F20101086043F60C40EC
:101D3000C4F2010000680890099908988843089047
:101D40000C9880798006002805D5FFE70999089846
:101D500008430890FFE7089843F60C41C4F20101DC
:101D6000086043F60440C4F2010000680890099935
:101D70000898884308900C9880798007002805D53A
:101D8000FFE70999089808430890FFE7089843F689
:101D90000441C4F20101086043F60040C4F20100AE
:101DA0000068089009990898884308900C988079F1
:101DB000C00728B1FFE70999089808430890FFE792
:101DC000089843F60041C4F201010860FFE7FFE70D
:101DD000FFE70B9801300B902FE60EB07047000024
:101DE00082B00190ADF802108DF801209DF801003D
:101DF00028B1FFE7BDF802000199886105E0BDF850
:101E00000200000401998861FFE702B070470000FA
:101E100042F2BC10C2F200000068704740F2F200CB
:101E2000C2F20000027842F2BC11C2F2000108685E
:101E3000104408607047000080B543F60041C4F2CA
:101E40000201086840F400700860086840F480608F
:101E50000860086840F480700860032000F08AF889
:101E60000F2000F005F800F03BF8002080BD0000D6
:101E700080B582B0009040F22000C2F200000068FD
:101E800040F2F201C2F200010A784FF47A71B1FB1C
:101E9000F2F1B0FBF1F002F077F820B1FFE701209A
:101EA0008DF8070018E000980F280DD8FFE700997B
:101EB0004FF0FF30002200F043F8009840F2F401A8
:101EC000C2F20001086003E001208DF8070003E082
:101ED00000208DF80700FFE79DF8070002B080BDE5
:101EE00082B0FFE70020019043F64400C4F20200F4
:101EF000016841F480410160006800F48040019075
:101F00000198FFE7FFE70020009043F64000C4F28D
:101F10000200016841F080510160006800F08050CB
:101F200000900098FFE702B07047000080B582B0D3
:101F30008DF807009DF9070007F018FC02B080BD7E
:101F400080B586B08DF817000491039200200290AE
:101F500007F024FC02909DF9170001900298049963
:101F6000039A03F027F90146019807F01FFC06B019
:101F700080BD000080B582B00190019807F038FC68
:101F800002B080BD82B001908DF8031002B070479E
:101F900082B00190ADF80210BDF802000199096805
:101FA0004862002002B0704784B003908DF80B1097
:101FB000ADF8082003980068406A00909DF80B0077
:101FC00048B9FFE7BDF80810009840EA01400399BE
:101FD0000968886233E003980068816A009800EB22
:101FE0001140009000208DF80700FFE79DF80700E2
:101FF0009DF80B100139884213D2FFE7039800685F
:102000009DF8071000EB8100D0F80411009800EB58
:1020100011400090FFE79DF8070001308DF80700A0
:10202000E4E7BDF80810009840EA01400399096808
:102030009DF80B2001EB8201C1F80001FFE70020B1
:1020400004B0704780B582B001900198D0F8E004E8
:1020500005F032FA02B080BD80B582B001908DF8F3
:102060000310019AD2F8E0049DF8031001EBC103BC
:1020700002EB8302126A05F073F802B080BD000023
:1020800080B582B001908DF80310019AD2F8E00477
:102090009DF8031001EBC10302EB8302D2F860222A
:1020A00005F02CF902B080BD80B582B00190019896
:1020B000D0F8E00405F006FA02B080BD80B584B027
:1020C00003908DF80B109DF80B00000600280CD52E
:1020D000FFE703989DF80B1001F00F0101EBC10120
:1020E00000EB8100143001900CE003989DF80B1078
:1020F00001F00F0101EBC10100EB810000F515704B
:102100000190FFE703980068019906F065FF8DF8DC
:102110000A009DF80A0004B080BD000080B584B0BC
:1021200002908DF807109DF80700000600280FD5D3
:10213000FFE702989DF8071001F00F0101EBC101C4
:1021400000EB8100143000900099012048700FE0EE
:1021500002989DF8071001F00F0101EBC10100EB9F
:10216000810000F515700090009900204870FFE78D
:102170009DF8070000F00F0000990870FFE7029833
:1021800090F89404012804D1FFE702208DF80F0095
:1021900014E00299012081F89404FFE7FFE7029818
:1021A0000068009906F008FAFFE70299002081F81C
:1021B0009404FFE700208DF80F00FFE79DF80F0063
:1021C00004B080BD80B584B002908DF807109DF8F2
:1021D000070000F00F0002990979884204D9FFE74F
:1021E00001208DF80F004DE09DF807000006002843
:1021F0000FD5FFE702989DF8071001F00F0101EBE2
:10220000C10100EB8100143000900099012048705A
:102210000FE002989DF8071001F00F0101EBC101DA
:1022200000EB810000F515700090009900204870C7
:10223000FFE70099002088709DF8070000F00F006C
:1022400000990870FFE7029890F89404012804D1DF
:10225000FFE702208DF80F0014E00299012081F8B9
:102260009404FFE7FFE702980068009906F014FC69
:10227000FFE70299002081F89404FFE700208DF821
:102280000F00FFE79DF80F0004B080BD82B0019001
:102290008DF8031001989DF8031001F00F0101EB78
:1022A000C10100EB8100D0F8680202B07047000065
:1022B00080B586B004908DF80F10ADF80C208DF825
:1022C0000B3000208DF80A009DF80F000006002852
:1022D0000FD5FFE704989DF80F1001F00F0101EBF7
:1022E000C10100EB81001430019001990120487078
:1022F0000FE004989DF80F1001F00F0101EBC101F0
:1023000000EB810000F515700190019900204870E4
:10231000FFE79DF80F0000F00F0001990870BDF86D
:102320000C006FF3DF20019988609DF80B00019984
:1023300008710198407820B1FFE701990878488337
:10234000FFE79DF80B00022804D1FFE70199002068
:102350004871FFE7FFE7049890F89404012804D13E
:10236000FFE702208DF8170015E00499012081F89D
:102370009404FFE7FFE704980068019905F0E6FF81
:10238000FFE70499002081F89404FFE79DF80A0014
:102390008DF81700FFE79DF8170006B080BD00001C
:1023A00080B586B005908DF81310039202930598BE
:1023B0009DF8131001F00F0101EBC10100EB81004A
:1023C00000F51570019003980199C8600298019971
:1023D0000861019900204861019948709DF8130037
:1023E00000F00F000199087005988079012804D148
:1023F000FFE703980199C861FFE7059A1068019902
:10240000927906F0EDFB002006B080BD80B584B067
:1024100002908DF807109DF8070000F00F00029958
:102420000979884204D9FFE701208DF80F0058E0B0
:102430009DF80700000600280FD5FFE702989DF8D9
:10244000071001F00F0101EBC10100EB8100143016
:1024500000900099012048700DE002989DF8071047
:1024600001EBC10100EB810000F5157000900099AF
:1024700000204870FFE70099012088709DF8070050
:1024800000F00F0000990870FFE7029890F894049C
:10249000012804D1FFE702208DF80F0021E0029906
:1024A000012081F89404FFE7FFE702980068009993
:1024B00006F042FB9DF80700000740B9FFE7029ACB
:1024C0001068917902F29C4206F096FAFFE7FFE766
:1024D0000299002081F89404FFE700208DF80F0096
:1024E000FFE79DF80F0004B080BD000080B586B006
:1024F00005908DF813100392029305989DF8131020
:1025000001F00F0101EBC10100EB810014300190DB
:1025100003980199C8600298019908610199002007
:1025200048610199012048709DF8130000F00F00E8
:102530000199087005988079012804D1FFE7039874
:102540000199C861FFE7059A10680199927906F030
:1025500047FB002006B080BD80B58CB00B900B9877
:1025600000680A900A9809900B98006806F06AFEC5
:10257000002840F00C84FFE70B98006806F0CEFEC0
:1025800010B9FFE700F003BC0998D0F80808C0F3C1
:102590000D200B99C1F8D4040B98006806F0BEFE1C
:1025A0008007002807D5FFE70B980168486900F00D
:1025B00002004861FFE70B98006806F0AFFEC00616
:1025C000002862D5FFE70B980168886920F01000A9
:1025D00088610A98006A02900B98029901F00F0135
:1025E00001EBC10100EB810000F515700890029825
:1025F00000F4F0110220B0EB514F23D1FFE7BDF8FA
:10260000080047F6F07108421BD0FFE70A980899C6
:10261000C968029AC2F30A1206F08EFE029847F6C3
:10262000F07100EA0103089AD06800EB1310D06043
:10263000029800EA01020899486900EB121048610B
:10264000FFE71BE0029800F4F0110620B0EB514FB9
:1026500012D1FFE70A980B9901F29C41082206F07B
:102660006BFE029847F6F07100EA0102089948698A
:1026700000EB1210486100E0FFE7FFE70B980168EC
:10268000886940F010008861FFE70B98006806F049
:1026900045FE0003002840F1A680FFE700200490DB
:1026A0000B98006806F0E8FD0690FFE70698002802
:1026B00000F09880FFE79DF81800C007002800F0A0
:1026C0008A80FFE70B9800689DF8101006F00EFE58
:1026D00005909DF81400C00760B1FFE709980499C0
:1026E00000EB41110120C1F8080B0B98049902F08E
:1026F000E5FDFFE79DF81400000700280CD5FFE773
:102700000998049900EB41110820C1F8080B0B98B7
:10271000049902F08DFDFFE79DF81400C006002823
:1027200008D5FFE70998049900EB41111020C1F882
:10273000080BFFE79DF81400800700282DD5FFE760
:102740000A9840690006002808D5FFE70999D1F8E2
:10275000040840F48060C1F80408FFE70B9804996E
:1027600001EBC10100EB810000F51570089008989D
:10277000C078012809D1FFE708990020C8700B989C
:102780009DF8101000F014FBFFE70998049900EB86
:1027900041110220C1F8080BFFE79DF814008006E4
:1027A000002808D5FFE70998049900EB4111202083
:1027B000C1F8080BFFE79DF815008006002809D531
:1027C000FFE70998049900EB41114FF40050C1F85C
:1027D000080BFFE7FFE704980130049006984008D3
:1027E000069063E7FFE70B98006806F097FD40034B
:1027F000002840F1C680FFE70B98006806F02AFD2C
:10280000069000200490FFE70698002800F0B880AA
:10281000FFE79DF81800C007002800F0AA80FFE736
:102820000B9800689DF8101006F038FD05909DF893
:102830001400C00700283ED0FFE7049800F00F0105
:10284000012000FA01F10391039B099AD2F8341890
:102850009943C2F834180999049A01EB4211C1F85E
:1028600008090B98807901281FD1FFE70B9804997C
:1028700001EBC10100EB8101CA69086A10440862DA
:10288000049888B9FFE70B98049901EBC10100EBAC
:102890008100406A40B9FFE70B99086801F29C4249
:1028A000012106F0A9F8FFE7FFE70B989DF810104B
:1028B000FFF7D2FBFFE79DF814000007002808D5BA
:1028C000FFE70998049900EB41110820C1F80809B5
:1028D000FFE79DF81400C006002808D5FFE7099817
:1028E000049900EB41111020C1F80809FFE79DF899
:1028F00014004006002808D5FFE70998049900EB6A
:1029000041114020C1F80809FFE79DF81400800735
:10291000002822D5FFE70A98049906F02FFC0B98AF
:10292000049901EBC10100EB810014300890089874
:10293000C078012809D1FFE708990020C8700B98DA
:102940009DF8101000F026FAFFE70998049900EBB3
:1029500041110220C1F80809FFE79DF814000006A4
:10296000002805D5FFE70B98049902F08BFDFFE7DF
:10297000FFE704980130049006984008069043E76A
:10298000FFE70B98006806F0C9FCC00F00B3FFE733
:102990000999D1F8040820F00100C1F804080B9847
:1029A00090F8CC04012808D1FFE70B98002180F8AB
:1029B000CC140B98FFF7E6FA03E00B9800F0AAFBA3
:1029C000FFE70B980168486900F000404861FFE7A5
:1029D0000B98006806F0A2FC0005002811D5FFE75F
:1029E0000998D0F80808C00720B1FFE70B9800F05D
:1029F0001DFCFFE70B980168486900F4006048611E
:102A0000FFE70B98006806F089FCC004002840F13D
:102A10008680FFE70999D1F8040820F00100C1F889
:102A200004080B980068102106F0A8FB002007900E
:102A3000FFE707980B990979884231D2FFE7099897
:102A4000079900EB41114FF67F30C1F80809099949
:102A5000079A01EB4212D2F8001921F40011C2F8D2
:102A600000190999079A01EB4211C1F8080B09985E
:102A7000079900EB4111D1F8000B20F40010C1F8C8
:102A8000000B0998079900EB4111D1F8000B40F0B9
:102A90000060C1F8000BFFE7079801300790C8E716
:102AA0000999D1F81C0840F00110C1F81C080B98D6
:102AB000C07B78B1FFE70999D1F8840840F00B009A
:102AC000C1F884080999D1F8440840F00B00C1F816
:102AD00044080FE00999D1F8140842F22B02104380
:102AE000C1F814080999D1F8100840F00B00C1F89A
:102AF0001008FFE70999D1F8000820F4FE60C1F83A
:102B000000080B9A1068917902F29C4205F074FF5C
:102B10000B980168486900F480504861FFE70B9802
:102B2000006806F0FBFB800400281FD5FFE70B9828
:102B3000006805F07BFC0B98006806F05DFB0B99C4
:102B4000C8710B980068019000F0C2FC0146019822
:102B50000B9AD27906F0E8FC0B9800F0B1FA0B98CA
:102B60000168486900F400504861FFE70B9800686D
:102B700006F0D4FB000700280AD5FFE70B9800F009
:102B8000D3FA0B980168486900F008004861FFE734
:102B90000B98006806F0C2FB0006002825D5FFE769
:102BA0000A99886920F08000886101200490FFE77D
:102BB00004980B990979884216D2FFE70B9804997B
:102BC00001EBC10100EB810090F85702012806D10A
:102BD000FFE70B989DF81010FFF770FAFFE7FFE78B
:102BE000049801300490E3E7FFE70B98006806F0D3
:102BF00095FBC00200283CD5FFE701200490FFE7C9
:102C000004980B99097988422CD2FFE70998049916
:102C100000EB4110D0F8000902900B98049901EBE9
:102C2000C10100EB8100007E012816D1FFE79DF86D
:102C30000B000006002810D5FFE70B98049901EB64
:102C4000C10100EB81010120C8750B989DF810109F
:102C500041F08001FFF732FAFFE7FFE70498013007
:102C60000490CDE70B980168486900F48010486132
:102C7000FFE70B98006806F051FB8002002856D54C
:102C8000FFE701200490FFE704980B990979884237
:102C900046D2FFE70998049900EB4110D0F8000BE9
:102CA00002900B98049901EBC10100EB810090F8B0
:102CB000580201282FD1FFE79DF80B0000060028DD
:102CC00029D5FFE7029800F480310B98D0F8D4049E
:102CD00000F00100B0EB114F1DD1FFE70B980499F4
:102CE00001EBC10100EB8101012081F857020A9933
:102CF000886940F0800088610A98406900060028D1
:102D000008D4FFE70999D1F8040840F40070C1F82D
:102D1000040805E0FFE7FFE7049801300490B3E7FB
:102D20000B980168486900F400104861FFE70B98B0
:102D3000006806F0F3FA400000280AD5FFE70B9878
:102D4000FFF780F90B980168486900F080404861FE
:102D5000FFE70B98006806F0E1FA4007002815D558
:102D6000FFE70B980068406802909DF80800400754
:102D7000002804D5FFE70B98FFF796F9FFE7029AC2
:102D80000B980168486810434860FFE7FFE70CB004
:102D900080BD000080B582B001908DF803100198CD
:102DA000D0F8E0049DF8031004F028FC02B080BDC8
:102DB00080B582B001908DF803100198D0F8E0043E
:102DC0009DF8031004F052FC02B080BD80B58EB0B7
:102DD0000C900C9820B9FFE701208DF8370012E124
:102DE0000C9800680B900C9890F8950440B9FFE798
:102DF0000C99002081F894040C9800F009F9FFE781
:102E00000C99032081F895040B98B0F1A04F04D1E0
:102E1000FFE70C9900208871FFE70C98006805F027
:102E2000E1FD0C9B1868197C8DF8241059689A688C
:102E3000DB680893079206910699079A089BDDF8CC
:102E400024C0EE46CEF800C005F006FB40B1FFE717
:102E50000C99022081F8950401208DF83700D2E00A
:102E60000C980068002106F0C1FA40B1FFE70C9908
:102E7000022081F8950401208DF83700C3E000207E
:102E80008DF82B00FFE79DF82B000C9909798842FB
:102E900041DAFFE70C989DF82B1001EBC10100EB24
:102EA0008101012048759DF82B000C9900EBC002B0
:102EB00001EB820108759DF82B000C9900EBC00214
:102EC00001EB8201C8850C989DF82B1001EBC10124
:102ED00000EB8101002008760C999DF82B2002EB75
:102EE000C20201EB8201C8610C999DF82B2002EB14
:102EF000C20201EB820108620C999DF82B2002EBC3
:102F0000C20201EB82014862FFE79DF82B0001300D
:102F10008DF82B00B7E700208DF82B00FFE79DF818
:102F20002B000C99097988423EDAFFE70C989DF84E
:102F30002B1001EBC10100EB8101002081F855024B
:102F40009DF82B100C9A01EBC10302EB830282F86F
:102F500054120C999DF82B2002EBC20201EB820166
:102F600081F858020C999DF82B2002EBC20201EB6C
:102F70008201C1F85C020C999DF82B2002EBC20281
:102F800001EB8201C1F860020C999DF82B2002EB45
:102F9000C20201EB8201C1F86402FFE79DF82B0039
:102FA00001308DF82B00BAE70C9B1868197C8DF85E
:102FB000141059689A68DB6804930392029102998D
:102FC000039A049BDDF814C0EE46CEF800C005F06D
:102FD000BBFB40B1FFE70C99022081F8950401206A
:102FE0008DF837000FE00C990020019048740C997F
:102FF000012081F895040C98006805F08FFB01987A
:103000008DF83700FFE79DF837000EB080BD000057
:1030100080B58AB00990002008900790069005902E
:10302000049009980068B0F1A04F47D1FFE7FFE78F
:103030000020039043F63000C4F20200016841F022
:1030400001010160006800F0010003900398FFE7B0
:103050004FF4C050049002200590002006900320F9
:1030600007900A2008900020C4F2020004A9FEF78D
:10307000DBFCFFE743F63401C4F20201086840F0CC
:1030800080000860FFE70020029043F64400C4F28D
:103090000200016841F480410160006800F4804052
:1030A00002900298FFE7FFE74320019000221146BB
:1030B000FEF746FF0198FEF739FFFFE70AB080BD33
:1030C00080B582B0019001208DF803000198C0798D
:1030D00020B9FFE700208DF803000CE00198C079CB
:1030E000022804D1FFE701208DF8030002E0FDF77C
:1030F000F7FAFFE7FFE70198D0F8E0049DF8031026
:1031000004F0B6FB0198D0F8E00404F02FFB02B005
:1031100080BD000080B582B001900198D0F8E00435
:1031200004F074FB02B080BD80B582B001900198BC
:10313000D0F8E00404F07CFB02B080BD80B584B020
:1031400002908DF80710FFE7029890F89404012888
:1031500004D1FFE702208DF80F0019E00299012049
:1031600081F89404FFE7FFE79DF80700029948748F
:10317000029800689DF8071006F0A8F9FFE7029989
:10318000002081F89404FFE700208DF80F00FFE78E
:103190009DF80F0004B080BD80B582B00190019908
:1031A000D1F8E00401F29C4104F08CFB02B080BD38
:1031B00080B584B00290029800680190FFE7029801
:1031C00090F89404012804D1FFE702208DF80F0045
:1031D00028E00299012081F89404FFE7FFE70198B5
:1031E000C068400600280BD5FFE70298407B012805
:1031F00006D1FFE70199886B40F480308863FFE7D0
:103200000298006805F076FF0298006805F070FAF1
:10321000FFE70299002081F89404FFE700208DF871
:103220000F00FFE79DF80F0004B080BD80B582B0AD
:1032300001900198D0F8E00404F0C6FB0198016801
:10324000D1F8000E40F00100C1F8000E0198C07ADC
:1032500048B1FFE74EF61051CEF20001086840F089
:1032600006000860FFE702B080BD000080B584B0B2
:1032700002900191029820B9FFE701208DF80F001C
:1032800021E1019843F60041C4F20201096801F00E
:103290000701884212D9FFE7019943F60040C4F2C2
:1032A00002000170006800F007000199884204D014
:1032B000FFE701208DF80F0005E1FFE70298007895
:1032C000800700282AD5FFE70298007840070028E9
:1032D00009D5FFE743F60801C4F20201086840F48B
:1032E000E0500860FFE7029800780007002809D541
:1032F000FFE743F60801C4F20201086840F46040A9
:103300000860FFE743F60801C4F20201086820F0F4
:10331000F000029A926810430860FFE70298007874
:10332000C00700286ED0FFE702984068012811D13D
:10333000FFE743F60000C4F20200006800F4003129
:103340000020B0EB514F04D1FFE701208DF80F00B2
:10335000B9E02CE002984068022805D0FFE7029807
:103360004068032811D1FFE743F60000C4F20200D1
:10337000006800F000710020B0EB516F04D1FFE74E
:1033800001208DF80F009EE010E043F60000C4F22B
:103390000200006800F002010020B0EB510F04D1E0
:1033A000FFE701208DF80F008DE0FFE7FFE743F610
:1033B0000801C4F20201086820F00300029A526872
:1033C00010430860FEF724FD0090FFE743F6080075
:1033D000C4F20200006800F00C0002994968B0EBEA
:1033E000810F0ED0FFE7FEF713FD0099401A41F25E
:1033F0008931884204D3FFE703208DF80F0062E093
:10340000E4E7FFE7019843F60041C4F202010968CE
:1034100001F00701884212D2FFE7019943F600400C
:10342000C4F202000170006800F0070001998842B0
:1034300004D0FFE701208DF80F0044E0FFE7029879
:103440000078400700280CD5FFE743F60801C4F2D6
:103450000201086820F4E050029AD2681043086024
:10346000FFE702980078000700280DD5FFE743F634
:103470000801C4F20201086820F46040029A12694F
:1034800040EAC2000860FFE700F04CF843F608018C
:10349000C4F202010968C9B20A0949F68A01C0F6F4
:1034A0000001895CC84040F22001C2F200010860BE
:1034B00040F2F400C2F200000068FEF7D9FC0020E0
:1034C0008DF80F00FFE79DF80F0004B080BD0000ED
:1034D00040F22000C2F200000068704780B5FFF79C
:1034E000F7FF43F60801C4F202010968C1F3822222
:1034F00049F69A01C0F60001895CC84080BD000011
:1035000080B5FFF7E5FF43F60801C4F20201096840
:1035100089B24A0B49F69A01C0F60001895CC8409D
:1035200080BD000080B586B0002005900490039017
:10353000029043F60800C4F20200006800F00C009C
:103540000146019140B1FFE7019804280AD0FFE746
:10355000019808280CD04FE042F20040C0F2F4007D
:1035600002904FE047F64000C0F27D10029049E023
:1035700043F60400C4F20200016801F03F01059126
:1035800000684002002813D5FFE743F60400C4F2A8
:1035900002000068C0F3881047F64001C0F27D11B8
:1035A000A0FB0101059A0023FCF70AFE049012E03B
:1035B00043F60400C4F202000068C0F3881042F22F
:1035C0000041C0F2F401A0FB0101059A0023FCF7C1
:1035D000F7FD0490FFE743F60400C4F20200006820
:1035E00000F44031022000EBD1300390049803999D
:1035F000B0FBF1F0029005E042F20040C0F2F400AE
:103600000290FFE7029806B080BD000080B586B04A
:103610000490049820B9FFE701208DF8170050E3CB
:1036200004980078C007002800F0A580FFE743F663
:103630000800C4F20200006800F00C00042813D057
:10364000FFE743F60800C4F20200006800F00C0037
:1036500008281ED1FFE743F60400C4F20200006808
:103660004002002815D5FFE743F60000C4F202002F
:10367000006800F400310020B0EB514F08D0FFE7A4
:103680000498406820B9FFE701208DF8170018E37F
:1036900070E0FFE704984068B0F5803F09D1FFE78C
:1036A00043F60001C4F20201086840F4803008606B
:1036B00020E004984068B0F5A02F0DD1FFE743F655
:1036C0000001C4F20201086840F480200860086824
:1036D00040F4803008600CE043F60001C4F20201BF
:1036E000086820F480300860086820F480200860B2
:1036F000FFE7FFE7FFE704984068E8B1FFE7FEF760
:1037000087FB0390FFE743F60000C4F20200006865
:1037100000F400310020B0EB514F0CD1FFE7FEF771
:1037200077FB0399401A652804D3FFE703208DF83F
:103730001700C6E2E7E71CE0FEF76AFB0390FFE72D
:1037400043F60000C4F20200006800F400310020DB
:10375000B0EB514F0CD0FFE7FEF75AFB0399401A2C
:10376000652804D3FFE703208DF81700A9E2E7E7F7
:10377000FFE7FFE7FFE7049800788007002840F1A3
:103780009680FFE743F60800C4F20200006810F0DC
:103790000C0F13D0FFE743F60800C4F202000068E4
:1037A00000F00C0008282CD1FFE743F60400C4F217
:1037B000020000684002002823D4FFE743F600001F
:1037C000C4F20200006800F002010020B0EB510FCB
:1037D00009D0FFE70498C068012804D0FFE7012062
:1037E0008DF817006DE243F60001C4F2020108688B
:1037F00020F0F800049A126940EAC2000860FFE76E
:1038000054E00498C06870B3FFE70021C4F2472178
:1038100001200860FEF7FCFA0390FFE743F6000082
:10382000C4F20200006800F002010020B0EB510F6A
:103830000CD1FFE7FEF7ECFA0399401A032804D3F2
:10384000FFE703208DF817003BE2E7E743F60001AE
:10385000C4F20201086820F0F800049A126940EAF4
:10386000C200086021E00021C4F247210020086066
:10387000FEF7CEFA0390FFE743F60000C4F2020021
:10388000006800F002010020B0EB510F0CD0FFE700
:10389000FEF7BEFA0399401A032804D3FFE703207A
:1038A0008DF817000DE2E7E7FFE7FFE7FFE7049871
:1038B0000078000700284BD5FFE70498406918B34B
:1038C000FFE740F68061C4F2472101200860FEF75F
:1038D0009FFA0390FFE743F67400C4F20200006809
:1038E00000F002010020B0EB510F0CD1FFE7FEF712
:1038F0008FFA0399401A032804D3FFE703208DF8B9
:103900001700DEE1E7E722E040F68061C4F24721DC
:1039100000200860FEF77CFA0390FFE743F674008E
:10392000C4F20200006800F002010020B0EB510F69
:103930000CD0FFE7FEF76CFA0399401A032804D372
:10394000FFE703208DF81700BBE1E7E7FFE7FFE79C
:10395000049800784007002840F1CE80FFE700205F
:103960008DF8070043F64000C4F202000068C00072
:10397000002815D4FFE7FFE70020009043F6400041
:10398000C4F20200016841F080510160006800F05B
:10399000805000900098FFE701208DF80700FFE7B6
:1039A00047F20000C4F200000068C005002822D4DD
:1039B000FFE747F20001C4F20001086840F480709C
:1039C0000860FEF725FA0390FFE747F20000C4F213
:1039D00000000068C00500280CD4FFE7FEF718FAC5
:1039E0000399401A032804D3FFE703208DF817003A
:1039F00067E1EAE7FFE7FFE704988068012809D15B
:103A0000FFE743F67001C4F20201086840F00100CC
:103A100008601FE00498806805280DD1FFE743F691
:103A20007001C4F20201086840F0040008600868F0
:103A300040F0010008600CE043F67001C4F202019E
:103A4000086820F001000860086820F004000860A1
:103A5000FFE7FFE7FFE704988068F8B1FFE7FEF7AC
:103A6000D7F90390FFE743F67000C4F20200006844
:103A700000F002010020B0EB510F0ED1FFE7FEF77E
:103A8000C7F90399401A41F28931884204D3FFE70C
:103A900003208DF8170014E1E5E71EE0FEF7B8F902
:103AA0000390FFE743F67000C4F20200006800F0E4
:103AB00002010020B0EB510F0ED0FFE7FEF7A8F98E
:103AC0000399401A41F28931884204D3FFE7032069
:103AD0008DF81700F5E0E5E7FFE79DF807000128FE
:103AE00009D1FFE743F64001C4F20201086820F063
:103AF00080500860FFE7FFE704988069002800F025
:103B0000DC80FFE743F60800C4F20200006800F022
:103B10000C00082800F08580FFE7049880690228DF
:103B20005CD1FFE76021C4F2472100200860FEF766
:103B30006FF90390FFE743F60000C4F2020000684B
:103B400000F000710020B0EB516F0CD0FFE7FEF7E2
:103B50005FF90399401A032804D3FFE703208DF887
:103B60001700AEE0E7E70499C869D1F820C04B6AB6
:103B70008A6A40EA0C0040EA8310D2034FF6FF73D2
:103B80009A43A2F580321043C96A40EA016043F6C5
:103B90000401C4F2020108606021C4F2472101203F
:103BA0000860FEF735F90390FFE743F60000C4F222
:103BB0000200006800F000710020B0EB516F0CD1E2
:103BC000FFE7FEF725F90399401A032804D3FFE71E
:103BD00003208DF8170074E0E7E721E06021C4F2CC
:103BE000472100200860FEF713F90390FFE743F632
:103BF0000000C4F20200006800F000710020B0EB89
:103C0000516F0CD0FFE7FEF703F90399401A032820
:103C100004D3FFE703208DF8170052E0E7E7FFE742
:103C20004AE004988069012804D1FFE701208DF85B
:103C3000170046E043F60400C4F202000068029058
:103C400004988069012831D0FFE7029800F48000D1
:103C50000499C969884229D1FFE7029800F03F0022
:103C60000499096A884221D1FFE7029847F6C0719A
:103C700008400499496AB0EB811F17D1FFE7029809
:103C800000F440300499896AC9034FF6FF729143EA
:103C9000A1F58031884209D1FFE7029800F07060F9
:103CA0000499C96AB0EB016F04D0FFE701208DF8D9
:103CB000170006E0FFE7FFE7FFE700208DF8170099
:103CC000FFE79DF8170006B080BD000080B584B006
:103CD0000290029820B9FFE701208DF80F0072E0F2
:103CE0000298406A60B9FFE702984068B0F5827FA9
:103CF00001D1FFE703E002990020C861FFE705E07A
:103D000002990020086102994861FFE702990020AA
:103D10008862029890F8510040B9FFE702990020AC
:103D200081F85000029800F053F8FFE70299022052
:103D300081F8510002980168086820F0400008608E
:103D4000029A019211685068D2F808C0D36800F452
:103D500082700CF4044C604403F40063184413694B
:103D600003F002031844536903F0010318449369F4
:103D700003F400731844D36903F038031844136A3A
:103D800003F080031843926A02F400521043086063
:103D9000029801688369426A042000EA134002F035
:103DA00010021044486002980168C86920F400605D
:103DB000C861029900204865029A012182F85110D9
:103DC0008DF80F00FFE79DF80F0004B080BD0000E4
:103DD00080B58EB00D9000200C900B900A90099049
:103DE00008900D98006843F60001C4F20001884273
:103DF00034D1FFE7FFE70020079043F64000C4F20C
:103E00000200016841F480410160006800F48040D4
:103E100007900798FFE7FFE70020069043F6300081
:103E2000C4F20200016841F002010160006800F084
:103E3000020006900698FFE74FF4604008900220C9
:103E4000099000210A910B9005200C9040F200404F
:103E5000C4F2020008A9FDF7E7FD93E00D980068A1
:103E600043F60041C4F20001884240F08A80FFE737
:103E7000FFE70020059043F64000C4F2020001680D
:103E800041F400410160006800F40040059005988D
:103E9000FFE7FFE70020049043F63000C4F2020081
:103EA000016841F004010160006800F00400049022
:103EB0000498FFE74FF4E05008900220099000209A
:103EC00002900A9001200B9006200C9040F6000012
:103ED000C4F2020008A9FDF7A7FD029941F670108F
:103EE000C2F20000039046F21002C4F20202026025
:103EF00041608160C1604FF4806202614161816113
:103F0000C1614FF4003202624162FDF7B3FC18B1A7
:103F1000FFE7FCF7E5FBFFE7FFE70D9841F67011BF
:103F2000C2F20001C1640D988863FFE741F6D0102A
:103F3000C2F20000019046F28801C4F20201016061
:103F40000021416040228260C1604FF480620261C2
:103F500041618161C1614FF4003202624162FDF74B
:103F600089FC18B1FFE7FCF7BBFBFFE7FFE70D9803
:103F700041F6D011C2F2000181640D988863FFE719
:103F8000FFE7FFE70EB080BD80B582B001900198D9
:103F900001F032FB02B080BD84B00290019100209C
:103FA0000090FFE7029890F83C00012804D1FFE759
:103FB00002208DF80F0044E00299012081F83C00B6
:103FC000FFE7FFE7009820F0FF000199C968084368
:103FD0000090009820F4407001998968084300908F
:103FE000009820F480600199496808430090009887
:103FF00020F400600199096808430090009820F4BB
:1040000080500199096908430090009820F40050FD
:104010000199496908430090009820F48040019973
:10402000C969084300900098029909684864FFE74D
:104030000299002081F83C00FFE700208DF80F0076
:10404000FFE79DF80F0004B07047000085B00390B3
:104050000291FFE7039890F83C00012804D1FFE7A4
:1040600002208DF813007EE00399012081F83C00C6
:10407000FFE7FFE70399022081F83D0003980068FD
:10408000406801900398006880680090019820F0D3
:10409000700001900298016801980843019001980E
:1040A000039909684860039800680021C4F201017F
:1040B00088423CD0FFE703980068B0F1804F36D0CB
:1040C000FFE70398006840F20041C4F20001884213
:1040D0002DD0FFE70398006840F60001C4F200010C
:1040E000884224D0FFE70398006840F60041C4F2FC
:1040F000000188421BD0FFE70398006840F20041AE
:10410000C4F20101884212D0FFE70398006844F22C
:104110000001C4F20101884209D0FFE7039800685A
:1041200041F60001C4F2000188420ED1FFE7009879
:1041300020F08000009002984168009808430090A9
:104140000098039909688860FFE70399012081F8C6
:104150003D00FFE70399002081F83C00FFE70020C5
:104160008DF81300FFE79DF8130005B070470000BD
:1041700080B582B00090009820B9FFE701208DF84B
:1041800007003FE0009890F83D0040B9FFE7009934
:10419000002081F83C00009800F038F8FFE7009913
:1041A000022081F83D00009951F8040B01F0BCFA9F
:1041B0000099012081F84600FFE70099012081F86D
:1041C0003E00009981F83F00009981F84000009975
:1041D00081F84100FFE7FFE70099012081F84200E4
:1041E000009981F84300009981F84400009981F812
:1041F0004500FFE70099012081F83D0000208DF87F
:104200000700FFE79DF8070002B080BD80B584B0CD
:1042100003900398006840F60001C4F20001884250
:1042200040D1FFE7FFE70020029043F64000C4F2D0
:104230000200016841F004010160006800F0040020
:1042400002900298FFE741F63020C2F20000009091
:1042500046F25801C4F2020101604FF080614160F2
:10426000402181600021C1604FF4806202614FF4FF
:10427000805242614FF480428261C16101624162B9
:10428000FDF7F8FA18B1FFE7FCF72AFAFFE7FFE7B6
:10429000039841F63021C2F20001816203988863DD
:1042A000FFE71BE00398006840F20041C4F20101FF
:1042B000884212D1FFE7FFE70020019043F6440057
:1042C000C4F20200016841F002010160006800F0E0
:1042D000020001900198FFE7FFE7FFE704B080BD0F
:1042E00080B586B00490039100208DF80B00FFE7A5
:1042F000049890F83C00012804D1FFE702208DF8D3
:104300001700ABE00499012081F83C00FFE7FFE7CC
:104310000499022081F83D000498006880680190AB
:10432000019820F077000190019820F47F400190DF
:104330000198049909688860039800680090002833
:1043400072D0FFE7009810286ED0FFE70098202871
:104350006AD0FFE70098302866D0FFE70098402831
:1043600055D0FFE70098502837D0FFE70098602825
:1043700040D0FFE7009870280BD0FFE70098B0F519
:10438000805F05D0FFE70098B0F5005F16D052E0DF
:1043900055E004980068039B5A689968DB6801F04F
:1043A00095FA0498006880680190019840F07700C1
:1043B0000190019804990968886040E004980068B9
:1043C000039B5A689968DB6801F080FA04980168D9
:1043D000886840F48040886031E004980068039A5F
:1043E0005168D26801F05EFC04980068502101F029
:1043F00087FA24E004980068039A5168D26801F0B3
:1044000079FC04980068602101F07AFA17E00498BA
:104410000068039A5168D26801F044FC049800686F
:10442000402101F06DFA0AE00498006803990968D8
:1044300001F066FA03E001208DF80B00FFE7049914
:10444000012081F83D00FFE70499002081F83C003D
:10445000FFE79DF80B008DF81700FFE79DF81700A8
:1044600006B080BD80B58EB00D9000200C900B90F2
:104470000A90099008900D98006840F60001C4F277
:104480000001884221D1FFE7FFE70020079043F6B3
:104490003000C4F20200016841F0020101600068CE
:1044A00000F0020007900798FFE7802008900220A4
:1044B000099000210A910B910C9040F20040C4F247
:1044C000020008A9FDF7B0FA71E00D98006840F20B
:1044D0000041C4F20101884268D1FFE7FFE70020F4
:1044E000069043F63000C4F20200016841F0010179
:1044F0000160006800F0010006900698FFE7FFE702
:104500000020059043F63000C4F20200016841F03B
:1045100002010160006800F0020005900598FFE7C5
:10452000FFE70020049043F63000C4F20200016867
:1045300041F004010160006800F004000490049858
:10454000FFE7802008900220009009900020019051
:104550000A900B90032002900C900020C4F20200FD
:1045600008A90391FDF760FA009B019A029803994C
:10457000089009930A920B920C9040F20040C4F20A
:104580000200FDF751FA009B019A029803994FF43B
:10459000E07CCDF820C009930A920B920C9040F673
:1045A0000000C4F20200FDF73FFAFFE7FFE70EB09C
:1045B00080BD000080B586B0049003910292002077
:1045C0008DF80700FFE7049890F83C00012804D11B
:1045D000FFE702208DF8170089E00499012081F897
:1045E0003C00FFE7FFE7029800900C2800F2708083
:1045F0000099DFE801F0076D6D6D206D6D6D3A6D0E
:104600006D6D530004980068039901F08FF90498C8
:104610000168886940F00800886104980168886929
:1046200020F0040088610398026904980168886991
:104630001043886150E004980068039901F0ECF998
:1046400004980168886940F40060886104980168F2
:10465000886920F480608861039802690498016881
:10466000886940EA0220886136E00498006803996E
:1046700001F04CFA04980168C86940F00800C8616C
:1046800004980168C86920F00400C86103980269B1
:1046900004980168C8691043C8611DE00498006867
:1046A000039901F0ADFA04980168C86940F400600C
:1046B000C86104980168C86920F48060C8610398E3
:1046C000026904980168C86940EA0220C86103E0F1
:1046D00001208DF80700FFE7FFE70499002081F82B
:1046E0003C00FFE79DF807008DF81700FFE79DF8F5
:1046F000170006B080BD000080B582B00090009821
:1047000020B9FFE701208DF807003FE0009890F8FE
:104710003D0040B9FFE70099002081F83C00009877
:1047200000F038F8FFE70099022081F83D00009979
:1047300051F8040B00F0F8FF0099012081F84600C1
:10474000FFE70099012081F83E00009981F83F00C1
:10475000009981F84000009981F84100FFE7FFE7E8
:104760000099012081F84200009981F843000099E6
:1047700081F84400009981F84500FFE70099012085
:1047800081F83D0000208DF80700FFE79DF8070045
:1047900002B080BD81B0009001B0704780B582B09A
:1047A0000090009820B9FFE701208DF8070040E055
:1047B0000098806908B1FFE700E0FFE7009890F8F3
:1047C000410040B9FFE70099002081F840000098BF
:1047D00000F034F8FFE70099242081F841000098A8
:1047E0000168C86820F40050C860009801F0ACFA75
:1047F00000980168086920F49040086100980168F9
:10480000486920F02A00486100980168C86840F4AF
:104810000050C860009900204864009A202182F866
:104820004110009A82F84210009948638DF8070001
:10483000FFE79DF8070002B080BD000080B58CB096
:104840000B9000200A9009900890079006900B9812
:10485000006841F20001C4F20101884240F0898001
:10486000FFE7FFE70020059043F64400C4F2020092
:10487000016841F010010160006800F0100005902F
:104880000598FFE7FFE70020049043F63000C4F2EC
:104890000200016841F001010160006800F00100C0
:1048A00004900498FFE74FF4C06006900220079040
:1048B0000020029008900320099007200A90002011
:1048C000C4F2020006A9FDF7AFF8029941F6F02004
:1048D000C2F20000039046F2B842C4F20202026043
:1048E0004FF00062426040228260C1604FF48062FB
:1048F000026141618161C16101624162FCF7BAFFFD
:1049000018B1FFE7FBF7ECFEFFE7FFE70B9841F676
:10491000F021C2F2000181630B988863FFE741F642
:104920009020C2F20000019046F28841C4F20201D8
:1049300001604FF00061416000218160C1604FF46F
:104940008062026141618161C16101624162FCF783
:1049500091FF18B1FFE7FBF7C3FEFFE7FFE70B98F6
:1049600041F69021C2F20001C1630B988863FFE712
:10497000FFE70CB080BD0000FFE7FEE783B00290C8
:1049800001918DF8032000208DF802008DF80200BF
:10499000FFE79DF802009DF80310884229DAFFE73F
:1049A0000298000F092809D8FFE70298000F30305D
:1049B00001999DF8022001F8120009E002993720C0
:1049C00000EB117001999DF8022001F81200FFE739
:1049D00002980001029001989DF8021000EB41013D
:1049E00000204870FFE79DF8020001308DF80200BA
:1049F000CFE703B07047000080B586B00022009278
:104A0000059204920392029241F2F870C2F2000001
:104A1000019042F20001C4F2010101604FF4403103
:104A20004160826001210161027680F820204FF010
:104A30000053C3624FF060638362C2600323C361AB
:104A400080F830204161FBF789FF18B1FFE7FBF7E1
:104A500047FEFFE70D200290012003900020049004
:104A600041F2F870C2F2000002A9FBF76BFE18B128
:104A7000FFE7FBF735FEFFE70020029002200390DE
:104A800041F2F870C2F2000002A9FBF75BFE18B118
:104A9000FFE7FBF725FEFFE70120029003200390CC
:104AA00041F2F870C2F2000002A9FBF74BFE18B108
:104AB000FFE7FBF715FEFFE706B080BD80B586B0C7
:104AC0000022059204920392029241F64000C2F243
:104AD0000000019042F20011C4F2010101604FF4A4
:104AE000403141604FF00071816001210161017628
:104AF00080F82020C2620123C0F600738362C26086
:104B00000422C26180F830104161FBF727FF18B121
:104B1000FFE7FBF7E5FDFFE70A2002900120039085
:104B20000720049041F64000C2F2000002A9FBF702
:104B300009FE18B1FFE7FBF7D3FDFFE70B2002905A
:104B40000220039041F64000C2F2000002A9FBF7E8
:104B5000F9FD18B1FFE7FBF7C3FDFFE70C2002905A
:104B60000320039041F64000C2F2000002A9FBF7C7
:104B7000E9FD18B1FFE7FBF7B3FDFFE70F20029057
:104B80000420039041F64000C2F2000002A9FBF7A6
:104B9000D9FD18B1FFE7FBF7A3FDFFE706B080BD25
:104BA00080B582B041F68800C2F20000009046F65F
:104BB0000001C4F200010160032141600021019164
:104BC0008160C1604FF4002202614FF440124261E3
:104BD000017641768176C17601774177FCF710FB4B
:104BE00018B1FFE7FBF77CFDFFE702B080BD0000D6
:104BF00080B58AB0FFE70020099043F63000C4F288
:104C00000200016841F480010160006800F4800046
:104C100009900998FFE7FFE70020089043F630006D
:104C2000C4F20200016841F400110160006800F460
:104C3000001008900898FFE70B20009000220692D1
:104C40001146FDF77DF90098FDF770F9069A0E20E0
:104C500001901146FDF774F90198FDF767F9069A7E
:104C6000102002901146FDF76BF90298FDF75EF9EE
:104C7000069A382003901146FDF762F90398FDF774
:104C800055F9069A3A2004901146FDF759F904980F
:104C9000FDF74CF9069A442005901146FDF750F9AE
:104CA0000598FDF743F9069A462007901146FDF74F
:104CB00047F90798FDF73AF90AB080BD80B594B07E
:104CC000002013901290119010900F90FFE7002099
:104CD0000E9043F63000C4F20200016841F08001FA
:104CE0000160006800F080000E900E98FFE7FFE77B
:104CF00000200D9043F63000C4F20200016841F03C
:104D000004010160006800F004000D900D98FFE7B9
:104D1000FFE700200C9043F63000C4F20200016867
:104D200041F001010160006800F001000C900C9856
:104D3000FFE7FFE700200B9043F63000C4F20200CB
:104D4000016841F002010160006800F002000B9070
:104D50000B98FFE7FFE700200A9043F63000C4F20B
:104D60000200016841F008010160006800F00800DD
:104D70000A900A98FFE70020C4F20200029048F26D
:104D80001011019100220792FDF72AF8079A40F6C8
:104D90000040C4F20200049004210391FDF720F8C2
:104DA000079A40F20040C4F20200089008210591E1
:104DB000FDF716F8019A029807990F9201220692C0
:104DC0001092119112910FA90991FCF72DFEDDF8B7
:104DD0000CC00498069B079A0999CDF83CC0109323
:104DE00011921292FCF720FEDDF814C0069B079A80
:104DF00008980999CDF83CC0109311921292FCF7D3
:104E000013FE14B080BD000080B582B042F23400C1
:104E1000C2F20000019043F60001C4F200010160FB
:104E20004FF48271416000218160C1600222026101
:104E3000012242614FF4007282613822C261016234
:104E4000416281620A21C162FEF740FF18B1FFE7AB
:104E5000FBF746FCFFE702B080BD000080B582B0E2
:104E600042F28C00C2F20000019043F60041C4F20D
:104E7000000101604FF48271416000218160C160D6
:104E800002220261012242614FF400728261C1611B
:104E90000162416281620A21C162FEF717FF18B107
:104EA000FFE7FBF71DFCFFE702B080BD80B58EB0C9
:104EB000002100910D910C910B910A91099108919B
:104EC000079106910591049103910291019142F29B
:104ED000E400C2F2000040F60002C4F200020260E8
:104EE000416081606822C26001618161FFF740F921
:104EF00018B1FFE7FBF7F4FBFFE74FF480500A908F
:104F000042F2E400C2F200000AA9FFF7E9F918B181
:104F1000FFE7FBF7E5FBFFE742F2E400C2F2000027
:104F2000FFF7EAFB18B1FFE7FBF7DAFBFFE700202A
:104F30000890099042F2E400C2F2000008A9FFF7CD
:104F400085F818B1FFE7FBF7CBFBFFE76020019086
:104F5000002002900390059042F2E400C2F20000AB
:104F600001A90422FFF726FB18B1FFE7FBF7B8FB06
:104F7000FFE742F2E400C2F20000FFF773FA0EB05E
:104F800080BD000080B598B0002101911791169165
:104F90001591149113911291119110910F910E91FD
:104FA0000D910C910B910A9109910891079106912D
:104FB00005910491039142F22C10C2F2000002907C
:104FC00040F20042C4F2010202604160202282608D
:104FD00041F26702C260016141618161FFF7C8F877
:104FE00018B1FFE7FBF77CFBFFE74FF4805014900C
:104FF00042F22C10C2F2000014A9FFF771F918B1A7
:10500000FFE7FBF76DFBFFE742F22C10C2F2000056
:10501000FFF772FB18B1FFE7FBF762FBFFE77020B9
:1050200012900020139042F22C10C2F2000012A93C
:10503000FFF70CF818B1FFE7FBF752FBFFE7602022
:105040000B9000220C920D920E920F9210921192E0
:1050500042F22C10C2F200000BA9FFF7ABFA18B114
:10506000FFE7FBF73DFBFFE742F22C10C2F2000026
:105070000BA90422FFF79EFA18B1FFE7FBF730FBFC
:10508000FFE742F22C10C2F200000BA90822FFF742
:1050900091FA18B1FFE7FBF723FBFFE742F22C1070
:1050A000C2F200000BA90C22FFF784FA18B1FFE747
:1050B000FBF716FBFFE70020039004900590082102
:1050C000069107904FF4005108910A9042F22C107B
:1050D000C2F2000003A9FEF75FFF18B1FFE7FBF77C
:1050E000FFFAFFE742F22C10C2F20000FFF7BAF914
:1050F00018B080BD80B582B042F27410C2F20000D8
:10510000019041F20001C4F2010101604FF4E1316C
:10511000416000218160C16001610C2242618161B6
:10512000C161FFF73BFB18B1FFE7FBF7D9FAFFE7D7
:1051300002B080BD80B541F21C50C2F2000040F2C6
:105140000401C2F20001002201F098FF18B1FFE74C
:10515000FBF7C6FAFFE741F21C50C2F2000040F232
:105160002401C2F2000102F099FC18B1FFE7FBF73D
:10517000B7FAFFE741F21C50C2F2000040F2C00152
:10518000C2F2000101F0E6F918B1FFE7FBF7A8FA57
:10519000FFE741F21C50C2F2000002F009FE18B114
:1051A000FFE7FBF79DFAFFE780BD0000FFE7FEE7A2
:1051B000FFE7FEE788B0079006910592079800F098
:1051C000070004900498C0F10700052803D3FFE707
:1051D0000420019004E00498C0F107000190FFE76B
:1051E0000198039004980430062803D8FFE70020B4
:1051F000009003E0049803380090FFE700980290C5
:1052000006980399012202FA01F101390840029B34
:10521000984005999A40013A1140084308B07047F8
:1052200080B541F65030C2F20000FDF795F980BD1F
:1052300080B586B0059004910598006803900398A6
:1052400002900398006C01900298049900EB4110C1
:10525000D0F8080B0090019843F20B01C4F654718A
:1052600088420FD3FFE79DF801000006002809D50A
:10527000FFE70298049900EB41114FF40040C1F898
:10528000080BFFE70598FDF787FF019843F20B0134
:10529000C4F6547188420DD3FFE705988079012840
:1052A00008D1FFE70599086801F29C42012103F04B
:1052B000A3FBFFE7002006B080BD000080B588B0EA
:1052C000079006910798006804900498039004984A
:1052D000006C02900398069900EB4110D0F8080B7F
:1052E000019007988079012840F08180FFE79DF8C0
:1052F00004000007002818D5FFE7029843F20B01CD
:10530000C4F6547188420FD3FFE79DF805000006EC
:10531000002809D5FFE70398069900EB41114FF4E7
:105320000040C1F8080BFFE760E09DF8040080062C
:10533000002808D5FFE70398069900EB41112020CB
:10534000C1F8080B51E09DF8040010F0280F4AD175
:10535000FFE7029843F20B01C4F6547188420FD361
:10536000FFE79DF805000006002809D5FFE7039830
:10537000069900EB41114FF40040C1F8080B31E0F1
:105380000798069901EBC10100EB810000F515704B
:1053900005900598006A0399069A01EB4211D1F82D
:1053A000101B6FF3DF41401A05994861069898B9C0
:1053B000FFE70598006940B9FFE70799086801F21F
:1053C0009C42012103F018FB05E00599C8684A6971
:1053D0001044C860FFE7FFE707989DF81810FCF736
:1053E0004FFEFFE700E0FFE7FFE7FFE747E0029837
:1053F00043F20A11C4F65471884224D1FFE79DF8A4
:1054000005000006002809D5FFE70398069900EB80
:1054100041114FF40040C1F8080B13E09DF804005F
:105420008006002808D5FFE70398069900EB411194
:105430002020C1F8080BFFE707989DF81810FCF72B
:105440001FFEFFE71AE0069890B9FFE70798069954
:1054500001EBC10100EB8100D0F8640240B9FFE725
:105460000799086801F29C42002103F0C5FAFFE7A2
:1054700007989DF81810FCF703FEFFE7FFE70020F0
:1054800008B080BD80B58CB00A9009910A98006878
:105490000890089807900A98099901EBC10100EB60
:1054A000810014300690069801694069884204D949
:1054B000FFE701208DF82F0079E006990869496916
:1054C000401A0590059806998968884204D9FFE733
:1054D000069880680590FFE70598033080080490DF
:1054E000FFE70798099900EB4110D0F8180981B23D
:1054F000049A0020914202900FD3FFE706980269B8
:10550000416900209142029007D2FFE706980069A6
:10551000002818BF01200290FFE70298C00770B36F
:10552000FFE7069908694969401A059005980699A8
:105530008968884204D9FFE7069880680590FFE7EC
:10554000059803308008049008980699C9689DF86A
:105550002420BDF81430DDF828C09CF806C0EE46C3
:10556000CEF800C004F0BEF8059A0699C868104449
:10557000C860059A0699486910444861B1E70699E0
:105580000869496988420ED8FFE7099800F00F01C1
:10559000012088400390039A0799D1F8340890437A
:1055A000C1F83408FFE700208DF82F00FFE79DF8D1
:1055B0002F000CB080BD0000704700007047000055
:1055C00084B003900398009000980078ADF808002C
:1055D00000980130009000980078ADF80600BDF802
:1055E0000610BDF8080040EA0120ADF80A00BDF839
:1055F0000A0004B07047000080B582B000900098A7
:105600000138B0F1807F03D3FFE70120019019E05A
:10561000009801384EF21401CEF2000108604FF0FC
:10562000FF300F2104F0C2F84EF21801CEF2000153
:10563000002008604EF21002CEF200020721116035
:105640000190FFE7019802B080BD000080B5FCF733
:10565000E5FB80BD80B594B008A83021FAF7E8FDDD
:10566000002007900690059004900390FFE700202B
:10567000029043F64000C4F20200016841F08051FC
:105680000160006800F0805002900298FFE7FFE799
:105690000020019047F20000C4F20000016841F4CC
:1056A00080410160006800F4804001900198FFE7AC
:1056B000012008904FF48030099002200E904FF4A2
:1056C00080010F91192110914FF4A871119112903E
:1056D0000720139008A8FDF799FF18B1FFE7FAF724
:1056E000FFFFFFE70F2003900220049000200590A9
:1056F0004FF4A05006904FF48050079003A8052166
:10570000FDF7B4FD18B1FFE7FAF7EAFFFFE714B0C1
:1057100080BD00004EF68851CEF20001086840F4CA
:10572000700008607047000083B0029001910298F9
:105730000068009002980021C4F20101884225D03F
:10574000FFE70298B0F1804F20D0FFE7029840F2C7
:105750000041C4F20001884218D0FFE7029840F6E9
:105760000001C4F20001884210D0FFE7029840F621
:105770000041C4F20001884208D0FFE7029840F2DD
:105780000041C4F2010188420AD1FFE7009820F0ED
:105790007000009001984168009808430090FFE76E
:1057A00002980021C4F20101884255D0FFE7029817
:1057B000B0F1804F50D0FFE7029840F20041C4F2B0
:1057C0000001884248D0FFE7029840F60001C4F289
:1057D0000001884240D0FFE7029840F60041C4F241
:1057E0000001884238D0FFE7029840F20041C4F23D
:1057F0000101884230D0FFE7029844F20001C4F270
:105800000101884228D0FFE7029844F20041C4F227
:105810000101884220D0FFE7029844F60001C4F25B
:105820000101884218D0FFE7029841F60001C4F256
:105830000001884210D0FFE7029841F60041C4F20F
:105840000001884208D0FFE7029842F20001C4F24A
:10585000000188420AD1FFE7009820F440700090D0
:105860000198C168009808430090FFE7009820F075
:105870008000019949690843009001988068029965
:10588000C862019800680299886202980021C4F2F7
:105890000101884208D0FFE7029840F20041C4F2BB
:1058A0000101884205D1FFE7019800690299086368
:1058B000FFE70299086840F004000860029901209F
:1058C000486100980299086003B0704785B0049061
:1058D000039102920193049880680090009820F44C
:1058E0007F40009003980299019A41EA0221014306
:1058F00000980843009000980499886005B07047AC
:1059000083B002900191029880680090009820F086
:105910007000009001980099084340F00700009043
:1059200000980299886003B07047000085B0049029
:1059300003910498006A01900499086A20F001001C
:105940000862049840680090049880690290029868
:1059500020F070000290029820F00300029003985B
:105960000168029808430290019820F0020001901B
:105970000398816801980843019004980021C4F2BB
:105980000101884208D0FFE7049840F20041C4F2C8
:10599000010188420ED1FFE7019820F00800019034
:1059A0000398C168019808430190019820F0040011
:1059B0000190FFE704980021C4F20101884208D059
:1059C000FFE7049840F20041C4F20101884213D17C
:1059D000FFE7009820F480700090009820F4007099
:1059E00000900398416900980843009003988169EA
:1059F000009808430090FFE70098049948600298D7
:105A0000049988610398406804994863019804994F
:105A1000086205B07047000085B0049003910498B7
:105A2000006A01900499086A20F010000862049846
:105A300040680090049880690290029820F4E04049
:105A40000290029820F44070029003980168029836
:105A500040EA01200290019820F020000190039874
:105A60008168019840EA0110019004980021C4F275
:105A70000101884208D0FFE7049840F20041C4F2D7
:105A8000010188420FD1FFE7019820F080000190CA
:105A90000398C168019840EA01100190019820F034
:105AA00040000190FFE704980021C4F20101884200
:105AB00008D0FFE7049840F20041C4F20101884297
:105AC00015D1FFE7009820F480600090009820F442
:105AD0000060009003984169009840EA81000090BE
