:020000040800F2
:10000000382F00209D0100080D820008A17800080B
:10001000098200082508000821DC00080000000013
:10002000000000000000000000000000E99000084F
:100030003110000800000000A98900083D92000866
:10004000B7010008B7010008B7010008B7010008B0
:10005000B7010008B7010008B7010008B7010008A0
:10006000B7010008B7010008B7010008290E000811
:10007000B7010008B7010008390E0008B7010008F1
:10008000490E0008B7010008B7010008B7010008D1
:10009000B7010008B7010008B7010008B701000860
:1000A000B7010008B7010008B7010008B701000850
:1000B000B7010008B7010008B7010008B701000840
:1000C000B7010008B7010008B7010008B701000830
:1000D000B7010008B7010008B7010008B701000820
:1000E000B7010008B7010008B7010008B701000810
:1000F000F5930008B7010008B7010008B701000830
:10010000B7010008B7010008B7010008B7010008EF
:10011000B7010008B7010008B7010008B7010008DF
:10012000590E0008B7010008690E0008B701000861
:10013000B70100080000000000000000B70100083F
:1001400029080008B7010008B70100087D820008EF
:10015000790E0008B7010008890E0008B7010008F1
:10016000B7010008B7010008B7010008B70100088F
:10017000B7010008B70100080000000000000000FF
:10018000B7010008B7010008DFF80CD000F0E8F86C
:100190000048004705F70008382F00200648804730
:1001A00006480047FEE7FEE7FEE7FEE7FEE7FEE75C
:1001B000FEE7FEE7FEE7FEE7059300088901000879
:1001C0002DE9F05F0546002092469B46884606468C
:1001D000814640241BE0284641464746224600F01F
:1001E000AFF853465A46C01A914110D311461846EB
:1001F000224600F096F82D1A67EB01084F4622467A
:100200000120002100F08DF817EB00094E41201E5F
:10021000A4F10104DFDC484631462A464346BDE8E6
:10022000F09F40EA01039B0703D009E008C9121FB1
:1002300008C0042AFAD203E011F8013B00F8013BA0
:10024000521EF9D27047D2B201E000F8012B491ECC
:10025000FBD270470022F6E710B513460A46044663
:100260001946FFF7F0FF204610BD421E12F8013F6D
:10027000002BFBD111F8013B02F8013B002BF9D117
:100280007047421C10F8011B0029FBD1801A7047EF
:1002900030B5041E71F1000404DB4FF0004440420D
:1002A00064EB0101141E73F1000405DB1C464FF0E2
:1002B0000043524263EB0403801A994101D30120A9
:1002C00030BD002030BD30B5041E71F1000404DBE8
:1002D0004FF00044404264EB0101141E73F100042E
:1002E00005DB1C464FF00043524263EB0403801AC7
:1002F000994101D2012030BD002030BD00F0004204
:1003000030F000400AD0C10D01F56071C0F3160055
:1003100042EA0151C20840071143704700200146DC
:100320007047202A04DB203A00FA02F100207047CF
:100330009140C2F1200320FA03F319439040704723
:10034000202A04DB203A21FA02F00021704721FA2A
:1003500002F3D040C2F12002914008431946704791
:100360001CB509480090094801900546009C06E02C
:10037000E06840F0010394E8070098471034AC426D
:10038000F6D3FFF705FF0000183D0108383D0108CE
:1003900080B582B001900198806B00900098006C4D
:1003A00010F0500F3AD1FFE70099086C40F400704C
:1003B000086400980068806810F0405F2AD1FFE769
:1003C0000098007E30BBFFE700980068C06A10F418
:1003D000700F07D0FFE7009800688068400500288C
:1003E00018D4FFE700980168486820F020004860B2
:1003F0000099086C20F4807008640098006CC004B8
:10040000002806D4FFE70099086C40F0010008645A
:10041000FFE7FFE7009801F0B7FA10E00098006CE2
:10042000C006002804D5FFE7009801F0B5FA05E002
:100430000098806BC16C01988847FFE7FFE702B026
:1004400080BD000080B582B001900198806B009063
:100450000099402008640099486C40F0040048640A
:10046000009801F099FA02B080BD000080B582B01A
:1004700001900198806B0090009801F089FA02B019
:1004800080BD000080B582B042F61020C2F20000AC
:10049000019006F0C9F801980C2106F0C1FC42F267
:1004A000DC00C2F2000040F20811C2F20001032297
:1004B00001F0C0FB42F22410C2F2000040F20E1123
:1004C000C2F20001042201F0B5FB0198016801208D
:1004D000086402B080BD000083B0029001910092D8
:1004E00040F20810C2F20000018800EE101AB8EEC7
:1004F000400A9FED163A20EE030A9FED152A20EEE2
:10050000020A9FED141A80EE010A029981ED000A99
:10051000418800EE101AB8EE400A20EE030A20EEE1
:10052000020A80EE010A019981ED000A808800EE3E
:10053000100AB8EE400A20EE030A20EE020A80EE0E
:10054000010A009880ED000A03B0704719B32A42EF
:100550003333534000F07F4585B0049003910292FD
:10056000019342F61930C2F2000000780146009172
:1005700040B1FFE70098012819D0FFE70098022852
:100580002AD03EE040F20E10C2F20000007843F2A2
:100590003731C0F60101084410F8450C0499087081
:1005A00042F61931C2F200010120087043E040F226
:1005B0000E10C2F20000407843F23731C0F601015C
:1005C000084410F8450C0399087042F61931C2F23C
:1005D0000001022008702EE040F20E10C2F200006E
:1005E000807843F23731C0F60101084410F8450C19
:1005F0000299087042F61931C2F200010320087016
:1006000019E0049800780399097808440299097858
:10061000084400EE100AB8EEC00AB0EE081A80EEE8
:10062000010A019880ED000A42F61931C2F2000178
:1006300000200870FFE705B07047000081B000900F
:1006400040F20E10C2F20000C07800EE100AB8EEC0
:10065000C00A9FED081A20EE010AB3EE001A20EE40
:10066000010A9FED051A80EE010A009880ED000A4C
:1006700001B070473333534000007F4382B0019094
:1006800042F20030C4F2010000900099486820F462
:1006900040304860019842680099486810434860BB
:1006A00001980168486820F48070486001980168EA
:1006B0000269486840EA0220486001980168486879
:1006C00020F04070486001980168826848681043D3
:1006D000486001980168886820F40060886001988B
:1006E0000168C2688868104388600198806A0121A7
:1006F000C0F60071884219D0FFE701980168886848
:1007000020F07060886001980168826A88681043F0
:10071000886001980168886820F0405088600198DE
:100720000168C26A8868104388600CE0019801681B
:10073000886820F07060886001980168886820F0FF
:1007400040508860FFE701980168886820F0020047
:1007500088600198027E0168886840EA42008860EB
:10076000019890F82000C8B1FFE701980168486837
:1007700040F40060486001980168486820F46040D7
:10078000486001980168426A4EF20000CFF6FF709F
:1007900000EB423248681043486006E00198016867
:1007A000486820F400604860FFE701980168C86A63
:1007B00020F47000C86201980168C2690020CFF679
:1007C000F07000EB0252C86A1043C86201980168D9
:1007D000886820F400708860019890F830200168E3
:1007E000886840EA4220886001980168886820F49F
:1007F00080608860019801684269886840EA8220C8
:10080000886002B07047000081B0ADF80200BDF80A
:10081000020042F61021C2F200010968086401B02A
:1008200070470000FFE7FEE780B542F26C10C2F2AD
:10083000000001F015FE80BD80B58CB00B900B98C8
:1008400000F042F80020069001210791089141F63E
:100850004832C2F200021368C3F3CF230193126837
:10086000520192B2029203900490059009910E21D8
:100870000A9100F09DF842F26C10C2F2000001A94A
:1008800001F0D8FB20B1FFE7012000F091F8FFE76D
:1008900042F26C10C2F2000002F0AAF920B1FFE7A8
:1008A000012000F085F8FFE742F26C10C2F2000070
:1008B000022101F0E9FA20B1FFE7012000F078F809
:1008C000FFE70CB080BD000081B00090009841F6B9
:1008D0004831C2F20001086001B0704780B586B0AF
:1008E00005908DF813100598017841F6E810C2F2D2
:1008F00000000170007801460391012815D0FFE740
:100900000398022816D0FFE70398032829D0FFE7B1
:10091000039804283CD0FFE70398FF2845D1FFE760
:100920000598407800F040F940E00598013000F06B
:1009300047F93BE00598417841F62520C2F20000D6
:10094000017041F64031C2F200010291022201F829
:10095000012B00780FF008F80298052100F03AF812
:1009600024E00598417841F62520C2F2000001708C
:1009700041F64031C2F200010191032201F8012B3E
:10098000007810F0EBFD0198052100F023F80DE050
:1009900041F63C30C2F200000090411C08F092FB8E
:1009A0000098022100F016F800E0FFE706B080BDD5
:1009B00081B08DF803009DF8030041F64C31C2F27E
:1009C0000001087001B0704741F64C30C2F20000DF
:1009D0000078704780B58CB00B908DF82B100020FC
:1009E0008DF82A0041F64831C2F200010A680192EE
:1009F00009680291039004909DF82B1005918DF8E1
:100A000018008DF82A00FFE79DF82A009DF82B10AA
:100A100088420EDAFFE70B989DF82A20805C0DF1E2
:100A200022018854FFE79DF82A0001308DF82A0042
:100A3000EAE742F26C10C2F2000001A90DF12202B5
:100A400007AB01F04BFA20B1FFE70220FFF7B0FF40
:100A5000FFE7FFE742F26C10C2F2000001F0C8FCB1
:100A6000022801D8FFE7F5E701200CB080BD0000A7
:100A700084B08DF80F000291ADF806209DF80F00AC
:100A80000146009123281DD80099DFE801F01213D8
:100A90001415161B1B1B1B1B1B1B1B1B1B1B1B1BB8
:100AA0001B1B1B1B1B1B1B1B1B1B1B1B1B1B17189D
:100AB000191A08E007E006E005E004E003E002E0C0
:100AC00001E000E0FFE7002004B07047002070471D
:100AD00080B582B041F60060C2F20000009041F2A1
:100AE000E511C2F200010022019209F071FF0098A5
:100AF00040F6E511C2F2000109F04CFF019802B086
:100B000080BD000080B584B00390029103980299E3
:100B100011F0A2FF039941F60060C2F200000190BB
:100B200009F038FF019809F0DBFE002004B080BD19
:100B300083B0029001918DF8032000208DF802000F
:100B40009DF9020003B0704780B586B00490ADF8FF
:100B50000E1000208DF80D0041F60060C2F200007A
:100B6000D0F8BC0202900298D0F8140220B1FFE73E
:100B700001208DF8170013E00499BDF80E2041F60E
:100B80000060C2F20000019009F022FF01980AF013
:100B900029F88DF80D009DF80D008DF81700FFE77E
:100BA0009DF8170006B080BD81B08DF803009DF858
:100BB000030041F65441C2F20001887001B0704751
:100BC00082B0019041F65440C2F2000080780146A4
:100BD000009148B1FFE7009801280DD0FFE7009889
:100BE0000238022816D323E00198006841F65441E8
:100BF000C2F2000188601CE0019890ED000A9FEDB0
:100C00000F1A80EE010A41F65440C2F2000080ED56
:100C1000040A0EE0019890ED000A9FED071A20EEFD
:100C2000010A41F65440C2F2000080ED060A00E0DD
:100C3000FFE702B0704700BF35FA8E3CEBC91841A0
:100C400080B582B08DED010ACDED000A9DED010A5F
:100C5000DDED000A41F67440C2F200001C309FED49
:100C6000031A07F015FE02B080BD00BF17B7513858
:100C700080B584B041F63C50C2F20000011D00F185
:100C80000802FFF729FC42F60C30C2F2000000799E
:100C9000013801460091052800F29C800099DFE8A8
:100CA00001F0031C354E678041F63C50C2F2000053
:100CB00090ED010A90ED021A30EE010A8DED030A63
:100CC00090ED010AB1EE400A8DED020A90ED020AA4
:100CD000B1EE400A8DED010A81E041F63C50C2F2CE
:100CE000000090ED000AB1EE400A8DED030A90ED90
:100CF000000A90ED021A30EE010A8DED020A90ED25
:100D0000020AB1EE400A8DED010A68E041F63C505E
:100D1000C2F2000090ED000AB1EE400A8DED030A28
:100D200090ED010AB1EE400A8DED020A90ED000A45
:100D300090ED011A30EE010A8DED010A4FE041F607
:100D40003C50C2F2000090ED010A90ED021A30EE24
:100D5000010A8DED030A90ED010AB1EE400A8DED16
:100D6000020A90ED020AB1EE400A8DED010A36E06A
:100D700041F63C50C2F2000090ED000AB1EE400A8C
:100D80008DED030A90ED000A90ED021A30EE010A93
:100D90008DED020A90ED020AB1EE400A8DED010AD6
:100DA0001DE041F63C50C2F2000090ED000AB1EEA9
:100DB000400A8DED030A90ED010AB1EE400A8DED77
:100DC000020A90ED000A90ED011A30EE010A8DED55
:100DD000010AFFE70020039002900190FFE79DEDDC
:100DE000030ADDED020A9DED011A41F63C51C2F203
:100DF000000101F10C0010310DF000FB04B080BDCA
:100E000080B582B042F61020C2F2000001900021AD
:100E100006F0DAFA0198042106F0D6FA01980821C2
:100E200006F0D2FA02B080BD80B542F25420C2F280
:100E3000000001F03FFF80BD80B542F21430C2F2E5
:100E4000000001F037FF80BD80B542F2B420C2F24D
:100E5000000001F02FFF80BD80B542F29410C2F275
:100E6000000001F027FF80BD80B542F2F410C2F20D
:100E7000000001F01FFF80BD80B542F27430C2F265
:100E8000000001F017FF80BD80B542F2D430C2F2FD
:100E9000000001F00FFF80BD82B001900198007842
:100EA00010384AF6AB21CAF6AA21A0FB01100009AE
:100EB0000090009943F22330C0F60100405C019994
:100EC000C8650098042807D3FFE701990868042241
:100ED00062F30900886506E00199086840F2FF3274
:100EE00090438865FFE70198806D02B0704700006D
:100EF00086B0059000208DF813000598806A039055
:100F00000598806910BBFFE70398029003281BD85F
:100F10000299DFE801F0020D0218059890F82F0001
:100F2000C00720B1FFE701208DF81300FFE70CE0B8
:100F30000598C06AB0F1C07F04D1FFE701208DF8A9
:100F40001300FFE701E000E0FFE745E00598806956
:100F5000B0F5005F25D1FFE70398019003281ED864
:100F60000199DFE801F00206021101208DF813005B
:100F700016E0059890F82F00C00720B1FFE7012088
:100F80008DF81300FFE70BE00598C06AB0F1C07F51
:100F900004D1FFE701208DF81300FFE700E0FFE731
:100FA00019E003980090032804D3FFE70098032872
:100FB00004D00EE001208DF813000BE0059890F8A6
:100FC0002F00C00720B1FFE701208DF81300FFE7D5
:100FD00000E0FFE7FFE7FFE79DF8130006B070476A
:100FE00084B003900291019200930398016808680D
:100FF00020F48020086000980399096848600398ED
:101000008068402809D1FFE7019803990968886042
:10101000029803990968C86008E002980399096872
:101020008860019803990968C860FFE704B07047B9
:101030007047000080B582B042F61020C2F2000076
:1010400000900021019105F0EBFE0098042105F0CD
:10105000E7FE0098082105F0E3FE019901200FF05A
:101060004FFB019902200FF04BFB019903200FF079
:1010700047FB02B080BD000080B588B006A9019191
:1010800042F6AC20C2F200000078ADF81E0042F635
:10109000AD20C2F20000027802F0FC02ADF81C2084
:1010A000BDF81E2002F03F03BDF81C20C2F38502EC
:1010B00042EA831200EE102AB8EEC00A81ED000A5F
:1010C00091ED000A9FED641A20EE010A41F65832B4
:1010D000C2F20002029282ED040A92ED040A92ED3D
:1010E000051A9FED5E2A20EE020A30EE010A82ED1B
:1010F000010A92ED011A92ED022A92ED030A31EEF5
:10110000421A30EE010A82ED030A516891600078BC
:101110008007002807D5FFE741F65831C2F20001E9
:10112000032008700FE041F65830C2F2000000784A
:10113000032807D1FFE741F65831C2F20001002031
:101140000870FFE7FFE7019942F6AD20C2F2000008
:10115000007800F001008DF8170000208DF81600CF
:1011600091ED000ABDEEC00A10EE101AADF8141091
:101170000490FFE704980D2812DCFFE7BDF8140087
:101180000499C840C00730B1FFE79DF81600013050
:101190008DF81600FFE7FFE7049801300490E9E7B7
:1011A0009DF8160000F001008DF80F009DF80F006B
:1011B00000F001009DF8171001F00101884208D0ED
:1011C000FFE742F63431C2F2000108780A300870B5
:1011D00019E042F63430C2F200000078012808DB42
:1011E000FFE742F63430C2F2000000780138009088
:1011F00002E000200090FFE7009842F63431C2F28E
:1012000000010870FFE742F63430C2F200000078B7
:10121000652807DBFFE741F65831C2F200010220E2
:1012200008700FE041F65830C2F200000078022842
:1012300007D1FFE741F65831C2F2000100200870E3
:10124000FFE7FFE740F21311C2F20001012008702E
:1012500000F026F808B080BD0000B43C35FA8E3CA2
:1012600080B582B041F65831C2F2000100910020F1
:1012700048610861C86088604860086000F010F844
:101280000098007820B9FFE701208DF8070003E0FF
:1012900000208DF80700FFE79DF8070002B080BD31
:1012A00080B542F6AC21C2F20001032006F056FBE5
:1012B00008B9FFE70FE042F6AD21C2F200010420B9
:1012C00006F04CFB38B9FFE740F21311C2F20001FF
:1012D00000200870FFE780BD80B582B0019000F06B
:1012E00091F800F085F800F025F820200FF0F6FFC7
:1012F0009DF806000FF0F2FF9DF805000FF0EEFFDD
:101300009DF804000FF0EAFF00F00AF800F070F812
:1013100002B080BD80B572B6022008F025F880BD0D
:1013200080B50020C4F202004FF48071012202F067
:1013300069F980BD80B50020C4F202004FF48071CD
:10134000002202F05FF980BD80B582B000208DF8E8
:101350000700FFF7EFFF05200FF0C0FF0FF0ACFF15
:101360008DF80700FFF7DCFF9DF8070002B080BD95
:1013700080B584B002900191ADF802200020ADF854
:101380000000FFF7D7FF03200FF0A8FF20B9FFE709
:1013900000208DF80F0026E09DF806000FF09EFF5C
:1013A0009DF805000FF09AFF9DF804000FF096FFDE
:1013B000FFE7BDF80000BDF8021088420DDAFFE734
:1013C0000FF07AFF0299BDF800208854FFE7BDF8BE
:1013D00000000130ADF80000EBE7FFF7A1FF0120AE
:1013E0008DF80F00FFE79DF80F0004B080BD0000EE
:1013F00080B5FFE7FFF7A8FFC00708B1FFE7F9E7EF
:1014000080BD000080B5FFF795FF06200FF066FF56
:10141000FFF786FF80BD000080B584B00290019187
:10142000ADF80220FFF7EEFFFFF784FF02200FF078
:1014300055FF20B9FFE700208DF80F002BE09DF845
:1014400006000FF04BFF9DF805000FF047FF9DF8D9
:1014500004000FF043FF0020ADF80000FFE7BDF8E7
:101460000000BDF8021088420DDAFFE70298BDF8CF
:101470000010405C0FF032FFFFE7BDF800000130C4
:10148000ADF80000EBE7FFF74BFFFFF7B1FF0120DE
:101490008DF80F00FFE79DF80F0004B080BD00003D
:1014A00080B584B0039002910398000BADF806005C
:1014B000039802990844000BADF80400BDF804003D
:1014C000BDF80610401AADF802000020ADF800008B
:1014D000FFE7BDF80000BDF8021088420EDCFFE710
:1014E0000398FFF7F9FE039800F6FF700390FFE7FB
:1014F000BDF800000130ADF80000EAE704B080BD9F
:1015000080B50DF031FF0CF083FD80BD81B08DF80A
:1015100003009DF8030041F65441C2F20001087037
:1015200001B0704780B50DF001FF80BD41F6544019
:10153000C2F200000078704780B50DF0F7FE80BD64
:1015400080B50DF079F980BD80B50DF00DFF80BD3F
:1015500080B50DF01DFF80BD40F21411C2F20001F4
:10156000012008707047000080B582B08DF8070038
:101570009DF8070001460091052829D80099DFE869
:1015800001F0030C15181B24FFF7DAFF20B1FFE769
:101590000220FFF7BBFFFFE71BE0FFF7B1FF20B121
:1015A000FFE70220FFF7B2FFFFE712E0FFF7C4FFFB
:1015B0000FE0FFF7C9FF0CE0FFF7CAFF20B1FFE71C
:1015C0000520FFF7A3FFFFE703E0FFF7ABFF00E015
:1015D000FFE702B080BD000040F21411C2F200012A
:1015E000002008707047000082B08DED010ACDED3B
:1015F000000A41F67440C2F200000021816141619D
:101600000161C160816041600160019901600099E0
:1016100041609DED011A9FED160A80EE010ABDEEB4
:10162000C00A10EE101A81819DED010A9DED001A8D
:1016300080EE010ABDEEC00A10EE101AC181818948
:1016400000EE101AB8EEC00A9FED0A1A20EE010A49
:1016500080ED050A90ED050AC18901EE101AB8EE79
:10166000C11A20EE010A80ED060A02B0704700BFE1
:1016700000409C4617B7513841F67441C2F2000150
:10168000002008814881704741F67441C2F2000190
:101690000020087448740889013008810889898904
:1016A00088421ADBFFE741F67441C2F200010020D4
:1016B0000881012008744889013048814889C98916
:1016C000884209DBFFE741F67441C2F200010020C5
:1016D000488101204874FFE7FFE7704741F6583022
:1016E000C2F2000090ED030A7047000041F6583046
:1016F000C2F2000090ED010A7047000041F6583038
:10170000C2F200000078704741F6D050C2F20000EB
:101710000078704780B584B047F61020C1F6FF709E
:101720000068039047F61420C1F6FF70006802902D
:1017300047F61820C1F6FF700068019001990398E0
:1017400008440390039888B1FFE7039840F2DC0156
:10175000C2F2000100910231082206F0A3F80099BC
:1017600002981231042206F09DF8FFE704B080BD14
:1017700085B00390029100200190FFE7039890F854
:101780003C00012804D1FFE702208DF81300F7E0A8
:101790000399012081F83C00FFE7FFE70298006809
:1017A0000A281CD3FFE70298008800EB4000A0F154
:1017B0001E01072000FA01F203980168C8689043EF
:1017C000C86002998868098801EB41011E3900FA56
:1017D00001F203980168C8681043C86018E00298D5
:1017E000008800EB4001072000FA01F2039801682D
:1017F00008699043086102998868098801EB4101F2
:1018000000FA01F203980168086910430861FFE7D4
:101810000298406806281BD8FFE70298406800EB52
:101820008000411F1F2000FA01F203980168486BF5
:101830009043486302990888496801EB81010539A2
:1018400000FA01F203980168486B104348633DE0D9
:10185000029840680C281CD8FFE70298406800EB0B
:101860008000A0F123011F2000FA01F20398016813
:10187000086B9043086302990888496801EB81016D
:10188000233900FA01F203980168086B10430863DA
:101890001BE00298406800EB8000A0F141011F208E
:1018A00000FA01F203980168C86A9043C86202997D
:1018B0000888496801EB8101413900FA01F2039877
:1018C0000168C86A1043C862FFE7FFE742F20030D0
:1018D000C4F2010000900398006842F20001C4F2D3
:1018E000010188420BD1FFE702980068122806D157
:1018F000FFE70099486840F480004860FFE70398DC
:10190000006842F20001C4F2010188422ED1FFE7D3
:1019100002980068102805D0FFE702980068112897
:1019200024D1FFE70099486840F40000486002981D
:101930000068102819D1FFE740F22400C2F200002D
:1019400000684DF68361C4F21B31A0FB0110800CCE
:1019500000EB800040000190FFE7019820B1FFE715
:10196000019801380190F8E7FFE7FFE7FFE70399E7
:10197000002081F83C00FFE700208DF81300FFE70E
:101980009DF8130005B0704781B0009001B070471A
:1019900081B0009001B0704781B0009001B07047F5
:1019A00080B584B0029000208DF80700029820B91D
:1019B000FFE701208DF80F0042E00298806A0121C4
:1019C000C0F60071884201D0FFE7FFE70298006C83
:1019D00050B9FFE7029800F037F8029900204864F8
:1019E000029981F83C00FFE70298006CC0060028CD
:1019F00017D4FFE70298006C40F0020020F48850F2
:101A0000029908640298FEF739FE029900204864A2
:101A10000298006C40F0010020F002000299086476
:101A200003E001208DF80700FFE7FFE7029900209F
:101A300081F83C00FFE79DF807008DF80F00FFE7F5
:101A40009DF80F0004B080BD80B592B011900020C9
:101A500010900F900E900D900C901198006842F22B
:101A60000001C4F2010188427CD1FFE7FFE70020BA
:101A70000B9043F64400C4F20200016841F4807107
:101A80000160006800F480700B900B98FFE7FFE79F
:101A900000200A9043F63000C4F20200016841F0D1
:101AA00004010160006800F004000A900A98FFE752
:101AB000FFE70020099043F63000C4F202000168FD
:101AC00041F001010160006800F0010009900998EF
:101AD000FFE708200C90032003900D900020059054
:101AE0000E9040F60000C4F202000CA9049101F02F
:101AF000ADFB039A049905980C920D920E9000206C
:101B0000C4F2020001F0A2FB059942F29410C2F265
:101B10000000069046F21042C4F2020202604160E8
:101B20008160C1604FF4806202614FF400624261E3
:101B30004FF400528261C1614FF40032026241628F
:101B400001F048FA18B1FFE7FFF7E4FBFFE7FFE712
:101B5000119842F29411C2F20001816311988863D6
:101B6000FFE765E01198006842F20011C4F201013C
:101B700088425CD1FFE7FFE70020089043F644006D
:101B8000C4F20200016841F400710160006800F4D1
:101B9000007008900898FFE7FFE70020079043F6E1
:101BA0003000C4F20200016841F0040101600068E5
:101BB00000F0040007900798FFE727200C9003200F
:101BC0000D90002001900E9040F60000C4F202003B
:101BD0000CA901F03BFB019942F2F410C2F20000A3
:101BE000029046F24042C4F2020202604FF00072DC
:101BF00042608160C1604FF4806202614161816135
:101C00004FF48072C2610162416201F0E3F918B1E0
:101C1000FFE7FFF77FFBFFE7FFE7119842F2F411C0
:101C2000C2F20001816311988863FFE7FFE7FFE7D5
:101C300012B080BD80B588B0069005910492002056
:101C400003908DF80700FFE7069890F83C00012804
:101C500004D1FFE702208DF81F0010E10699012052
:101C600081F83C00FFE7FFE706980068806800F015
:101C7000010001281ED0FFE706980168886840F03F
:101C80000100886040F22400C2F2000000684DF6B6
:101C90008361C4F21B31A0FB0110800C00EB4000FB
:101CA0000390FFE7039820B1FFE703980138039002
:101CB000F8E7FFE7069800688068C005002807D5A8
:101CC000FFE706980168886820F480708860FFE765
:101CD000069800688068C007002800F0C080FFE711
:101CE0000698006C40F4807040F2016188430699C8
:101CF00008640698006840684005002809D5FFE799
:101D00000698006C40F4805020F400500699086456
:101D1000FFE70698006CC004002806D5FFE7069987
:101D2000486C20F00600486403E0069900204864EF
:101D3000FFE7FFE70699002081F83C00FFE742F249
:101D40000030C4F2010002900698816B40F291309D
:101D5000C0F60000C8630698816B40F26D40C0F683
:101D6000000008640698816B40F24540C0F6000010
:101D7000C864069801686FF0220008600698016840
:101D8000486840F08060486006980168886840F4C0
:101D90008070886006980168806B4C31059A049BBE
:101DA00001F0D0F98DF8070002984068C006E8BB42
:101DB000FFE70698006842F20001C4F20101884280
:101DC00024D0FFE70698006842F20011C4F2010136
:101DD000884208D1FFE742F20430C4F201000068F3
:101DE000C00698B1FFE70698006842F20021C4F2ED
:101DF0000101884219D1FFE742F20430C4F2010028
:101E0000006800F01F000F280FD8FFE70698006851
:101E1000806810F0405F07D1FFE706980168886886
:101E200040F080408860FFE7FFE717E00698006811
:101E300042F20001C4F2010188420ED1FFE7069888
:101E40000068806810F0405F07D1FFE706980168DE
:101E5000886840F080408860FFE7FFE70AE0069965
:101E6000086C40F0100008640699486C40F00100CE
:101E70004864FFE79DF807008DF81F00FFE79DF815
:101E80001F0008B080BD000084B00290019102984C
:101E900090F820008DF803009DF80300012805D07C
:101EA000FFE79DF8030002280AD1FFE7019A029894
:101EB000016848691043486100208DF80F0008E070
:101EC0000299486A40F48020486201208DF80F0092
:101ED000FFE79DF80F0004B07047000088B006903F
:101EE000059104920393069890F820008DF807005E
:101EF00006980068806800900598806808B9FFE738
:101F000000E0FFE79DF80700012806D0FFE79DF8F5
:101F10000700022840F08080FFE79DF8030040079B
:101F200000280CD4FFE79DF803000007002806D422
:101F3000FFE79DF80300C006002864D5FFE700987E
:101F4000C0F3016002900299012088400399086063
:101F50000598806868B9FFE705980168C06840EA9D
:101F6000415006990968029A01EB0211C1F88001FB
:101F70000EE005994A688868C96840EAC2000843CB
:101F800006990968029A01EB0211C1F88001FFE786
:101F90000598006906990968029A01EB0211C1F8D7
:101FA00084010598007D01280CD1FFE706980068A0
:101FB000029900EB0111D1F8840140F48070C1F85E
:101FC0008401FFE70498406806990968029A01EBCA
:101FD0000211C1F88C010498006806990968029AF8
:101FE00001EB0211C1F8880106980068029900EB24
:101FF0000111D1F8800140F00100C1F880010020FA
:102000008DF81F0011E00699486A40F400104862FC
:1020100001208DF81F0008E00699486A40F48020EE
:10202000486201208DF81F00FFE79DF81F0008B0EF
:102030007047000086B004900391049890F8200047
:102040008DF803009DF80300012806D0FFE79DF8F6
:102050000300022840F0B080FFE746F20040C4F2DF
:10206000000001900199D1F8000240F00100C1F890
:1020700000020199D1F8000220F47C50C1F800025E
:102080000398426A0199D1F8000240EA0220C1F89F
:1020900000020398406900F01F010120884002906F
:1020A000029A0199D1F81C029043C1F81C020398CE
:1020B000C069F0B9FFE7029A0199D1F80C02904388
:1020C000C1F80C02039A9088D168526940EA014035
:1020D000019901EBC201C1F84002039A108891688E
:1020E000526940EA0140019901EBC201C1F8440282
:1020F000FFE70398C06901281ED1FFE7029A019902
:10210000D1F80C021043C1F80C02039A90881168B0
:10211000526940EA0140019901EBC201C1F8400255
:10212000039A90899168526940EA0140019901EB54
:10213000C201C1F84402FFE70398806940B9FFE794
:10214000029A0199D1F804029043C1F8040207E011
:10215000029A0199D1F804021043C1F80402FFE782
:102160000398006940B9FFE7029A0199D1F8140277
:102170009043C1F8140207E0029A0199D1F81402C1
:102180001043C1F81402FFE70398006A012808D140
:10219000FFE7029A0199D1F81C021043C1F81C0212
:1021A000FFE70199D1F8000220F00100C1F8000218
:1021B00000208DF8170008E00499486A40F4802058
:1021C000486201208DF81700FFE79DF8170006B060
:1021D0007047000081B0009001B0704786B0049055
:1021E000039102920193049890F820008DF8030067
:1021F0009DF80300012806D0FFE79DF803000228A0
:1022000040F0E880FFE7039880B9FFE70498006892
:10221000C068800748B9FFE70499486A40F4001095
:10222000486201208DF81700DDE00FE00498006897
:102230000069800748B9FFE70499486A40F4001034
:10224000486201208DF81700CDE0FFE70498006890
:10225000039900EB0110D0F8B00100F004000299DE
:1022600088600298806858B9FFE70498006803996D
:1022700000EB0110D0F8B001400D029908600AE0AF
:1022800004980068039900EB0110D0F8B001C00871
:1022900002994860FFE704980068039900EB011079
:1022A000D0F8B00100F002000299C86004980068FC
:1022B000039900EB0110D0F8B40100F00F000828DA
:1022C00004D3FFE70299082008610BE00498006836
:1022D000039900EB0110D0F8B40100F00F0002994F
:1022E0000861FFE704980068039900EB0110D0F83B
:1022F000B40180B2000A02998861049800680399C9
:1023000000EB0110D0F8B401000C02994861049868
:102310000068039900EB0110D0F8B801019908702A
:1023200004980068039900EB0110D0F8B801000A86
:102330000199487004980068039900EB0110D0F8E7
:10234000B801000C0199887004980068039900EBAB
:102350000110D0F8B801000E0199C8700498006807
:10236000039900EB0110D0F8BC01019908710498A1
:102370000068039900EB0110D0F8BC01000A019934
:10238000487104980068039900EB0110D0F8BC0173
:10239000000C0199887104980068039900EB011002
:1023A000D0F8BC01000E0199C871039838B9FFE755
:1023B00004980168C86840F02000C86006E00498EE
:1023C0000168086940F020000861FFE700208DF8EF
:1023D000170008E00499486A40F480204862012010
:1023E0008DF81700FFE79DF8170006B07047000052
:1023F00083B0029000200190029890F820008DF8A0
:1024000003009DF80300012805D0FFE79DF80300B5
:10241000022822D1FFE70298006880684001002866
:1024200004D5FFE7019801300190FFE702980068AA
:1024300080680001002804D5FFE701980130019071
:10244000FFE7029800688068C000002804D5FFE715
:10245000019801300190FFE7FFE7019803B0704752
:1024600080B58AB0099000200890099800684069FA
:10247000079009980068406806900998006880688D
:10248000059009980068C068049009980068006980
:10249000039009980068806902909DF81C00C007AD
:1024A000002800F09480FFE79DF81400C00758B39F
:1024B000FFE709980168012088609DF814008007F3
:1024C000002804D5FFE7099800F0DCFB1BE09DF82D
:1024D00014004007002805D5FFE7089840F4006085
:1024E00008900FE09DF814000007002805D5FFE7CD
:1024F000089840F48050089003E0099800F0BEFB73
:10250000FFE7FFE7FFE7FFE79DF81500C00760B3AF
:10251000FFE7099801684FF4807088609DF8150006
:102520008007002804D5FFE7099800F0B3FB1BE003
:102530009DF815004007002805D5FFE7089840F4EE
:10254000005008900FE09DF815000007002805D501
:10255000FFE7089840F48040089003E0099800F0F5
:1025600095FBFFE7FFE7FFE7FFE79DF81600C007D1
:1025700060B3FFE7099801684FF4803088609DF8E8
:1025800016008007002804D5FFE7099800F08AFBB1
:102590001BE09DF816004007002805D5FFE70898C6
:1025A00040F4004008900FE09DF816000007002856
:1025B00005D5FFE7089840F48030089003E00998BB
:1025C00000F06CFBFFE7FFE7FFE7FFE7FFE79DF8A1
:1025D0001C000007002810D5FFE79DF81000C0067A
:1025E000002809D5FFE7089840F400700890099882
:1025F00001681020C860FFE7FFE79DF81C00400756
:1026000000280FD5FFE79DF810000007002808D527
:10261000FFE7099801680820C860099800F08AFA65
:10262000FFE7FFE79DF81C00800700280BD5FFE7B8
:1026300009980068C068800720B1FFE7099800F09A
:102640007DFAFFE7FFE79DF81C004006002810D543
:10265000FFE79DF80C00C006002809D5FFE70898A1
:1026600040F4806008900998016810200861FFE735
:10267000FFE79DF81C00800600280FD5FFE79DF8B6
:102680000C000007002808D5FFE70998016808201A
:102690000861099800F0A0FAFFE7FFE79DF81C0029
:1026A000C00600280BD5FFE709980068006980077D
:1026B00020B1FFE7099800F093FAFFE7FFE79DF8E4
:1026C0001E00800700280FD5FFE79DF81800C00600
:1026D000002808D5FFE7099801681020486009988C
:1026E00000F082FAFFE7FFE79DF81E00C00778B10F
:1026F000FFE79DF818000007002808D5FFE70998B4
:10270000016808204860099800F0D0FAFFE7FFE769
:102710009DF81D000006002840F18D80FFE79DF820
:1027200018004007002840F18180FFE79DF81D0058
:10273000C00750B1FFE79DF80800C00728B1FFE7C8
:10274000089840F001000890FFE79DF81D00800701
:1027500000280BD5FFE79DF808008007002805D565
:10276000FFE7089840F002000890FFE79DF81D0081
:10277000400700280BD5FFE79DF808004007002818
:1027800005D5FFE7089840F004000890FFE79DF8A2
:102790001D000007002848D5FFE79DF8080010F04D
:1027A000700F42D0FFE7029800F0700001460191DF
:1027B000102814D0FFE70198202815D0FFE70198D2
:1027C000302816D0FFE70198402817D0FFE701987E
:1027D000502818D0FFE70198602819D01DE008980C
:1027E00040F00800089019E0089840F010000890A8
:1027F00014E0089840F0200008900FE0089840F09E
:10280000400008900AE0089840F08000089005E039
:10281000089840F48070089000E0FFE7099801688C
:10282000886920F070008861FFE7FFE70998016878
:1028300004204860FFE7089848B1FFE7089A099923
:10284000486A104348620998FFF7C4FCFFE70AB0E2
:1028500080BD000080B584B00290029820B9FFE7E7
:1028600001208DF80F00E0E0029890F8200020B9D8
:10287000FFE7029800F0DEF8FFE7029801680868B9
:1028800040F00100086000F0D5FE0190FFE70298DB
:1028900000684068C007A8B9FFE700F0CBFE0199C7
:1028A000401A0B280DD3FFE70299486A40F4003024
:1028B00048620299052081F8200001208DF80F0060
:1028C000B3E0E4E702980168086820F002000860BD
:1028D00000F0B0FE0190FFE70298006840688007B2
:1028E000002815D5FFE700F0A5FE0199401A0B2836
:1028F0000DD3FFE70299486A40F40030486202991C
:10290000052081F8200001208DF80F008DE0E3E71D
:102910000298007E012807D1FFE702980168086845
:1029200040F08000086006E002980168086820F026
:1029300080000860FFE70298407E012807D1FFE78A
:1029400002980168086840F04000086006E00298BC
:102950000168086820F040000860FFE70298807E68
:10296000012807D1FFE702980168086840F02000BD
:10297000086006E002980168086820F020000860FE
:10298000FFE70298C07E012807D1FFE7029801689F
:10299000086820F01000086006E0029801680868E6
:1029A00040F010000860FFE70298007F012807D17F
:1029B000FFE702980168086840F00800086006E038
:1029C00002980168086820F008000860FFE7029894
:1029D000407F012807D1FFE702980168086840F0AE
:1029E0000400086006E002980168086820F004000E
:1029F0000860FFE7029B19685A689868D3F80CC012
:102A000040EA0C00D3F810C040EA0C005B691843A0
:102A1000013A1043C861029900204862029A0121DC
:102A200082F820108DF80F00FFE79DF80F0004B02A
:102A300080BD000080B592B01190002010900F90E2
:102A40000E900D900C901198006846F60001C4F2AB
:102A5000000188426BD1FFE7FFE700200B9043F6AF
:102A60004000C4F20200016841F08061016000682A
:102A700000F080600B900B98FFE7FFE700200A90C2
:102A800043F64000C4F20200016841F000710160A9
:102A9000006800F000700A900A98FFE7FFE7002046
:102AA000099043F63000C4F20200016841F00201CF
:102AB0000160006800F0020009900998FFE72020FB
:102AC0000C90022001900D90012006900E900320A2
:102AD00002900F9009200390109040F20040C4F241
:102AE000020004900CA9059100F0B0FBDDF804C0D1
:102AF000029B039A049805994FF0400ECDF820E010
:102B0000CDF830E0CDF834C04FF0000CCDF81CC04B
:102B1000CDF838C00F93109200F098FB0699079AF1
:102B2000089800F01FFE089800F012FEFFE712B0B0
:102B300080BD000081B0009001B0704780B58AB0C0
:102B40000990099800216A4607ABFFF747FB00BBD5
:102B5000FFE7009841F64831C2F200010968884257
:102B600006D1FFE79DF8101007A8FDF7B7FEFFE7B5
:102B700041F64530C2F200000078012808DBFFE78B
:102B800041F64531C2F20001087801380870FFE7CC
:102B900007E041F64531C2F20001087805300870BF
:102BA000FFE741F64530C2F200000078322804DB2E
:102BB000FFE70220FDF7FCFE0CE041F64C30C2F2CC
:102BC00000000078022804D1FFE70020FDF7F0FEA6
:102BD000FFE7FFE70AB080BD81B0009001B0704709
:102BE00081B0009001B0704781B0009001B0704793
:102BF00080B584B00290029890F8200001282FD16F
:102C0000FFE70299022081F8200002980168086815
:102C100020F00100086000F00DFD0190FFE7029830
:102C200000684068C007A8B1FFE700F003FD019904
:102C3000401A0B280DD3FFE70299486A40F4003090
:102C400048620299052081F8200001208DF80F00CC
:102C50000FE0E4E70299002048628DF80F0008E0D9
:102C60000299486A40F40020486201208DF80F0064
:102C7000FFE79DF80F0004B080BD000081B0009018
:102C800001B0704781B0009001B0704781B00090F2
:102C900001B0704781B0009001B0704781B00090E2
:102CA00001B0704781B0009001B0704781B00090D2
:102CB00001B0704780B586B005900020039040F2C7
:102CC0002400C2F20000006848F2B511C1F64E318E
:102CD000A0FB0110800A02900598806D0190019878
:102CE0000068049004980599C96DC8400007002841
:102CF0001AD5FFE70598006800684007002812D53C
:102D0000FFE705980168086820F00400086005984E
:102D1000C16D08208840019988600599486D40F090
:102D200001004865FFE7FFE704980599C96DC840B1
:102D3000C007A0B1FFE705980068406900060028B9
:102D40000CD5FFE70598C16D012088400199886086
:102D50000599486D40F002004865FFE7FFE70498D9
:102D60000599C96DC8404007002814D5FFE70598AC
:102D700000680068800700280CD5FFE70598C16D42
:102D800004208840019988600599486D40F004004E
:102D90004865FFE7FFE704980599C96DC840C0067C
:102DA000002847D5FFE7059800680068000700285D
:102DB0003FD5FFE70598C16D1020884001998860D4
:102DC000059800680068400300281AD5FFE70598B9
:102DD000006800680003002809D4FFE70598006C2C
:102DE00020B1FFE70598016C8847FFE708E00598E8
:102DF000806C20B1FFE70598816C8847FFE7FFE70B
:102E000016E0059800680068C005002807D4FFE7B1
:102E100005980168086820F008000860FFE7059839
:102E2000006C20B1FFE70598016C8847FFE7FFE7DA
:102E3000FFE7FFE704980599C96DC84080060028A0
:102E400040F18D80FFE7059800680068C006002803
:102E500040F18480FFE70598C16D202088400199EA
:102E60008860059890F83500052834D1FFE705986B
:102E70000168086820F01600086005980168486934
:102E800020F0800048610598006C20B9FFE70598A4
:102E9000806C38B1FFE705980168086820F00800E9
:102EA0000860FFE70598C16D3F2088400199886060
:102EB0000599012081F83500FFE70599002081F888
:102EC0003400FFE70598006D20B1FFE70598016D1C
:102ED0008847FFE77BE0059800680068400300280A
:102EE0001AD5FFE70598006800680003002809D498
:102EF000FFE70598406C20B1FFE70598416C8847D3
:102F0000FFE708E00598C06B20B1FFE70598C16BAB
:102F10008847FFE7FFE720E0059800680068C005E4
:102F2000002811D4FFE705980168086820F0100018
:102F300008600599012081F83500FFE70599002018
:102F400081F83400FFE7FFE70598C06B20B1FFE789
:102F50000598C16B8847FFE7FFE7FFE7FFE70598A4
:102F6000406DA0B3FFE70598406DC00730B3FFE7A1
:102F70000599052081F8350005980168086820F05A
:102F800001000860FFE7039801300390029988422E
:102F900001D9FFE707E0FFE7059800680068C00770
:102FA0000028F0D1FFE70599012081F83500FFE7FF
:102FB0000599002081F83400FFE7FFE70598C06C11
:102FC00020B1FFE70598C16C8847FFE7FFE706B02F
:102FD00080BD000080B586B004900020039000F012
:102FE00029FB0290049820B9FFE701208DF8170013
:102FF000A3E00498406A08B1FFE7FFE704990220C4
:1030000081F83500FFE70499002081F83400FFE7DC
:1030100004980168086820F001000860FFE7049840
:1030200000680068C00790B1FFE700F003FB029959
:10303000401A06280AD3FFE704992020486504991E
:10304000032081F835008DF8170076E0E7E7049853
:10305000006800680390039848F23F01CFF2100126
:1030600008400390049900914868D1F808C0CB68E3
:103070000A6940EA0C00184310434A6910438A6900
:103080001043CA691043096A014303980843039037
:103090000498406A042808D1FFE70499C86A096BBC
:1030A0000143039808430390FFE7039804990968D4
:1030B00008600498006840690390039820F00700B6
:1030C00003900498416A0398084303900498406A67
:1030D00004281AD1FFE70498816A039808430390F3
:1030E0000498C06A80B1FFE70498FDF701FF50B172
:1030F000FFE70499402048650499012081F83500D4
:103100008DF8170019E0FFE7FFE7039804990968B5
:1031100048610498FDF7C0FE01900498C16D3F20FE
:10312000884001998860049900204865049A01212B
:1031300082F835108DF81700FFE79DF8170006B0EC
:1031400080BD000080B588B006900591049203937D
:1031500000208DF80B000698806D0190FFE706981F
:1031600090F83400012804D1FFE702208DF81F00F9
:1031700045E00699012081F83400FFE7FFE7069853
:1031800090F8350001282BD1FFE70699022081F83D
:10319000350006990020486506980599049A039B16
:1031A000FDF71EFF0698C16D3F2088400199886099
:1031B00006980168086840F0160008600698006CE0
:1031C00038B1FFE706980168086840F00800086019
:1031D000FFE706980168086840F00100086009E010
:1031E000FFE70699002081F83400FFE702208DF800
:1031F0000B00FFE79DF80B008DF81F00FFE79DF81F
:103200001F0008B080BD000080B584B0039000F0BE
:1032100011FA0290039801900198013048B1FFE73C
:1032200040F2FC00C2F200000178019808440190CD
:10323000FFE7FFE700F0FEF90299401A0199884282
:1032400001D2FFE7F6E704B080BD00008EB00D901C
:103250000C9100200A90099008900B90FFE70B98C2
:103260000F2800F2CC81FFE70B99012088400A90DB
:103270000C9800680A990840099009980A998842B0
:1032800040F0B881FFE70C98406800F00300012887
:1032900007D0FFE70C98406800F0030002282FD108
:1032A000FFE70D98806808900B984100032000FA12
:1032B00001F10898884308900C98C0680B99490060
:1032C00000FA01F108980843089008980D99886061
:1032D0000D98406808900B99012000FA01F10898B8
:1032E000884308900C984068C0F300100B9900FACE
:1032F00001F108980843089008980D994860FFE785
:103300000C98406800F00300032818D0FFE70D98E0
:10331000C06808900B984100032000FA01F108985A
:10332000884308900C9880680B99490000FA01F1D5
:1033300008980843089008980D99C860FFE70C9812
:10334000406800F00300022826D1FFE70D980B9992
:103350006FF0030202EA51010844006A08900B98DA
:1033600000F0070081000F2000FA01F1089888435F
:1033700008900C9800690B9901F00701890000FA88
:1033800001F108980843089008980D990B9B02EAF0
:10339000530211440862FFE70D98006808900B98EB
:1033A0004100032000FA01F10898884308900C9826
:1033B000406800F003000B99490000FA01F10898F9
:1033C0000843089008980D9908600C988079800748
:1033D000002800F00E81FFE7FFE70020079043F68A
:1033E0004400C4F20200016841F4804101600068B9
:1033F00000F4804007900798FFE70B9820F0030047
:1034000043F60801C4F20101405808900B9800F0FF
:10341000030081000F2000FA01F10898884308900A
:103420000D980021C4F20201884203D1FFE7002079
:1034300006905EE00D9840F20041C4F2020188421D
:1034400003D1FFE70120059050E00D9840F6000100
:10345000C4F20201884203D1FFE70220049042E057
:103460000D9840F60041C4F20201884203D1FFE703
:103470000320039034E00D9841F20001C4F20201F0
:10348000884203D1FFE70420029026E00D9841F224
:103490000041C4F20201884203D1FFE705200190F8
:1034A00018E00D9841F60001C4F20201884203D1F0
:1034B000FFE7062000900AE00D9941F60042C4F2B1
:1034C00002020820914208BF07200090FFE7009801
:1034D0000190FFE701980290FFE702980390FFE751
:1034E00003980490FFE704980590FFE7059806907D
:1034F000FFE70698C0B20B9901F00301890000FABA
:1035000001F108980843089008980B9921F00301ED
:1035100043F60802C4F20102885043F60840C4F2A0
:1035200001000068089009990898884308900C9851
:103530008079C006002805D5FFE709990898084357
:103540000890FFE7089843F60841C4F201010860BB
:1035500043F60C40C4F201000068089009990898ED
:10356000884308900C9880798006002805D5FFE7ED
:103570000999089808430890FFE7089843F60C411A
:10358000C4F20101086043F60440C4F2010000687F
:10359000089009990898884308900C9880798007CA
:1035A000002805D5FFE70999089808430890FFE728
:1035B000089843F60441C4F20101086043F6004054
:1035C000C4F201000068089009990898884308909F
:1035D0000C988079C00728B1FFE70999089808433B
:1035E0000890FFE7089843F60041C4F20101086023
:1035F000FFE7FFE7FFE70B9801300B902FE60EB0D7
:103600007047000082B00190ADF802108DF80120E3
:103610009DF8010028B1FFE7BDF80200019988611B
:1036200005E0BDF80200000401998861FFE702B0DF
:103630007047000042F63030C2F200000068704768
:1036400040F2FC00C2F20000027842F63031C2F2D1
:1036500000010868104408607047000080B543F618
:103660000041C4F20201086840F400700860086874
:1036700040F480600860086840F4807008600320AF
:1036800000F08AF80F2000F005F800F03BF8002069
:1036900080BD000080B582B0009040F22400C2F2EC
:1036A0000000006840F2FC01C2F200010A784FF409
:1036B0007A71B1FBF2F1B0FBF1F002F0F7FD20B14D
:1036C000FFE701208DF8070018E000980F280DD8BB
:1036D000FFE700994FF0FF30002200F043F8009818
:1036E00040F20011C2F20001086003E001208DF8F1
:1036F000070003E000208DF80700FFE79DF80700B2
:1037000002B080BD82B0FFE70020019043F6440084
:10371000C4F20200016841F480410160006800F4D5
:10372000804001900198FFE7FFE70020009043F6FA
:103730004000C4F20200016841F08051016000685D
:1037400000F0805000900098FFE702B07047000042
:1037500080B582B08DF807009DF907000AF0BAFA2B
:1037600002B080BD80B586B08DF817000491039239
:10377000002002900AF0C6FA02909DF9170001900D
:1037800002980499039A04F043FD014601980AF057
:10379000C1FA06B080BD000080B582B001900198EA
:1037A0000AF0DAFA02B080BD82B001908DF8031001
:1037B00002B0704782B00190ADF80210BDF802006F
:1037C000019909684862002002B0704784B00390F4
:1037D0008DF80B10ADF8082003980068406A00903F
:1037E0009DF80B0048B9FFE7BDF80810009840EAC3
:1037F000014003990968886233E003980068816A90
:10380000009800EB1140009000208DF80700FFE7C2
:103810009DF807009DF80B100139884213D2FFE78D
:10382000039800689DF8071000EB8100D0F80411A0
:10383000009800EB11400090FFE79DF80700013071
:103840008DF80700E4E7BDF80810009840EA014051
:10385000039909689DF80B2001EB8201C1F8000172
:10386000FFE7002004B0704780B582B00190019856
:10387000D0F8E00408F06AF802B080BD80B582B0EC
:1038800001908DF80310019AD2F8E0049DF803101E
:1038900001EBC10302EB8302126A07F0ABFE02B038
:1038A00080BD000080B582B001908DF80310019AB0
:1038B000D2F8E0049DF8031001EBC10302EB830290
:1038C000D2F8602207F064FF02B080BD80B582B0FC
:1038D00001900198D0F8E00408F03EF802B080BDF5
:1038E00080B584B003908DF80B109DF80B00000696
:1038F00000280CD5FFE703989DF80B1001F00F018D
:1039000001EBC10100EB8100143001900CE0039841
:103910009DF80B1001F00F0101EBC10100EB8100DC
:1039200000F515700190FFE703980068019909F010
:10393000AFFD8DF80A009DF80A0004B080BD0000BC
:1039400080B584B002908DF807109DF8070000063E
:1039500000280FD5FFE702989DF8071001F00F012E
:1039600001EBC10100EB81001430009000990120AF
:1039700048700FE002989DF8071001F00F0101EB6D
:10398000C10100EB810000F5157000900099002046
:103990004870FFE79DF8070000F00F0000990870DD
:1039A000FFE7029890F89404012804D1FFE7022071
:1039B0008DF80F0014E00299012081F89404FFE7CC
:1039C000FFE702980068009909F052F8FFE70299B2
:1039D000002081F89404FFE700208DF80F00FFE736
:1039E0009DF80F0004B080BD80B584B002908DF8C2
:1039F00007109DF8070000F00F000299097988422E
:103A000004D9FFE701208DF80F004DE09DF8070075
:103A1000000600280FD5FFE702989DF8071001F077
:103A20000F0101EBC10100EB8100143000900099FF
:103A3000012048700FE002989DF8071001F00F0177
:103A400001EBC10100EB810000F5157000900099B9
:103A500000204870FFE70099002088709DF807005B
:103A600000F00F0000990870FFE7029890F89404A6
:103A7000012804D1FFE702208DF80F0014E002991D
:103A8000012081F89404FFE7FFE70298006800999D
:103A900009F05EFAFFE70299002081F89404FFE73D
:103AA00000208DF80F00FFE79DF80F0004B080BDE7
:103AB00082B001908DF8031001989DF8031001F079
:103AC0000F0101EBC10100EB8100D0F8680202B0E8
:103AD0007047000080B586B004908DF80F10ADF8E7
:103AE0000C208DF80B3000208DF80A009DF80F0097
:103AF000000600280FD5FFE704989DF80F1001F08D
:103B00000F0101EBC10100EB81001430019001991C
:103B1000012048700FE004989DF80F1001F00F018C
:103B200001EBC10100EB810000F5157001900199D6
:103B300000204870FFE79DF80F0000F00F0001998A
:103B40000870BDF80C006FF3DF20019988609DF8C4
:103B50000B00019908710198407820B1FFE70199A5
:103B600008784883FFE79DF80B00022804D1FFE79F
:103B7000019900204871FFE7FFE7049890F894044A
:103B8000012804D1FFE702208DF8170015E0049901
:103B9000012081F89404FFE7FFE704980068019989
:103BA00008F01EFEFFE70499002081F89404FFE767
:103BB0009DF80A008DF81700FFE79DF8170006B082
:103BC00080BD000080B586B005908DF8131003927B
:103BD000029305989DF8131001F00F0101EBC1014C
:103BE00000EB810000F51570019003980199C86001
:103BF0000298019908610199002048610199487073
:103C00009DF8130000F00F00019908700598807965
:103C1000012804D1FFE703980199C861FFE7059ADD
:103C200010680199927909F037FA002006B080BD3A
:103C300080B584B002908DF807109DF8070000F061
:103C40000F0002990979884204D9FFE701208DF815
:103C50000F0058E09DF80700000600280FD5FFE789
:103C600002989DF8071001F00F0101EBC10100EB74
:103C70008100143000900099012048700DE00298F6
:103C80009DF8071001EBC10100EB810000F51570F4
:103C90000090009900204870FFE70099012088708B
:103CA0009DF8070000F00F0000990870FFE70298E8
:103CB00090F89404012804D1FFE702208DF80F004A
:103CC00021E00299012081F89404FFE7FFE70298C0
:103CD0000068009909F08CF99DF80700000740B9C9
:103CE000FFE7029A1068917902F29C4209F0E0F82D
:103CF000FFE7FFE70299002081F89404FFE7002026
:103D00008DF80F00FFE79DF80F0004B080BD0000A4
:103D100080B586B005908DF8131003920293059834
:103D20009DF8131001F00F0101EBC10100EB8100C0
:103D30001430019003980199C860029801990861B4
:103D40000199002048610199012048709DF81300F5
:103D500000F00F000199087005988079012804D1BE
:103D6000FFE703980199C861FFE7059A1068019978
:103D7000927909F091F9002006B080BD80B58CB031
:103D80000B900B9800680A900A9809900B980068AD
:103D900009F0B4FC002840F00C84FFE70B980068A1
:103DA00009F018FD10B9FFE700F003BC0998D0F83E
:103DB0000808C0F30D200B99C1F8D4040B980068D3
:103DC00009F008FD8007002807D5FFE70B98016878
:103DD000486900F002004861FFE70B98006809F0AD
:103DE000F9FCC006002862D5FFE70B9801688869D6
:103DF00020F0100088610A98006A02900B980299DE
:103E000001F00F0101EBC10100EB810000F515701D
:103E10000890029800F4F0110220B0EB514F23D12A
:103E2000FFE7BDF8080047F6F07108421BD0FFE736
:103E30000A980899C968029AC2F30A1209F0D8FCD4
:103E4000029847F6F07100EA0103089AD06800EB87
:103E50001310D060029800EA01020899486900EB4B
:103E600012104861FFE71BE0029800F4F0110620F1
:103E7000B0EB514F12D1FFE70A980B9901F29C4128
:103E8000082209F0B5FC029847F6F07100EA010239
:103E90000899486900EB1210486100E0FFE7FFE76E
:103EA0000B980168886940F010008861FFE70B9863
:103EB000006809F08FFC0003002840F1A680FFE7AE
:103EC000002004900B98006809F032FC0690FFE790
:103ED0000698002800F09880FFE79DF81800C007BA
:103EE000002800F08A80FFE70B9800689DF810100A
:103EF00009F058FC05909DF81400C00760B1FFE779
:103F00000998049900EB41110120C1F8080B0B98A6
:103F1000049904F001FAFFE79DF814000007002857
:103F20000CD5FFE70998049900EB41110820C1F86E
:103F3000080B0B98049904F0A9F9FFE79DF8140009
:103F4000C006002808D5FFE70998049900EB411145
:103F50001020C1F8080BFFE79DF814008007002827
:103F60002DD5FFE70A9840690006002808D5FFE72D
:103F70000999D1F8040840F48060C1F80408FFE70B
:103F80000B98049901EBC10100EB810000F515705D
:103F900008900898C078012809D1FFE70899002007
:103FA000C8700B989DF8101000F014FBFFE70998FB
:103FB000049900EB41110220C1F8080BFFE79DF8BE
:103FC00014008006002808D5FFE70998049900EB43
:103FD00041112020C1F8080BFFE79DF8150080066D
:103FE000002809D5FFE70998049900EB41114FF427
:103FF0000050C1F8080BFFE7FFE704980130049078
:1040000006984008069063E7FFE70B98006809F000
:10401000E1FB4003002840F1C680FFE70B980068F1
:1040200009F074FB069000200490FFE70698002832
:1040300000F0B880FFE79DF81800C007002800F0E6
:10404000AA80FFE70B9800689DF8101009F082FB2A
:1040500005909DF81400C00700283ED0FFE70498A3
:1040600000F00F01012000FA01F10391039B099A6E
:10407000D2F834189943C2F834180999049A01EB1C
:104080004211C1F808090B98807901281FD1FFE778
:104090000B98049901EBC10100EB8101CA69086A20
:1040A00010440862049888B9FFE70B98049901EB63
:1040B000C10100EB8100406A40B9FFE70B99086835
:1040C00001F29C42012108F0F3FEFFE7FFE70B98A5
:1040D0009DF81010FFF7D2FBFFE79DF814000007D2
:1040E000002808D5FFE70998049900EB4111082042
:1040F000C1F80809FFE79DF81400C006002808D59C
:10410000FFE70998049900EB41111020C1F8080954
:10411000FFE79DF814004006002808D5FFE709983E
:10412000049900EB41114020C1F80809FFE79DF810
:1041300014008007002822D5FFE70A98049909F0A7
:1041400079FA0B98049901EBC10100EB810014305E
:1041500008900898C078012809D1FFE70899002045
:10416000C8700B989DF8101000F026FAFFE7099828
:10417000049900EB41110220C1F80809FFE79DF8FE
:1041800014000006002805D5FFE70B98049904F0F9
:10419000A7F9FFE7FFE7049801300490069840086C
:1041A000069043E7FFE70B98006809F013FBC00F88
:1041B00000B3FFE70999D1F8040820F00100C1F825
:1041C00004080B9890F8CC04012808D1FFE70B985D
:1041D000002180F8CC140B98FFF7E6FA03E00B9867
:1041E00000F0AAFBFFE70B980168486900F0004067
:1041F0004861FFE70B98006809F0ECFA0005002819
:1042000011D5FFE70998D0F80808C00720B1FFE7EB
:104210000B9800F01DFCFFE70B980168486900F45B
:1042200000604861FFE70B98006809F0D3FAC0040A
:10423000002840F18680FFE70999D1F8040820F0B2
:104240000100C1F804080B980068102109F0F2F988
:1042500000200790FFE707980B990979884231D22F
:10426000FFE70998079900EB41114FF67F30C1F83D
:1042700008090999079A01EB4212D2F8001921F4B2
:104280000011C2F800190999079A01EB4211C1F80F
:10429000080B0998079900EB4111D1F8000B20F4A5
:1042A0000010C1F8000B0998079900EB4111D1F8F3
:1042B000000B40F00060C1F8000BFFE707980130E9
:1042C0000790C8E70999D1F81C0840F00110C1F81F
:1042D0001C080B98C07B78B1FFE70999D1F88408D6
:1042E00040F00B00C1F884080999D1F8440840F067
:1042F0000B00C1F844080FE00999D1F8140842F204
:104300002B021043C1F814080999D1F8100840F0A5
:104310000B00C1F81008FFE70999D1F8000820F454
:10432000FE60C1F800080B9A1068917902F29C4275
:1043300008F0BEFD0B980168486900F480504861A0
:10434000FFE70B98006809F045FA800400281FD5A4
:10435000FFE70B98006808F0B3FA0B98006809F0C3
:10436000A7F90B99C8710B980068019000F0C2FC86
:10437000014601980B9AD27909F032FB0B9800F0B4
:10438000B1FA0B980168486900F400504861FFE7F2
:104390000B98006809F01EFA000700280AD5FFE70D
:1043A0000B9800F0D3FA0B980168486900F00800F8
:1043B0004861FFE70B98006809F00CFA0006002836
:1043C00025D5FFE70A99886920F0800088610120DF
:1043D0000490FFE704980B990979884216D2FFE709
:1043E0000B98049901EBC10100EB810090F8570292
:1043F000012806D1FFE70B989DF81010FFF770FA1F
:10440000FFE7FFE7049801300490E3E7FFE70B982C
:10441000006809F0DFF9C00200283CD5FFE7012061
:104420000490FFE704980B99097988422CD2FFE7A2
:104430000998049900EB4110D0F8000902900B98FC
:10444000049901EBC10100EB8100007E012816D127
:10445000FFE79DF80B000006002810D5FFE70B983A
:10446000049901EBC10100EB81010120C8750B9893
:104470009DF8101041F08001FFF732FAFFE7FFE7E7
:10448000049801300490CDE70B980168486900F466
:1044900080104861FFE70B98006809F09BF98002E3
:1044A000002856D5FFE701200490FFE704980B99F8
:1044B0000979884246D2FFE70998049900EB411038
:1044C000D0F8000B02900B98049901EBC10100EBAE
:1044D000810090F8580201282FD1FFE79DF80B00CA
:1044E0000006002829D5FFE7029800F480310B98D8
:1044F000D0F8D40400F00100B0EB114F1DD1FFE75C
:104500000B98049901EBC10100EB8101012081F8B6
:1045100057020A99886940F0800088610A984069CA
:104520000006002808D4FFE70999D1F8040840F4F0
:104530000070C1F8040805E0FFE7FFE704980130C8
:104540000490B3E70B980168486900F400104861D3
:10455000FFE70B98006809F03DF9400000280AD5F4
:10456000FFE70B98FFF780F90B980168486900F0A6
:1045700080404861FFE70B98006809F02BF940077D
:10458000002815D5FFE70B980068406802909DF859
:1045900008004007002804D5FFE70B98FFF796F9BD
:1045A000FFE7029A0B980168486810434860FFE7EC
:1045B000FFE70CB080BD000080B582B001908DF89F
:1045C00003100198D0F8E0049DF8031007F060FA9A
:1045D00002B080BD80B582B001908DF803100198C3
:1045E000D0F8E0049DF8031007F08AFA02B080BD0D
:1045F00080B58EB00C900C9820B9FFE701208DF8A3
:10460000370012E10C9800680B900C9890F8950414
:1046100040B9FFE70C99002081F894040C9800F051
:1046200009F9FFE70C99032081F895040B98B0F184
:10463000A04F04D1FFE70C9900208871FFE70C9888
:10464000006808F02BFC0C9B1868197C8DF824106E
:1046500059689A68DB680893079206910699079A49
:10466000089BDDF824C0EE46CEF800C008F050F9F3
:1046700040B1FFE70C99022081F8950401208DF8E4
:104680003700D2E00C980068002109F00BF940B126
:10469000FFE70C99022081F8950401208DF837007E
:1046A000C3E000208DF82B00FFE79DF82B000C994C
:1046B0000979884241DAFFE70C989DF82B1001EB4D
:1046C000C10100EB8101012048759DF82B000C9978
:1046D00000EBC00201EB820108759DF82B000C99DC
:1046E00000EBC00201EB8201C8850C989DF82B10ED
:1046F00001EBC10100EB8101002008760C999DF8C7
:104700002B2002EBC20201EB8201C8610C999DF8DB
:104710002B2002EBC20201EB820108620C999DF88A
:104720002B2002EBC20201EB82014862FFE79DF8F9
:104730002B0001308DF82B00B7E700208DF82B00FF
:10474000FFE79DF82B000C99097988423EDAFFE7D4
:104750000C989DF82B1001EBC10100EB81010020AA
:1047600081F855029DF82B100C9A01EBC10302EB66
:10477000830282F854120C999DF82B2002EBC2029E
:1047800001EB820181F858020C999DF82B2002EB75
:10479000C20201EB8201C1F85C020C999DF82B204A
:1047A00002EBC20201EB8201C1F860020C999DF894
:1047B0002B2002EBC20201EB8201C1F86402FFE789
:1047C0009DF82B0001308DF82B00BAE70C9B186880
:1047D000197C8DF8141059689A68DB680493039269
:1047E00002910299039A049BDDF814C0EE46CEF8BC
:1047F00000C008F005FA40B1FFE70C99022081F8EB
:10480000950401208DF837000FE00C9900200190ED
:1048100048740C99012081F895040C98006808F000
:10482000D9F901988DF83700FFE79DF837000EB0F1
:1048300080BD000080B58AB00990002008900790E4
:1048400006900590049009980068B0F1A04F47D1F8
:10485000FFE7FFE70020039043F63000C4F20200B8
:10486000016841F001010160006800F0010003905F
:104870000398FFE74FF4C0500490022005900020F9
:104880000690032007900A2008900020C4F202003E
:1048900004A9FEF7DBFCFFE743F63401C4F2020192
:1048A000086840F080000860FFE70020029043F6AF
:1048B0004400C4F20200016841F4804101600068D4
:1048C00000F4804002900298FFE7FFE74320019048
:1048D00000221146FEF746FF0198FEF739FFFFE779
:1048E0000AB080BD80B582B0019001208DF8030030
:1048F0000198C07920B9FFE700208DF803000CE093
:104900000198C079022804D1FFE701208DF8030047
:1049100002E0FCF7FFFCFFE7FFE70198D0F8E004B6
:104920009DF8031007F0EEF90198D0F8E00407F0C5
:1049300067F902B080BD000080B582B00190019897
:10494000D0F8E00407F0ACF902B080BD80B582B0C9
:1049500001900198D0F8E00407F0B4F902B080BDEE
:1049600080B584B002908DF80710FFE7029890F8A8
:104970009404012804D1FFE702208DF80F0019E00C
:104980000299012081F89404FFE7FFE79DF80700F2
:1049900002994874029800689DF8071008F0F2FF29
:1049A000FFE70299002081F89404FFE700208DF8CA
:1049B0000F00FFE79DF80F0004B080BD80B582B006
:1049C00001900199D1F8E00401F29C4107F0C4F98B
:1049D00002B080BD80B584B002900298006801905A
:1049E000FFE7029890F89404012804D1FFE7022021
:1049F0008DF80F0028E00299012081F89404FFE768
:104A0000FFE70198C068400600280BD5FFE7029831
:104A1000407B012806D1FFE70199886B40F4803084
:104A20008863FFE70298006808F0C0FD02980068FC
:104A300008F0BAF8FFE70299002081F89404FFE734
:104A400000208DF80F00FFE79DF80F0004B080BD37
:104A500080B582B001900198D0F8E00407F0FEF92B
:104A600001980168D1F8000E40F00100C1F8000E75
:104A70000198C07A48B1FFE74EF61051CEF200011E
:104A8000086840F006000860FFE702B080BD000043
:104A900080B584B002900191029820B9FFE701200F
:104AA0008DF80F0021E1019843F60041C4F20201A4
:104AB000096801F00701884212D9FFE7019943F61E
:104AC0000040C4F202000170006800F00700019984
:104AD000884204D0FFE701208DF80F0005E1FFE7D1
:104AE00002980078800700282AD5FFE7029800780E
:104AF0004007002809D5FFE743F60801C4F2020188
:104B0000086840F4E0500860FFE70298007800076A
:104B1000002809D5FFE743F60801C4F2020108683E
:104B200040F460400860FFE743F60801C4F2020168
:104B3000086820F0F000029A926810430860FFE7CE
:104B400002980078C00700286ED0FFE702984068FE
:104B5000012811D1FFE743F60000C4F2020000680B
:104B600000F400310020B0EB514F04D1FFE70120E9
:104B70008DF80F00B9E02CE002984068022805D0BB
:104B8000FFE702984068032811D1FFE743F60000D1
:104B9000C4F20200006800F000710020B0EB516F19
:104BA00004D1FFE701208DF80F009EE010E043F6EE
:104BB0000000C4F20200006800F002010020B0EB27
:104BC000510F04D1FFE701208DF80F008DE0FFE7C2
:104BD000FFE743F60801C4F20201086820F0030071
:104BE000029A526810430860FEF724FD0090FFE728
:104BF00043F60800C4F20200006800F00C000299BD
:104C00004968B0EB810F0ED0FFE7FEF713FD009966
:104C1000401A41F28931884204D3FFE703208DF81E
:104C20000F0062E0E4E7FFE7019843F60041C4F2B9
:104C30000201096801F00701884212D2FFE70199D9
:104C400043F60040C4F202000170006800F0070063
:104C50000199884204D0FFE701208DF80F0044E05D
:104C6000FFE702980078400700280CD5FFE743F6DD
:104C70000801C4F20201086820F4E050029AD268E8
:104C800010430860FFE702980078000700280DD560
:104C9000FFE743F60801C4F20201086820F460400F
:104CA000029A126940EAC2000860FFE700F04CF87F
:104CB00043F60801C4F202010968C9B20A0943F2C5
:104CC0000831C0F60101895CC84040F22401C2F2FB
:104CD0000001086040F20010C2F200000068FEF718
:104CE000D9FC00208DF80F00FFE79DF80F0004B0FD
:104CF00080BD000040F22400C2F20000006870474E
:104D000080B5FFF7F7FF43F60801C4F20201096816
:104D1000C1F3822243F21831C0F60101895CC84018
:104D200080BD000080B5FFF7E5FF43F60801C4F23F
:104D30000201096889B24A0B43F21831C0F6010139
:104D4000895CC84080BD000080B586B00020059019
:104D500004900390029043F60800C4F20200006839
:104D600000F00C000146019140B1FFE701980428D2
:104D70000AD0FFE7019808280CD04FE042F200402B
:104D8000C0F2F40002904FE047F64000C0F27D1000
:104D9000029049E043F60400C4F20200016801F009
:104DA0003F01059100684002002813D5FFE743F654
:104DB0000400C4F202000068C0F3881047F6400106
:104DC000C0F27D11A0FB0101059A0023FBF7F8F961
:104DD000049012E043F60400C4F202000068C0F33D
:104DE000881042F20041C0F2F401A0FB0101059AD3
:104DF0000023FBF7E5F90490FFE743F60400C4F253
:104E00000200006800F44031022000EBD130039032
:104E100004980399B0FBF1F0029005E042F20040E3
:104E2000C0F2F4000290FFE7029806B080BD0000D7
:104E300080B586B00490049820B9FFE701208DF872
:104E4000170050E304980078C007002800F0A58000
:104E5000FFE743F60800C4F20200006800F00C000F
:104E6000042813D0FFE743F60800C4F202000068EC
:104E700000F00C0008281ED1FFE743F60400C4F23E
:104E8000020000684002002815D5FFE743F6000045
:104E9000C4F20200006800F400310020B0EB514F72
:104EA00008D0FFE70498406820B9FFE701208DF89B
:104EB000170018E370E0FFE704984068B0F5803F02
:104EC00009D1FFE743F60001C4F20201086840F48B
:104ED0008030086020E004984068B0F5A02F0DD124
:104EE000FFE743F60001C4F20201086840F48020A5
:104EF0000860086840F4803008600CE043F6000168
:104F0000C4F20201086820F480300860086820F4C8
:104F100080200860FFE7FFE7FFE704984068E8B1FA
:104F2000FFE7FEF787FB0390FFE743F60000C4F2BC
:104F30000200006800F400310020B0EB514F0CD1AA
:104F4000FFE7FEF777FB0399401A652804D3FFE7D4
:104F500003208DF81700C6E2E7E71CE0FEF76AFBC6
:104F60000390FFE743F60000C4F20200006800F47B
:104F700000310020B0EB514F0CD0FFE7FEF75AFB99
:104F80000399401A652804D3FFE703208DF8170022
:104F9000A9E2E7E7FFE7FFE7FFE70498007880076B
:104FA000002840F19680FFE743F60800C4F20200B3
:104FB000006810F00C0F13D0FFE743F60800C4F2AE
:104FC0000200006800F00C0008282CD1FFE743F62F
:104FD0000400C4F2020000684002002823D4FFE766
:104FE00043F60000C4F20200006800F00201002055
:104FF000B0EB510F09D0FFE70498C068012804D036
:10500000FFE701208DF817006DE243F60001C4F2BE
:105010000201086820F0F800049A126940EAC20010
:105020000860FFE754E00498C06870B3FFE7002110
:10503000C4F2472101200860FEF7FCFA0390FFE765
:1050400043F60000C4F20200006800F002010020F4
:10505000B0EB510F0CD1FFE7FEF7ECFA0399401AC1
:10506000032804D3FFE703208DF817003BE2E7E7AE
:1050700043F60001C4F20201086820F0F800049A27
:10508000126940EAC200086021E00021C4F2472111
:1050900000200860FEF7CEFA0390FFE743F6000019
:1050A000C4F20200006800F002010020B0EB510FD2
:1050B0000CD0FFE7FEF7BEFA0399401A032804D389
:1050C000FFE703208DF817000DE2E7E7FFE7FFE7B2
:1050D000FFE704980078000700284BD5FFE7049805
:1050E000406918B3FFE740F68061C4F24721012010
:1050F0000860FEF79FFA0390FFE743F67400C4F2DE
:105100000200006800F002010020B0EB510F0CD14A
:10511000FFE7FEF78FFA0399401A032804D3FFE74D
:1051200003208DF81700DEE1E7E722E040F680611A
:10513000C4F2472100200860FEF77CFA0390FFE7E5
:1051400043F67400C4F20200006800F0020100207F
:10515000B0EB510F0CD0FFE7FEF76CFA0399401A41
:10516000032804D3FFE703208DF81700BBE1E7E72E
:10517000FFE7FFE7049800784007002840F1CE8061
:10518000FFE700208DF8070043F64000C4F202005C
:105190000068C000002815D4FFE7FFE7002000905A
:1051A00043F64000C4F20200016841F08051016002
:1051B000006800F0805000900098FFE701208DF813
:1051C0000700FFE747F20000C4F200000068C005D6
:1051D000002822D4FFE747F20001C4F2000108686A
:1051E00040F480700860FEF725FA0390FFE747F26D
:1051F0000000C4F200000068C00500280CD4FFE7DE
:10520000FEF718FA0399401A032804D3FFE7032096
:105210008DF8170067E1EAE7FFE7FFE70498806889
:10522000012809D1FFE743F67001C4F202010868C2
:1052300040F0010008601FE00498806805280DD147
:10524000FFE743F67001C4F20201086840F0040071
:105250000860086840F0010008600CE043F6700147
:10526000C4F20201086820F001000860086820F01C
:1052700004000860FFE7FFE7FFE704988068F8B1E3
:10528000FFE7FEF7D7F90390FFE743F67000C4F29B
:105290000200006800F002010020B0EB510F0ED1B7
:1052A000FFE7FEF7C7F90399401A41F289318842B6
:1052B00004D3FFE703208DF8170014E1E5E71EE0B3
:1052C000FEF7B8F90390FFE743F67000C4F202005E
:1052D000006800F002010020B0EB510F0ED0FFE794
:1052E000FEF7A8F90399401A41F28931884204D3A4
:1052F000FFE703208DF81700F5E0E5E7FFE79DF8ED
:105300000700012809D1FFE743F64001C4F202017A
:10531000086820F080500860FFE7FFE70498806984
:10532000002800F0DC80FFE743F60800C4F202002A
:10533000006800F00C00082800F08580FFE7049862
:10534000806902285CD1FFE76021C4F24721002078
:105350000860FEF76FF90390FFE743F60000C4F220
:105360000200006800F000710020B0EB516F0CD01B
:10537000FFE7FEF75FF90399401A032804D3FFE71C
:1053800003208DF81700AEE0E7E70499C869D1F86B
:1053900020C04B6A8A6A40EA0C0040EA8310D203BC
:1053A0004FF6FF739A43A2F580321043C96A40EA70
:1053B000016043F60401C4F2020108606021C4F2F6
:1053C000472101200860FEF735F90390FFE743F617
:1053D0000000C4F20200006800F000710020B0EB91
:1053E000516F0CD1FFE7FEF725F90399401A032806
:1053F00004D3FFE703208DF8170074E0E7E721E00E
:105400006021C4F2472100200860FEF713F90390E1
:10541000FFE743F60000C4F20200006800F00071EC
:105420000020B0EB516F0CD0FFE7FEF703F90399B2
:10543000401A032804D3FFE703208DF8170052E039
:10544000E7E7FFE74AE004988069012804D1FFE715
:1054500001208DF8170046E043F60400C4F2020074
:105460000068029004988069012831D0FFE7029813
:1054700000F480000499C969884229D1FFE70298A5
:1054800000F03F000499096A884221D1FFE70298A1
:1054900047F6C07108400499496AB0EB811F17D1E3
:1054A000FFE7029800F440300499896AC9034FF677
:1054B000FF729143A1F58031884209D1FFE702983C
:1054C00000F070600499C96AB0EB016F04D0FFE787
:1054D00001208DF8170006E0FFE7FFE7FFE7002057
:1054E0008DF81700FFE79DF8170006B080BD00009B
:1054F00081B0009001B0704780B584B002900298EE
:1055000020B9FFE701208DF80F0072E00298406A91
:1055100060B9FFE702984068B0F5827F01D1FFE7EC
:1055200003E002990020C861FFE705E0029900202E
:10553000086102994861FFE7029900208862029899
:1055400090F8510040B9FFE70299002081F850001F
:10555000029800F053F8FFE70299022081F8510009
:1055600002980168086820F040000860029A0192E1
:1055700011685068D2F808C0D36800F482700CF447
:10558000044C604403F400631844136903F00203FD
:105590001844536903F001031844936903F400733A
:1055A0001844D36903F038031844136A03F08003E6
:1055B0001843926A02F4005210430860029801688E
:1055C0008369426A042000EA134002F0100210448A
:1055D000486002980168C86920F40060C8610299B7
:1055E00000204865029A012182F851108DF80F00C1
:1055F000FFE79DF80F0004B080BD000080B58EB0BD
:105600000D9000200C900B900A90099008900D9836
:10561000006843F60001C4F20001884234D1FFE77C
:10562000FFE70020079043F64000C4F20200016843
:1056300041F480410160006800F4804007900798C1
:10564000FFE7FFE70020069043F63000C4F20200B7
:10565000016841F002010160006800F0020006905C
:105660000698FFE74FF4604008900220099000215F
:105670000A910B9005200C9040F20040C4F2020009
:1056800008A9FDF7E3FD93E00D98006843F600419B
:10569000C4F20001884240F08A80FFE7FFE7002063
:1056A000059043F64000C4F20200016841F4004155
:1056B0000160006800F4004005900598FFE7FFE7EF
:1056C0000020049043F63000C4F20200016841F06B
:1056D00004010160006800F0040004900498FFE7F2
:1056E0004FF4E050089002200990002002900A90A8
:1056F00001200B9006200C9040F60000C4F202003E
:1057000008A9FDF7A3FD029942F25420C2F200005D
:10571000039046F21002C4F202020260416081600E
:10572000C1604FF48062026141618161C1614FF4E7
:10573000003202624162FDF74DFC18B1FFE7FBF752
:10574000E9FDFFE7FFE70D9842F25421C2F20001A4
:10575000C1640D988863FFE742F2B420C2F20000F2
:10576000019046F28801C4F202010160002141600B
:1057700040228260C1604FF48062026141618161B8
:10578000C1614FF4003202624162FDF723FC18B19F
:10579000FFE7FBF7BFFDFFE7FFE70D9842F2B421FB
:1057A000C2F2000181640D988863FFE7FFE7FFE71D
:1057B0000EB080BD80B588B006900591ADF812207E
:1057C0000393069890F85100012804D0FFE70220C7
:1057D0008DF81F0011E1059820B1FFE7BDF8120018
:1057E00020B9FFE701208DF81F0006E10698406808
:1057F000B0F5827F16D1FFE70698806890B9FFE781
:105800000699042081F851000698059ABDF81230D7
:105810000399EC46CCF80010114600F04DFA8DF8D3
:105820001F00EAE0FDF706FF0290FFE7069890F8F8
:105830005000012804D1FFE702208DF81F00DCE0B2
:105840000699012081F85000FFE7FFE70699042040
:1058500081F851000699002048650599069A9163E0
:10586000BDF81210069A9187BDF81210069AD187DA
:1058700006990863069988860699C8860699086479
:105880000699486406988068B0F5004F0DD1FFE78F
:1058900006980168086820F04000086006980168D2
:1058A000086820F480400860FFE7069800680068F8
:1058B00000F04000402807D0FFE70698016808681C
:1058C00040F040000860FFE70698C068D0BBFFE7E3
:1058D000FFE70698C08FA0B3FFE7069800688068CE
:1058E000C00778B1FFE706980068007B0699896BCE
:1058F00008700699886B013088630699C88F013853
:10590000C8871DE0FDF796FE0299401A0399884268
:1059100004D3FFE70398013018B9FFE7039870B983
:10592000FFE70699012081F85100FFE70699002062
:1059300081F85000FFE703208DF81F005DE0FFE7CE
:10594000C7E739E0FFE70698C08FA0B3FFE70698E6
:1059500000688068C00778B1FFE706980068C068F3
:105960000699896B08800699886B023088630699CE
:10597000C88F0138C8871DE0FDF75CFE0299401A08
:105980000399884204D3FFE70398013018B9FFE771
:10599000039870B9FFE70699012081F85100FFE7ED
:1059A0000699002081F85000FFE703208DF81F00C2
:1059B00023E0FFE7C7E7FFE706980399029A03F0A1
:1059C00013FA20B1FFE7069920204865FFE7069902
:1059D000012081F85100FFE70699002081F850006E
:1059E000FFE70698406D20B1FFE701208DF81F000A
:1059F00003E000208DF81F00FFE79DF81F0008B0AE
:105A000080BD000081B0009001B0704781B000906F
:105A100001B0704780B588B006900591ADF81220AE
:105A20000393FDF707FE0290BDF81200ADF80600E3
:105A3000069890F85100012804D0FFE702208DF865
:105A40001F0034E1059820B1FFE7BDF8120020B92E
:105A5000FFE701208DF81F0029E1FFE7069890F885
:105A60005000012804D1FFE702208DF81F001EE13D
:105A70000699012081F85000FFE7FFE7069903200F
:105A800081F851000699002048650599069A11632E
:105A9000BDF81210069A9186BDF81210069AD186AA
:105AA00006998863069988870699C8870699486485
:105AB0000699086406988068B0F5004F0DD1FFE79D
:105AC00006980168086820F04000086006980168A0
:105AD000086840F480400860FFE7069800680068A6
