:020000040800F2
:10400000502900209D4100088DAD000885A60008BC
:1040100089AD0008CD4A0008C1E200080000000098
:1040200000000000000000000000000099B100083E
:10403000054C000800000000C1AD00089DB100085B
:10404000B7410008B7410008B7410008B741000870
:10405000B7410008B7410008B7410008B741000860
:10406000B7410008B7410008B7410008B14B00084C
:10407000B7410008B7410008BD4B0008B741000830
:10408000C94B0008B7410008B7410008B741000814
:10409000B7410008B7410008B7410008B741000820
:1040A000B7410008B7410008B7410008B741000810
:1040B000B7410008B7410008B7410008B741000800
:1040C000B7410008B7410008B7410008B7410008F0
:1040D000B7410008BDBA0008B7410008B741000861
:1040E000B7410008B7410008B7410008B7410008D0
:1040F000D1B20008B7410008B7410008B741000835
:10410000B7410008B7410008B7410008C5AD000835
:10411000B7410008B7410008B7410008B74100089F
:10412000D54B0008B7410008E14B0008B741000833
:10413000B74100080000000000000000B74100087F
:10414000D14A0008B7410008B741000891AD000806
:10415000ED4B0008B7410008F94B0008B7410008D3
:10416000B7410008B7410008B7410008B74100084F
:10417000B7410008B741000800000000000000003F
:10418000B7410008B7410008DFF80CD000F0D2FAC0
:1041900000480047C93801085029002006488047D8
:1041A00006480047FEE7FEE7FEE7FEE7FEE7FEE71C
:1041B000FEE7FEE7FEE7FEE751B20008894100088E
:1041C0002DE9F05F0546002092469B46884606464C
:1041D000814640241BE0284641464746224600F0DF
:1041E000CAF953465A46C01A914110D3114618468F
:1041F000224600F0B1F92D1A67EB01084F4622461E
:104200000120002100F0A8F917EB00094E41201E03
:10421000A4F10104DFDC484631462A464346BDE8A6
:10422000F09F40EA01039B0703D009E008C9121F71
:1042300008C0042AFAD203E011F8013B00F8013B60
:10424000521EF9D27047D2B201E000F8012B491E8C
:10425000FBD270470022F6E710B513460A46044623
:104260001946FFF7F0FF204610BD421C10F8011B55
:104270000029FBD1801A70472DE9FE4F804681EA64
:104280000300C00F0C46009021F0004123F00045D0
:10429000B8EB0200A94105D24046214690461C4693
:1042A0000B46024623F00040104347D0270DC7F3CA
:1042B0000A00C3F30A510290401A019040286BDAB9
:1042C000C3F3130040F4801B0098924620B10023F2
:1042D000D2EB030A63EB0B0B01985946C0F1400285
:1042E000504600F039F906460D4650465946019AA7
:1042F00000F051F910EB08006141002487EA1152E7
:1043000084EAE7731A4340D0009A62B3019A012A03
:104310004FEA075215DC001B61EB02014FF000422F
:1043200002EA0752CDE90042001C41F580113246F5
:104330002B4600F0B1F903B0BDE8F08F40462146AE
:10434000F9E7001B61EB0201001C41F58013001826
:104350005B412018A2F5001747EB030140EAD57036
:10436000B6196D4111E06D084FEA360645EAC07591
:104370004FEA0752001B61EB0201001C41F580115E
:1043800049084FEA30000019514132462B4603B02C
:10439000BDE8F04F00F071B9009801224000002301
:1043A000D0EB020263EBE073009821464FEAE07421
:1043B000B8EB000061EB0401E9E783F000435BE741
:1043C00081F0004158E72DE9FE4F81EA030404F033
:1043D000004421F0004100944FF0000B23F0004313
:1043E00050EA01045ED052EA03045BD0C3F30A54DE
:1043F000C1F30A552C44A4F2F3340194A0FB0254F7
:10440000C1F3130141F48011C3F3130343F4801388
:1044100001FB024400FB034E840A970A44EA8154DC
:1044200047EA8357A4FB076802958D0A05FB0785B9
:104430004FEA932C04FB0C542705029D4FEA0658C3
:1044400047EA1637B5EB08056EEB070C870E920EA0
:1044500047EA811742EA8312A7FB0201B6EB0B0180
:1044600064EB00042B0D43EA0C335E1844EB1C5044
:10447000DA465146E7FB0201C5F313044FEA0B335A
:1044800043EA14534FEA0432019C43EA0603A4F1C1
:104490000C040294009CCDE900B400F0FDF803B0D8
:1044A000BDE8F08F00200146F9E730B5041E71F138
:1044B000000404DB4FF00044404264EB0101141E91
:1044C00073F1000405DB1C464FF00043524263EBDE
:1044D0000403101A8B4101D2012030BD002030BDF1
:1044E0000EB540F2334102910021CDE900110A4698
:1044F0000B4600F0D1F803B000BD00F0004230F0F0
:1045000000400AD0C10D01F56071C0F3160042EA07
:104510000151C2084007114370470020014670470F
:1045200001F0004330B421F0004150EA010206D00E
:104530000A0DA2F56072C1F31301002A02DC30BC3F
:1045400000207047440F44EAC104C100E01830BCA9
:1045500000EBC25000F031B8202A04DB203A00FA08
:1045600002F1002070479140C2F1200320FA03F3CA
:10457000194390407047202A04DB203A21FA02F0C8
:104580000021704721FA02F3D040C2F1200291408D
:10459000084319467047202A06DBCB17203A41FA18
:1045A00002F043EAE07306E041FA02F3D040C2F1C0
:1045B000200291400843194670470029A8BF704760
:1045C000401C490008BF20F00100704710B4B0FA49
:1045D00080FC00FA0CF050EA010404BF10BC7047E4
:1045E00049B1CCF1200421FA04F411FA0CF118BFFE
:1045F000012121430843A3EB0C01CB1D4FEA0061CD
:104600004FEA102042BF002010BC704700EBC3509F
:1046100010440029A4BF10BC7047401C490008BFCB
:1046200020F0010010BC7047F0B400F0004221F00F
:10463000004120F00040CE0DC30DC1F3160141F43E
:104640000001C0F316004C42154640F40000761EEF
:1046500009E010EB440002D582F00042404288425B
:10466000F7D840005B1EB342F9DA18B1F0BC002164
:10467000FFF7ACBF2846F0BC704710B5141E73F1AD
:10468000000408DA401C41F1000192185B411A4312
:1046900001D120F0010010BD2DE9F04D92469B465E
:1046A00011B1B1FA81F202E0B0FA80F22032904604
:1046B000FFF752FF04460F4640EA0A0041EA0B01A9
:1046C00053465A46084313D0114653EA010019D005
:1046D000C8F140025046FFF74EFF05460E465046D1
:1046E00059464246FFF738FF084305D0012004E051
:1046F00020463946BDE8F08D0020054346EAE076C5
:104700002C4337430A986305E40AA0EB0800002213
:10471000FD0A44EA47540A3002D500200146E9E781
:10472000010510196941DDE9084500196941BDE835
:10473000F04DA2E71CB509480090094801900546D4
:10474000009C06E0E06840F0010394E80700984709
:104750001034AC42F6D3FFF71BFD0000744401088F
:104760009444010830B58C1810F8012B12F00F0397
:1047700001D110F8013B120906D110F8012B03E01A
:1047800010F8015B01F8015B5B1EF9D101E001F853
:10479000013B521EFBD1A142E6D3002030BD0000F8
:1047A0000146806B036C026C13F0500F08D0D206E8
:1047B00048BF00F0AFBB806BC26C0846104700BF1B
:1047C00042F40071016401688A6812F0405F01D010
:1047D00000F05EBB027E002AFAD1CA6A12F4700FA2
:1047E00002D08A685205F3D44A6822F020024A6057
:1047F000016C21F480710164016CC90448BF00F0B0
:1048000047BB016C41F00101016400F041BB0000B5
:10481000806B40210164416C41F00401416400F06F
:1048200079BB0000806B00F073BB00002DE9F04302
:1048300081B040F2E83EC2F2000E9EF90D304FF01A
:104840004B08B3F1FF3FC8BF4FF023085A064FF0A3
:104850004B0258BF23229C064FF04B0458BF232421
:10486000DD064FF04B0558BF23251E074FF04B06C2
:1048700058BF23265F074FF04B0758BF23279807E1
:104880004FF04B0041F6007158BF2320DB07C2F206
:1048900000014FF04B0308BF2323C1E906039EF834
:1048A0000C00C1E9008201F10802F0C242B2B2F18B
:1048B000FF3F4FF04B089EF80E30C8BF4FF0230863
:1048C00044064FF04B0958BF4FF0230985064FF0BF
:1048D0004B0558BF2325C6064FF04B0658BF23266D
:1048E00007074FF04B0758BF232742074FF04B02F3
:1048F00058BF232284074FF04B0458BF2324C0071E
:104900004FF04B0008BF2320C1E9088901F12808B6
:10491000C86358B288E8E000B0F1FF3F4FF04B08A1
:10492000C1E90D24C8BF4FF023085A064FF04B02CF
:1049300058BF23229C064FF04B0458BF2324DD06AA
:104940004FF04B0558BF23251E074FF04B0658BFAD
:1049500023265F074FF04B0758BF232798074FF0D8
:104960004B0058BF2320DB074FF04B0308BF232326
:1049700088659EF91000C1E9108201F14802B0F18A
:10498000FF3F4FF04B08F0C2CB65C8BF4FF0230884
:1049900043064FF04B0358BF232384064FF04B04CC
:1049A00058BF2324C5064FF04B0558BF23250607E3
:1049B0004FF04B0658BF232647074FF04B0758BF11
:1049C000232782074FF04B0258BF2322C0074FF026
:1049D0004B0008BF23208A679EF90F20C1E9188386
:1049E00001F16803B2F1FF3F4FF04B08F0C3C86715
:1049F000C8BF4FF0230853064FF04B0358BF232383
:104A000094064FF04B0458BF2324D5064FF04B05B6
:104A100058BF232516074FF04B0658BF23265707CC
:104A20004FF04B0758BF232790074FF04B0058BF5C
:104A30002320D2074FF04B0208BF2322C1F8980071
:104A40009EF91100C1E9208301F18803B0F1FF3F15
:104A50004FF04B0EF0C3C1F89C20C8BF4FF0230E9F
:104A600043064FF04B0358BF232387064FF04B07F5
:104A700058BF2327C6064FF04B0658BF232605070D
:104A80004FF04B0558BF232544074FF04B0458BF48
:104A9000232482074FF04B024FF04B0C58BF2322C8
:104AA000C00708BF4FF0230CC1E928E3C1E92A760B
:104AB000C1E92C54C1E92E2C01F1C0004FF4C8719A
:104AC000FFF7C8FB01B0BDE8F0830000FEE700007F
:104AD00041F2C830C2F2000000F0C6BD00207047AD
:104AE0000020704710B541F25C04C2F2000440F6A9
:104AF0002631C2F200012046002207F0ABF940F651
:104B00002611C2F20001204607F096F9002010BDE0
:104B1000B0B504460EF00CFF41F25C05C2F2000590
:104B20002846214607F088F9284607F05FF900205B
:104B3000B0BD00000020704741F25C02C2F20002EA
:104B4000D2F8BC22D2F81432002B1CBF01207047CF
:104B500010B541F25C04C2F200040A460146204648
:104B600007F078F92046BDE8104007F0F7B90000DB
:104B700010B541F6C044C2F200042046002104F002
:104B8000E9FF2046042104F0E5FF2046082104F057
:104B9000E1FF2046002104F095F92046042104F0AD
:104BA00091F920460821BDE8104004F08BB90000BF
:104BB00041F2B040C2F2000001F084B841F27050FE
:104BC000C2F2000001F07EB841F21050C2F20000C3
:104BD00001F078B841F2F030C2F2000001F072B892
:104BE00041F25040C2F2000001F06CB841F2D050E6
:104BF000C2F2000001F066B841F23060C2F200007B
:104C000001F060B87047000010B541F6C044C2F230
:104C100000042046002104F0D7FD2046042104F0C2
:104C2000D3FD2046082104F0CFFD2046002104F0EA
:104C3000C9F82046042104F0C5F820460821BDE843
:104C4000104004F0BFB8000072B602200EF0FABAAD
:104C5000F0B581B040F2A027044643F60C46C2F2FC
:104C600000070020C4F20206F86101F059FC316827
:104C7000C9031BD43068C0071CBF012030603068F6
:104C800010F0F20F30D03068C00631D430688006A2
:104C900037D4306840063DD43068000643D43068CD
:104CA000800749D4012001B0F0BD00BFC4B1054662
:104CB000601C10D13068C003DCD53068C00344BF2D
:104CC00030685FEAC030D5D53068C003F2D4D1E790
:104CD0003068C003CED501F023FC401BA042F7D9B9
:104CE000032001B0F0BD00BF002001B0F0BD00BF47
:104CF000F86940F01000F8611020306030688006DC
:104D0000C7D5F86940F00800F861202030603068AD
:104D10004006C1D5F86940F00400F86140203060D9
:104D200030680006BBD5F86940F00200F8618020C9
:104D3000306030688007B5D5F86940F02000F86130
:104D400002203060012001B0F0BD000070B581B0DC
:104D50000022009290F83C20012A03D1022001B0E9
:104D600070BD00BFD1F800E00122BEF10A0F1FFAAA
:104D70008EFC80F83C2009D34FEA4C02036812FAFB
:104D80008EF2A2F11E0403F10C0204E003680EEBA4
:104D90004E0403F1100207251668A54026EA050512
:104DA00015608D68166805FA04F434431460496888
:104DB000062907D801EB81014A1F194651F8345FD3
:104DC0000FE000BF0C2901EB810105D8A1F12302FE
:104DD000194651F8305F04E0A1F14102194651F83B
:104DE0002C5F1F24944025EA04040C600CFA02F2A4
:104DF0000C6842F2043CC4F2010C2243ACF541744D
:104E0000A3420A603ED1BEF1120F07D1DCF80010B8
:104E100041F48001CCF8001034E000BF2EF0010115
:104E200010292FD1DCF80010BEF1100F41F4000161
:104E3000CCF8001026D140F23001C2F2000109681E
:104E40004DF68362C4F21B32A1FB0212910C01EBFE
:104E50008101490000910099A1B1009901390091A7
:104E6000009979B1009901390091009951B10099E7
:104E700001390091009929B10099013900910099F7
:104E80000029EAD1002180F83C10002001B070BD5B
:104E9000006842F20011C4F20101884218BF704755
:104EA00040F2FC30C2F200008178C27800EE101AA5
:104EB0009FED151AB8EE400A20EE010A01EE102A05
:104EC0009FED123AB8EE411AB3EE082A21EE021A0B
:104ED00030EE032A81EE021AB6EE002A43F65C3267
:104EE000C0F6010280ED030A31EE021ABDEEC11ACE
:104EF00011EE101A515C00EE101AB8EE400A0121B2
:104F000080ED040A417070473A07543E9A9999BE61
:104F10007047000070470000002804BF0120704760
:104F200010B5016C00293DD0016CC90645D4016C57
:104F300041F202129143023142F204320164C4F29E
:104F40000102116821F440311160136890E81210D9
:104F50002343D0F810E013604A68012422F48072E1
:104F60004A604A68C0F6007442EA0E224A604A6803
:104F700022F040724A604A6842EA0C024A608A683B
:104F800022F400628A60C2688B681A438A60826A6F
:104F90008B68A24223F070638B608B6810D123F082
:104FA000405216E0044600F065F820460021616496
:104FB00084F83C10016CC906B9D5012153E000BF4B
:104FC0001A438A608A6822F040528A60C26A8B68FB
:104FD0001A438A608A6822F002028A608A68037E25
:104FE00090F8204042EA43028A604A6884B142F461
:104FF00000624A604A684EF2000322F460424A604E
:10500000426ACFF6FF734C6803EB4232224301E061
:1050100022F400624A60CA6A40F2000C22F4700274
:10502000CA62C3694269CFF6F07CCC6A0CEB0353C9
:105030002343CB628B6823F400738B6090F830308D
:105040008C6844EA43238B608B6823F480638B6015
:105050008B6843EA82228A6000214164026C01234A
:1050600063F301020264002280F83C20BDE8104096
:1050700008467047F0B587B00446006842F2001158
:10508000C4F2010100268842CDE90566CDE9036638
:10509000029647D042F20001C4F20101884240F07A
:1050A000878043F630000196C4F20200416941F462
:1050B00080714161416901F480710191019901960A
:1050C000016841F001010160006802A900F00100DF
:1050D00001900198072002900320CDE903060020EB
:1050E000C4F2020001F03EF941F2F03546F2104000
:1050F000C2F20005C4F202004FF48061C5E9000667
:1051000005F110004FF400624FF400534FF4807C1F
:1051100080E80E104FF40030C5E90266C5E90806C4
:105120003DE000BF43F630000196C4F20200416941
:10513000032741F400714161416901F4007101915B
:1051400001990196016841F001010160006802A91E
:1051500000F0010001900198602002900020C4F24C
:105160000200CDE9037601F0FDF846F21040C4F2EA
:10517000020041F250453030C2F200054FF000719C
:105180004FF4806285E843000420C5E90362C5E965
:105190000566EE61C5E90860C5E90A762E63284612
:1051A00000F072FE002818BFFFF74EFDA563AC6348
:1051B00007B0F0BDB0B582B00023019390F83C3049
:1051C000012B03D1022002B0B0BD00BF8E460123E7
:1051D000016880F83C308B689446DB0729D18B68E6
:1051E0004DF6836443F001038B6040F23003C2F25A
:1051F00000031B68C4F21B34A3FB0434A30C03EBB1
:1052000043030193019BA3B1019B013B0193019BCC
:105210007BB1019B013B0193019B53B1019B013B7E
:105220000193019B2BB1019B013B0193019B002B3F
:10523000EAD18B68DB0503D58B6823F480738B6020
:105240008C68036CE4070BD143F01001016400F19A
:105250004401002001220B681A430A6002B0B0BD6D
:1052600040F20174A34303F5807303644B685B054C
:1052700004D5036C012464F30D330364046C002330
:10528000E4044FF0000444BF446C24F0060444647A
:1052900080F83C30836B44F2A17444F62502C0F6DA
:1052A0000004C0F60002C3E90F4244F61102C0F642
:1052B0000002DA646FF022020A604A6842F20434A3
:1052C00042F080624A608A68054642F480728A60D1
:1052D0004C31184672466346C4F2010400F086FE63
:1052E00022682968D20605D0A4F54172914225D0E2
:1052F00002B0B0BD42F20002C4F20102914215D0E8
:1053000042F20022C4F2010291420CD042F2001299
:10531000C4F201029142EBD12268D20606D0A4F574
:1053200082729142E4D12268D206E1D451F8082F6A
:1053300012F0405FDCD14FF080428CE74FF6045111
:10534000CFF6FF71615811F0405FD1D1A4F53F71E4
:105350004FF080427FE7000090F82020013A012AB8
:1053600008D8006800F11402002013681943116086
:10537000704700BF00F1240201204FF48021136820
:10538000194311607047000010B590F820E0D0F884
:1053900000C0AEF1010EBEF1010FDCF808E011D83B
:1053A0001EF0E05F18D0CEF301640120A040186029
:1053B0008B68DBB1D1F804E0C86840EACE0040EA6F
:1053C000030E17E000F1240301204FF480211A6836
:1053D0001143196010BD00BF00F1240301204FF4F8
:1053E00000111A681143196010BD00BF0868CB682E
:1053F00043EA405E0CF5C07000EB0413240140F852
:1054000004E00C69184640F8044F097D012903D1D6
:10541000016841F48071016050680121D860106812
:10542000986000201A681143196010BD90F8202080
:10543000013A012A30D8B0B546F20060C4F200004B
:10544000026842F001020260026822F47C520260AB
:10545000D1F814E0CC694A6A0368012C43EA0222BD
:1054600002600EF01F024FF0010303FA02F2C3695B
:105470006FEA020C23EA0203C36113D02CBBC3689A
:1054800003EA0C03C360CB688C8844EA034300EB57
:10549000CE0423640B4611E0416A41F4802141624D
:1054A00001207047C3681343C3600B688C8844EACB
:1054B000034300EBCE04236401F10C038C681B88CA
:1054C00043EA044300EBCE04636443688D6943EA16
:1054D0000204D1F810E0096A002D08BF03EA0C04A9
:1054E00044604369BEF1000F43EA020408BF03EAC7
:1054F0000C040129446102D1C1691143C1610168F1
:1055000021F0010101600020B0BD000070470000E3
:10551000B0B590F82040013C012C7DD8D0F800C0F7
:1055200000290CBFDCF80C40DCF81040A4077DD04B
:105530000CF5D8754FEA011C55F80C4014F0040422
:10554000946055F80CE005EB011C19BF4FEADE052D
:1055500055604FEA5E551560DCF80050E64605F0F0
:105560000205D5605EF8044F24075ABFDEF80040FC
:1055700004F00F0408241461DEF800400029C4F38D
:1055800007249461DEF800504FEA15455561DCF8B8
:1055900008201A70026802EB0112D2F8B8214FEA13
:1055A00012225A70026802EB0112D2F8B8214FEAB7
:1055B00012429A70026802EB0112D2F8B8214FEA47
:1055C0001262DA70026802EB0112D2F8BC211A7181
:1055D000026802EB0112D2F8BC214FEA12225A7182
:1055E000026802EB0112D2F8BC214FEA12429A7112
:1055F000026802EB0112D2F8BC214FEA1262DA71A2
:1056000000680CBF00F10C0100F110010020202205
:105610000B681A430A60B0BD00F1240101204FF469
:1056200080220B681A430A60B0BD00BF00F124015C
:1056300001204FF400120B681A430A60B0BD00004D
:1056400090F820100139012984BF002070470068BC
:10565000816882688068C1F38061C2F3C0621144CE
:10566000C0F30070084470472DE9F04F81B0044644
:1056700000684669D0F804908768D0F80CB0D0F87C
:1056800010A0D0F81880F10704D1002530071DD4F0
:1056900024E000BFF90710D00121BA07816009D4C6
:1056A000780700F1AF80380700F1B680204600F09F
:1056B000A1FA02E0204600F09FFA0025F80500F16B
:1056C0008780F80300F1B180300707D51BF0100088
:1056D00004D0206845F400751021C160700708D51A
:1056E0001BF0080005D020680821C160204600F0AA
:1056F000C9F9B00706D52068C068800702D02046E7
:1057000000F0C2F9700607D51AF0100004D0206826
:1057100045F4806510210161B00608D51AF0080033
:1057200005D0206808210161204600F0FFF9F0064D
:1057300006D520680069800702D0204600F0F8F9FD
:10574000B00308D519F0100005D020681021416081
:10575000204600F0EFF9F00308D519F0080005D055
:10576000206808214160204600F050FA300440F1E2
:105770009B805FEA497040F1948006F4807008EAEB
:10578000102028435FEA8871014648BF41F00201BA
:10579000B20558BF01465FEA48700D4648BF45F064
:1057A0000405700558BF0D46300540F17A8018F0A9
:1057B000700000F076801038000905286CD8DFE80A
:1057C00000F003655D61596945F0080564E000BFBC
:1057D00020684FF48071BA0581600BD4780515D428
:1057E00038051DD4204600F009FAF8037FF56CAFA8
:1057F0001BE000BF204600F003FAF8037FF564AF1A
:1058000013E000BF4FF4006558E700BF05F50055F1
:10581000F8037FF559AF08E04FF480554EE700BF1D
:1058200005F58045F8037FF54FAF20684FF48031D0
:10583000BA0381600AD4780310D4380314D4204604
:1058400000F0E0F930073FF541AF47E7204600F0B0
:10585000DBF930073FF53AAF40E700BF05F50045FB
:1058600030073FF533AF39E705F5803530073FF5B1
:105870002DAF33E745F080050EE000BF45F0200571
:105880000AE000BF45F0400506E000BF45F0100506
:1058900002E000BF45F480752068816921F0700145
:1058A000816120680421416055B1606A40EA0501C8
:1058B0002046616201B0BDE8F04FFFF727BE00BF90
:1058C00001B0BDE8F08F0000002804BF0120704740
:1058D000B0B5044690F8200010B9204600F06EF8EC
:1058E0002068016841F00101016000F019FE0546E1
:1058F00020684168C90705D100F012FE401B0B2843
:10590000F6D310E0016821F00201016000F008FE0A
:10591000054600BF2068416889070DD500F000FEEC
:10592000401B0B28F6D3606A052140F4003060620A
:10593000012084F82010B0BD217E0268012922F0E8
:10594000800208BF80320260617E0268012922F075
:10595000400208BF40320260A17E0268012922F0A5
:10596000200208BF20320260E17E0268012922F095
:10597000100218BF10320260217F0268012922F054
:10598000080208BF08320260617F0268012922F024
:10599000040208BF04320260D4E901C2D4E903352D
:1059A00061691A432A431143ACF101021143C161F9
:1059B00000200121606284F82010B0BD2DE9F04381
:1059C00087B040F20044C4F202040068A4F5CE316E
:1059D00000268842CDE90566CDE90366029603D02C
:1059E00007B0BDE8F08300BF43F640000196C4F263
:1059F0000200016802AD41F08061016001684FF072
:105A0000020801F0806101910199019601684FF04F
:105A1000030941F0007101600168092701F000717C
:105A200001910199019650F8101C41F0020140F8D3
:105A3000101C50F8100C294600F00200019001984B
:105A400020200290012004902046CDF80C80CDF853
:105A50001490069700F086FC4020CDE9020820460D
:105A60002946CDE90469069700F07CFC402002211C
:105A7000032200F0F1FD402000F0DCFD07B0BDE89E
:105A8000F083000070470000F0B589B007AC6A46AB
:105A900000212346FFF73CFD90B140F20C20C2F2FA
:105AA000000001790531CAB2322A01713CD340F2BB
:105AB0003C20C2F200000221017009B0F0BD00BF1D
:105AC00040F20C26C2F200060099326840F23C20F7
:105AD000C2F2000003239142037017D17079D8B14C
:105AE00006F10805B11D28460DF0F2F8049848B1FA
:105AF000002700BFE11928460DF0EAF804980137A5
:105B00008742F7D3F11D28460DF0E2F8307958B1FD
:105B10000138307109B0F0BD9DF8101007A809F0E8
:105B200089FE30790028F3D109B0F0BD704700003C
:105B30007047000070470000B0B5044690F82000A0
:105B400001281DD1022084F820002068016821F07E
:105B50000101016000F0E4FC054600BF20684068D8
:105B6000C00713D000F0DCFC401B0B28F6D3606AA2
:105B700040F400306062052084F820000120B0BDB0
:105B8000606A40F4002060620120B0BD00206062C5
:105B9000B0BD0000B0B5044690F82000022819D12D
:105BA0002068016841F00101016000F0B9FC054680
:105BB00020684168C90713D100F0B2FC401B0B28D4
:105BC000F6D3606A40F400306062052084F820005B
:105BD0000120B0BD606A40F4801060620120B0BD59
:105BE000016821F002010160012084F820000020FA
:105BF000B0BD000070470000704700007047000013
:105C000070470000704700007047000070470000B8
:105C100070B5866D044600F083FC94F835100229B7
:105C200028D105462068216C026822F01602026025
:105C3000426922F08002426109B9A16C19B1016880
:105C400021F008010160016821F00101016000BF3D
:105C500020680068C00715D000F062FC401B0628D1
:105C6000F6D320206065032084F83500002184F8F5
:105C7000341070BD802060650120002184F834104C
:105C800070BD00BFE06D3F2101FA00F0B06001205F
:105C900084F835000020002184F8341070BD000025
:105CA00090F83510022909D1052180F835100068D7
:105CB000016821F0010101600020704780214165E9
:105CC00001207047F0B581B00021009140F2300111
:105CD000C2F200010B68D0E9166148F2B5153768C9
:105CE0000822C1F64E358A403A42A3FB05350CD056
:105CF00003681C68640708D51C6824F004041C6051
:105D0000B260426D42F00102426501228A403A428D
:105D100008D003685B691B0604D5B260426D42F08F
:105D20000202426504228A403A4208D003681B6896
:105D30009B0704D5B260426D42F004024265102216
:105D40008A403A4219D001680B681B0715D5B2602A
:105D50000B680A685B0309D4D20509D40A6822F0EB
:105D600008020A60016C29B907E000BF110341D4A1
:105D7000016C11B1044688472046C26D202101FA0A
:105D800002F33B4243D001680F68FF063FD5B36082
:105D900090F835700B68052F1CD123F016030B60AB
:105DA0004B6923F080034B61036C0BB9836C1BB10F
:105DB0000B6823F008030B603F219140B160012183
:105DC00080F83510016D0022002980F8342054D16C
:105DD00058E000BF0A685B0310D4D20512D40A68E9
:105DE00022F010020A60012180F83510002180F8AD
:105DF000341007E0816C0029BCD1BEE7110301D447
:105E0000416C00E0C16B11B1044688472046416DEA
:105E1000C1B3416DC9072ED0052180F83510016846
:105E2000AA0A0B6823F001030B60009B0133934225
:105E300000931AD80B68DB0717D0009B01339342FD
:105E4000009312D80B68DB070FD0009B01339342FD
:105E500000930AD80B68DB0707D0009B01339342FD
:105E6000009302D80B68DB07DFD1012180F83510E1
:105E7000002180F83410C16C21B101B0BDE8F040C0
:105E8000084700BF01B0F0BD2DE9F041044600F025
:105E900047FBECB10546022084F83500002021685C
:105EA00084F83400086820F0010008602168086860
:105EB000C00711D000F034FB401B0528F6D903259C
:105EC00020230320636584F83550BDE8F08100BFCE
:105ED0000120BDE8F08100BF086848F23F02CFF220
:105EE0001002D4E9013500EA020C04F10C0898E82C
:105EF000C10143EA0C032B431843D4E9072E304376
:105F000038431043626A40EA0E00042A40EA08035C
:105F10001CD1206BD4E90A2E40EA0E001843086019
:105F20004869BEF1000F20F0030040EA020040F093
:105F3000040C11D0B8F5005F36D0B8F1000F45D190
:105F4000022A46D0012A3BD032B942E00B604869B0
:105F500020F0070040EA020C01F0F8004AF6AB22FC
:105F60001038CAF6AA22A0FB02231A0943F65433BA
:105F7000C1F814C0C0F601039A5C40F2FF335F28F9
:105F80004FF03F0021EA030100FA02F088BF04311C
:105F9000C4E916128860002301250020636584F897
:105FA0003550BDE8F08100BF032AD5D80125402334
:105FB0000120DFE802F0030E030500BF82E700BF07
:105FC000AEF1C070B0FA80F0400904E0032A04D3B7
:105FD000C2D1CEF300600028BED0012540230120AD
:105FE000636584F83550BDE8F081000090F834C056
:105FF000BCF1010F04BF0220704770B54FF0010CD7
:1060000080F834C0D0F858E090F835C0BCF1010FEA
:1060100038D14FF0020C80F835C04FF0000CC0F8BA
:1060200054C0D0F800C08468056CC06DDCF8006016
:10603000402C26F48026CCF80060CCF804300B46C7
:1060400004BF13460A463F2101FA00F0CCF808309D
:10605000CCF80C20CEF80800DCF8000040F0160068
:10606000CCF800002DB1DCF8000040F00800CCF8BE
:106070000000DCF8000040F00100CCF80000002037
:1060800070BD00BF002180F83410022070BD0000F8
:10609000B0B5044600F044FA054640F20400C2F2EE
:1060A00000000078611C18BF044400BF00F038FAFB
:1060B000401BA042FAD3B0BD2DE9F04381B040F2BD
:1060C000A028C2F2000898F81820012A04D1022062
:1060D00001B0BDE8F08300BF0546012088F8180034
:1060E0004CF250308946FEF7B3FD28B1002188F804
:1060F000181001B0BDE8F0834FF0FF30C9F8000080
:10610000286843F610470128C4F202071CD1286909
:106110003968000221F440713960396880B241F079
:10612000040139603968084340F4803038604CF22B
:106130005030FEF78DFD396821F00401396057F8C1
:10614000101C89053BD452E0D5E9026030448642F8
:1061500030D2F000841C00BF28694FF44072C1B2F5
:10616000032939684FEA002021F440713960396809
:1061700038BF82B241EA02003860386820F0780007
:106180003860386820433860386840F480303860C0
:106190004CF25030FEF75CFD3968002821F07A019E
:1061A000396047D1D5E9020101360844864204F13D
:1061B0000804D1D3002057F8101C890517D557F8CB
:1061C000101C21F4007147F8101C57F8101C41F402
:1061D000006147F8101C57F8101C21F4006147F8C3
:1061E000101C57F8101C41F4007147F8101C57F8A8
:1061F000101C49057FF57AAF57F8101C21F4806117
:1062000047F8101C57F8101C41F4805147F8101C37
:1062100057F8101C21F4805147F8101C57F8101C37
:1062200041F4806147F8101C002188F8181001B073
:10623000BDE8F083C9F8006057F8101C8905BED48A
:10624000D5E7000043F61041C4F20201086840F0AF
:10625000004200200A6070472DE9F04140F2A0247E
:10626000C2F20004277E012F04BF0220BDE8F081A6
:106270000546012020764CF2503098460F461646CF
:10628000FEF7E6FC20B100212176BDE8F08100BFD9
:106290002A46022D43F61045C4F202051ED0012AFB
:1062A000314638460CD03ABB2A6822F440722A6044
:1062B0002A682A602A6842F001022A6001702CE0F4
:1062C0002A6822F440722A602A6842F480722A60A6
:1062D0002A6842F001022A6001801EE0286820F44A
:1062E00040702860286840F400702860286840F0FA
:1062F000010028603E6010E02A6822F440722A60A3
:106300002A6842F440722A602A6842F001022A6038
:106310000160BFF36F8FC0F804804CF25030FEF77D
:1063200097FC296821F00101296000212176BDE850
:10633000F081000043F60440C4F20200C168B1F1EC
:10634000FF3FC4BF0020704740F22311C4F26751E1
:10635000016048F6AB11CCF6EF510160C068C00F88
:10636000704700002DE9F04F83B000F1200200F1EA
:106370003E4741F60045009207F1FF77C4F202055F
:1063800008224FEAB726A84208BF072200254FF08F
:1063900000084FF00009072E38BF4FEAB7220192DC
:1063A0000AE000BF09F1010908F10208B9F1100F74
:1063B00005F1040500F0A2800F68012202FA09FE2F
:1063C00017EA0E0AEED0D1F804C003220CF003073E
:1063D0007E1E02FA08F4012E6FEA040B12D88468BC
:1063E000CE6804EA0B0406FA08F634438460446875
:1063F00024EA0E06CCF3001404FA09F4264346609E
:1064000004E000BF032F01D103271EE0C6688C689B
:1064100006EA0B0604FA08F42643022FC66014D1DC
:106420006FF00302009E02EA590756F807C005F014
:106430001C040F220B69A2402CEA0202A3401A435B
:10644000F251D1F804C00CF00307026807FA08F310
:1064500002EA0B021A431CF4403F0260A2D0002261
:1064600043F644030292C4F202031A6843F600445E
:1064700042F480421A601A68C4F2010402F48042B5
:106480000292029A29F003024FF6084C2244CFF6FA
:10649000FF7C52F80C3005F00C070F26BE40B343CA
:1064A000019E06FA07F73B4342F80C30A2684B689E
:1064B00042EA0A0743F60C4CDE0258BF22EA0A07FA
:1064C000A760C4F2010CDCF800209E0242EA0A0731
:1064D00058BF22EA0A07CCF8007062689E0342EABD
:1064E0000A0758BF22EA0A0767602268DB0342EA0C
:1064F0000A0758BF22EA0A07276053E703B0BDE83E
:10650000F08F0000426902EA0103914341EA03412E
:1065100081617047002A08BF09048161704700004B
:1065200041F6FC60C2F200000068704780B582B09E
:10653000FFF7F6FF4EF21401CEF200010A68496837
:106540000132511A019101994FF47A735943B1FB09
:10655000F2F100FB031002B080BD000040F2040025
:1065600041F6FC61C2F20000C2F2000100780A6844
:10657000104408607047000080B543F60040C4F244
:106580000200016841F400710160016841F480611A
:106590000160016841F480710160032000F088F817
:1065A000032000F005F800F027F8002080BD00006F
:1065B00070B540F20406C2F2000640F230013278B3
:1065C000C2F200014FF47A730968B3FBF2F2044699
:1065D000B1FBF2F1084602F057FB0F2C4FF001051A
:1065E00008D838B94FF0FF3021460022002500F0CE
:1065F00033F87460284670BD82B0002043F6400135
:106600000190C4F202014A6842F480424A604A683A
:1066100002F480420192019A0090086840F0805094
:106620000860086800F0805000900098052002B0D3
:1066300000F03EB8002848BF704700F01F0101225B
:1066400002FA01F11C2202EAD0004EF20012CEF250
:10665000000281507047000010B54EF60C5CCEF27F
:10666000000CDCF80030C3F3022E8EF00704042C7B
:1066700028BF0424BEF103034FF0FF3E0EFA04F4DA
:1066800038BF0023A14399400EFA03F39A43114304
:1066900000F00F0200F160430901043A03F564437E
:1066A0006244002848BF02F10C03197010BD0000BD
:1066B0004EF60C51CEF200010A684FF6FF031A4065
:1066C00060F30A2242F0806040F0FD70086070477D
:1066D0007047000002680020516270472DE9F041C8
:1066E000D0F80080D8F8243091B1D8F82870B1F1F2
:1066F000010C03EB17414FD05FFA8CF708F582735A
:10670000042F0CF0030E0BD2002700242BE000BF57
:1067100043EA02410020C8F82810BDE8F08100BF1C
:106720000CF0FC0508F1F406002400BF56F8107FB9
:1067300044F0020001EB174144F00107FFB253F8A7
:106740002770C0B253F8200001EB174101EB104055
:1067500044F00301C9B253F821100434E7B2AF4248
:1067600000EB1141E2D1BEF1000F15D053F8270024
:10677000BEF1010F01EB10410ED0601CC0B253F806
:106780002000BEF1020F01EB104105D0A01CC0B2E9
:1067900053F8200001EB104141EA024008EB8C0164
:1067A000C1F804010020BDE8F0810000D0F8E00449
:1067B00005F010BF01EBC102D0F8E03400EB82001D
:1067C000026A184605F06ABE01EBC102D0F8E03457
:1067D00000EB8200D0F86022184605F0BDBE000034
:1067E000D0F8E00405F0F8BE10B501F00F0E0A462F
:1067F0004FFA81FC0EEBCE0100EB810303F515711E
:10680000BCF1000F48BF03F1140190F89434D20991
:10681000012B4A7081F800E004BF022010BD02681D
:10682000012380F894340446104606F0DFFC002073
:1068300084F8940410BD0000037901F00F029A421D
:1068400084BF0120704710B502EBC20300EB830345
:106850004FFA81FC8E4603F51571BCF1000F48BF5D
:1068600003F114014FEADE134B7090F894344FF0AB
:10687000000C012B81F802C00A7004BF022010BD79
:106880000268012380F894340446104606F0A2FF03
:10689000002084F8940410BD01F00F0101EBC10148
:1068A00000EB8100D0F868027047000010B54FFA85
:1068B00081FE01F00F0CBEF1000F6FF3DF220CEB35
:1068C000CC010DD400EB810E00240EF515718EF86D
:1068D00055428EF854C2CEF85C228EF8583209E048
:1068E00000EB810101F814CF01244C708A600B7118
:1068F000A1F81AC0022B04BF00224A7190F8942418
:10690000012A04BF022010BD0268012380F89434DC
:106910000446104606F0DCFA002084F8940410BD0A
:1069200010B501F00F0E0EEBCE0100EB81044FF01D
:10693000000CC4F868C284F855C290F806C004F58B
:106940001571C4F86022C4F86432BCF1010F84F8F8
:1069500054E208BFCA610068624606F085FF002065
:1069600010BD0000B0B5027901F00F0494424FF061
:1069700001022CD801EBC10300EB83034FFA81FC29
:1069800003F5157304EBC405C90900EB8505BCF1DB
:10699000000F48BF05F11403597090F894149A70D1
:1069A00001291C7004BF0220B0BD0168054680F8B3
:1069B00094240846194606F037FF2CB92868A979AF
:1069C00005F29C4206F0D8FE002285F89424104679
:1069D000B0BD000001F00F0C0CEBCC0100EB81010D
:1069E00001F814CF4FF0000C0B618379C1F814C08B
:1069F0004FF0010CCA60012B81F801C008BFCA61C9
:106A000080B500681A4606F02FFF002080BD000008
:106A10002DE9F04F87B005688246284607F040F917
:106A200010B107B0BDE8F08FDAF8000007F066F9A2
:106A30000028F6D0D5F80808C0F30D21DAF80000D8
:106A4000CAF8D41407F05AF90146DAF800008907A9
:106A500003D5416901F00201416105F5006104912E
:106A600007F04CF90146DAF80000C906059535D55E
:106A7000816921F0100181612C6A04F00F0000EBA4
:106A8000C0000AEB8001C4F34340062801F51575E8
:106A900012D002281BD147F6F07014EA000616D077
:106AA000E96834090598224607F02CF9E86800EBFC
:106AB0001610E86008E000BF05980AF29C41082221
:106AC00007F020F9C4F30A14686920446861DAF811
:106AD0000000816941F010018161059D07F00EF908
:106AE000000340F1F180DAF8000007F0E5F8002833
:106AF00000F0EA8006460AF29C404FF43068002419
:106B00004FF0000B069019E005EB080002218160B0
:106B1000B80642BF05EB080020218160B80442BFDF
:106B200005EB08004FF4005181600BF1010B760872
:106B300008F1200804F1240400F0C680F007F4D026
:106B4000DAF800005FFA8BF9494607F0CFF80746FC
:106B5000C00760D005EB080001218160DAF8000071
:106B600008EB0001036C8A689AF80650012D25D1C4
:106B7000150733D4950600F19F8043F20B05C4F648
:106B80005475AB42059D02D312F4004230D10AEB9A
:106B90000402D2F8743209696FF3DF41A3EB0101FB
:106BA000C2F868129CBBD2F86432002B00F08A80D5
:106BB000D2F860020844C2F8600228E043F20B05F4
:106BC000C4F65475FF35AB4218D1059D10040FD49F
:106BD000900644BF2020886019E000BF43F20B00FC
:106BE000C4F65470059D834215D312F4004012D0B0
:106BF0004FF40040886038070FD43DE0059D34B95C
:106C0000DAF8641219B90021069A06F0B5FD50466B
:106C10004946FFF7D9FD38072ED505EB08000821B6
:106C20008160DAF8000043F20B02056C4044816891
:106C3000C4F6547295420BD311F4004108D04FF4BE
:106C400000418160504600F019FD059D0AE000BF3B
:106C5000504600F013FD43F20B00C4F65470854219
:106C6000059D09D39AF80600012805D1DAF800003D
:106C7000069A012106F080FDF80642BF05EB0800E8
:106C800010218160B8077FF543AF6869000604D51D
:106C90000499486840F4806048600AEB040090F86A
:106CA000571201297FF430AF002180F85712504667
:106CB000494600F031FB27E720208860059D380712
:106CC000ABD4D9E701219FE7DAF80000CDF818A08E
:106CD00007F014F8400340F1D3800698006806F0EE
:106CE000E3FF002800F0CC800646069805F5106901
:106CF00000F1140100F29C40002703910190CDF8AF
:106D0000089004E0760807F1010700F0B980F00769
:106D1000F8D006985FFA87FA0068514606F0D4FF6B
:106D20000446C00726D0049A07F00F00516B0123D8
:106D300003FA00F021EA0000506309EB471083607A
:106D400006988079012811D1039907EBC70001EB60
:106D50008000D0E902121144C1603FB9006928B92E
:106D60000698019A0068012106F006FD0698514632
:106D7000FFF720FD200742BF09EB47100821816083
:106D8000E00642BF09EB471010218160600642BF58
:106D900009EB471040218160A00716D528463946E7
:106DA00006F010FF039907EBC70001EB800010F815
:106DB000031F012905D1002101700698514600F0FA
:106DC000A7FA09EB47100221816020069AD50399A2
:106DD00007EBC70001EB8008D8E90420824291D379
:106DE0000699D8F808300C68111A994238BF0B463A
:106DF00004EB4711D1F818C903F1030E1FFA8CF305
:106E0000B3EB9E0F2DD301F5106900BFD8F8102009
:106E1000824224D9101A069AD8E902B195795845C8
:106E200038BF83461FFA8BF3204652460095059DD6
:106E300007F010FAD8F80C00D8F814105844C8F825
:106E40000C0001EB0B00C8F81400D9F818100BF176
:106E5000030289B2B1EB920FD8D2D8F81020DDF836
:106E6000089082423FF64EAF07F00F00D4F8341876
:106E7000012202FA00F021EA0000C4F8340841E7D8
:106E8000DDF81890D9F8000006F038FF002821D46A
:106E9000D9F8000006F032FF00053AD4D9F8000016
:106EA00006F02CFFC00445D50499486820F0010085
:106EB0004860D9F80000102106F084FE99F804001B
:106EC000010600F0EC80C1B2042900F0030035D2C5
:106ED00000219AE00499486820F00100486099F880
:106EE000CC04012808D1002089F8CC0448460021B0
:106EF000FFF7EEFB03E000BF484600F0A3FBD9F824
:106F00000000416901F00041416106F0F7FE000513
:106F1000C4D504988068C00702D0484600F0D6FB6C
:106F2000D9F80000416901F40061416106F0E6FE14
:106F3000C004B9D4D9F80000DDE000BF6FF06002F2
:106F400002EA411200234FF67F370021EE18C6F8FF
:106F50000879D6F80059803325F40015C6F8005991
:106F6000C6F8087BD6F8005B9A4225F40015C6F8EF
:106F7000005BD6F8005B01F1040145F00065C6F83E
:106F8000005BC6F82879D6F8205925F40015C6F814
:106F90002059C6F8287BD6F8205B25F40015C6F8E2
:106FA000205BD6F8205B45F00065C6F8205BC6F88C
:106FB0004879D6F8405925F40015C6F84059C6F866
:106FC000487BD6F8405B25F40015C6F8405BD6F840
:106FD000405B45F00065C6F8405BC6F86879D6F8B6
:106FE000605925F40015C6F86059C6F8687BD6F8D4
:106FF000605B25F40015C6F8605BD6F8605B45F071
:107000000065C6F8605B059DA0D1002847D005F556
:10701000106202EB41134FF67F374E019F60955986
:10702000059B25F4001503F53063955103EB4115DD
:10703000AF609D59012825F400159D519D5945F0DB
:1070400000659D512BD04E1C02EB46147501A760C4
:10705000545903EB461624F400145451B7605F5999
:10706000022827F400175F515F5947F000675F510E
:1070700015D0881C02EB40174FF67F364101BE60E9
:10708000575803EB401027F40017575086605858A4
:1070900020F400105850585840F000605850049F99
:1070A0008421F869442240F00110F86199F80F003A
:1070B00000284FF00B0008BF142108BF42F22B003C
:1070C0007B5808BF102218437850B85840F00B0086
:1070D000B850386809F29C4220F4FE603860D9F854
:1070E000000099F8061006F047FBD9F80000416946
:1070F00001F48051416106F001FE0146D9F800001B
:1071000089041AD505F026FFD9F8000006F0BAFD6B
:10711000D9F8004089F8070000F0A4FB99F807208F
:107120000146204607F00AF8484600F075FAD9F8FB
:107130000000416901F40051416106F0DFFD0007E4
:1071400006D4D9F8000006F0D9FD00060DD437E0CA
:10715000484600F07BFAD9F80000416901F00801C7
:10716000416106F0CBFD00062AD50599886920F01B
:107170008000886199F80400022821D309F515746C
:1071800009F11405012640F27B2704E0013686420E
:1071900007F1240714D219F807100129F6D106F0D7
:1071A0000F0000EBC0023006D9F8000005EB8201A9
:1071B00058BF04EB820106F075FC99F80400E5E77E
:1071C000D9F8000006F09AFDC0024BD4D9F80000AF
:1071D00006F094FD059D80027CD599F804100229E3
:1071E00026D305F53260013909F51F72012304E049
:1071F0002030013902F124021AD007681678012ED6
:10720000F6D1B7F1FF3FF3DCD9F8D46486EA17472B
:10721000FF07EDD102F8013CAF6947F08007AF618D
:107220006F693F06E4D40499486840F400704860F0
:10723000D9F80000416901F40011416106F05EFDDA
:1072400040004DD54846FFF7B1FAD9F80000416932
:1072500001F08041416106F051FD40077FF5E1AB4F
:1072600045E000BF99F80400022827D3059909F1E9
:10727000140401F5126509F13B064FF001080127DE
:1072800006E000BF01372035874206F1240615D2FB
:1072900029687278012AF5D1B1F1FF3FF2DC07F0DD
:1072A0000F0000EBC001D9F8000004EB810186F863
:1072B000008006F0F7FB99F80400E3E7D9F8000036
:1072C000416901F48011416106F018FD059D8002BD
:1072D0003FF583AFD9F8000006F010FD4000B1D4AF
:1072E000D9F8000006F00AFD40077FF59AABD9F8FF
:1072F00000004468610704D54846FFF771FAD9F8E1
:10730000000041682143416007B0BDE8F08F0000F4
:10731000D0F8E00405F0C4B9D0F8E00405F0D6B91F
:10732000002804BF01207047F0B581B0044605680D
:1073300090F8950428B9002084F89404204600F0C1
:1073400027F90320B5F1A04F84F8950404BF00206D
:10735000A071206806F008FA94E80F00267C0096D9
:1073600005F008FE002840F000812068002106F0AA
:107370001FFD002840F0F98094F804E0BEF1000FF2
:1073800000F0EC800EF0030CBEF1040F4FF0000291
:1073900040D30EF0FC03A4F190000321012500BFAF
:1073A000CE1E80F8A460A0F8BE608E1E80F8C86073
:1073B000A0F8E2604E1E80F8EC60A0F8066180F84C
:1073C0001011A0F82A110E1D013180F8A55080F887
:1073D000A820C0E92B22C0F8B42080F8C95080F85A
:1073E000CC20C0E93422C0F8D82080F8ED5080F8D5
:1073F000F020C0E93D22C0F8FC2080F8115180F84F
:107400001421C0E94622C0F820219030994231462B
:10741000C6D1F21EBCF1000F31D004F1140002EB12
:10742000C20100EB8105012300F821200021BCF1FD
:10743000010F6B706A832971C5E9021129611ED0A1
:10744000551C05EBC50600EB8607BCF1020F7B70EF
:1074500000F826507D833971C7E9021139610ED0D9
:10746000911C01EBC10200EB8203012500F8221000
:1074700000205D7059831871C3E902001861BEF1E4
:10748000000F6BD0BEF1040F4FF0000236D30EF0A8
:10749000FC000321234600BFCF1E83F854728F1EC9
:1074A00083F878724F1E83F8C0120D1D013183F8E6
:1074B000552283F85822C3E99722C3F8642283F83F
:1074C000792283F87C22C3E9A022C3F8882283F8BA
:1074D0009D2283F89C7283F8A022C3E9A922C3F8F5
:1074E000AC2283F8C12283F8C422C3E9B222C3F8D4
:1074F000D022903381422946CED1EA1EBCF1000F42
:107500002CD004F5157002EBC20300EB83070021B9
:10751000BCF1010F797000F823203971C7E902111D
:1075200039611BD0531C03EBC30700EB8706BCF18A
:10753000020F717000F827303171C6E90211316114
:107540000CD0911C01EBC10200EB820300275F709D
:1075500000F822101F71C3E902771F6194E80F0041
:10756000277C009705F0A4FE30B1022084F8950432
:10757000012001B0F0BD00BF00206074012084F83C
:107580009504206805F084FE002001B0F0BD0000E5
:10759000B0B586B000680024B0F1A04F0594CDE9E5
:1075A00003440294019401D006B0B0BD43F6300507
:1075B0000094C4F20205286801A940F00100286087
:1075C000286800F00100009000984FF4C05001902E
:1075D0000220CDE90204032004900A200590002037
:1075E000C4F20200FEF7BEFE6868032140F080008E
:1075F000686000946869032240F4804068616869AB
:1076000000F48040009000984320FFF725F84320C5
:10761000FFF710F806B0B0BD10B50446C07928B128
:10762000022801D0FDF710FB012100E00021D4F871
:10763000E00405F0D3F8D4F8E004BDE8104005F00C
:1076400081B80000D0F8E00405F0AEB8D0F8E0044E
:1076500005F0B4B890F89424012A04BF02207047C2
:1076600010B5012280F89424417402680446104643
:1076700006F052FD002084F8940410BDD0F8E024F8
:1076800000F29C41104605F0BFB8000010B504465A
:1076900090F89404012804BF022010BD2068012145
:1076A00084F89414C168490606D5617B012903D189
:1076B000816B41F48031816306F07CFA206805F02B
:1076C000D7FD002084F8940410BD000010B50446D6
:1076D000D0F8E00405F0EEF82068D0F8001E41F084
:1076E0000101C0F8001EE07A002808BF10BD4EF668
:1076F0001050CEF20000016841F00601016010BD9B
:10770000002804BF012070472DE9F04143F6080826
:10771000C4F202080446D8F8F8030D4600F007004A
:10772000884207D288F8F853D8F8F80300F0070029
:10773000A84277D12068810717D5410705D5D8F829
:10774000001041F4E051C8F80010010705D5D8F841
:10775000001041F46041C8F80010D8F80010A26889
:1077600021F0F0011143C8F80010C00740D1D8F84B
:10777000F80300F00700A84207D988F8F853D8F8B2
:10778000F80300F00700A8424CD12068410707D554
:10779000D8F80010E26821F4E0511143C8F8001055
:1077A000000708D5D8F80000216920F4604040EABD
:1077B000C100C8F8000000F083F8D8F8001043F6C4
:1077C000FC22C1F30311C0F60102515C40F2300209
:1077D00020FA01F140F20800C2F200000068C2F293
:1077E00000021160FEF7E4FE0020BDE8F08100BF5A
:1077F0006068811E022907D258F8081C89015CBF05
:107800000120BDE8F08111E0012807D158F8081CDB
:1078100089035CBF0120BDE8F08107E058F8081C2F
:10782000890703D40120BDE8F08100BFD8F800101B
:1078300021F003010843C8F80000FEF771FE064678
:1078400041F28837D8F80000616800F00C00B0EB16
:10785000810F8CD0FEF764FE801BB842F2D9032062
:10786000BDE8F08140F23000C2F2000000687047CD
:1078700040F2300043F60801C2F20000C4F20201F7
:107880000068096843F60C32C1F38221C0F6010298
:10789000515CC8407047000040F2300043F60801D8
:1078A000C2F20000C4F202010068096843F60C321B
:1078B000C1F34231C0F60102515CC840704700007C
:1078C00010B543F60404C4F20204606800F00C0032
:1078D00008280BD0042819BF42F20040C0F2F4007F
:1078E00047F64000C0F27D1010BD00BF206821683F
:1078F0002368490247F64001C0F27D1100F03F02C3
:10790000C3F388105CBF42F20041C0F2F401A1FB56
:1079100000010023FCF754FC21680222C1F301415D
:1079200002EB4101B0FBF1F010BD0000002804BFE4
:10793000012070472DE9F04182B00446007843F6FB
:107940000006C007C4F202060CD0B06800F00C00BC
:10795000042840F081803068800303D560680028E7
:1079600000F06881207880071BD5B06810F00C0FFC
:1079700009D0B06800F00C00082840F087807068DB
:10798000400200F183803068800703D5E068012859
:1079900040F050813068216920F0F80040EAC100D1
:1079A00030602078000713D4207840072AD4A569D6
:1079B000002D00F03A81B06800F00C00082840F07B
:1079C000A580012D40F00E81012002B0BDE8F081BC
:1079D0006069002800F082800020C4F24720012165
:1079E000C0F8801EFEF79CFD054600BF706F800743
:1079F000DAD4FEF795FD401B0228F7D9032002B028
:107A0000BDE8F081306C5FEAC0080AD40020019024
:107A1000306C40F080503064306C00F08050019049
:107A2000019847F20007C4F200073868C00547D440
:107A3000386840F480703860FEF772FD054600BF7C
:107A40003868C0053CD4FEF76BFD401B0228F7D90F
:107A5000032002B0BDE8F081B06800F00C000828F7
:107A600003D1706840023FF576AF61683068B1F5C8
:107A7000803F07D0B1F5A02F40F09A8040F48020DD
:107A80003060306840F4803030609AE0E068002870
:107A900040F20000C4F247205CD001210160FEF7F3
:107AA0003FFD0546306880073FF574AFFEF738FDAF
:107AB000401B0228F6D9032002B0BDE8F08100BFC8
:107AC000A168306F012905D0052955D140F0040087
:107AD0003067306F40F00100306756E00020C4F29C
:107AE00047200021C0F8801EFEF71AFD054600BFA2
:107AF000706F80077FF558AFFEF712FD401B02281C
:107B0000F6D9032002B0BDE8F08100BF0027C4F21F
:107B1000472700203866FEF703FD022D05460DD1EC
:107B20003068800140F18A80FEF7FAFC401B022891
:107B30004FF00300F4D902B0BDE8F0813068800155
:107B400073D5FEF7EDFC401B02284FF00300F5D97A
:107B5000F1E700BF00210160FEF7E2FC054600BF2F
:107B6000306880077FF51DAFFEF7DAFC401B022866
:107B70004FF00300F4D9DEE720F001003067306FEA
:107B8000002920F0040030677AD0FEF7C9FC0546D2
:107B900041F28837306F800700F18480FEF7C0FC27
:107BA000401BB842F6D9032002B0BDE8F08100BF07
:107BB00020F4803030603068002920F4802030606C
:107BC0007AD0FEF7ADFC0546306880033FF5CAAEBB
:107BD000FEF7A6FC401B6428F6D9032002B0BDE8DE
:107BE000F08100BF7068E16900F480028A4221D10F
:107BF000216A00F03F028A421CD147F6C071626AD6
:107C00000140B1EB821F15D1A16A4FF6FF73C90382
:107C1000994300F44032A1F580318A420AD1E16AE9
:107C200000F07060B0EB016F04D1002002B0BDE83D
:107C3000F08100BF012002B0BDE8F08104F11C0515
:107C40002FCD084340EA8210D9034FF6FF729143CB
:107C5000A1F5803140EA0560084370600120386674
:107C6000FEF75EFC044600BF30688001DDD4FEF7FD
:107C700057FC001B02284FF00300F5D95BE700BF5B
:107C8000FEF74EFC054641F2883700BF306F800793
:107C900008D5FEF745FC401BB8424FF00300F5D96C
:107CA00049E700BFB8F1000F3FF581AE306C20F01E
:107CB000805030647BE600BFFEF732FC054600BF13
:107CC000306880037FF54EAEFEF72AFC401B642827
:107CD0004FF00300F4D92EE710B584B040F2300124
:107CE000C2F20001096841F6F112C0F27652A1FB1E
:107CF0000212510A642251430291029904460391EF
:107D00000168486820F0200048604868000607D4F1
:107D10004868400637D44868800768D49CE000BFB4
:107D20004AF66D60C0F600006064039810B30398D3
:107D30000138039094F8510007281FD00398C8B168
:107D400003980138039094F85100072816D003983F
:107D500080B103980138039094F8510007280DD0A2
:107D6000039838B103980138039094F8510007281C
:107D7000DBD103E0606D40F0400060650298039045
:107D800048684006C7D54AF6D150C0F600002064C6
:107D9000039818B303980138039094F8510007280A
:107DA00020D00398D0B103980138039094F8510083
:107DB000072817D0039888B103980138039094F8E6
:107DC000510007280ED0039840B103980138039062
:107DD00094F851000728DBD104E000BF606D40F04B
:107DE00040006065029803904868800734D5A06C15
:107DF00090B300210165FDF70BFF00281CBF402058
:107E000060652168486820F0020048600398F8B176
:107E1000039801380390886880071DD40398B8B18F
:107E20000398013803908868800715D4039878B1C7
:107E3000039801380390886880070DD4039838B1FF
:107E400003980138039088688007DFD504E000BFFD
:107E5000606D40F0400060654868C00712D0E06C7B
:107E600080B100210165FDF7D3FE00281CBF402032
:107E700060652168086820F040000860486820F0CC
:107E8000010048600023E387E386606D4FF0010C3A
:107E900040284FF001001CBF636500200193CA68B1
:107EA00001928A680192019A01938968019101996E
:107EB00084F851C004B010BD41F62041C2F2000167
:107EC000884218BF704710B582B00020C4F202008B
:107ED0004FF400410122FEF71DFB41F62044C2F29F
:107EE0000004204600F01EF8012805D041F620408D
:107EF000C2F20000FFF7F0FE002001902168CA687E
:107F000001928A680192019A009089680091009913
:107F100040F2AC31C2F200010876086202B0BDE85E
:107F20001040704790F8510070470000B0B582B023
:107F300001684A688B6803F04105012D08D112F0F1
:107F4000400505D0016C02B0BDE8B040084700BF55
:107F50009D0707D512F0800504D0416C02B0BDE842
:107F6000B040084713F4B07F18BF12F0200501D1CC
:107F700002B0B0BD5D0618D590F85150032D09D15F
:107F800000200190C868019088680190019802B0B3
:107F9000B0BD00BF456D45F0040545650025019560
:107FA000CD6801958D680195019D9D0604D4DB0582
:107FB00011D4436DDBB9DBE7456D45F0010545653F
:107FC000002501958D6801950D6825F040050D602F
:107FD000019DDB05EDD5436D43F0080343650023A8
:107FE00001938B680193019B436D002BC0D04B68BC
:107FF000920723F0E0034B604FF0010380F851300B
:1080000026D04A684AF6896422F003024A60C16CAD
:10801000C0F6000459B1054608460C65FDF740FE60
:108020000146284619B1416D41F040014165816C1E
:1080300000299DD00C6504460846FDF731FE002856
:1080400096D0606D40F04000606502B0B0BD00BFEA
:1080500002B0BDE8B040FFF72FBF000070B528B1F7
:10806000416A29B100210161142106E0012070BD9F
:108070004168B1F5827F02D01C21002242500026C7
:10808000866290F8511029B980F85060054600F0DA
:108090003DF82846022180F8511090E82E0002F4A5
:1080A00082720C6803F4044324F040040C601A4408
:1080B00005F4006305691A4405F0020345691A4492
:1080C00005F001038569C4691A4405F400731A4474
:1080D00004F03803046A1A4404F08003846A1A43E3
:1080E00004F400531A430A60436A042202EA154268
:1080F00003F010031A444A60CA6922F40062CA619C
:108100000121466580F85110304670BD2DE9F04FD1
:1081100087B00446006843F60041C4F2000100271E
:108120008842CDE90577CDE90377029734D043F64D
:108130000001C4F20001884240F0AB80002043F609
:1081400030010190C4F202010A6942F480420A61DE
:108150000A6902F480420192019A01900A6842F091
:1081600002020A60096801F00201019101994FF4CD
:10817000604102910221CDE903100520069040F6EE
:108180000000C4F202000591A0F5806002A9FEF78C
:10819000E9F807B0BDE8F08F43F630000197C4F26C
:1081A0000200016940F6000B41F4004101610169E0
:1081B000C4F2020B01F40041019101990197016899
:1081C00002AE41F00401016000684FF0020A00F0C5
:1081D0000400019001984FF4A050029001254FF047
:1081E000060858463146CDE903A70595CDF8188015
:1081F000FEF7B8F84FF40069CDF8188046F2100881
:1082000058463146CDE9029ACDE90455C4F2020838
:10821000FEF7A8F841F2B045C2F200054FF4806BBA
:108220004FF4005A4FF400362846C5E90087C5E9E7
:108230000277C5E904B9C5E906A7C5E90867FDF7EE
:1082400023FE002818BFFCF7FFFCE564AC6341F295
:10825000105508F17800C2F200050021402285E89F
:1082600007002846C5E9031BC5E9059AE961C5E988
:108270000861FDF709FE002818BFFCF7E5FC332074
:1082800002210222A564AC63FEF7E6F93320FEF773
:10829000D1F907B0BDE8F08F2DE9F04182B0044676
:1082A00090F8510001281AD100294FF0010018BFA1
:1082B000002A03D102B0BDE8F08100BF60681D460E
:1082C0001746B0F5827F03D1A068002800F0BC807B
:1082D0000E46FEF725F994F85010012904D102202A
:1082E00002B0BDE8F08100BF8046012084F8500054
:1082F0000420002184F851006165A663A787E78701
:108300002163A186E186A2682068B2F5004F21644E
:10831000616437D0016849063FD5E168E08F0029E4
:1083200043D000287AD0681C0BD11AE0C068A16B3A
:1083300021F8020BA163E08F0138E087E08F00286D
:108340006CD020688168C907F0D1FEF7E9F8A0EB8E
:108350000800A842F2D342E0FEF7E2F8E08F0028DE
:108360005CD020688168C907F6D0C068A16B21F88D
:10837000020BA163E08F0138E087E08F0028F0D185
:108380004CE000BF016821F040010160016821F468
:108390008041016001684906BFD4016841F0400195
:1083A0000160E168E08F0029BBD1B8B3681C0CD133
:1083B00024E000BF007BA16B0870A06B0130A063BC
:1083C000E08F0138E087E08F40B320688168C907FB
:1083D000F0D1FEF7A5F8A0EB0800A842F3D30120E6
:1083E00084F85100002084F85000032002B0BDE85A
:1083F000F08100BFFEF794F8E08F78B120688168C3
:10840000C907F7D0007BA16B0870A06B0130A06397
:10841000E08F0138E087E08F0028EFD16068B0F589
:10842000827F0ED1A068B0F5004F02D0B0F5806F0A
:1084300016D12168B0F5806F0A6822F040020A6008
:108440000ED1204601210DE0042084F85100204681
:108450000A463B46009500F061F902B0BDE8F081A4
:108460002046802100222B46CDF8008002F002FE3B
:1084700028B1606D40F0200060652020606501201B
:1084800084F85100002084F85000606D002818BF67
:10849000012002B0BDE8F081704700007047000085
:1084A0002DE9F04184B01D4616460F460446FEF7FE
:1084B00037F894F8511001290ED18046002F4FF063
:1084C000010018BF002E03D104B0BDE8F08100BF49
:1084D00094F85000012803D1022004B0BDE8F081D7
:1084E000012084F850000320002184F851006165C8
:1084F0002763A686E686A163A187E187A068216439
:10850000B0F5004F2068616407D1016821F0400197
:108510000160016841F4804101600168490603D4AB
:10852000016841F0400101606168731EE268B1FAC0
:1085300081F1B3FA83F349095B09B2F5006F41EAAF
:10854000030139D131B137F8021BC1602763E08ED6
:108550000138E086E08E002870D0681C0BD11AE04C
:10856000216B31F8022BC2602163E08E0138E08676
:10857000E08E002862D0206881688907F0D4FDF77A
:10858000CFFFA0EB0800A842F2D338E0FDF7C8FF08
:10859000E08E002852D0206881688907F6D5216BCB
:1085A00031F8022BC2602163E08E0138E086E08E54
:1085B0000028F0D142E000BF39B139780173206B57
:1085C00001302063E08E0138E086E08EB0B3681C95
:1085D0000BD123E0216B09780173206B01302063FC
:1085E000E08E0138E086E08E40B32068816889071C
:1085F000F0D4FDF795FFA0EB0800A842F3D30120CB
:1086000084F85100002084F85000032004B0BDE835
:10861000F08100BFFDF784FFE08E78B120688168AB
:108620008907F7D5216B09780173206B013020632E
:10863000E08E0138E086E08E0028EFD1204602214E
:1086400001222B46CDF8008002F014FDE0B1606DF0
:1086500040F02000606520206065A06838B90020E7
:1086600002902068C16802918068029002980120FF
:1086700084F85100002084F85000606D002818BF75
:10868000012004B0BDE8F08140F23000C2F20000E9
:10869000006849F68171C1F25E61A0FB0101480DDD
:1086A0004FF47A71484303906068B0F5827F0BD134
:1086B0002046802100222B46CDF8008002F0DAFC13
:1086C0000028C4D1C9E700BF03980028C5D003988B
:1086D00001380390206880680006BED50398002802
:1086E000BBD0039801380390206880680006B4D599
:1086F00003980028B1D0039801380390206880685F
:108700000006AAD503980028A7D003980138039043
:10871000206880680006D7D49FE700002DE9F04369
:1087200083B01E4615460F460446FDF7F9FE94F841
:1087300051108146012909D1002F4FF0010018BFC7
:10874000002D0FD103B0BDE8F08300BF6068B0F525
:10875000827F0DD104294FF00200F3D1A1680029D6
:10876000EAD0EFE7002EEDD094F85000012803D1B5
:10877000022003B0BDE8F083012084F8500094F893
:108780005100002104281CBF052084F851006165B8
:10879000A563E687A6872763E6862068A686216408
:1087A00061640168490603D4016841F04001016039
:1087B0006168731EE268B1FA81F1B3FA83F3DDF800
:1087C000288049095B09B2F5006F41EA030165D1D0
:1087D00031B137F8021BC1602763E08E0138E086B3
:1087E000012518F1010032D102E000BFFDF798FE2B
:1087F000E08E18B9E08F002800F0B880206881680A
:1088000089070CD5E18E51B1012D08D1216B0025CE
:1088100031F8022BC2602163E18E0139E186816863
:10882000C907E3D0E18F0029E0D0C068A16B012522
:1088300021F8020BA163E08F0138E087D6E700BF83
:10884000FDF76EFEA0EB0900404580F0A580E08EAC
:1088500018B9E08F002800F08980206881688907B6
:108860000CD5E18E51B1012D08D1216B002531F8D5
:10887000022BC2602163E18E0139E1868168C9075C
:10888000DED0E18F0029DBD0C068A16B012521F883
:10889000020BA163E08F0138E087D1E739B1397865
:1088A0000173206B01302063E08E0138E0860125E2
:1088B00018F1010032D101E0FDF732FEE08E10B96F
:1088C000E08F002852D02068816889070ED5E18E9C
:1088D00061B1012D0AD1216B002509780173216B4B
:1088E000206801312163E18E0139E1868168C90781
:1088F000E2D0E18F0029DFD0C068A16B01250870AC
:10890000A06B0130A063E08F0138E087D4E700BF9F
:10891000FDF706FEA0EB090040453DD2E08E08B908
:10892000E08F18B32068816889070ED5E18E61B1A8
:10893000012D0AD1216B002509780173216B206874
:1089400001312163E18E0139E1868168C907DFD0F9
:10895000E18F0029DCD0C068A16B01250870A06BF5
:108960000130A063E08F0138E087D1E72046022183
:1089700001224346CDF8009002F07CFBB0B1606D5F
:1089800040F02000606520206065002084F85000E1
:10899000012003B0BDE8F083012084F851000020DD
:1089A00084F85000032003B0BDE8F08340F23000AB
:1089B000C2F20000006849F68171C1F25E61A0FB5D
:1089C0000101480D4FF47A71484302906068B0F598
:1089D000827F0BD12046802100224346CDF80090B3
:1089E00002F048FB0028CAD124E000BF029808B377
:1089F0000298013802902068806800061AD5029813
:108A0000C0B102980138029020688068000611D534
:108A1000029878B1029801380290206880680006B8
:108A200008D5029830B10298013802902068806819
:108A30000006DBD4A06838B9002001902068C16826
:108A40000191806801900198012084F85100002074
:108A500084F85000606D002818BF012003B0BDE805
:108A6000F083000070B590F85150012D08D1002915
:108A70004FF0010C18BF002A0ED1604670BD00BF38
:108A80004468B4F5827F0DD1042D4FF0020CF4D16F
:108A90008568002DEBD0F0E7002BEED090F8505019
:108AA000012D01D1022070BD012580F8505090F8B1
:108AB00051500024042D1CBF052580F851504465F9
:108AC00001638386C38682638387C387C0E91044BA
:108AD00090F851104AF6B5634AF6BD66C0F6000339
:108AE000C0F600060568D0F84CC0042908BF1E4631
:108AF0004AF6C5614AF67173C0F60001C0F600037C
:108B000008BF0B464AF69561C0F60001CCE90F3666
:108B1000CCE91314C38F064605F10C016046FDF73E
:108B200065FA38B1706D40F010007065012086F86C
:108B3000504070BD3568316BB06C6B6805F10C024C
:108B400043F001036B60C0E90F44C0E91344F38EA6
:108B5000FDF74CFA40B1706D40F0100070650020D8
:108B600086F85000012070BD30683546016849061E
:108B700003D4016841F0400101604FF0000C85F81A
:108B800050C0416841F020014160416841F002015C
:108B90004160604670BD000041F62041C2F2000114
:108BA000884218BF704770B582B00024C4F2020436
:108BB00020464FF400410122FDF7ACFC40F2AC35F9
:108BC000C2F20005287E012846D10220287641F60F
:108BD0002040C2F20000FFF7A5F9012814D1204679
:108BE0004FF400410022FDF795FC41F6204040F291
:108BF000C22105F10802C2F20000C2F20001022304
:108C00000226FFF72FFFB8B320464FF400410122A0
:108C1000FDF780FC41F62044C2F200042046FFF735
:108C200081F9012805D041F62040C2F20000FFF78B
:108C300053F8002001902168CA6801928A68019265
:108C4000019A01908968019101992876286202B001
:108C5000BDE87040704700BF287E0228F7D172B689
:108C6000A888E8802889688162B60320287602B047
:108C7000BDE87040704700BF2E7602B0BDE870407E
:108C80007047000070470000411E0020B0EB116FDC
:108C90001CBF012070474EF21002CEF2000251605C
:108CA0004EF62351CEF20001F0230B7007219060A5
:108CB00011607047704700007047000090F83C203A
:108CC000012A04BF02207047B0B501F108053CCD70
:108CD000D1E900CE23F47C5322F470521A432EF4CF
:108CE000F0431A432CF4E0431A4324F4C0431A43DC
:108CF0002A43C96922F48042036811435964002160
:108D000080F83C100020B0BD90F83C20012A4FF0C4
:108D1000020254D010B580F83D200268D2F804E079
:108D2000D2F808C00C682EF07003234341F2FF74A0
:108D3000C4F20004A24253600EDC40F2FF73C4F29E
:108D400000039A4216DCB2F1804F2BD040F2004370
:108D5000C4F2000324E000BF40F2FF33C4F2010379
:108D60009A4213DC41F60003C4F200039A4219D080
:108D7000002313E040F60003C4F200039A4211D02E
:108D800040F60043C4F200030AE000BF44F20003CF
:108D9000C4F201039A4205D040F20043C4F2010339
:108DA0009A4204D149682CF0800319439160012153
:108DB000002280F83D1080F83C20BDE810401046AD
:108DC00070470000C1B1042908D0082914BF45220A
:108DD0004422825C012A05D016E000BF4322825C57
:108DE000012A11D10222082910D0042914BF80F8C9
:108DF000452080F843200BE090F84220012A03D15F
:108E0000022280F8422003E00120704780F84420CD
:108E1000006801F00F010422036A02FA01F123EA5B
:108E200001020262026A11430162416C41F2FF7267
:108E3000C4F2000241F40041904241640EDC40F271
:108E4000FF71C4F20001884216DCB0F1804F2BD0D4
:108E500040F20041C4F2000124E000BF40F2FF31C3
:108E6000C4F20101884213DC41F60001C4F20001A2
:108E7000884219D0002113E040F60001C4F200013D
:108E8000884211D040F60041C4F200010AE000BF60
:108E900044F20001C4F20101884205D040F20041D1
:108EA000C4F20101884206D1816801F00701062958
:108EB00004BF00207047016841F0010101600020FB
:108EC0007047000010B5026801F00F0E4FF0040C5F
:108ED000146A0CFA0EF324EA03031362136A136292
:108EE000146A41F211131C4206D1D2F820C040F29C
:108EF00044441CEA040F0DD0146A1C4211D1136AB9
:108F000040F2444423420CD1136823F00103136060
:108F100007E000BF546C24F400445464146A1C42FB
:108F2000EDD0082912D004290AD000294FF0010100
:108F300014BF80F8451080F84210002010BD00BF1B
:108F4000012180F84310002010BD00BF012180F8EE
:108F50004410002010BD0000002804BF012070470D
:108F600010B5044690F83D0028B9002084F83C0074
:108F7000204600F01FF8022084F83D002068211DE3
:108F800002F0ACF9012084F8460084F83E0084F831
:108F90003F0084F8400084F8410084F8420084F8DF
:108FA000430084F8440084F8450084F83D00002024
:108FB00010BD00002DE9F04182B0016840F200428E
:108FC000C4F2010291423DD040F60002C4F2000218
:108FD000914233D18046002043F640010190C4F213
:108FE00002010A6841F2705442F004020A60096802
:108FF000C2F2000401F004010191019946F2580106
:10900000C4F202014FF08062402384E80E0004F1B4
:109010000C014FF480654FF480564FF48047E1C156
:10902000C4E9070060622046FCF72EFF002818BF45
:10903000FBF70AFEC8F82840C4F8388002B0BDE843
:10904000F08100BF0020009043F64000C4F202000F
:109050004168002241F0020141604068002100F0B7
:109060000200009000982C20FDF7F6FA2C2002B0A8
:10907000BDE8F041FDF7DEBA90F83D1001291CBFB4
:1090800001207047022180F83D10006841F2FF7214
:10909000C168C4F20002904241F00101C1600DDCE0
:1090A00040F2FF71C4F20001884215DCB0F1804F3C
:1090B0002AD040F20041C4F2000123E040F2FF3127
:1090C000C4F20101884213DC41F60001C4F2000140
:1090D000884219D0002113E040F60001C4F20001DB
:1090E000884211D040F60041C4F200010AE000BFFE
:1090F00044F20001C4F20101884205D040F200416F
:10910000C4F20101884206D1816801F007010629F5
:1091100004BF00207047016841F001010160002098
:109120007047000090F83C20012A4FF002026CD0FA
:1091300080B580F83D20D0F800C04FF67772DCF89B
:10914000083023EA0202CCF808200B684F2B29DCF8
:109150001F2B45DD202B46D0302B44D0402B40F038
:10916000AF80D1F804E0C968DCF82030DCF82020BA
:1091700022F00102CCF82020DCF8182022F0F002C6
:1091800042EA011123F00A0242EA0E02CCF818105A
:10919000CCF82020DCF8081041F0470121F0300124
:1091A00028E000BF6F2B33DDB3F5005F74D0B3F55B
:1091B000805F21D0702B40F08380D1E901E3C96842
:1091C000DCF8082043EA0E0322F47F4243EA01213F
:1091D0001143CCF80810DCF8081041F0770109E0E1
:1091E0000BB1102B6CD1DCF8081021F07001194381
:1091F00041F00701CCF808100022012180F83D1051
:10920000002180F83C10BDE880401046704700BF48
:10921000502B21D0602B53D1D1F804E0C968DCF881
:109220002030DCF8202022F01002CCF82020DCF8DE
:10923000182022F4704242EA013123F0A00242EAEF
:109240000E12CCF81810CCF82020DCF8081041F0F1
:10925000670121F01001CDE7D1F804E0C968DCF81E
:109260002030DCF8202022F00102CCF82020DCF8AD
:10927000182022F0F00242EA011123F00A0242EA29
:109280000E02CCF81810CCF82020DCF8081041F0C1
:10929000570121F02001ADE7D1E901E3C968DCF80D
:1092A000082043EA0E0322F47F4243EA01211143DE
:1092B000CCF80810DCF8081041F480419AE700BFB0
:1092C00001229AE7704700007047000070B504461D
:1092D0000068C5680669B10716D515F0020113D0FC
:1092E0006FF002010161012121778069800703D0BD
:1092F0002046FFF7E9FF05E0204600F00FF9204681
:1093000000F04EFA00202077700719D515F0040000
:1093100016D020686FF00401016102212177806975
:1093200010F4407F04D02046FFF7CEFF06E000BFD8
:10933000204600F0F3F8204600F032FA00202077B3
:10934000300717D515F0080014D020686FF0080119
:10935000016104212177C069800703D02046FFF70F
:10936000B3FF05E0204600F0D9F8204600F018FAD7
:1093700000202077F00619D515F0100016D02068CF
:109380006FF01001016108212177C06910F4407F5E
:1093900004D02046FFF798FF06E000BF204600F00B
:1093A000BDF8204600F0FCF900202077F00718BF38
:1093B00015F0010002D1300609D412E020686FF0E8
:1093C00001010161204600F079FC300609D515F055
:1093D000800006D020686FF0800101612046FFF711
:1093E00069FC700609D515F0400006D020686FF0C2
:1093F00040010161204600F085FCB00658BF70BDF9
:1094000015F0200008D021686FF0200220460A6184
:10941000BDE87040FFF750BC70BD00002DE9F04181
:1094200086B0006840F20041C4F201010026884283
:10943000CDE90466CDE90266019621D040F600012F
:10944000C4F20001884265D1002043F6300100904B
:10945000C4F202010A6842F002020A60096801F0DF
:10946000020100910099802101910221CDE90210B1
:10947000CDE9040140F20040C4F2020047E000BF21
:1094800043F630000096C4F20200016840F2004446
:1094900041F0010101600168C4F2020401F0010120
:1094A000009100990096016801AD41F00201016050
:1094B00001684FF0020801F0020100910099009646
:1094C0000168032741F0040101600068294600F0AB
:1094D00004000090009880200190A4F58060CDE900
:1094E000028604960597FCF73DFF20462946CDE904
:1094F0000178CDE903660597FCF734FF4FF4E0707F
:10950000CDE9010804F58060CDE90366059701A95E
:10951000FCF728FF06B0BDE8F081000070470000AE
:1095200090F83C30012B04BF022070474FEAB20292
:10953000032A00F2FF802DE9F043DFE802F003B1D7
:109540003F7F00BF036840F200461C6A1A6A24F09D
:10955000020422F001021A621A46D3F804C052F83B
:1095600018EF8F6843F48065C4F20106B54244EAFF
:10957000070405D1CF6824F00C0427F004073C430E
:109580000F68B54206D1D1E905582CF440762E4338
:1095900046EA080C2EF073063743C3F804C09F61F7
:1095A0004F6809695F631C629F6947F008079F6104
:1095B0009F6927F004079F61B1E000BF036840F294
:1095C00000481C6A1A6A24F4007422F480721A6239
:1095D0001A46D3F804C052F81CEF8F6843F4806534
:1095E000C4F20108454544EA072408D1CF6840F297
:1095F000FF463F0224F4406427EA06063443D1F8CC
:109600000090454506D1D1E905562CF440572E432C
:1096100047EA061C2EF0730747EA0907C3F804C09F
:10962000DF614F680969DF631C62DF6947F0080783
:10963000DF61DF6927F00407DF6170E0036840F253
:109640000045D3F820C01A6A43F4806722F48052A0
:109650001A621A465C6852F81C8FD1F800E08E68D6
:10966000C4F20105AF4204D14D6924F4804444EAB8
:1096700085142CF4005747EA063728F4E64646EAF4
:109680000E265C60DE614E6809691E641F62DF6938
:1096900047F40067DF61DF6927F48067DF613DE041
:1096A000036840F200481C6A1A6A24F0200422F081
:1096B00010021A621A46D3F804C052F818EF8F68E5
:1096C00043F48065C4F20108454544EA071407D114
:1096D000CF686FF0400624F0C00406EA0716344352
:1096E000D1F80090454506D1D1E905562CF44067E4
:1096F0002E4347EA860C2EF4E64747EA0927C3F8CB
:1097000004C09F614F6809699F631C629F6947F4A9
:1097100000679F619F6927F480679F610902136852
:10972000194311600021BDE8F043002280F83C207D
:10973000084670470121002280F83C200846704707
:10974000002804BF0120704710B5044690F83D0082
:1097500028B9002084F83C00204600F01FF80220C1
:1097600084F83D002068211D01F0B8FD012084F837
:10977000460084F83E0084F83F0084F8400084F8F6
:10978000410084F8420084F8430084F8440084F8DF
:10979000450084F83D00002010BD00007047000027
:1097A00041F67842C2F2000201681268914218BF85
:1097B000704740F22022C2F20002012304211370FC
:1097C00000F01EBA70470000C1B1042908D0082972
:1097D00014BF41224022825C012A05D016E000BF5E
:1097E0003F22825C012A11D10222082910D00429CB
:1097F00014BF80F8412080F83F200BE090F83E2015
:10980000012A03D1022280F83E2003E001207047A4
:1098100080F84020006801F01F010122036A02FA6B
:1098200001F123EA01020262026A114341F2FF726E
:10983000C4F20002904201620CDC40F2FF71C4F2FB
:109840000001884214DCB0F1804F37D040F2004173
:1098500016E000BF40F2FF31C4F20101884215DC7E
:1098600041F60001C4F20001884227D0002115E032
:1098700040F60001C4F2000188421FD040F60041CA
:10988000C4F20001884219D01FE000BF44F2000179
:10989000C4F20101884211D040F20041C4F201013A
:1098A000884212D1416C40F2004340F48062C4F21D
:1098B000010341F400419A42416406D1816801F0FC
:1098C0000701062904BF00207047016841F001012B
:1098D000016000207047000070B5B9B1412508292A
:1098E00008BF4025042908BF3F25455D022D04BF60
:1098F000022070BD08291BD0042914BF00F14105C6
:1099000000F13F052D78012D0AD016E0054615F827
:109910003E4F022C04BF022070BD2D78012D0CD1CA
:10992000002A4FF0010C18BF002B09D1604670BD12
:1099300000F140052D78012DF2D0012070BD00BF4F
:10994000022569B1082913D0042914BF80F84150B9
:1099500080F83F504FEAB105032D0FD9E6E700BF6D
:1099600080F83E504FEAB105032D07D9DEE700BF6E
:1099700080F840504FEAB105032DD7D80E46DFE8F6
:1099800005F00365234300BF456A4BF21944C0F656
:109990000004EC63456A4BF28544C0F600042C6475
:1099A000456A4BF2BD440168C0F60004EC6405460C
:1099B000406A01F1340C11466246FCF717FB00289F
:1099C000BBD14FF4007161E0C56A4BF21944C0F697
:1099D0000004EC63C56A4BF28544C0F600042C64B5
:1099E000C56A4BF2BD440168C0F60004EC6405464C
:1099F000C06A01F13C0C11466246FCF7F7FA0028F8
:109A00009BD14FF4006141E0056B4BF21944C0F665
:109A10000004EC63056B4BF28544C0F600042C6433
:109A2000056B4BF2BD440168C0F60004EC640546CA
:109A3000006B01F1400C11466246FCF7D7FA002892
:109A40007FF47BAF4FF4805120E000BF856A4BF27A
:109A50001944C0F60004EC63856A4BF28544C0F6F5
:109A600000042C64856A4BF2BD440168C0F6000412
:109A7000EC640546806A01F1380C11466246FCF739
:109A8000B5FA00287FF459AF4FF480612868C268A6
:109A90001143C16006F01F010122036A02FA01F1BD
:109AA00023EA01020262026A114341F2FF72C4F228
:109AB0000002904201620BDC40F2FF71C4F200012F
:109AC000884213DCB0F1804F36D040F2004115E0FF
:109AD00040F2FF31C4F20101884215DC41F6000179
